:020000040800F2
:10000000082F0020C1010008E70E0008C702000801
:10001000E50E0008A9030008E3380008000000000E
:10002000000000000000000000000000BF1B0008EE
:10003000690A00080000000013020008951C00086F
:10004000DB010008DB010008DB010008DB01000820
:10005000DB010008DB010008DB010008DB01000810
:10006000DB010008DB010008DB010008DB01000800
:10007000DB010008DB010008DB010008DB010008F0
:10008000DB010008DB010008DB010008DB010008E0
:10009000DB010008DB010008DB010008DB010008D0
:1000A000DB010008DB010008DB010008DB010008C0
:1000B000DB010008DB010008DB010008DB010008B0
:1000C000DB010008DB010008DB010008DB010008A0
:1000D000DB010008DB010008DB010008DB01000890
:1000E000DB010008DB010008DB010008DB01000880
:1000F000DB010008DB010008DB010008DB01000870
:10010000DB010008DB010008DB010008DB0100085F
:10011000DB010008DB010008DB010008DB0100084F
:10012000DB010008DB010008DB010008DB0100083F
:10013000DB010008DB010008DB010008DB0100082F
:10014000DB010008DB010008DB010008DB0100081F
:10015000DB010008DB010008DB010008DB0100080F
:10016000DB010008DB0100087D0F0008650F0008B7
:10017000DB010008950F0008DB010008DB01000827
:10018000DB010008DB010008DB010008DB010008DF
:10019000DB010008DB010008DB010008DB010008CF
:1001A000DB010008DB010008DB010008DFF80CD0F0
:1001B00000F0B6F8004800479B030008082F002015
:1001C0000648804706480047FEE7FEE7FEE7FEE7F1
:1001D000FEE7FEE7FEE7FEE7FEE7FEE7A91C0008F4
:1001E000AD010008EFF3108072B6704780F31088FD
:1001F00070473A4A1368012B04D04FF00103136093
:10020000374A1060374A116037484FF0805101601B
:100210007047EFF3108272B63048016851B34FF067
:10022000000101602E48016891B1EFF309811EF0D1
:10023000100F08BF21ED108B21E9F00F4FF00004E3
:100240001EF0100F08BF012441F8044D0068016042
:1002500024490968096808C9B1E8F00F002B18BFE4
:10026000B1EC108B81F309884EF0100E002B18BFF3
:100270002EF0100E82F310884EF0040E70471949CC
:100280000860EFF3148222F0040282F31488144908
:100290004FF00000086011494FF00100086013485A
:1002A0004FF47F01D0F8002041EA020101600E48BE
:1002B0004FF0805101600E480068006880F30888A4
:1002C00061B662B67047EFF3098000B503F09CFE9B
:1002D0005DF804EB4EF0040E704700002002002091
:1002E000180200201C02002004ED00E020ED00E0D8
:1002F00008ED00E030B50B46014600202022012425
:1003000009E021FA02F59D4205D303FA02F5491BE3
:1003100004FA02F52844151EA2F10102F1DC30BDF9
:10032000064C074D06E0E06840F0010394E8070042
:1003300098471034AC42F6D3FFF73CFF2453000833
:100340004453000870B58C1810F8015B15F00703D2
:1003500001D110F8013B2A1106D110F8012B03E05E
:1003600010F8016B01F8016B5B1EF9D12B0705D466
:100370000023521E0DD401F8013BFAE710F8013BAF
:10038000CB1A921C03E013F8015B01F8015B521ECB
:10039000F9D5A142D8D3002070BD10B5FFF722FFD8
:1003A00004F080FE002010BDFEE710B50B4603F000
:1003B0007F0202EB82011C0600EBC10102D501F5B0
:1003C0008E7101E001F55D710A70DA094A7003F07F
:1003D0002DF8002010BD10B50A46110602F07F036B
:1003E00006D503EB830100EBC10101F58E7105E039
:1003F00002EB820100EBC10101F55D7100248C70FC
:100400000B70D2094A7002F0F3FF002010BD10B546
:100410000A0604D501F07F0103F05CF901E003F066
:100420003BF9002010BD70B50D4605F07F0404EBCC
:1004300084012E0600EBC10102D501F58E7101E0A9
:1004400001F55D710C70ED094D708A60CB7005B1DE
:10045000CC80022B01D100220A7102F08FFF002014
:1004600070BD10B501F07F0404EB840100EBC10105
:1004700001F55D71CA604B6100238B614B700C709C
:10048000C378012B00D10A610A781AB103F016F87B
:10049000002010BD02F0D1FEFAE7002261F30A123B
:1004A0000069016811430160704710B50A461106E2
:1004B00002F07F0306D503EB830100EBC10101F5D8
:1004C0008E7105E002EB820100EBC10101F55D7167
:1004D00001248C700B70D2094A7002F0CFFF00200B
:1004E00010BD70B501F07F0404EB840100EBC10185
:1004F00001F58E7101254D700C70CA600A610022F1
:100500008A614B61002C03D002F0D8FF002070BD3F
:1005100002F093FEFAE738B50446204602F068FE82
:10052000E068C5680095204603F0F6F80146002013
:10053000032911D00120A0704020A08025F4705024
:1005400000F5A0500090E1680098C8604FF400509A
:10055000E1684861012038BDA0704FF40070A080B0
:1005600025F4705000F510500090ECE7F8B5054602
:10057000002400200090284603F0FDF8064658E0CD
:10058000F00754D0E1B2284600F020FA0090C007EE
:100590001CD0012101FA04F22869436B93434363A1
:1005A000009105EB8400806981602448E1B2006815
:1005B000426828469047E878012807D134B995F871
:1005C0001101042802D1284602F0BCFE0098000761
:1005D00005D50820009005EB8401896988600098A2
:1005E000C00605D51020009005EB8401896988605C
:1005F0000098400605D54020009005EB84018969EC
:1006000088600098800705D50220009005EB8401E2
:10061000896988600098000609D52146284600F0BF
:10062000E3F98020009005EB840189698860641CEF
:100630007608002EA4D10120F8BD0000580000204B
:100640002DE9FC410546002400200190284603F0D6
:1006500098F80646274F47E0F00743D0E1B2284616
:1006600003F095F80190C00726D00121019105EB18
:100670008400426D9160E97801290DD1406D0069D7
:10068000009004EB840105EBC101C0F31200D1F826
:100690007C23101AC1F88C033868E1B2026828463E
:1006A0009047E878012807D134B995F81101052859
:1006B00002D1284602F046FE0198800705D50220A7
:1006C000019005EB8401496D88600198000709D508
:1006D00038688168284688470820019005EB840126
:1006E000496D8860641C7608002EB5D10120BDE8F4
:1006F000FC8100005800002038B50446A07A00288C
:1007000009D0D4F80C0120F0020020F00100009084
:10071000D4F80C1108602069416821F001014160A2
:10072000054800688169204688474FF00040E1682D
:100730004861012038BD0000580000207CB5054606
:1007400010200190E868816921F010018161E8685A
:10075000006A009000F00F0101EB810105EBC1047C
:1007600004F55D74C0F34341072923D2DFE801F0AB
:10077000222204222222160047F6F071084219D0E4
:10078000C0F30A1632462846E16803F008F8E0682C
:100790003044E060A0693044A0610BE0082205F21B
:1007A000CC51284602F0FBFF0099A069C1F30A1161
:1007B0000844A061E868816941F01001816101206D
:1007C0007CBD000010B50446044920460968C9688C
:1007D00088470821E0684161012010BD58000020D1
:1007E0001FB504460020009094F8120100901748AD
:1007F00000684169204688472069806801904FF46D
:1008000000610391E2685161A17AE1B1C0071AD099
:1008100094F81501012816D19DF80000032812D183
:10082000D4F80C01016841F001010160032002903D
:10083000D4F80C01016841F003010160044801682B
:1008400041F00601016004B0012010BD58000020F5
:1008500010ED00E070B586B00446002505950495BE
:10086000039502950095012601962069416821F0C3
:10087000010141600021204602F02CFF0020FF22F0
:1008800006E004EB80018B699A60496D8A60401C28
:1008900061788142F5D821694FF0FF308861ADF869
:1008A0001460ADF8166021690598C86145F008002C
:1008B00040F0010040F00200216948612169C1F85F
:1008C000840045F0010040F0080040F0020021697A
:1008D0000861216948642069016821F4FE610160B2
:1008E000204602F02FFD4FF48050E1684861044833
:1008F000006801692046884706B0012070BD0000ED
:100900005800002070B50446204602F059FF01252A
:1009100084F81251002084F81401002240230DE0D5
:1009200002EB820104EBC10101F58E714D700A707A
:10093000CA80C8708B60C8604861521C617891425F
:10094000EED800220DE002EB820104EBC10101F5BB
:100950005D7148700A70CA80C8708B60C860486159
:10096000521C61789142EED8204602F039FC2046B4
:1009700002F0F5FA0021204602F084FF204602F042
:1009800040FB2046BDE8704002F07EBE10B5044634
:10099000054920460968C96988474FF48011E06815
:1009A0004161012010BD00005800002010B5044630
:1009B000054920460968096A88474FF40011E06834
:1009C0004161012010BD0000580000200269136938
:1009D000526BCA4002F0010243EAC21200EB8100EE
:1009E00080698068104070472DE9F84380460E46C4
:1009F0000020009006EB860008EBC00404F58E741E
:100A0000D4E90501401AA168814200D20846C01C01
:100A10004FEA900908EB8607B8698069009016E0F4
:100A2000D51AA268AA4200D21546E81C4FEA9009DE
:100A3000ABB2F2B24046E16802F03FFFE068284402
:100A4000E060A0692844A061B869806900900098BE
:100A500080B2484505D9D4E90523934201D2002A42
:100A6000DED10120BDE8F8837047000070B586B084
:100A70000121084600F09AFA0121102000F0A4FAA2
:100A8000204E07220A21304600F09EF80722092155
:100A9000304600F099F800248DF8164001208DF8BA
:100AA000170002258DF81450410204918DF815505D
:100AB00004A9304600F04AF88DF8145068020490FA
:100AC00004A9304600F042F84FF4E1300090ADF850
:100AD0000440ADF80640ADF80840ADF80C400C20DD
:100AE000ADF80A00084C6946204601F023F90121BF
:100AF000204601F00BF94021204601F003F906B031
:100B000070BD0000000002400010014010B500F070
:100B100033FF0549884201D1002010BD03A002F037
:100B2000E1FE4FF0FF3010BD1840EF003C3C2D4679
:100B30004C4153482D4552524F522D3E3E20204E9F
:100B40006F2057323551363420210A002DE9F0410B
:100B5000002201274FF0030C07FA02F50B682B4027
:100B6000AB422CD1066853000CFA03F4A64306608E
:100B70000E79D0F800809E4046EA080606600E799D
:100B8000012E01D0022E12D18668A64386604E79CE
:100B9000D0F808809E4046EA080686604668AE4364
:100BA000466045688E799640B6B235434560C56863
:100BB000A543C560CC799C40C3681C43C460521CEB
:100BC000102AC9D3BDE8F08110B54B07DB0E9A405F
:100BD000C90800EB8100016A0F249C40A143016217
:100BE000016A1143016210BD418370472DE9FC4148
:100BF0000121882000F0DAF94FF480650095012189
:100C00008DF8041000208DF806008DF807108DF87F
:100C10000500114F69463846FFF798FF6C000094B5
:100C200069463846FFF792FF6600009669463846E7
:100C3000FFF78CFF0094094F69463846FFF786FF9F
:100C4000054918310D800C800E8021463846FFF78B
:100C5000CBFFBDE8FC810000001C0240000C0240FC
:100C600070B505460E490F4C0A7B002A07D18968EA
:100C700029B1617819B901212846FFF716FC8121B5
:100C80002846FFF712FC6078022807D12846BDE805
:100C900070401F23024A0121FFF7E3BB70BD000033
:100CA0005C2800207000002070B50546234C04F13C
:100CB000200061684160A16881600121284601F03F
:100CC0007BFA1F4E1F280AD11E492068884206D190
:100CD000617B012903D8A27B0AB1102A0BD9607B62
:100CE0002022052100F01AFC022070702846BDE881
:100CF0007040FFF7B5BF114A28460F3200F024FAC2
:100D0000002804DA2846BDE87040FFF7A9BF317813
:100D1000022911D001290FD003290DD072882AB1E0
:100D20002846BDE87040084900F0C0B82846BDE834
:100D30007040002100F09CB870BD00005C280020CD
:100D400070000020555342435C18002010B5094C38
:100D50006278022A08D009060BD5012A09D0BDE81D
:100D60001040012100F084B88121FFF79EFB002094
:100D7000607010BD7000002010B504460E48007869
:100D8000022809D0032801D0042814D12046BDE848
:100D90001040002100F06CB8084800F10F02417BC0
:100DA000204600F0D1F9002805DA2046BDE81040C1
:100DB000012100F05DB810BD700000205C2800200B
:100DC00010B504460D480078002810D0012813D132
:100DD0000B4800F10F02417B204600F0B5F90028D6
:100DE0000ADA2046BDE81040012100F041B8204653
:100DF000BDE81040FFF758BF10BD00007000002094
:100E00005C28002001490020087070477000002015
:100E100010B504460C4A0021117051700B4800684F
:100E200001680020884701212046FFF7F0FA812160
:100E30002046FFF7ECFA20461F23BDE81040044A85
:100E40000121FFF70EBB00007000002064010020AC
:100E50005C280020044900220A7001224A701F23E6
:100E6000024A0121FFF7FDBA700000205C28002033
:100E700010B504460B4A0A4B136011730A4A00214D
:100E800011700D23074A81212046FFF72AFB054AEE
:100E900020461F23203ABDE810400121FFF7E1BAA8
:100EA000555342537C2800207000002030B4134674
:100EB0000A4A92689A4200D31A4693B2074A2032ED
:100EC0009468E41A946000241473054C0422227080
:100ED0000A4630BC8121FFF704BB00005C280020DB
:100EE00070000020FEE7704730B50F23C27801255F
:100EF0000178002A1FD0154A126802F4E062C2F598
:100F0000E062C2F30722C2F10404D3404278A24057
:100F100084781C401443220101F1E02181F800246F
:100F2000007800F01F018D404009800000F1E020B2
:100F3000C0F8005130BD01F01F0085404809800015
:100F400000F1E020C0F8805130BD00000CED00E061
:100F50000249084302490860704700000000FA0592
:100F60000CED00E010B503F0F1F8034801F046FA8B
:100F7000BDE8104003F0F8B82802002010B503F0D7
:100F8000E5F8034801F082FABDE8104003F0ECB840
:100F90002802002010B503F0D9F8034801F0A2FAA6
:100FA000BDE8104003F0E0B828020020054A0029FF
:100FB00003D01168014311607047116881431160CB
:100FC0007047000030380240054A002903D01168FC
:100FD0000143116070471168814311607047000040
:100FE0004438024070B5244B196801F00C01234CC1
:100FF00000291ED0224E04291DD008291DD00460CE
:10100000196801F0F00109091E4A545C0168E140C9
:1010100041601C6804F4E054A40A145D21FA04F44D
:1010200084601B6803F460435B0BD25CD140C160F9
:1010300070BD0460E4E70660E2E70F4A121F116822
:10104000C1F38055116801F03F0135B1B6FBF1F1F4
:101050001468C4F38814614305E0B4FBF1F114682B
:10106000C4F3881461431268C2F30142521C520057
:10107000B1FBF2F10160C3E7083802400024F4003C
:1010800040787D011400002000B51144064A9268A2
:10109000914206D92122052100F040FA4FF0FF309D
:1010A00000BD002000BD0000EC0000204A78D207FF
:1010B00002D00D4A07200CE00C4A00EBC000126879
:1010C000D26902EB80021079401D0979814200D873
:1010D000084607490880074903E0401E80B2135CB8
:1010E0000B540028F9D17047B45100086401002066
:1010F000720000205C18002008200649088006497C
:10110000064A03E0401E80B20B5C13540028F9D15C
:101110007047000072000020C35100085C180020D6
:101120000820064908800649064A03E0401E80B2AE
:101130000B5C13540028F9D17047000072000020A6
:10114000BB5100085C180020034610B50846114644
:101150002B4A53610A78232A3DD00DDC1A2A32D05B
:1011600005DCE2B1032A1ED0122A11D11FE01B2A8E
:1011700021D01E2A0CD122E02A2A38D004DC252ACC
:101180002DD0282A04D12EE02F2A34D05A2A1ED05E
:101190002022052100F0C2F94FF0FF3010BDBDE85C
:1011A000104000F0D7B9BDE8104000F083B9BDE8A9
:1011B0001040FFF77BBFBDE8104000F0C5B9BDE8A7
:1011C000104000F0C1B9BDE81040FFF7A9BFBDE86D
:1011D0001040FFF791BFBDE8104000F033B9BDE803
:1011E000104000F0FBB8BDE8104000F093B8BDE837
:1011F000104000F0F3B9BDE8104000F0D1B9000094
:10120000EC0000202DE9F04107461A4D4FF48050C4
:101210002C69844200D304466968B4FBF1F083B2C0
:10122000E868B0FBF1F214481449006806693846D2
:10123000B047002808DA11220421384600F06EF980
:101240004FF0FF30BDE8F08123460C4A81216869E8
:10125000FFF747F9E8682044E8602869001B286127
:1012600007498A68121B8A6010B906490320087072
:101270000020E7E7EC000020640100205C1800205B
:101280007C280020700000202DE9F04180461D4D93
:101290004FF480562C69B44200D334466968B4FBDD
:1012A000F1F083B2E868B0FBF1F217481749006823
:1012B00047694046B847002808DA0322042140461F
:1012C00000F02CF94FF0FF30BDE8F081E8682044D1
:1012D000E8602869001B28610D498A68121B8A6032
:1012E00050B1B04200D3304683B2084A0121686948
:1012F000FFF7B7F80020E7E700216869FFF7B8FDBE
:10130000F8E70000EC000020640100205C180020D9
:101310007C2800202DE9F04780460C46DFF8A89095
:1013200099F80000002846D1284E4FF0FF37307B57
:10133000000607D4707B2022052100F0EFF8384624
:10134000BDE8F0872248006881684046884730B190
:101350003A220221404600F0E1F83846F0E7607991
:10136000A178227940EA0161E0781A4D000440EA50
:1013700002200143E960207AE27940EA02222A61F0
:101380004046FFF781FE002801DA3846D8E7022000
:1013900089F80000E96868684143E96029694143C8
:1013A0002961B068884206D0707B2022052100F0B8
:1013B000B5F83846C4E708494FF4805008804046E5
:1013C000BDE8F047FFF71EBF700000205C2800203A
:1013D00064010020EC0000207200002010B50446DB
:1013E0001448154A0068111D43682046984738B1D3
:1013F0003A220221204600F091F84FF0FF3010BD54
:101400000D4A0E48121F9168491E0B0E03700B0CFB
:1014100043700B0A8370C17051680A0E02710A0C86
:1014200042710A0A8271C1710549082008800020B2
:1014300010BD000064010020F00000205C180020B6
:10144000720000207CB505460021174C0022625432
:10145000491C89B20C29FAD3144801AA69460068CC
:1014600043682846984738B13A220221284600F0BE
:1014700055F84FF0FF307CBD0820E0700098401E0A
:10148000010E2171010C6171010AA171E07102204C
:1014900020720198010C6172010AA172E072044984
:1014A0000C20088000207CBD5C1800206401002016
:1014B0007200002070B50020144A00231354401C11
:1014C000C0B21228FAD3702010700C20D071104DC9
:1014D00028786C78A0420FD00E4C14F830609670CB
:1014E00004EBC0046679167324795473401CC0B2AF
:1014F0002870042800D12B70074A12201080087928
:10150000122800D81080002070BD00005C18002058
:10151000EC0000208C2800207200002010B5094B40
:10152000074C587804F83010110204EBC0025160E7
:10153000401CC0B25870042801D10020587010BD62
:101540008C280020EC000020014900200880704712
:101550007200002070B505460E484FF0FF348168D8
:10156000002906D0407B20220521FFF7D7FF204627
:1015700070BD0948006881682846884730B13A2222
:1015800002212846FFF7CAFF204670BD034900200C
:10159000088070BD5C2800206401002072000020DB
:1015A00010B549784FF0FF34890705D5242205216D
:1015B000FFF7B4FF204610BD06490A8AC96892B2F7
:1015C000FFF762FD002801DA204610BD0249002025
:1015D000088010BDEC000020720000202DE9F047CB
:1015E00081460C46334F3878002804D04846BDE881
:1015F000F047FFF749BE304E4FF0FF38307B000612
:1016000007D5707B20220521FFF788FF4046BDE803
:10161000F0872A4D286881684846884730B13A22C9
:1016200002214846FFF77AFF4046F0E72868C16884
:101630004846884730B1272202214846FFF76EFF0F
:101640004046E4E76079A1781D4D40EA0161E07809
:101650000204207942EA00200143E960207AE2791D
:1016600040EA02222A614846FFF70EFD002801DA0F
:101670004046CCE7E96868684143E960296941432D
:101680002961B068884206D0707B20220521FFF7CF
:1016900045FF4046BBE7012038700003814200D37C
:1016A00001468BB2074A01216869FEF7DAFE002085
:1016B000ADE70000700000205C28002064010020DD
:1016C000EC0000205C180020002904D0018841F0C3
:1016D000400101807047018821F04001018070477E
:1016E0002DE9F04104460F4615460F484026068076
:1016F000032000F07FF9C7F3074000F07BF9C7F340
:10170000072000F077F9F8B200F074F904E0FF2048
:1017100000F070F904F8010B6D1EADB2F7D202486B
:10172000801E0680BDE8F0811A1402402DE9F047C2
:1017300006460D46E8B24142CFB2140A02F0FF0954
:101740004FF48078002812D0E8B24042C0B205EBD6
:10175000000A34B3D01B80B2040A00F0FF093A46F5
:101760002946304600F0DAF855463E4439E074B96F
:1017700029463046BDE8F04700F0D0B84246294639
:10178000304600F0CBF805F5807506F58076641ECE
:10179000E4B2F3D24A4629463046BDE8F04700F0AD
:1017A000BDB8B9450ED9A9EB0700C4B23A462946DF
:1017B000304600F0B3F85146F0192246BDE8F04734
:1017C00000F0ACB829463046BDE8F04700F0A6B8B6
:1017D00042462946304600F0A1F805F5807506F529
:1017E0008076641EE4B2F3D2B9F1000F06D04A4607
:1017F00029463046BDE8F04700F090B8BDE8F087D4
:101800002DE9F04387B001212020FFF7CFFB012114
:101810000805FFF7D9FBDFF8D490052207214846D9
:10182000FFF7D2F9052208214846FFF7CDF9052236
:1018300009214846FFF7C8F9802000904FF00208C0
:101840008DF8048000248DF8064003208DF80500F3
:101850008DF8074069464846FFF778F94FF48070E5
:10186000009069464846FFF771F94FF400750095FE
:1018700069464846FFF76AF94027009701268DF828
:10188000046069464846FFF761F918481830078038
:10189000ADF808404FF48270ADF80A00ADF80C4086
:1018A000ADF80E80ADF81060ADF81250ADF81440F0
:1018B000ADF816400720ADF818000D4C02A92046DF
:1018C00000F015F901212046FFF7FEFE4FF4FA70F3
:1018D000401E0004000CFBD100F0F0F805A002F05F
:1018E00001F8FFF713F907B0BDE8F08300140240D8
:1018F000005001403C3C2D464C4153482D494E463A
:101900004F2D3E3E20466C61736820696E697420DD
:1019100073756363657373210A0000002DE9F0415C
:1019200005460F46144600F0BBF8124840260680D4
:10193000022000F05FF8C7F3074000F05BF8C7F340
:10194000072000F057F8F8B200F054F8B0008442D5
:1019500005D9044603E0287800F04CF86D1C641E9D
:10196000A4B2F8D20348801E0680BDE8F04100F022
:1019700077B800001A14024070B50D484024048066
:101980009F2000F037F8FF2000F034F80546FF20D4
:1019900000F030F80646FF2000F02CF8014604481D
:1019A000801E0480280440EA0620084370BD000021
:1019B0001A14024070B5044600F072F800F050F8B6
:1019C0000B4840250580202000F014F8C4F30740A0
:1019D00000F010F8C4F3072000F00CF8E0B200F0BB
:1019E00009F80348801E0580BDE8704000F038B853
:1019F0001A1402402DE9F0410746174C4FF4805568
:101A00002560164E08E02068411E216004D200F0D7
:101A10008BF8C0B2BDE8F0810221304600F05CF8DE
:101A20000028F0D03946304600F05FF8256007E026
:101A300021684A1E226003D200F076F8C0B2E9E7BE
:101A40000121304600F048F80028F1D0304600F07F
:101A50004AF8C0B2DEE70000280000200050014034
:101A600070B50D48402505800520FFF7C3FF0B4CDE
:101A7000A8012060FF20FFF7BDFF21684A1E2260F9
:101A800003D2BDE8704000F04FB8C007F2D1024861
:101A9000801E058070BD00001A140240280000203E
:101AA00010B50548402404800620FFF7A3FF024834
:101AB000801E048010BD00001A14024010B50548B5
:101AC00040240480AB20FFF795FF0248801E04806D
:101AD00010BD00001A1402400246002012890A427A
:101AE00000D001207047808970478181704730B5F0
:101AF000028802F441530A884C88CD8822438C889E
:101B00002C4322430C8922434C8922438C89224353
:101B1000CC8922431A430280828B22F400628283A2
:101B2000098A018230BD000010B502A001F0DAFE82
:101B3000002010BD3C3C2D464C4153482D4552528F
:101B40004F522D3E3E205350492054696D656F75AC
:101B500074206572726F72210A0000004FF4805089
:101B600010604FF42060086000207047002070472C
:101B7000FFF746BEFEF7CABF0020704710B5084603
:101B8000114601F5C0614FF6FF7202EA0332090304
:101B9000FFF7A6FD002010BD70B50D461E4602F5EC
:101BA000C06210030446FFF705FF4FF6FF7000EA1E
:101BB000063221462846FFF7B9FD002070BD704768
:101BC0001CB50021019100912E4A106840F480302C
:101BD00010604FF4A043106800F4003000900198AA
:101BE000401C0190009810B901989842F3D11068F8
:101BF000800302D50120009000E0009100980128A8
:101C00003FD120484030016841F0805101601E49B9
:101C1000086840F4404008601A48083003680360D0
:101C2000036843F400430360036843F4A053036074
:101C3000041F164B2360136843F08073136013680E
:101C40009B01FCD50A6842F480320A604A68D203DC
:101C5000FCD50A6842F400320A604A689203FCD557
:101C60000B4A40F205711160016821F00301016027
:101C7000016841F0020101600168C1F3810102299C
:101C8000FAD11CBD003802400070004019604008C5
:101C9000003C024010B502F059FA02F0A5FFBDE881
:101CA000104002F061BA000010B51248016841F41A
:101CB000700101601048016841F0010101600E4AA5
:101CC00000210832116002680C4B1A400260031DAB
:101CD0000B4A1A60026822F48022026006480C3027
:101CE0000160FFF76DFF03494FF000608039086025
:101CF00010BD000088ED00E000380240FFFFF6FE56
:101D0000103000248A05C94301807047002904D09F
:101D1000818941F4005181817047818921F400510A
:101D2000818170470246002012880A4200D00120BB
:101D3000704700007FB504460D46208A20F44051CC
:101D4000E88808432082A08941F20C618843A98871
:101D50002A8911436A8902431143A181A08A20F490
:101D60004071A8890843A0826846FFF73BF91E48E6
:101D7000844202D01D48844201D1039800E00298B9
:101D8000A189090408D500EBC00101EB0010296806
:101D90004900B0FBF1F007E000EBC00101EB0010DF
:101DA00029688900B0FBF1F06422B0FBF2F109016F
:101DB0000B096FF018056B4300EB8300A3891D042A
:101DC0004FF0320307D503EBC000B0FBF2F000F098
:101DD0000700084306E003EB0010B0FBF2F000F050
:101DE0000F00084320817FBD001001400014014016
:101DF000C1F308018180704710B5D0F8E42552681E
:101E00009047002010BD10B5044694F81201022836
:101E100006D0032804D02046BDE8104000F023B8C7
:101E2000488801280CD10020C4F81801D4F8E40532
:101E30008268204690472046BDE8104000F043B835
:101E400010BD10B5002413460A460021FEF709FB19
:101E5000204610BD10B5002413460A460021FEF7A7
:101E600040FB204610BD10B5044680212046FEF7F9
:101E70001CFB00212046FEF718FB2046BDE8104061
:101E800001F060BA70B505460024052085F81101FF
:101E900000231A4619462846FEF7E3FA284601F0C1
:101EA00051FA204670BD10B50024C0F83C21C0F89E
:101EB0003821022380F8113113460A460021FEF72B
:101EC00010FB204610BD70B505460024042085F89F
:101ED000110100231A4619462846FEF702FB284640
:101EE00001F030FA204670BD70B50546002908D0D3
:101EF000D5F8E40542698AB395F81201032845D064
:101F000046E005F58E7495F811010026022833D1BC
:101F1000E169A06881420FD9081AE061E8780128D8
:101F200003D1D4E902100844E060A08BE16882B2DA
:101F30002846FFF78FFF1FE0216AB1FBF0F200FB9C
:101F4000121262B981420AD3606A814207D200222A
:101F500011462846FFF77EFF66620DE015E0D5F8D2
:101F6000E405C16829B195F81201032801D128467A
:101F700088472846FFF786FF95F81601012807D104
:101F8000284600F04BFB85F8166101E02846904793
:101F9000002070BD70B50546002908D0D5F8E405CD
:101FA00082690AB395F8120103282CD02DE005F5BB
:101FB0005D7495F81101032827D1E169A068814279
:101FC00013D9081AE061E878012803D1D4E9021096
:101FD0000844E060E169A068814200D2084682B20C
:101FE0002846E168FFF72DFF0FE0D5F8E405016909
:101FF00029B195F81201032801D1284688472846BF
:10200000FFF761FF01E028469047002070BD0020E7
:1020100070470000CA88012A01D0FFF724BF90F85A
:102020001221022A03D0032A05D0FFF71CBF012288
:102030000349FFF738BF012200F58871FFF733BF6E
:102040006800002038B504460D466888010A082952
:1020500072D2DFE801F09F04152D9F9F6A81D4F8AA
:10206000EC15A0780A68694690470146E888402840
:1020700003D094F8120101287DD1082000907AE065
:10208000D4F8E415A0788A6A694690470146A0789A
:10209000012808D1227A012A05D1D4F8E415CA6AA8
:1020A00069469047014602204870C4F8F01562E086
:1020B000C0B2062834D2DFE800F0030B131B232B39
:1020C000D4F8EC15A0784A6869469047014652E07A
:1020D000D4F8EC15A0788A686946904701464AE032
:1020E000D4F8EC15A078CA6869469047014642E0EA
:1020F000D4F8EC15A0780A696946904701463AE0A1
:10210000D4F8EC15A0784A6969469047014632E058
:10211000D4F8EC15A0788A696946904701462AE010
:1021200029462046FFF79FFE38BDA07828B12946F2
:102130002046FFF798FE38BD2CE0D4F8E4158A6AF3
:10214000694690471649827B0A71C27B4A71007CBE
:1021500088710A2000900EE0A07820B12946204620
:10216000FFF781FEE7E7D4F8E415CA6A69469047AD
:10217000014607204870BDF800000028DBD0EA883F
:10218000002AD8D0824200D9024600922046FFF7AA
:102190008AFED0E729462046FFF765FECBE7000020
:1021A00038010020002102E0491CC9B2401C02781D
:1021B000002AF9D10846704701EB810100EBC1000C
:1021C000B0F88C0380B2704790F81221022A03D035
:1021D000032A01D0FFF747BE06490122CA60D0F8A2
:1021E00018210AB10322CA60024902220C31FFF70A
:1021F0005ABE00006000002070B504460D46164629
:10220000002C16D02046FFF7CDFF022101EB400045
:1022100030802870032102206970002306E0411CF1
:10222000C9B22A54641C481CC0B26B542278002ADC
:10223000F5D170BD2DE9F0410446069F884616464B
:102240001D46204600F05AFE2046FFF7E0FEC4F887
:10225000E455C4F8E875C4F8EC6541462046FEF73D
:1022600051FBD4F8E805006880472046BDE8F041FE
:1022700000F010BE10B5D0F8E415096A88470020B8
:1022800010BD10B5D0F8E415496A8847002010BD8C
:1022900010B5FEF771FD002010BD10B5FEF790FDE2
:1022A000002010BD10B5044681212046FEF77DF8C0
:1022B00001212046FEF779F82046FEF7A3FD002015
:1022C00010BD00002020088000487047AC000020AE
:1022D0002020088000487047CC00002010B504463C
:1022E0002046FFF7DFFF0223402281212046FEF730
:1022F0009AF80223402201212046FEF794F8204656
:10230000FEF786FD002010BD70B505460C46394E1F
:10231000217811F060003CD0202868D16078FE2838
:1023200007D0FF2825D021462846FFF79CFD022034
:1023300070BD6088B8B9E088012814D1080612D5AC
:102340002D48006880698047C1B2317029B10122EF
:1023500028492846FFF7A7FD49E021462846FFF710
:1023600082FD022070BD21462846FFF77CFD022039
:1023700070BD608838B9E08828B9080603D42846BB
:10238000FEF768FD33E021462846FFF76CFD02208A
:1023900070BD617801290ED00A2902D00B2926D1FF
:1023A00006E014490122091D2846FFF77CFD1EE0C6
:1023B000A07830711BE021792846FEF728F82179B2
:1023C0002846FDF7F2FFA188080606D5C9B2022308
:1023D00040222846FEF727F805E0C9B20223402232
:1023E0002846FEF720F821792846FEF7AFFC0020AA
:1023F00070BD0000A40000206401002038B5044630
:102400002069426C416BC1F3400142EAC112E169AB
:10241000896811400091C9070DD0416B21F002017C
:10242000416301200090E16988601748012100683C
:102430004268204690470098800703D5022000900C
:10244000E16988600098000703D508200090E169E1
:1024500088600098C00603D510200090E16988606C
:102460000098400603D540200090E16988600098FC
:10247000000607D501212046FEF7B6FA802000901D
:10248000E1698860012038BD580000201CB5044671
:10249000A16D88682269D2F8842010400190C0079D
:1024A00015D0012001908860E078012809D1A06D45
:1024B00000690090D4F8A413C0F31200081AC4F8FD
:1024C000B40307480121006802682046904701983C
:1024D000800703D502200190A16D886001201CBDFA
:1024E000580000207CB506460024304601F035F93E
:1024F000002849D0304601F039F905460190E8B38B
:10250000280303D53046FEF79BF80446680303D53D
:102510003046FEF72BF80443A80703D502200090AD
:10252000F1684861002D03DA3046FEF7E5F8044310
:10253000280503D53046FEF753F90443280703D591
:102540003046FEF73FF90443E80603D53046FEF770
:10255000F5F80443E80403D53046FEF77BF904435D
:10256000A80403D53046FDF7D6FF0443E80203D59F
:102570003046FEF70BFA0443A80200E006E003D55C
:102580003046FEF713FA044320467CBD00207CBD94
:1025900090F8CC250A7090F8CD254A7090F8CE2599
:1025A00090F8CF3502EB03224A8090F8D02590F8BE
:1025B000D13502EB03228A8090F8D22590F8D335EA
:1025C00002EB032292B2CA80C0F84021012180F8B8
:1025D0001111704710B504460023402219462046C9
:1025E000FDF721FF0023402280212046FDF71BFF3D
:1025F000012084F81201D4F8E815A07849688847CA
:10260000002010BD10B50446D4F8E80500698047E5
:10261000032084F81201002010BD0000024909685F
:1026200000694160002070475C00002010B5D0F8C0
:10263000E415C969002900D08847002010BD70B595
:1026400004468888002801D1C88820B12046BDE80A
:102650007040FFF708BC887800F07F0594F81201FD
:1026600003280DD084F8145129462046FDF715FFA4
:102670002046FFF728FC45B1022084F8120170BD06
:102680002046BDE87040FFF7EEBB012084F8120140
:1026900070BD10B50446D4F8E405026820469047A2
:1026A000D4F8E80580688047002010BD70B5044666
:1026B0000846284D81782970012905D90146204610
:1026C000BDE87040FFF7CFBB94F81221022A07D073
:1026D000032A18D001462046BDE87040FFF7C3BB6F
:1026E00061B184F81011032084F812012046FFF72D
:1026F000D0FF2046BDE87040FFF7E5BB2046BDE8AF
:102700007040FFF7E0BB91B194F8100188421BD0F4
:1027100001462046FFF770FB297884F81011204607
:10272000FFF7B7FF2046BDE87040FFF7CCBB0220A3
:1027300084F8120184F810112046FFF75DFB204653
:10274000BDE87040FFF7BFBB2046BDE87040FFF713
:10275000BABB00006000002038B50446488801225A
:10276000012810D002283CD1888810F0FF0F38D102
:10277000216949680091000A062828D2DFE800F0A4
:10278000270F14191E23C4F81821D4F8E405826811
:10279000204690472046BDE83840FFF794BB21F023
:1027A00070001030009012E021F070002030009096
:1027B0000DE021F070003030009008E021F0700052
:1027C0004030009003E021F0700050300090054848
:1027D0000099016084F816212046BDE83840FFF7D3
:1027E00072BB38BD5C0000201CB50446694620461B
:1027F000FFF7CEFE9DF8002012F01F010AD001293C
:102800000DD0022910D002F080012046FDF74DFEC8
:1028100000201CBD6946204600F00BF8F8E7694629
:10282000204600F0BBF8F3E76946204600F026F8A2
:10283000EEE710B500244A780A2A1BD2DFE802F03E
:1028400011171A141A08051A0E0BFFF7FBFB13E0F9
:10285000FFF7F5FE10E0FFF729FF0DE0FFF7DAFBC9
:102860000AE0FFF7B1FC07E0FFF776FF04E0FFF7AF
:10287000CAFA01E0FFF7F7FA204610BD70B504462A
:102880000D4600262979687800284BD0012825D0EC
:10289000032851D194F81201022806D003280BD046
:1028A00029462046FFF7DFFA46E009B3802943D0E6
:1028B0002046FDF7FAFD3FE0688828B921B180295C
:1028C00002D02046FDF7F1FDD4F8E40529468268E0
:1028D000204690472046FFF7F6FA2DE094F81201C3
:1028E000022806D003280BD029462046FFF7BBFA62
:1028F00022E009B380291FD02046FDF7D6FD1BE05A
:102900006888C8B951B1802908D02046FDF763FD19
:10291000D4F8E40529468268204690472046FFF710
:10292000D2FA09E094F81201022807D003280DD04A
:1029300029462046FFF797FA304670BD0029FBD0A4
:102940008029F9D02046FDF7B0FDF5E7124A0806C8
:102950004FF000054FF001030CD501F07F0000EBB4
:10296000800004EBC00090F81E0108B153600BE03A
:10297000556009E001EB810004EBC00090F876039C
:1029800008B1536000E0556003490222091D20464A
:10299000FFF789FAD0E700006000002070B5044618
:1029A0000D46002694F81201032805D0294620463A
:1029B000FFF759FA304670BD287901280CD8D4F8B1
:1029C000E4052946826820469047E8880028F1D12E
:1029D0002046FFF778FAEDE729462046FFF743FA4D
:1029E000E8E710B500F589700178417004210170A5
:1029F000D0F8D604C0688047002010BD10B500286C
:102A000006D00A46054906A0FFF7F6FB034810BDAD
:102A10000A46024902A0FFF7EFFBF7E71C18002067
:102A20004D534320436F6E6669670000A12202A1E7
:102A300008A000F057BF00002E2E5C2E2E5C5553D0
:102A400045525C6170705C757362645F7573722E61
:102A5000630000003C3C2D5553422D4445425547F0
:102A60002D3E3E5B25735D205B25645D3E204D530E
:102A70004320496E74657266616365207374617288
:102A80007465642E0A0A0000C12202A108A000F0A9
:102A900029BF00002E2E5C2E2E5C555345525C61E2
:102AA00070705C757362645F7573722E63000000F2
:102AB0003C3C2D5553422D44454255472D3E3E5BEF
:102AC00025735D205B25645D3E205553422044659F
:102AD0007669636520436F6E6E65637465642E0A64
:102AE0000A000000122008800048704724010020DE
:102AF000CD2202A108A000F0F5BE00002E2E5C2E13
:102B00002E5C555345525C6170705C757362645FF6
:102B10007573722E630000003C3C2D5553422D44CA
:102B2000454255472D3E3E5B25735D205B25645D28
:102B30003E2055534220446576696365204469739D
:102B4000636F6E6E65637465642E0A0A0000000090
:102B5000002806D0012809D0942207A10DA000F07A
:102B6000C1BE8D2204A11BA000F0BCBE912202A117
:102B700028A000F0B7BE00002E2E5C2E2E5C555310
:102B800045525C6170705C757362645F7573722E20
:102B9000630000003C3C2D5553422D4445425547AF
:102BA0002D3E3E5B25735D205B25645D202020204B
:102BB0002055534220446576696365204C696272F2
:102BC0006172792076312E312E3020205B3F3F5DBF
:102BD0000A0000003C3C2D5553422D4445425547C8
:102BE0002D3E3E5B25735D205B25645D202020200B
:102BF0002055534220446576696365204C696272B2
:102C00006172792076312E312E3020205B48535D61
:102C10000A0000003C3C2D5553422D444542554787
:102C20002D3E3E5B25735D205B25645D20202020CA
:102C30002055534220446576696365204C69627271
:102C40006172792076312E312E3020205B46535D23
:102C50000A00000070470000AB2202A108A000F0AB
:102C600041BE00002E2E5C2E2E5C555345525C61F9
:102C700070705C757362645F7573722E6300000020
:102C80003C3C2D5553422D44454255472D3E3E5B1D
:102C900025735D205B25645D3E2044657669636530
:102CA00020496E2073757370656E64206D6F646566
:102CB0002E0A0A0010B57B2207A10EA000F012FE1A
:102CC0007F2205A117A000F00DFEBDE81040802274
:102CD00001A122A000F006BE2E2E5C2E2E5C5553C4
:102CE00045525C6170705C757362645F7573722EBF
:102CF000630000003C3C2D5553422D44454255474E
:102D00002D3E3E5B25735D205B25645D205553425F
:102D1000204F5447204853204D5343204465766943
:102D200063650A003C3C2D5553422D4445425547AE
:102D30002D3E3E5B25735D205B25645D3E20555333
:102D40004220646576696365206C6962726172799C
:102D500020737461727465642E0A0A003C3C2D5520
:102D600053422D44454255472D3E3E5B25735D2021
:102D70005B25645D20202020205553422044657649
:102D8000696365204C6962726172792076312E31F7
:102D90002E300A0010B5002806D00A46054906A0C4
:102DA000FFF72AFA034810BD0A46024902A0FFF7BE
:102DB00023FAF7E71C1800204D534320496E746531
:102DC0007266616365000000042008800048704757
:102DD0002001002010B50A46024903A0FFF70CFAB3
:102DE000004810BD1C18002053544D6963726F6574
:102DF0006C656374726F6E696373000010B50028B0
:102E000006D00A46054906A0FFF7F6F9034810BDAB
:102E10000A46024908A0FFF7EFF9F7E71C1800205F
:102E20004D6173732053746F7261676520696E2002
:102E30004653204D6F6465004D6173732053746F6A
:102E40007261676520696E204853204D6F6465008C
:102E500010B5002806D00A46054906A0FFF7CCF9B0
:102E6000034810BD0A46024906A0FFF7C5F9F7E777
:102E70001C180020303030303030303030303142AB
:102E800000000000303030303030303030303141F0
:102E90000000000038B54FF4C0652846FEF758F82A
:102EA0004D208DF8000001248DF8014003218DF89C
:102EB00002108DF803406846FEF716F82846FEF724
:102EC00047F84A218DF800108DF8014002208DF856
:102ED00002008DF803406846FEF706F82846FEF724
:102EE00037F84B208DF800008DF801408DF8024036
:102EF0008DF803406846FDF7F7FF38BD1CB501218A
:102F00000220FEF753F84FF44040009003208DF864
:102F1000050002208DF80400094C69462046FDF7A3
:102F200015FE0C220E212046FDF74EFE0C220F212D
:102F30002046FDF749FE01214807FEF737F81CBD82
:102F4000000402404FF47A714843AFF3008000213F
:102F5000C0EBC0004000491C8142FCD970473EB51F
:102F6000044600250020029001900090217AE0683C
:102F7000012919D0C16841F040010291C160204689
:102F800000F000F94FF434100190607A10B14FF462
:102F900074100190E168019888631420FFF7D2FF54
:102FA000E078012822D02AE0816B21F48031019160
:102FB000627A12B141F48011019101998163E06854
:102FC000C16821F0400121F4800121F4003121F495
:102FD00000210291C160204600F0D4F8E078012879
:102FE000DED12A200090E1688860D9E7E068816836
:102FF00021F01E010A3141F0200100918160284634
:103000003EBDF0B587B00446002600250695049520
:1030100003950295D4F80C0105602069016821F43C
:10302000C05105910160E07A002846D1207A01283C
:103030005AD00121204600F08AFBE1684FF400706D
:1030400048628021ADF81210ADF81000E1680498D4
:10305000886200EB1040ADF80C004FF4BA70ADF888
:103060000E00E1680398C1F8040100EB1040ADF8D0
:103070000C00ADF80E50E1680398C1F8080100EBB0
:103080001040ADF80C00ADF80E50E1680398C1F89F
:103090000C0100EB1040ADF80C00ADF80E50E168EB
:1030A0000398C1F8100100EB1040ADF80C00ADF82A
:1030B0000E50E1680398C1F814011021204600F079
:1030C00009FB204600F0E8FA2069056120694561A6
:1030D00021694FF0FF3088612069C56100204FF001
:1030E00090474FF0FF0C16E00021204600F02FFB28
:1030F000A3E704EB80018B691A680692002A01DAC3
:10310000069700E00695069A1A608A691561896932
:10311000C1F808C0401C61788142EAD8002011E063
:1031200004EB80014B6D1A680092002A01DA0097C7
:1031300000E00095009A1A604A6D1561496DC1F86A
:1031400008C0401C61788142EAD84FF48070029038
:103150002069016941F480710161E07801280AD198
:103160000320402161F38A0040F4803061F359402C
:10317000019021690863204600F05CFA07B03046F0
:10318000F0BD0000F8B5054600270024002000909F
:10319000124E0320FFF7DBFEE86800690090641C14
:1031A000B44201D90020F8BD00980028F1DA0021CE
:1031B000009840F0010000900098EA681061E8680B
:1031C00002690092491CB14202D8009AD207F7D195
:1031D0000320FFF7BCFE3846F8BD0000400D030099
:1031E0000022C068816821F00101816010467047AB
:1031F0001EB500240021009101698968029183694C
:103200001A680192C1F34101002905D0012903D0B8
:10321000022905D0032907D1D10AC902019103E08F
:10322000D10AC902C91C019101991960006941685C
:1032300041F48071416020461EBD7EB5002600220B
:10324000029200924B784A69012B1CD00B7800EB5C
:1032500083035D6D2C6802942D690095002A53D07C
:103260008A684A61009D62F306050095009A22F47F
:10327000C01202F5002200925B6D009A1A61C278BA
:10328000012A4DD052E083691D6802951C690094A3
:1032900042B18C68A24210D94C61009A64F30602D4
:1032A00000920EE0009A22F07F020092009A22F42F
:1032B000C01202F50022009209E0009C62F30604AD
:1032C0000094009A22F4C01202F500220092009AA3
:1032D0001A61C278012A05D10C780A6900EB8404CE
:1032E000A469626145F0806242F0004202921A6075
:1032F000C2782ABB4A691AB30A7801219140006951
:10330000426B0A4342631BE00D7A009A65F30602A2
:103310000092009A22F4C01202F500220092ABE75C
:103320000B780A6900EB83035B6D5A6144F080629D
:1033300042F000420292097800EB8100406D026089
:1033400030467EBD0EB54FF0404101910A490191D2
:10335000094918310191426D01991161C178012922
:1033600009D1426D00F2CC515161416D08684FF0B6
:103370008020009008600EBD000008C07CB50025CC
:103380000022019200920C784E780123A34000EBBA
:103390008402012E19D0526DADF8023013680193EA
:1033A0001C040ED40C8964F30A03CC7864F39343B1
:1033B0008C7964F3995343F0805343F400430193B1
:1033C00013600978012904D005E09269ADF8003056
:1033D000E4E7C17A31B10069C169009A1143C16162
:1033E00028467CBD0069C16B009A1143C163F7E7B1
:1033F00018B503460020002200924C780A78012C70
:1034000003EB82020AD0526D136823F40013009379
:10341000C978032904D0022902D004E09269F3E7B5
:1034200043F0805100910099116018BDFCB5002552
:103430000026019600960C784F780122A24000EBFE
:103440008403012F07D05B6DADF802201E60097860
:10345000012904D005E09B69ADF80020F6E7C17AA8
:1034600031B10069C169009A9143C1612846FCBD30
:103470000069C16B009A9143C163F7E708B5024642
:103480000020002300934B780978012B02EB810187
:1034900006D0496D0A6842F4001200920A6008BD25
:1034A0008A6911680091002902DA41F08041009197
:1034B000009941F400110091116008BDFEB500258E
:1034C0000022029201924C780B784A694FF0010C6D
:1034D00000EB8303012C19D05B6D1E6802961C69FA
:1034E0000194002A72D08F683A44521EB2FBF7F260
:1034F00062F3DC44C4F3C9427A4362F312040194D8
:10350000019A1A61C278012A67D06CE09B691E6833
:1035100002961C6901946AB162F312048F683A44FE
:10352000521EB2FBF7F262F3DC440194CA78012A1E
:1035300006D00AE0E20CD2046CF3DC42019204E013
:1035400024F0C04202F100520192019A1A61C2783D
:10355000012A10D0CA78012A09D04A693AB10A78FA
:103560000CFA02FC0269536B43EA0C035363CA78FA
:10357000012A07D00FE00B780A6900EB83039B69EF
:103580005A61F4E7026992680092120AD20711D0D8
:1035900046F080520292029A42F0806242F000426B
:1035A00002920B7800EB83039B691A60CA78012AA8
:1035B00004D02FE046F000520292ECE78A8A93B2E0
:1035C0000A78C96800F079F924E0FFE78A6862F3B5
:1035D00012046CF3DC44019492E70B780A6900EB67
:1035E00083035B6D5A61CA78012A08D14A791AB1FE
:1035F00046F00052029202E046F080520292029A95
:1036000042F0806242F000420292097800EB8100B1
:10361000406D02602846FEBDC2684FF0FF31516028
:10362000C2686FF0804151610149C0688161704793
:103630000008008038B50446002500200090E168AD
:103640008861E1686FF0804048612046FFF7E4FF41
:10365000E07808B910200090009840F4006040F431
:10366000805040F4005040F4802040F4002040F0AE
:10367000080040F4801040F40010E1688A69824339
:1036800002438A61284638BD0022C068816841F043
:10369000010181601046704738B5002500210022E5
:1036A0000092009A42F010020092009AC3681A61D8
:1036B000074BC26814690094491C994202D8009CC7
:1036C000E006F7D40320FFF742FC284638BD00008F
:1036D000400D030038B50025002200230093009B15
:1036E00043F020030093009B61F38A130093009939
:1036F000C3681961074BC1680C690094521C9A4257
:1037000002D8009CA006F7D40320FFF720FC28462F
:1037100038BD0000400D030008B5014600200969CE
:1037200089680091C1F34101002907D0012903D024
:10373000022905D0032900D1022008BD032008BDBD
:10374000012008BDC068406900F0010070470069B1
:10375000026861F301020260704700B5FFF7F2FFF3
:10376000012801D0012000BD002000BDC0684169D2
:1037700080690840704700698169C069084080B26B
:10378000704700698169C0690840000C704700EB10
:103790008101496D8968006940690840704710B52A
:1037A000044608460021D21C9308D4F8D02003E038
:1037B000146840F8044B491C9942F9D310BD00002D
:1037C00070B5002200250024C470012383704026B8
:1037D00086800226012901D059B115E04FF0A042A0
:1037E000C37208210170042141709115C1800672D5
:1037F0000AE0234AC4720C210170062141704FF483
:10380000A061C1800672C370C26002F500610161EF
:1038100000210AE002EB411300EB810403F510667E
:10382000A66103F530636365491C43788B42F1D888
:1038300002F5806141614031C0F8CC10002108E000
:1038400002EB411300EB810403F5A063C4F8903050
:10385000491C03788B42F3D8002108E002EB0133C6
:1038600000EB810403F58053C4F8D030491C037881
:103870008B42F3D802F56062C0F80C21284670BD77
:103880000000044038B50024C368D86820F0005018
:1038900020F080420092012901D021B106E042F0DF
:1038A0000050009002E042F0804000900098D86004
:1038B0003220FFF747FB204638BD30B505460020D3
:1038C000EC78002C0CD1DB1C9B0805EB8202D2F8B3
:1038D000D02003E051F8045B1560641C9C42F9D3CE
:1038E00030BDFEE70FB4054B10B503A9044A02989A
:1038F00000F046F810BC5DF814FB0000F93B00082E
:1039000024020020002807D00F4910F0FF0F05D037
:10391000C0B2085C401C70470020704710F47F4F15
:1039200004D0C0F30720085C0930704710F47F0F03
:1039300004D0C0F30740085C1130704701EB106001
:103940000078193070470000EF51000802E008C805
:10395000121F08C1002AFAD170477047002001E009
:1039600001C1121F002AFBD1704700000348016803
:10397000814201D0012070470020704700020020E2
:103980002DE9FF4F8BB09A460F460546002606E00C
:1039900025280BD052460D9990476D1C761C28782F
:1039A0000028F5D10FB03046BDE8F08F0024A046C6
:1039B0000122604900E0044315F8013F203B02FA70
:1039C00003F00842F7D128782E2817D115F8010FF7
:1039D00044F004042A280ED06FF02F022878A0F1BA
:1039E000300109290AD808EB880102EB410100EBFC
:1039F00001086D1CF2E757F8048B6D1C28786928C4
:103A00003ED006DC0028CDD063280BD0642804D13A
:103A100036E0732810D075284BD052460D99904748
:103A2000761C85E017F8040B8DF8000000208DF857
:103A30000100E946012003E057F8049B4FF0FF30F6
:103A400061074FF0000401D40AE0641C44450DDA1C
:103A50008442FADB19F804100029F6D106E0641C50
:103A60008442FCDB19F804100029F8D1264404E054
:103A700019F8010B52460D999047641EF8D257E091
:103A800001CF4FF00A0B002802DA40422D2102E05C
:103A9000210504D52B218DF82410012103E0E10735
:103AA00005D02021F7E70DF1200908910CE0002155
:103AB000F9E701CF4FF00A0BF9E75946FCF71AFC7A
:103AC00001F1300209F8012D0028F6D1ADEB090013
:103AD00000F1200B600701D44FF00108D84502DD4A
:103AE000A8EB0B0000E000208046002406E009A8B7
:103AF0005246005D0D999047641C761C08988442DC
:103B0000F5DB04E0302052460D999047761CB8F161
:103B10000001A8F10108F5DC05E019F8010B524697
:103B20000D999047761CBBF10001ABF1010BF4DC61
:103B30006D1C34E7092801002DE9FC411F46DDE931
:103B40000A65DDE90831044604F1140040600060B4
:103B50001C346260A760E36021610A462321184695
:103B600000F016FCD4E903014218D4E90101121F48
:103B70000D4B00F0CBFA2060A67666760020E0615F
:103B800025626562606120766065A0651C3C0090DE
:103B900001902346054A214604F1440001F09AF8B9
:103BA0000020BDE8FC810000194900085D4B0008B9
:103BB00010B5029C24F001044472C161026200212C
:103BC0008162436200EBC102143252601260491CF0
:103BD0000129F7DB10BD10B5002200EBC201143142
:103BE000D1E900436360D1E9003423604960096092
:103BF000521C012AF1DB10BD70B50446064DE1B23E
:103C00002846FEF7F5F880212846FEF78BF80028B5
:103C1000F9D0204670BD0000001001401CB51420F2
:103C20000321CDE900104FF400730022064907A0DC
:103C300000F049FE0749086018B100F05BFF002062
:103C40001CBD4FF0FF301CBDF95000087465737443
:103C5000000000002400002010B500F0E7F8BDE8E7
:103C60001040FFF7DBBF000030B5134C41682268FD
:103C7000114402F1080388420DD04D885DB9656892
:103C8000A94208D0A5688D4200D1A0604D6845606A
:103C90004968851ACD508168114481420BD04D8806
:103CA000002D08D1A568854200D1A16044684C6010
:103CB0004068891AC15030BD8C0100202DE9FF4FAA
:103CC000DDE90DB60F9D6C0602D5DFF814A103E007
:103CD000DFF80CA1AAF1110AEC0601D525F00105C7
:103CE000EC0702D04FF0300901E04FF02009002727
:103CF000AC070BD5002A02DA2D27524206E06C07EA
:103D000001D52B2702E02C0700D520270024EE4602
:103D10007AB9302201248DF800200CE00A2B15D04E
:103D200002F00F081209A4461AF80880641C0EF865
:103D30000C80002AF2D1B44200DD2646ABEB06022D
:103D400015F0110F4FF0200309D016E04FF00A0CC8
:103D5000B2FBFCF80CFB1828B2FBFCF2E3E73FB126
:103D6000002A05DD521E03E0884200D80370401C83
:103D7000B2F1000CA2F10102F6DC27B1884201D8B1
:103D80000770521E401CED0605D508E0884201D898
:103D900080F80090401C151EA2F10102F6DC3027CD
:103DA00003E0884200D80770401C3546761EA542C5
:103DB000F7DC05E0884202D81EF804500570401C6C
:103DC000251EA4F10104F5DC03E0884200D803704D
:103DD000401C141EA2F10102F7DC04B0BDE8F08F14
:103DE000005300081CB502211420CDE900100B027D
:103DF0000022044904A000F066FDBDE81C4000F06C
:103E000079BE0000593C00086D61696E0000000039
:103E100070B5044C044D02E020688047241DAC427C
:103E2000FAD370BD185300081C53000870B5044C39
:103E3000044D02E020688047241DAC42FAD370BDD7
:103E40001C5300082053000810B5FCF7CBF9044AB6
:103E50005188491C5180BDE81040FCF7C7B90000EB
:103E6000F401002010B5FCF7BDF9094A5188491E3C
:103E700009B25180002907DC00215180FCF7B6F916
:103E8000BDE8104000F024BBBDE81040FCF7AEB91F
:103E9000F401002070B5002833D01A4D29688842FB
:103EA0002FD3696888422CD2A0F10C044FF0FF3167
:103EB000154800F0CAFB60884FF4F55610B1208811
:103EC000B04208D011A000F093F9238862882146FF
:103ED00015A000F08DF9002060802680A86884423B
:103EE00000D2AC6029686068611A401A2969081A12
:103EF00028612046FFF7B8FEBDE87040024800F098
:103F000084BB70BD8C010020A42A0020746F206641
:103F10007265652061206261642064617461206261
:103F20006C6F636B3A0A00006D656D3A203078253E
:103F30003038782C207573656420666C61673A2090
:103F400025642C206D6167696320636F64653A2086
:103F50003078253034780A00004870471C0800206B
:103F6000004870471C18002010B512484FF47A71B1
:103F70000068B0FBF1F0401EB0F1807F09D24FF035
:103F8000E02148610C4AF020107000208861072071
:103F90000861FCF72BFEFCF769FDFFF739FFFFF71F
:103FA000DFFF0446FFF7D8FF2146BDE8104000F0D0
:103FB000F7BB00000000002023ED00E070B50446D0
:103FC000FFF742FF0F4D16E00A2809D10D212846C0
:103FD000FDF70EFF80212846FDF7A4FE0028F9D04A
:103FE00014F8011B2846FDF703FF80212846FDF742
:103FF00099FE0028F9D020780028E5D1BDE870406E
:10400000FFF730BF0010014010B5044617480168A3
:10401000002903D020468847002826D014A0E16953
:1040200000F0E6F816A0A16900F0E2F818A06169B6
:1040300000F0DEF81AA0216900F0DAF81CA0E168AF
:1040400000F0D6F81EA0A16800F0D2F820A06168A8
:1040500000F0CEF822A0216800F0CAF800F024FD9C
:10406000014623A000F0C4F8FEE710BD14020020B2
:104070007073723A203078253038780A00000000DA
:104080002070633A203078253038780A000000002C
:10409000206C723A203078253038780A0000000011
:1040A0007231323A203078253038780A000000002A
:1040B0007230333A203078253038780A000000001A
:1040C0007230323A203078253038780A000000000B
:1040D0007230313A203078253038780A00000000FC
:1040E0007230303A203078253038780A00000000ED
:1040F00068617264206661756C74206F6E207468EC
:10410000726561643A2025730A00000070B50646A6
:10411000121D22F00700A0F14405284600220A4C97
:1041200040F82240521C112AFAD3416200218162D8
:10413000C162016341638363C6634FF080720264AE
:104140000160284670BD0000EFBEADDE10B5FCF783
:1041500049F8044A1178491C1170BDE81040FCF779
:1041600045B800008801002010B5FCF73BF8044A70
:104170001178491E1170BDE81040FCF737B80000F7
:104180008801002010B50068143800F06FFC002092
:1041900010BD2DE9F04105460E461446304600F0AC
:1041A000BCFC06F1140714B1012C1DD104E0394602
:1041B000284600F044F817E02C680DE0A4F1140044
:1041C00096F8351090F83520914204D239461430D3
:1041D00000F035F802E02468AC42EFD1AC4203D1E4
:1041E0003946284600F02BF80020BDE8F081000099
:1041F0000FB408B503AB00937F210548029A00F085
:1042000001FE0348FFF7DAFE01B05DF814FB000081
:10421000242A00200268516002680A600160486038
:1042200070470268516002680A6001604860704728
:104230000268516002680A60016048607047426825
:10424000116042684A6041600860704701688142BD
:1042500001D101207047002070470168814201D1DF
:104260000120704700207047D0E900215160D0E95B
:1042700000121160406000607047D0E90021516079
:10428000D0E9001211604060006070472DE9F047EE
:10429000002809D0C01C20F003053B4EF068854281
:1042A00004D90020BDE8F0870020FBE70C2D00D2E8
:1042B0000C254FF0FF31354800F0C7F9B768316879
:1042C000781AD6F80CC0ACEB050356E00C186288DF
:1042D0008ABB6268121A0C3AAA424DD3626805F191
:1042E0001803121A0C3A4FF001094FF4F5589A428C
:1042F00022D343190C33CA18A2F800804FF0000AE9
:10430000A2F802A0D4F804A0C2F804A090606360F0
:10431000A4F8029050680CF10C0C604502D001F139
:1043200008028350306928440C303061726982423F
:104330000ED270610CE01FE0A4F802906068621A6F
:10434000801A3269104430617269824200D2706111
:10435000A4F80080BC4203D008E040680844B06084
:10436000B068428812B172689042F6D1074800F0F6
:104370004CF904F10C0095E760688342A6D8034825
:1043800000F043F900208DE78C010020A42A0020D2
:1043900010B50346CCB2042A15D3810713D10146C8
:1043A00044EA042343EA034305E00B604B608B605F
:1043B000CB601031103A102AF7D201E008C1121F69
:1043C000042AFBD20B46E1B201E003F8011B521EA6
:1043D000541CFAD110BD2DE9F04106460F46304677
:1043E00000F03EF80546E868FFF750FF0446ACB120
:1043F00026720020607208223946204600F0BCF97F
:10440000FBF7F0FE064604F10C01281DFFF702FF42
:104410003046FBF7EBFE2046BDE8F0810020FBE7CD
:1044200070B50446FBF7DEFE054604F10C00FFF70D
:104430001BFF2846FBF7DAFE2046BDE87040FFF779
:1044400029BD70B50446FBF7CDFE054604F10C000E
:10445000FFF70AFF2846BDE87040FBF7C7BE000023
:104460000021074A02EB01131B78834202D102EBC1
:1044700001107047491C0529F4DB0020704700003B
:10448000A40100202DE9F04104460D4617462846B8
:10449000FFF7E6FF064645F0800020720822394605
:1044A000204600F069F9FBF79DFE054604F10C017A
:1044B000301DFFF7AFFE2846BDE8F041FBF796BE82
:1044C000007A000601D501207047002070470000E7
:1044D00070B5FBF787FE0546174C608820B128466B
:1044E000BDE87040FBF782BEA068FFF70BFA421EE2
:1044F000124850F8321014396068814216D0227088
:1045000061600F4A127842B11C311C30FBF771FE1A
:104510002846BDE87040FBF769BE1C311C30FBF734
:1045200068FE2846BDE87040FBF760BE2846BDE83F
:104530007040FBF75BBE0000F4010020C42A00209D
:104540008801002010B50446FBF74CFE024614F823
:10455000340F20F00F00401C207060780A49343C72
:1045600001EBC00104F114004B6818604B68436014
:10457000486001600548A16B836819438160BDE80C
:1045800010401046FBF732BEC42A0020F401002080
:1045900070B50546FBF726FE014605F11404D4E983
:1045A00000205060D4E9000210606460246095F837
:1045B00035000A4A02EBC0000268824201D10120A4
:1045C00000E0002020B10648AB6B82689A4382600D
:1045D000BDE870400846FBF709BE0000C42A002071
:1045E000F40100202DE9F041054616461F460A4613
:1045F00001212846FFF746FF2C46143464602460EE
:10460000AE836F720020BDE8F0812DE9F0410446D1
:104610000025FBF7E7FD064604F114000746FFF707
:1046200015FE40B1A08B401CA0833046FBF7DEFD99
:10463000012D05D006E03846FFF7A4FD0125F4E77B
:10464000FFF746FF0020BDE8F08173B50446FBF795
:10465000C9FD0646A08B28B1401EA0833046FBF75B
:10466000C5FD21E0019808B300F01EFA05460020C0
:104670002863627A294604F11400FFF78AFD019845
:10468000002809DD05F1440001AA0021044600F0DC
:10469000F7FA204600F034FB3046FBF7A7FDFFF7A2
:1046A00017FF286B002800D100207CBD3046FBF7A7
:1046B0009DFD6FF001007CBD08B509A0FFF798FDD6
:1046C0000AA0FFF795FD12A00323009000221946CF
:1046D00012A0FFF78DFDBDE8084018A0FFF788BDC8
:1046E0000A205C207C202F0A000000002D2052545C
:1046F000202D2020202020546872656164204F7096
:1047000065726174696E672053797374656D0A0010
:10471000536570203230203230313800202F207C19
:10472000205C202020202025642E25642E25642056
:104730006275696C642025730A00000020323030F5
:1047400036202D203230313820436F7079726967FE
:1047500068742062792072742D74687265616420B7
:104760007465616D0A000000014600E0491C0A788A
:10477000002AFBD1081A704710B5002A07D003465B
:1047800011F8014B03F8014B14B1521EF8D110BDC2
:10479000002101E003F8011B521EFBD110BD0000F7
:1047A00070B505460A46E81C20F0030122F0030319
:1047B000182B21D9A3F118048C421DD3114C5A1A7D
:1047C000183AE26021604FF4F5530B800C324A60D6
:1047D00000208860488048680844606003800121A8
:1047E0004180426082600023012207A10848FFF750
:1047F000F9FE2068A06070BD2946BDE8704005A0A4
:10480000FFF7F6BC8C0100206865617000000000B5
:10481000A42A00206D656D20696E69742C20657274
:10482000726F7220626567696E206164647265737D
:104830007320307825782C20616E6420656E6420AA
:104840006164647265737320307825780A00000013
:1048500010B50A4B00245C800020094A02EBC0011D
:1048600049600960401C0828F8DB072018705C606C
:104870009C6002480C304060006010BDF4010020D4
:10488000C42A002010B5074CA068FFF73BF8401E73
:10489000054951F8300014386060BDE810401C3004
:1048A000FBF7EDBCF4010020C42A00200020044ADC
:1048B00002EBC00149600960401C0028F8D0704735
:1048C0000C02002070472DE9FF478046DDE90C67A8
:1048D000894692461D4641460020FFF77CFD04466E
:1048E00020000FD02846FFF7D1FC68B18DE8E10029
:1048F00053464A4641462046FFF71EF9204604B07B
:10490000BDE8F0870020FAE72046FFF789FD002088
:10491000F5E700F0CFB8000070B513480468FBF766
:1049200061FC05462046FFF733FE042084F834007E
:1049300004F1440000F0BEF92046FFF7C1FD012854
:1049400001D1206F58B104F114010848FFF769FC48
:104950002846FBF74BFCBDE87040FFF7B9BD204689
:10496000FFF76FFDF4E70000F801002000020020CF
:1049700000F002F8FCE7000070B527E0FBF732FC1E
:104980000646FEF7F3FF68B319480468A4F114055E
:10499000D4E900104860D4E9000108606460246034
:1049A000FFF752FA296F09B1284688472846FFF7D2
:1049B00087FD01280FD0FFF755FA3046FBF716FCAC
:1049C000A86AFFF767FA2846FFF72AFDFEF7CEFF31
:1049D0000028D3D170BDFFF745FA3046BDE87040DE
:1049E000FBF704BC3046BDE87040FBF7FFBB00009E
:1049F000000200201FB52020C2000721094BCDE98D
:104A00000210CDE9003207480023074A07A1783891
:104A100000F010F804B00348BDE81040783800F00A
:104A200069B8000024290020714900087469646C89
:104A3000650000002DE9FF5F8146DDE90E76DDE9C6
:104A40001054884692469B46424600214846FFF74E
:104A500019FDCDE90076CDE902545B465246414648
:104A60004846FFF769F804B0BDE8F09F70B504460A
:104A700094F8340000F00F00022802D04FF0FF300D
:104A800070BDFBF7AFFB054604F11400FFF7F5FB23
:104A900004F1440000F09EF92846FBF7A7FB2046EE
:104AA000FFF750FD002070BD01480068704700000E
:104AB000F8010020F1B5FBF795FB05460C480468AA
:104AC000204600F02AF804F144006A460021064618
:104AD00000F0D6F8304600F013F92846FBF786FBC5
:104AE000FFF7F6FC206B801C00D120630020F8BD8E
:104AF000F801002010B534308178417001228A40DD
:104B00004260022100F83419FFF7B0FFFFF7CCFF35
:104B100008B1FFF7DDFC002010BD70B5044694F825
:104B2000340000F00F00012802D04FF0FF3070BDBC
:104B3000FBF758FB054694F8340020F00F00801C6A
:104B400084F834002046FFF723FD04F1440000F010
:104B500041F92846FBF74AFB002070BD10B504461A
:104B60006FF00100206304F11400FFF786FB20467C
:104B7000FFF7E8FCBDE81040FFF7AABC70B5FBF7F3
:104B800031FB06461348046894F8340000F00F0027
:104B900001281AD1D4E90501884216D004F1140085
:104BA0000546FFF76AFB94F835000B4901EBC0009E
:104BB00041680D6041686960456028603046FBF7D8
:104BC00015FBFFF785FC002070BD3046FBF70EFBA0
:104BD000002070BDF8010020C42A002001480068B0
:104BE000704700008401002010B509490868401C86
:104BF0000860FFF759FF016C491E016419B9C16BC8
:104C00000164FFF7BBFFBDE8104000F003B80000EF
:104C10008401002070B5FFF7E1FF0646FBF7E2FADA
:104C2000054620E015480468143C6FF00041A06A76
:104C3000301A88421CD22046FEF7CDFFD4E9071077
:104C40008847FFF7CBFF0646607A810708D5C10782
:104C500006D020F001006072204600F051F802E01A
:104C600020F0010060720548FFF7F7FA0028D9D05C
:104C70002846BDE87040FBF7B9BA00000C020020DE
:104C8000002909D0012904D0022908D003290FD115
:104C90000AE0406A10600BE01168416208E0417A66
:104CA00021F00201417203E0417A41F002014172B8
:104CB0000020704770B50546FBF794FA0446284675
:104CC000FEF789FF2046FBF791FA2846FFF7B9FB6C
:104CD000002070BD2DE9F8430746DDE9088415463C
:104CE0001E460A4609213846FFF7CCFB43463246AA
:104CF000294638460094FEF75BFFBDE8F8830000C4
:104D00002DE9F8430446FBF76DFA05462046FEF709
:104D100062FF607A20F0010060722846FBF766FAB5
:104D2000FFF75CFF616A0844A062FBF75BFA074685
:104D3000DFF89CC0CDF800C000226E460CEBC2002C
:104D400045680DE00068A0EBC201A36A4969994279
:104D500004D0C91A6FF00043994205D346F82200E7
:104D600056F82200A842EDD12AB156F82210083197
:104D7000531C46F82310521C002ADFD01448001F91
:104D8000D0F8008008F10108C0F8008004F1140197
:104D90000098FFF74DFA02250EE05FEA88700DD10A
:104DA000C5F1010004EBC001143156F82000FFF7F3
:104DB0003FFA4FEA98086D1C012DEED9607A40F059
:104DC000010060723846FBF711FA0020BDE8F88355
:104DD0000C02002070B50446607AC0070ED0FBF7C5
:104DE00001FA05462046FEF7F6FE2846FBF7FEF9D7
:104DF000607A20F001006072002070BD4FF0FF303B
:104E000070BD00002DE9FF4F83B082460AEB010719
:104E10007F1E5446A74201D24FF0FF374FF02009C2
:104E20004FF0250B12E1252804D0BC4200D8207099
:104E3000641C08E100250599491C059108782D2876
:104E400014D02B2815D0202816D0232817D030288E
:104E500018D04FF0FF384646059A1278303A0A2AA1
:104E600013D205A800F033F906461AE045F0100504
:104E7000E1E745F00405DEE745F00805DBE745F02E
:104E80002005D8E745F00105D5E72A2809D1491CB6
:104E90000591069840C80690002E02DA764245F049
:104EA0001005059801782E2918D1401C059001782D
:104EB000A1F130020A2A04D205A800F008F98046C0
:104EC00007E02A2905D1401C0590069850F8048B6C
:104ED0000690B8F1000F01DA4FF000080021059AA2
:104EE0001078682801D06C2802D10146521C059226
:104EF0000A23059800786F2871D00CDC632820D035
:104F000004DC25286CD058280DD187E0642801D016
:104F1000692808D186E0702863D073282FD07528BF
:104F200071D078287CD0BC4201D884F800B0641CD1
:104F300005990878002868D0BC4200D82070641C0D
:104F400081E0E80605D507E0BC4201D884F800906E
:104F5000641C761E002EF7DC069810F8041B0690E1
:104F6000C8B2BC4200D82070641C04E0BC4201D826
:104F700084F80090641C761E002EF7DC63E006982F
:104F800008C8069003B941A31846FFF7EDFBB8F136
:104F9000000F02DD404500DD4046E90605D508E08A
:104FA000BC4201D884F80090641C3146761E8142D0
:104FB000F6DC002106E0BC4201D81A782270641C9D
:104FC0005B1C491C8142F6DB04E0BC4201D884F83A
:104FD0000090641C3146761E8142F6DC33E01BE013
:104FE00014E0701C02D1082645F00105CDE90068E7
:104FF00006980295102304C8069039462046FEF70D
:105000005DFE04461FE00FE00AE028E0BC4201D844
:1050100084F800B0641C16E0082305E045F0400564
:10502000102301E045F002056C291BD068291DD032
:10503000069804C80690CDE90068394620460295D6
:10504000FEF73CFE04460598401C05900598007844
:1050500000287FF4E8AEBC4211D8207010E0491E51
:105060000591F0E7069804C80690E4E7069830F842
:10507000041B06908AB2A807DDD512B2DBE73870B0
:1050800007B0A4EB0A00BDE8F08F0000284E554C95
:105090004C29000000207047002070470020704716
:1050A0000020704710B5FBF79DF8FEF75DFFFFF796
:1050B00003FBFFF7FBFBFFF7CBFBFEF793FEFFF7CE
:1050C00001FCFFF797FCFFF7DDFB002010BD10B5DA
:1050D000024600206FF02F0407E04B1C1360097894
:1050E00000EB800004EB4000084411680B78303B73
:1050F0000A2BF2D310BD000008B510A0FFF778F816
:1051000017480090174B184A00211848FDF792F8ED
:10511000174D4FF480644FF4FA77AE1E2C8038465A
:10512000FFF7F7FB13A0FFF763F834803846FFF76B
:10513000F0FB18A0FFF75CF8F0E700005350494679
:105140006C617368CEC4BCFECFB5CDB3C4A3C4E25A
:1051500055C5CCB2E2CAD4B3CCD0F20A00000000EC
:1051600068010020740000200401002028020020B3
:105170001A1C0240746573745F7468726561642000
:1051800072756E6E696E672C4C4544315F4F4E0DE3
:105190000A000000746573745F746872656164204E
:1051A00072756E6E696E672C4C4544315F4F464692
:1051B0000D0A0000000000030080830000000000D2
:1051C0000000000006000000000000008002021F36
:1051D0000000005746202020202020535049204620
:1051E0006C61736820202020202020312E30300078
:1051F00000010002000100030001000200010004A0
:10520000000100020001000300010002000100058E
:10521000000100020001000300010002000100047F
:10522000000100020001000300010002000100066D
:10523000000100020001000300010002000100045F
:10524000000100020001000300010002000100054E
:10525000000100020001000300010002000100043F
:10526000000100020001000300010002000100072C
:10527000000100020001000300010002000100041F
:10528000000100020001000300010002000100050E
:1052900000010002000100030001000200010004FF
:1052A00000010002000100030001000200010006ED
:1052B00000010002000100030001000200010004DF
:1052C00000010002000100030001000200010005CE
:1052D00000010002000100030001000200010004BF
:1052E0000001000200010003000100020001003083
:1052F000313233343536373839616263646566007C
:1053000030313233343536373839414243444546FB
:1053100000000000A15000089950000895500008B6
:105320009D5000084453000800000020280200009F
:10533000440300085454000828020020E02C000018
:105340005C3900081184B0710B680901020304067E
:105350000708090CA9101122A013951F1C08E91EAB
:1053600004122714082D261408D5251408E3291B38
:1053700008050C1375221B08830481222C021820B7
:105380001ADD281AA5048B0923301A91109A9B4024
:10539000411AC5109AD114140902202008010104F1
:1053A000C0320904200B020806500507058102409F
:1053B0002C070501070B1C090720011813E52A1CFF
:1053C00008C92DD019041AFD041B512E0819D81A2A
:1053D000950C1704030904120132021640830420BD
:1053E000572602010203014B0A0614190B1113710F
:1053F0001B1B085D041A75041A79041A7D041A9996
:10540000041A6D0413CB51140844011C20B52C5808
:10541000122B1B082D6C1A590C1A55041A890C1AD8
:10542000F10401241AA8442904327829741AB80C0A
:105430002904322029891AC80C2904322419FE11A2
:105440001AD80C2904323032091AE80C2904023720
:045450002C0000002C
:04000005080001AD41
:00000001FF
