:020000040800F2
:1000000010170020C1010008C90100088B02000878
:10001000CD010008CF010008D10100080000000058
:10002000000000000000000000000000D3010008F4
:10003000D50100080000000013020008E1060008D6
:10004000DB010008DB010008DB010008DB01000820
:10005000DB010008DB010008DB010008DB01000810
:10006000DB010008DB010008DB010008DB01000800
:10007000DB010008DB010008DB010008DB010008F0
:10008000DB010008DB010008DB010008DB010008E0
:10009000DB010008DB010008DB010008DB010008D0
:1000A000DB010008DB010008DB010008DB010008C0
:1000B000DB010008DB010008DB010008DB010008B0
:1000C000DB010008DB010008DB010008DB010008A0
:1000D000DB010008DB010008DB010008DB01000890
:1000E000DB010008DB010008DB010008DB01000880
:1000F000DB010008DB010008DB010008DB01000870
:10010000DB010008DB010008DB010008DB0100085F
:10011000DB010008DB010008DB010008DB0100084F
:10012000DB010008DB010008DB010008DB0100083F
:10013000DB010008DB010008DB010008DB0100082F
:10014000DB010008DB010008DB010008DB0100081F
:10015000DB010008DB010008DB010008DB0100080F
:10016000DB010008DB010008DB010008DB010008FF
:10017000DB010008DB010008DB010008DB010008EF
:10018000DB010008DB010008DB010008DB010008DF
:10019000DB010008DB010008DB010008DB010008CF
:1001A000DB010008DB010008DB010008DFF80CD0F0
:1001B00000F082F800480047DD0200081017002018
:1001C0000648804706480047FEE7FEE7FEE7FEE7F1
:1001D000FEE7FEE7FEE7FEE7FEE7FEE7F5060008BE
:1001E000AD010008EFF3108072B6704780F31088FD
:1001F00070472B4A1368012B04D04FF001031360A2
:10020000284A1060284A116028484FF08051016048
:100210007047EFF3108272B62148016891B14FF038
:10022000000101601F48016829B1EFF3098121E94C
:10023000F00F006801601C4909680968B1E8F00F17
:1002400081F3098882F310884EF0040E7047164936
:10025000086014494FF00000086011494FF0010098
:10026000086013484FF47F01D0F8002041EA0201F2
:1002700001600E484FF0805101600E480068006830
:1002800080F3088861B662B67047EFF3098000B565
:1002900000F0B4FD5DF804EB4EF0040E7047000072
:1002A000B4000020AC000020B000002004ED00E00D
:1002B00020ED00E008ED00E0064C074D06E0E068A8
:1002C00040F0010394E8070098471034AC42F6D39D
:1002D000FFF770FF042000082420000810B5FFF786
:1002E00081FF01F0CDFD002010BD000070B586B08B
:1002F0000121084600F01CF90121102000F026F928
:1003000000248DF8164001208DF8170002258DF885
:1003100015508DF81450400204901C4E04A930462C
:1003200000F038F88DF814506902049104A93046A1
:1003300000F030F807220A21304600F069F8072261
:100340000921304600F064F84FF4E1300090ADF838
:100350000440ADF80640ADF80840ADF80C400C2064
:10036000ADF80A000A4C6946204600F019FA00F080
:100370008DF8012240F22551204600F0F6F90121C6
:10038000204600F0DFF906B070BD0000000002401A
:10039000001001402DE9F041002201274FF0030C2D
:1003A00007FA02F50B682B40AB422CD106685300CC
:1003B0000CFA03F4A64306600E79D0F800809E4044
:1003C00046EA080606600E79012E01D0022E12D1EF
:1003D0008668A64386604E79D0F808809E4046EA3B
:1003E000080686604668AE43466045688E7996404A
:1003F000B6B235434560C568A543C560CC799C401D
:10040000C3681C43C460521C102AC9D3BDE8F081E4
:1004100010B54B07DB0E9A40C90800EB8100016A5A
:100420000F249C40A1430162016A1143016210BD87
:100430002DE9FC410121802000F07AF84FF480641E
:10044000009401208DF8040000218DF806108DF82D
:1004500007008DF805100C4F69463846FFF79AFFE4
:100460006600009669463846FFF794FFA5000095A0
:1004700069463846FFF78EFF03481830048006802F
:100480000580BDE8FC810000001C024008B54FF467
:10049000A06000F043F825208DF8000001208DF8C1
:1004A00001008DF802008DF80300684600F002F8A4
:1004B00008BD000030B50F23C27801250178002A5D
:1004C0001FD0154A126802F4E062C2F5E062C2F37E
:1004D0000722C2F10404D3404278A24084781C4031
:1004E0001443220101F1E02181F80024007800F09A
:1004F0001F018D404009800000F1E020C0F800514C
:1005000030BD01F01F0085404809800000F1E02067
:10051000C0F8805130BD00000CED00E002490843F6
:1005200002490860704700000000FA050CED00E089
:10053000054A002903D01168014311607047116812
:10054000814311607047000030380240054A00299D
:1005500003D0116801431160704711688143116035
:10056000704700004438024070B5244B196801F010
:100570000C01234C00291ED0224E04291DD008292D
:100580001DD00460196801F0F00109091E4A545C8D
:100590000168E14041601C6804F4E054A40A145D61
:1005A00021FA04F484601B6803F460435B0BD25CA3
:1005B000D140C16070BD0460E4E70660E2E70F4A25
:1005C000121F1168C1F38055116801F03F0135B168
:1005D000B6FBF1F11468C4F38814614305E0B4FB81
:1005E000F1F11468C4F3881461431268C2F3014244
:1005F000521C5200B1FBF2F10160C3E7083802401F
:100600000024F40040787D01140000201CB5002176
:10061000019100912E4A106840F4803010604FF430
:10062000A043106800F4003000900198401C019035
:10063000009810B901989842F3D11068800302D550
:100640000120009000E00091009801283FD120484F
:100650004030016841F0805101601E49086840F453
:10066000404008601A48083003680360036843F498
:1006700000430360036843F4A0530360041F164B58
:100680002360136843F08073136013689B01FCD5EB
:100690000A6842F480320A604A68D203FCD50A68CC
:1006A00042F400320A604A689203FCD50B4A40F2D9
:1006B00005711160016821F003010160016841F0DA
:1006C000020101600168C1F381010229FAD11CBD58
:1006D0000038024000700040195A4007003C0240B8
:1006E00010B500F02BFC01F06DF9BDE8104000F0F2
:1006F00033BC000010B50F48016841F001010160F2
:100700000C4A00210832116002680B4B1A4002604B
:10071000031D0A4A1A60026822F48022026005481A
:100720000C300160FFF772FF05494FF00060086070
:1007300010BD000000380240FFFFF6FE103000241C
:1007400008ED00E0002904D0818941F40051818145
:100750007047818921F40051818170470246002051
:1007600012880A4200D00120704710B540F66A1383
:10077000C1F3421301F01F040121A140012B07D056
:10078000022B07D014303AB102680A43026010BD50
:100790000C30F8E71030F6E702688A43026010BDBB
:1007A0007FB504460D46208A20F44051E88808436E
:1007B0002082A08941F20C618843A9882A891143CB
:1007C0006A8902431143A181A08A20F44071A8895B
:1007D0000843A0826846FFF7C7FE1E48844202D045
:1007E0001D48844201D1039800E00298A1890904C0
:1007F00008D500EBC00101EB001029684900B0FBEF
:10080000F1F007E000EBC00101EB0010296889005E
:10081000B0FBF1F06422B0FBF2F109010B096FF0BB
:1008200018056B4300EB8300A3891D044FF03203CE
:1008300007D503EBC000B0FBF2F000F0070008435F
:1008400006E003EB0010B0FBF2F000F00F000843ED
:1008500020817FBD0010014000140140C1F3080158
:1008600081807047002807D00F4910F0FF0F05D096
:10087000C0B2085C401C70470020704710F47F4FE6
:1008800004D0C0F30720085C0930704710F47F0FD4
:1008900004D0C0F30740085C1130704701EB1060D2
:1008A0000078193070470000D21E000802E008C826
:1008B000121F08C1002AFAD170477047002001E0DA
:1008C00001C1121F002AFBD17047000003480168D4
:1008D000814201D001207047002070479400002021
:1008E0002DE9FC411F46DDE90A65DDE908310446D2
:1008F00004F11400406000601C346260A760E36093
:1009000021610A462321184600F032FCD4E9030194
:100910004218D4E90101121F0D4B00F0F1FA2060DA
:10092000A67666760020E0612562656260612076C9
:100930006065A0651C3C009001902346054A214655
:1009400004F1440001F0B4F80020BDE8FC8100008F
:10095000F51600083919000810B5029C24F00104AE
:100960004472C161026200218162436200EBC102F4
:10097000143252601260491C0129F7DB10BD10B51A
:10098000002200EBC2011431D1E900436360D1E9D8
:100990000034236049600960521C012AF1DB10BD5C
:1009A0000A4D4FF480644FF4FA77AE1E2C8038461F
:1009B00000F09DFE06A000F00BFB3480384600F0EE
:1009C00096FE0BA000F004FBF0E700001A1C0240AA
:1009D0006C6564315F7468726561642072756E6EF7
:1009E000696E672C4C4544315F4F4E0D0A00000084
:1009F0006C6564315F7468726561642072756E6ED7
:100A0000696E672C4C4544315F4F46460D0A000025
:100A10001CB514200321CDE900104FF4007300220F
:100A2000064907A000F03DFE0749086018B100F034
:100A30004FFF00201CBD4FF0FF301CBDA109000876
:100A40006C656431000000002400002010B500F047
:100A5000E7F8BDE81040FFF7DBBF000030B5134CEE
:100A600041682268114402F1080388420DD04D8884
:100A70005DB96568A94208D0A5688D4200D1A06023
:100A80004D6845604968851ACD508168114481429E
:100A90000BD04D88002D08D1A568854200D1A160FA
:100AA00044684C604068891AC15030BD3000002055
:100AB0002DE9FF4FDDE90DB60F9D6C0602D5DFF87D
:100AC00014A103E0DFF80CA1AAF1110AEC0601D58C
:100AD00025F00105EC0702D04FF0300901E04FF09E
:100AE00020090027AC070BD5002A02DA2D27524235
:100AF00006E06C0701D52B2702E02C0700D5202744
:100B00000024EE467AB9302201248DF800200CE052
:100B10000A2B15D002F00F081209A4461AF8088013
:100B2000641C0EF80C80002AF2D1B44200DD264687
:100B3000ABEB060215F0110F4FF0200309D016E0C1
:100B40004FF00A0CB2FBFCF80CFB1828B2FBFCF2CD
:100B5000E3E73FB1002A05DD521E03E0884200D8DA
:100B60000370401CB2F1000CA2F10102F6DC27B1C7
:100B7000884201D80770521E401CED0605D508E0DA
:100B8000884201D880F80090401C151EA2F1010295
:100B9000F6DC302703E0884200D80770401C354659
:100BA000761EA542F7DC05E0884202D81EF8045004
:100BB0000570401C251EA4F10104F5DC03E0884209
:100BC00000D80370401C141EA2F10102F7DC04B02F
:100BD000BDE8F08FE31F00081CB502211420CDE909
:100BE00000100B020022044904A000F05AFDBDE8E9
:100BF0001C4000F06DBE00004D0A00086D61696E7A
:100C00000000000070B5044C044D02E020688047ED
:100C1000241DAC42FAD370BDF81F0008FC1F000869
:100C200070B5044C044D02E020688047241DAC429E
:100C3000FAD370BDFC1F00080020000810B5FFF7B4
:100C4000D1FA044A5188491C5180BDE81040FFF791
:100C5000CDBA00008800002010B5FFF7C3FA094A9A
:100C60005188491E09B25180002907DC00215180BA
:100C7000FFF7BCFABDE8104000F01ABBBDE8104019
:100C8000FFF7B4BA8800002070B5002833D01A4DA1
:100C9000296888422FD3696888422CD2A0F10C04BD
:100CA0004FF0FF31154800F0BEFB60884FF4F55659
:100CB00010B12088B04208D011A000F089F9238833
:100CC0006288214615A000F083F90020608026800C
:100CD000A868844200D2AC6029686068611A401A32
:100CE0002969081A28612046FFF7B8FEBDE8704060
:100CF000024800F07ABB70BD30000020B012002026
:100D0000746F206672656520612062616420646191
:100D1000746120626C6F636B3A0A00006D656D3A16
:100D2000203078253038782C207573656420666C07
:100D300061673A2025642C206D6167696320636FC9
:100D400064653A203078253034780A0000487047CE
:100D5000B800002000487047B810002010B51248B5
:100D60004FF47A710068B0FBF1F0401EB0F1807F63
:100D700009D24FF0E02148610C4AF02010700020A9
:100D8000886107200861FFF753FBFFF7AFFAFFF711
:100D900039FFFFF7DFFF0446FFF7D8FF2146BDE824
:100DA000104000F0EBBB00000000002023ED00E04D
:100DB00070B50446FFF742FF0F4D16E00A2809D12F
:100DC0000D212846FFF74AFD80212846FFF7C6FC83
:100DD0000028F9D014F8011B2846FFF73FFD8021B9
:100DE0002846FFF7BBFC0028F9D020780028E5D181
:100DF000BDE87040FFF730BF0010014010B5044659
:100E000017480168002903D020468847002826D0CB
:100E100014A0E16900F0DCF816A0A16900F0D8F890
:100E200018A0616900F0D4F81AA0216900F0D0F888
:100E30001CA0E16800F0CCF81EA0A16800F0C8F882
:100E400020A0616800F0C4F822A0216800F0C0F87A
:100E500000F018FD014623A000F0BAF8FEE710BD2F
:100E6000A80000207073723A203078253038780A54
:100E7000000000002070633A203078253038780A6E
:100E800000000000206C723A203078253038780A53
:100E9000000000007231323A203078253038780A6C
:100EA000000000007230333A203078253038780A5C
:100EB000000000007230323A203078253038780A4D
:100EC000000000007230313A203078253038780A3E
:100ED000000000007230303A203078253038780A2F
:100EE0000000000068617264206661756C74206F98
:100EF0006E207468726561643A2025730A000000F0
:100F000070B50646121D22F00700A0F140052846E4
:100F10000022094C40F82240521C102AFAD30162E8
:100F2000002141628162C1620163436386634FF0C5
:100F30008071C163284670BDEFBEADDE10B5FFF70E
:100F400051F9044A1178491C1170BDE81040FFF7AF
:100F50004DB900002C00002010B5FFF743F9044AFA
:100F60001178491E1170BDE81040FFF73FB900002D
:100F70002C0000202DE9F04105460E46144630466F
:100F800000F0B9FC06F1140714B1012C1DD104E0E6
:100F90003946284600F043F817E02C680DE0A4F12C
:100FA000140096F8351090F83520914204D2394655
:100FB000143000F034F802E02468AC42EFD1AC42C7
:100FC00003D13946284600F02AF80020BDE8F08118
:100FD0000FB408B503AB00937F210548029A00F0D7
:100FE000FFFD0348FFF7E4FE01B05DF814FB0000CD
:100FF000301200200268516002680A600160486097
:1010000070470268516002680A600160486070477A
:101010000268516002680A60016048607047426877
:10102000116042684A60416008607047016881420F
:1010300001D101207047002070470168814201D131
:101040000120704700207047D0E900215160D0E9AD
:1010500000121160406000607047D0E900215160CB
:10106000D0E9001211604060006070472DE9F04740
:10107000002809D0C01C20F003053B4EF0688542D3
:1010800004D90020BDE8F0870020FBE70C2D00D23A
:101090000C254FF0FF31354800F0C5F9B7683168CD
:1010A000781AD6F80CC0ACEB050356E00C18628831
:1010B0008ABB6268121A0C3AAA424DD3626805F1E3
:1010C0001803121A0C3A4FF001094FF4F5589A42DE
:1010D00022D343190C33CA18A2F800804FF0000A3B
:1010E000A2F802A0D4F804A0C2F804A09060636043
:1010F000A4F8029050680CF10C0C604502D001F18C
:1011000008028350306928440C3030617269824291
:101110000ED270610CE01FE0A4F802906068621AC1
:10112000801A3269104430617269824200D2706163
:10113000A4F80080BC4203D008E040680844B060D6
:10114000B068428812B172689042F6D1074800F048
:101150004CF904F10C0095E760688342A6D8034877
:1011600000F043F900208DE730000020B01200208D
:1011700010B50346CCB2042A15D3810713D101461A
:1011800044EA042343EA034305E00B604B608B60B1
:10119000CB601031103A102AF7D201E008C1121FBB
:1011A000042AFBD20B46E1B201E003F8011B521EF8
:1011B000541CFAD110BD2DE9F04106460F463046C9
:1011C00000F03EF80546E868FFF750FF0446ACB172
:1011D00026720020607208223946204600F0BAF9D3
:1011E000FFF700F8064604F10C01281DFFF702FF87
:1011F0003046FEF7FBFF2046BDE8F0810020FBE70C
:1012000070B50446FEF7EEFF054604F10C00FFF74B
:101210001BFF2846FEF7EAFF2046BDE87040FFF7B7
:1012200033BD70B50446FEF7DDFF054604F10C0042
:10123000FFF70AFF2846BDE87040FEF7D7BF000061
:101240000021074A02EB01131B78834202D102EB13
:1012500001107047491C0429F4DB0020704700008E
:10126000480000202DE9F04104460D461746284667
:10127000FFF7E6FF064645F0800020720822394657
:10128000204600F067F9FEF7ADFF054604F10C01BA
:10129000301DFFF7AFFE2846BDE8F041FEF7A6BFC0
:1012A000007A000601D50120704700207047000039
:1012B00070B5FEF797FF0546174C608820B12846A9
:1012C000BDE87040FEF792BFA068FFF7CBFA421E60
:1012D000124850F8321014396068814216D02270DA
:1012E00061600F4A127842B11C311C30FEF781FF59
:1012F0002846BDE87040FEF779BF1C311C30FEF770
:1013000078FF2846BDE87040FEF770BF2846BDE86C
:101310007040FEF76BBF000088000020D012002054
:101320002C00002010B50446FEF75CFF024614F8BE
:10133000340F20F00F00401C207060780A49343CC4
:1013400001EBC00104F114004B6818604B68436066
:10135000486001600548A16B836819438160BDE85E
:1013600010401046FEF742BFD01200208800002037
:1013700070B50546FEF736FF014605F11404D4E9C1
:1013800000205060D4E9000210606460246095F889
:1013900035000A4A02EBC0000268824201D10120F6
:1013A00000E0002020B10648AB6B82689A4382605F
:1013B000BDE870400846FEF719BF0000D0120020BB
:1013C000880000202DE9F041054616461F460A46D2
:1013D00001212846FFF746FF2C4614346460246040
:1013E000AE836F720020BDE8F08170B50446002521
:1013F000FEF7F8FE064604F11400FFF717FE40B1B1
:10140000A08B401CA0833046FEF7F0FE012D06D0D5
:1014100007E06069143800F017FA0125F3E7FFF7D9
:1014200047FF002070BD73B50446FEF7DBFE06469D
:10143000A08B28B1401EA0833046FEF7D7FE21E0E6
:10144000019808B300F01EFA054600202863627A6E
:10145000294604F11400FFF78DFD0198002809DDED
:1014600005F1440001AA0021044600F0F7FA2046E5
:1014700000F034FB3046FEF7B9FEFFF719FF286B8A
:10148000002800D100207CBD3046FEF7AFFE6FF093
:1014900001007CBD08B509A0FFF79AFD0AA0FFF77F
:1014A00097FD12A0032300900022194612A0FFF717
:1014B0008FFDBDE8084018A0FFF78ABD0A205C2018
:1014C0007C202F0A000000002D205254202D2020C7
:1014D000202020546872656164204F7065726174C9
:1014E000696E672053797374656D0A0053657020C7
:1014F0003135203230313800202F207C205C2020F4
:1015000020202025642E25642E2564206275696CB8
:10151000642025730A0000002032303036202D2050
:101520003230313820436F70797269676874206295
:10153000792072742D746872656164207465616DC0
:101540000A000000014600E0491C0A78002AFBD18D
:10155000081A704710B5002A07D0034611F8014B4E
:1015600003F8014B14B1521EF8D110BD002101E067
:1015700003F8011B521EFBD110BD000070B50546DB
:101580000A46E81C20F0030122F00303182B21D99E
:10159000A3F118048C421DD3114C5A1A183AE26078
:1015A00021604FF4F5530B800C324A6000208860B4
:1015B000488048680844606003800121418042609F
:1015C00082600023012207A10848FFF7FBFE206884
:1015D000A06070BD2946BDE8704005A0FFF7F8BCCB
:1015E000300000206865617000000000B01200202B
:1015F0006D656D20696E69742C206572726F722042
:10160000626567696E206164647265737320307807
:1016100025782C20616E6420656E6420616464729C
:1016200065737320307825780A00000010B50A4BE6
:1016300000245C800020094A02EBC0014960096077
:10164000401C0828F8DB072018705C609C6002488A
:101650000C304060006010BD88000020D0120020D7
:1016600010B5074CA068FFF7FDF8401E054951F87A
:10167000300014386060BDE810401C30FEF7E7BD54
:1016800088000020D01200200020044A02EBC00194
:1016900049600960401C0028F8D07047A000002075
:1016A00070472DE9FF478046DDE90C678946924681
:1016B0001D4641460020FFF77EFD044620000FD066
:1016C0002846FFF7D3FC68B18DE8E10053464A464F
:1016D00041462046FFF704F9204604B0BDE8F087F4
:1016E0000020FAE72046FFF78BFD0020F5E700F029
:1016F000CFB8000070B513480468FEF773FD0546C7
:101700002046FFF735FE042084F8340004F144003D
:1017100000F0BEF92046FFF7C3FD012801D1206F7C
:1017200058B104F114010848FFF76BFC2846FEF796
:101730005DFDBDE87040FFF7BBBD2046FFF771FDC2
:10174000F4E700008C0000209400002000F002F874
:10175000FCE7000070B527E0FEF744FD0646FFF702
:10176000B5F868B319480468A4F11405D4E9001069
:101770004860D4E90001086064602460FFF75EFA05
:10178000296F09B1284688472846FFF789FD0128B7
:101790000FD0FFF761FA3046FEF728FDA86AFFF781
:1017A00073FA2846FFF72CFDFFF790F80028D3D1F5
:1017B00070BDFFF751FA3046BDE87040FEF716BD28
:1017C0003046BDE87040FEF711BD000094000020D7
:1017D0001FB52020C2000721094BCDE90210CDE939
:1017E000003207480023074A07A1783800F010F8B4
:1017F00004B00348BDE81040783800F069B8000034
:10180000301100204D1700087469646C65000000F9
:101810002DE9FF5F8146DDE90E76DDE9105488464B
:1018200092469B46424600214846FFF71BFDCDE904
:101830000076CDE902545B46524641464846FFF7E2
:101840004FF804B0BDE8F09F70B5044694F834003A
:1018500000F00F00022802D04FF0FF3070BDFEF7FD
:10186000C1FC054604F11400FFF7F7FB04F1440046
:1018700000F09EF92846FEF7B9FC2046FFF752FD1E
:10188000002070BD01480068704700008C000020F7
:10189000F1B5FEF7A7FC05460C480468204600F0A9
:1018A0002AF804F144006A460021064600F0D6F802
:1018B000304600F013F92846FEF798FCFFF7F8FCD5
:1018C000206B801C00D120630020F8BD8C0000201C
:1018D00010B534308178417001228A404260022183
:1018E00000F83419FFF7B0FFFFF7CCFF08B1FFF79E
:1018F000DFFC002010BD70B5044694F8340000F001
:101900000F00012802D04FF0FF3070BDFEF76AFCD7
:10191000054694F8340020F00F00801C84F8340051
:101920002046FFF725FD04F1440000F041F9284668
:10193000FEF75CFC002070BD10B504466FF001009E
:10194000206304F11400FFF788FB2046FFF7EAFC50
:10195000BDE81040FFF7ACBC70B5FEF743FC06468F
:101960001348046894F8340000F00F0001281AD1DD
:10197000D4E90501884216D004F114000546FFF7AA
:101980006CFB94F835000B4901EBC00041680D6019
:1019900041686960456028603046FEF727FCFFF724
:1019A00087FC002070BD3046FEF720FC002070BD93
:1019B0008C000020D0120020014800687047000011
:1019C0002800002010B509490868401C0860FFF78E
:1019D00059FF016C491E016419B9C16B0164FFF71D
:1019E000BBFFBDE8104000F003B800002800002055
:1019F00070B5FFF7E1FF0646FEF7F4FB054620E071
:101A000015480468143C6FF00041A06A301A8842FF
:101A10001CD22046FEF7B3FFD4E907108847FFF732
:101A2000CBFF0646607A810708D5C10706D020F0B3
:101A300001006072204600F051F802E020F0010041
:101A400060720548FFF7F9FA0028D9D02846BDE8AA
:101A50007040FEF7CBBB0000A0000020002909D099
:101A6000012904D0022908D003290FD10AE0406AD5
:101A700010600BE01168416208E0417A21F0020138
:101A8000417203E0417A41F0020141720020704747
:101A900070B50546FEF7A6FB04462846FEF76FFF25
:101AA0002046FEF7A3FB2846FFF7BBFB002070BDD6
:101AB0002DE9F8430746DDE9088415461E460A4627
:101AC00009213846FFF7CEFB4346324629463846C1
:101AD0000094FEF741FFBDE8F88300002DE9F843CC
:101AE0000446FEF77FFB05462046FEF748FF607A76
:101AF00020F0010060722846FEF778FBFFF75CFFDC
:101B0000616A0844A062FEF76DFB0746DFF89CC0DF
:101B1000CDF800C000226E460CEBC20045680DE017
:101B20000068A0EBC201A36A4969994204D0C91AAE
:101B30006FF00043994205D346F8220056F8220080
:101B4000A842EDD12AB156F822100831531C46F8AC
:101B50002310521C002ADFD01448001FD0F8008048
:101B600008F10108C0F8008004F114010098FFF7A3
:101B70004FFA02250EE05FEA88700DD1C5F1010031
:101B800004EBC001143156F82000FFF741FA4FEA88
:101B900098086D1C012DEED9607A40F0010060724A
:101BA0003846FEF723FB0020BDE8F883A0000020A4
:101BB00070B50446607AC0070ED0FEF713FB0546E9
:101BC0002046FEF7DCFE2846FEF710FB607A20F088
:101BD00001006072002070BD4FF0FF3070BD00004A
:101BE0002DE9FF4F83B082460AEB01077F1E544662
:101BF000A74201D24FF0FF374FF020094FF0250BDD
:101C000012E1252804D0BC4200D82070641C08E1F1
:101C100000250599491C059108782D2814D02B28FA
:101C200015D0202816D0232817D0302818D04FF0F0
:101C3000FF384646059A1278303A0A2A13D205A888
:101C400000F033F906461AE045F01005E1E745F0EB
:101C50000405DEE745F00805DBE745F02005D8E799
:101C600045F00105D5E72A2809D1491C05910698B8
:101C700040C80690002E02DA764245F0100505981D
:101C800001782E2918D1401C05900178A1F130026D
:101C90000A2A04D205A800F008F9804607E02A299C
:101CA00005D1401C0590069850F8048B0690B8F1B9
:101CB000000F01DA4FF000080021059A107868281B
:101CC00001D06C2802D10146521C05920A230598C6
:101CD00000786F2871D00CDC632820D004DC252824
:101CE0006CD058280DD187E0642801D0692808D12C
:101CF00086E0702863D073282FD0752871D078289B
:101D00007CD0BC4201D884F800B0641C05990878E6
:101D1000002868D0BC4200D82070641C81E0E8062E
:101D200005D507E0BC4201D884F80090641C761EFB
:101D3000002EF7DC069810F8041B0690C8B2BC42CF
:101D400000D82070641C04E0BC4201D884F80090E4
:101D5000641C761E002EF7DC63E0069808C8069027
:101D600003B941A31846FFF7EDFBB8F1000F02DD00
:101D7000404500DD4046E90605D508E0BC4201D8F3
:101D800084F80090641C3146761E8142F6DC002106
:101D900006E0BC4201D81A782270641C5B1C491C06
:101DA0008142F6DB04E0BC4201D884F80090641C58
:101DB0003146761E8142F6DC33E01BE014E0701CF5
:101DC00002D1082645F00105CDE900680698029584
:101DD000102304C8069039462046FEF769FE0446E3
:101DE0001FE00FE00AE028E0BC4201D884F800B010
:101DF000641C16E0082305E045F04005102301E0CF
:101E000045F002056C291BD068291DD0069804C82E
:101E10000690CDE90068394620460295FEF748FE57
:101E200004460598401C05900598007800287FF42A
:101E3000E8AEBC4211D8207010E0491E0591F0E7D1
:101E4000069804C80690E4E7069830F8041B06904C
:101E50008AB2A807DDD512B2DBE7387007B0A4EB71
:101E60000A00BDE8F08F0000284E554C4C290000B8
:101E70000020704700207047002070470020704706
:101E800010B5FEF7AFF9FEF769FFFFF703FBFFF7A9
:101E9000FBFBFFF7CBFBFEF79FFEFFF701FCFFF715
:101EA00097FCFFF7DDFB002010BD10B502460020B7
:101EB0006FF02F0407E04B1C1360097800EB8000E3
:101EC00004EB4000084411680B78303B0A2BF2D336
:101ED00010BD00000100020001000300010002002B
:101EE00001000400010002000100030001000200E3
:101EF00001000500010002000100030001000200D2
:101F000001000400010002000100030001000200C2
:101F100001000600010002000100030001000200B0
:101F200001000400010002000100030001000200A2
:101F30000100050001000200010003000100020091
:101F40000100040001000200010003000100020082
:101F5000010007000100020001000300010002006F
:101F60000100040001000200010003000100020062
:101F70000100050001000200010003000100020051
:101F80000100040001000200010003000100020042
:101F90000100060001000200010003000100020030
:101FA0000100040001000200010003000100020022
:101FB0000100050001000200010003000100020011
:101FC0000100040001000200010003000100020002
:101FD0000100303132333435363738396162636469
:101FE0006566003031323334353637383941424353
:101FF000444546007D1E0008751E0008711E00083D
:10200000791E00082420000800000020B80000000D
:10201000AC080008DC200008B800002058160000BA
:10202000BC0800080095BA0A00000000000000008B
:10203000010203040607080900000000010203046E
:102040000102030406070809000000000000000068
:102050000000000000000000000000000000000080
:102060000000000000000000000000000000000070
:102070004C0000204C00002078000000010000000F
:102080005C0000205C000020200000000400000034
:102090006C0000206C0000203000000009000000EF
:1020A0007C0000207C0000202C00000000000000CC
:1020B0000000000000000000000000000000000020
:1020C0000000000000000000000000000000000010
:0C20D00000000000000000000000000004
:04000005080001AD41
:00000001FF
