:020000040800F2
:10000000003C0020C1010008C90100088B02000863
:10001000CD010008CF010008D10100080000000058
:10002000000000000000000000000000D3010008F4
:10003000D50100080000000013020008D90F0008D5
:10004000DB010008DB010008DB010008DB01000820
:10005000DB010008DB010008DB010008DB01000810
:10006000DB010008DB010008DB010008DB01000800
:10007000DB010008DB010008DB010008DB010008F0
:10008000DB010008DB010008DB010008DB010008E0
:10009000DB010008DB010008DB010008DB010008D0
:1000A000DB010008DB010008DB010008DB010008C0
:1000B000DB010008DB010008DB010008DB010008B0
:1000C000DB010008DB010008DB010008DB010008A0
:1000D000DB010008DB010008DB010008DB01000890
:1000E000DB010008DB010008DB010008DB01000880
:1000F000DB010008DB010008DB010008DB01000870
:10010000DB010008DB010008DB010008DB0100085F
:10011000DB010008DB010008DB010008DB0100084F
:10012000DB010008DB010008DB010008DB0100083F
:10013000DB010008DB010008DB010008DB0100082F
:10014000DB010008DB010008DB010008DB0100081F
:10015000DB010008DB010008DB010008DB0100080F
:10016000DB010008DB010008DB010008DB010008FF
:10017000DB010008DB010008DB010008DB010008EF
:10018000DB010008DB010008DB010008DB010008DF
:10019000DB010008DB010008DB010008DB010008CF
:1001A000DB010008DB010008DB010008DFF80CD0F0
:1001B00000F098F8004800475F030008003C00206A
:1001C0000648804706480047FEE7FEE7FEE7FEE7F1
:1001D000FEE7FEE7FEE7FEE7FEE7FEE7ED0F0008BD
:1001E000AD010008EFF3108072B6704780F31088FD
:1001F00070472B4A1368012B04D04FF001031360A2
:10020000284A1060284A116028484FF08051016048
:100210007047EFF3108272B62148016891B14FF038
:10022000000101601F48016829B1EFF3098121E94C
:10023000F00F006801601C4909680968B1E8F00F17
:1002400081F3098882F310884EF0040E7047164936
:10025000086014494FF00000086011494FF0010098
:10026000086013484FF47F01D0F8002041EA0201F2
:1002700001600E484FF0805101600E480068006830
:1002800080F3088861B662B67047EFF3098000B565
:1002900003F00CFA5DF804EB4EF0040E704700001A
:1002A00038010020300100203401002004ED00E07E
:1002B00020ED00E008ED00E030B50B4601460020DF
:1002C0002022012409E021FA02F59D4205D303FA18
:1002D00002F5491B04FA02F52844151EA2F1010299
:1002E000F1DC30BD064C074D06E0E06840F001034C
:1002F00094E8070098471034AC42F6D3FFF75AFF52
:1003000014FE020834FE020870B58C1810F8015B68
:1003100015F0070301D110F8013B2A1106D110F89E
:10032000012B03E010F8016B01F8016B5B1EF9D1A2
:100330002B0705D40023521E0DD401F8013BFAE728
:1003400010F8013BCB1A921C03E013F8015B01F893
:10035000015B521EF9D5A142D8D3002070BD10B563
:10036000FFF740FF04F01CFB002010BD70B586B005
:100370000121084600F00CFB0121102000F016FBC3
:1003800000248DF8164001208DF8170002258DF805
:1003900015508DF81450400204901C4E04A93046AC
:1003A00000F028FA8DF814506902049104A930462F
:1003B00000F020FA07220A21304600F059FA0722FD
:1003C0000921304600F054FA4FF4E1300090ADF8C6
:1003D0000440ADF80640ADF80840ADF80C400C20E4
:1003E000ADF80A000A4C6946204600F055FE00F0C0
:1003F0007DFA012240F22551204600F032FE012113
:10040000204600F01BFE06B070BD00000000024058
:100410000010014070B5FFF7E5FE0546012221A15D
:10042000214801F017FF214C20700D2809D0002829
:100430002FD001461EA003F041FA27A003F03EFA98
:10044000FEE72FA003F03AFA0022114615A001F0B2
:100450004BFC207068B135494FF480600880410042
:100460003248801E01808114018031A003F026FAF9
:10047000FEE735A003F022FA01220AA1002001F0D4
:10048000E9FE2070012207A1074801F0E3FE207079
:1004900002E035A003F012FA2846BDE87040FFF7ED
:1004A000A5BE0000313A00004C15002030000020AD
:1004B000A3A1A3A1CDE2B2BF466C617368B9D2D447
:1004C000D8CEC4BCFECFB5CDB3CAA7B0DCA1A3289B
:1004D0002564290D0A000000A3A1A3A1BFC9C4DCA3
:1004E000D4ADD2F2A3BA53504920466C617368B3BD
:1004F000F5CABCBBAFB2BBB3C9B9A6A1A30D0A0074
:10050000A1B7464C415348BBB9C3BBD3D0CEC4BC42
:10051000FECFB5CDB3A3ACBCB4BDABBDF8D0D0B8A5
:10052000F1CABDBBAF2E2E2E0D0A00001A1C0240D0
:10053000A1B6A1B6B8F1CABDBBAFCAA7B0DCA1A332
:10054000A1B7A1B70D0A0000A1B7464C415348D24C
:10055000D1B3C9B9A6B8F1CABDBBAFCEC4BCFECF3A
:10056000B5CDB3A1A30D0A00A1B7CEC4BCFECFB5D3
:10057000CDB3B9D2D4D8B3C9B9A6A3ACBFC9D2D46C
:10058000BDF8D0D0B6C1D0B4B2E2CAD40D0A0000D2
:100590002DE9F04735A003F091F90A223EA1444825
:1005A00001F098FE434C2070434F4FF48066BD1E0F
:1005B0004FF400684FF48059002823D03E80A5F8FE
:1005C0000080A5F800903DA003F078F9217842A0C2
:1005D00003F074F943A003F071F901222EA134480D
:1005E00001F078FE2070002825D03E80A5F800801C
:1005F000A5F8009045A003F061F9BDE8F0472C484C
:1006000001F05FBB47A003F059F92A4B64221B1D80
:10061000191D274802F055F8207038B1014651A045
:1006200003F04CF9224801F04CFBD3E753A061687A
:1006300003F044F9F6E72E80A7F80080A5F80090B3
:1006400057A003F03BF91B4B32461B1D5949184874
:1006500001F0F4FE207020B1014657A003F02EF9FE
:10066000CBE75BA0616803F029F9C6E70D0A2A2AE7
:100670002A2A2A2A20BCB4BDABBDF8D0D0CEC4BC37
:10068000FED0B4C8EBB2E2CAD42E2E2E202A2A2ADB
:100690002A2A2A0D0A000000313A4661744673B6D0
:1006A000C1D0B4B2E2CAD4CEC4BCFE2E74787400F9
:1006B00080250020300000201A1C0240A3A1A3A125
:1006C000B4F2BFAA2FB4B4BDA8CEC4BCFECAA7B0B2
:1006D000DCA1A30D0A0000006572203D20256420E6
:1006E0000A0000002A2A2A2A2A2A20BCB4BDABBD4F
:1006F000F8D0D0CEC4BCFEB6C1C8A1B2E2CAD42ED6
:100700002E2E202A2A2A2A2A2A0D0A00A3A1A3A1D2
:10071000B4F2BFAACEC4BCFECAA7B0DCA1A30D0A26
:1007200000000000A1B7B4F2BFAA2FB4B4BDA84620
:1007300061744673B6C1D0B4B2E2CAD4CEC4BCFEB2
:100740002E747874CEC4BCFEB3C9B9A6A3ACCFF2E4
:10075000CEC4BCFED0B4C8EBCAFDBEDDA1A30D0A59
:1007600000000000A3A1A3A1CEC4BCFED0B4C8EB7E
:10077000CAA7B0DCA3BA282564290A00A1B7CEC451
:10078000BCFED0B4C8EBB3C9B9A6A3ACD0B4C8EB17
:10079000D7D6BDDACAFDBEDDA3BA25640A000000C3
:1007A000A1B7B4F2BFAACEC4BCFEB3C9B9A6A1A377
:1007B0000D0A00004C110020A3A1A3A1CEC4BCFED1
:1007C000B6C1C8A1CAA7B0DCA3BA282564290A000B
:1007D000A1B7CEC4BCFEB6C1C8A1B3C9B9A62CB6D8
:1007E000C1B5BDD7D6BDDACAFDBEDDA3BA25640D3D
:1007F0000A0000002DE9F041002201274FF0030C10
:1008000007FA02F50B682B40AB422CD10668530067
:100810000CFA03F4A64306600E79D0F800809E40DF
:1008200046EA080606600E79012E01D0022E12D18A
:100830008668A64386604E79D0F808809E4046EAD6
:10084000080686604668AE43466045688E799640E5
:10085000B6B235434560C568A543C560CC799C40B8
:10086000C3681C43C460521C102AC9D3BDE8F08180
:1008700010B54B07DB0E9A40C90800EB8100016AF6
:100880000F249C40A1430162016A1143016210BD23
:100890002DE9FC410121802000F07AF84FF48064BA
:1008A000009401208DF8040000218DF806108DF8C9
:1008B00007008DF805100C4F69463846FFF79AFF80
:1008C0006600009669463846FFF794FFA50000953C
:1008D00069463846FFF78EFF0348183004800680CB
:1008E0000580BDE8FC810000001C024008B54FF403
:1008F000A06000F043F825208DF8000001208DF85D
:1009000001008DF802008DF80300684600F002F83F
:1009100008BD000030B50F23C27801250178002AF8
:100920001FD0154A126802F4E062C2F5E062C2F319
:100930000722C2F10404D3404278A24084781C40CC
:100940001443220101F1E02181F80024007800F035
:100950001F018D404009800000F1E020C0F80051E7
:1009600030BD01F01F0085404809800000F1E02003
:10097000C0F8805130BD00000CED00E00249084392
:1009800002490860704700000000FA050CED00E025
:10099000054A002903D011680143116070471168AE
:1009A000814311607047000030380240054A002939
:1009B00003D01168014311607047116881431160D1
:1009C000704700004438024070B5244B196801F0AC
:1009D0000C01234C00291ED0224E04291DD00829C9
:1009E0001DD00460196801F0F00109091E4A545C29
:1009F0000168E14041601C6804F4E054A40A145DFD
:100A000021FA04F484601B6803F460435B0BD25C3E
:100A1000D140C16070BD0460E4E70660E2E70F4AC0
:100A2000121F1168C1F38055116801F03F0135B103
:100A3000B6FBF1F11468C4F38814614305E0B4FB1C
:100A4000F1F11468C4F3881461431268C2F30142DF
:100A5000521C5200B1FBF2F10160C3E708380240BA
:100A60000024F40040787D0114000020002904D007
:100A7000018841F0400101807047018821F0400168
:100A8000018070472DE9F04104460F4615460F4896
:100A900040260680032000F079F9C7F3074000F0F4
:100AA00075F9C7F3072000F071F9F8B200F06EF99C
:100AB00004E0FF2000F06AF904F8010B6D1EADB2EE
:100AC000F7D20248801E0680BDE8F0811A14024069
:100AD0002DE9F04706460D46E8B24142CFB2140A6E
:100AE00002F0FF094FF48078002812D0E8B24042AB
:100AF000C0B205EB000A34B3D01B80B2040A00F088
:100B0000FF093A462946304600F0B8F855463E44BB
:100B100039E074B929463046BDE8F04700F0AEB878
:100B200042462946304600F0A9F805F5807506F5DD
:100B30008076641EE4B2F3D24A4629463046BDE8C8
:100B4000F04700F09BB8B9450ED9A9EB0700C4B235
:100B50003A462946304600F091F85146F0192246AF
:100B6000BDE8F04700F08AB829463046BDE8F047B6
:100B700000F084B842462946304600F07FF805F57B
:100B8000807506F58076641EE4B2F3D2B9F1000FE9
:100B900006D04A4629463046BDE8F04700F06EB818
:100BA000BDE8F0872DE9F04387B001212020FFF751
:100BB000EFFE01210805FFF7F9FEDFF8B8900522E6
:100BC00007214846FFF754FE052208214846FFF753
:100BD0004FFE052209214846FFF74AFE802000907B
:100BE00002258DF805508DF8045000248DF806403C
:100BF0008DF8074069464846FFF7FCFDE801009084
:100C000069464846FFF7F6FD4FF40078CDF80080BE
:100C100069464846FFF7EEFD4027009701268DF80C
:100C2000046069464846FFF7E5FD12481830078022
:100C3000ADF808404FF48270ADF80A00ADF80C40F2
:100C4000ADF80E50ADF81060ADF81280ADF814405C
:100C5000ADF816400720ADF81800074C02A9204651
:100C600000F013F901212046FFF700FF07B0BDE8AF
:100C7000F083000000140240005001402DE9F041D3
:100C800005460F46144600F0D9F813484026068062
:100C9000022000F07BF8C7F3074000F077F8C7F3B5
:100CA000072000F073F8F8B200F070F8B00084424A
:100CB00008D9044609A000F051FA03E0287800F0B2
:100CC00065F86D1C641EA4B2F8D20348801E06802D
:100CD000BDE8F04100F092B81A1402403C3C2D46A9
:100CE0004C4153482D4552524F522D3E3E205350B9
:100CF000495F464C4153485F50616765577269745C
:100D00006520746F6F206C61726765210A000000B6
:100D100070B50D48402404809F2000F037F8FF2074
:100D200000F034F80546FF2000F030F80646FF20BA
:100D300000F02CF801460448801E0480280440EA94
:100D40000620084370BD00001A14024070B5044626
:100D500000F074F800F052F80B4840250580202080
:100D600000F014F8C4F3074000F010F8C4F30720B3
:100D700000F00CF8E0B200F009F80348801E05808E
:100D8000BDE8704000F03AB81A1402402DE9F04175
:100D90000746184C4FF480552560174E09E020682F
:100DA000411E216005D2002000F08CF8C0B2BDE8E1
:100DB000F0810221304600F05DF80028EFD039467E
:100DC000304600F060F8256008E021684A1E226085
:100DD00004D2012000F076F8C0B2E8E701213046E5
:100DE00000F048F80028F0D0304600F04AF8C0B2D1
:100DF000DDE700002C0000200050014070B50D48D8
:100E0000402505800520FFF7C1FF0B4CA80120609D
:100E1000FF20FFF7BBFF21684A1E226004D2BDE815
:100E20007040042000F04EB8C007F1D10148801E88
:100E3000058070BD1A1402402C00002010B5054832
:100E4000402404800620FFF7A1FF0248801E048092
:100E500010BD00001A14024010B50548402404805B
:100E6000AB20FFF793FF0248801E048010BD0000F6
:100E70001A1402400246002012890A4200D00120C2
:100E80007047808970478181704730B5028802F4CD
:100E900041530A884C88CD8822438C882C432243B6
:100EA0000C8922434C8922438C892243CC892243DA
:100EB0001A430280828B22F400628283098A0182B3
:100EC00030BD000010B5014602A000F047F9002037
:100ED00010BD00003C3C2D464C4153482D4552521C
:100EE0004F522D3E3E2053504920B5C8B4FDB3ACFF
:100EF000CAB1216572726F72436F6465203D20250F
:100F0000640A00001CB50021019100912E4A10686E
:100F100040F4803010604FF4A043106800F40030BB
:100F200000900198401C0190009810B901989842D7
:100F3000F3D11068800302D50120009000E00091F9
:100F4000009801283FD120484030016841F080518D
:100F500001601E49086840F4404008601A480830A3
:100F600003680360036843F400430360036843F4C9
:100F7000A0530360041F164B2360136843F0807373
:100F8000136013689B01FCD50A6842F480320A6042
:100F90004A68D203FCD50A6842F400320A604A6803
:100FA0009203FCD50B4A40F205711160016821F0F3
:100FB00003010160016841F0020101600168C1F3B1
:100FC00081010229FAD11CBD0038024000700040A6
:100FD000195A4007003C024010B502F007FC03F02C
:100FE00081FABDE8104002F00FBC000010B50F48B8
:100FF000016841F0010101600C4A002108321160D2
:1010000002680B4B1A400260031D0A4A1A6002680C
:1010100022F48022026005480C300160FFF772FF65
:1010200005494FF00060086010BD00000038024024
:10103000FFFFF6FE1030002408ED00E0002904D088
:10104000818941F4005181817047818921F40051E7
:10105000818170470246002012880A4200D0012098
:10106000704710B540F66A13C1F3421301F01F0434
:101070000121A140012B07D0022B07D014303AB137
:1010800002680A43026010BD0C30F8E71030F6E742
:1010900002688A43026010BD7FB504460D46208A6F
:1010A00020F44051E88808432082A08941F20C6175
:1010B0008843A9882A8911436A8902431143A1817F
:1010C000A08A20F44071A8890843A0826846FFF7EF
:1010D0007BFC1E48844202D01D48844201D1039803
:1010E00000E00298A189090408D500EBC00101EBDA
:1010F000001029684900B0FBF1F007E000EBC001E7
:1011000001EB001029688900B0FBF1F06422B0FB0C
:10111000F2F109010B096FF018056B4300EB830036
:10112000A3891D044FF0320307D503EBC000B0FBC9
:10113000F2F000F00700084306E003EB0010B0FBFC
:10114000F2F000F00F00084320817FBD0010014045
:1011500000140140C1F30801818070470FB4054BB2
:1011600010B503A9044A029800F046F810BC5DF8D7
:1011700014FB0000E92D000848010020002807D0DA
:101180000F4910F0FF0F05D0C0B2085C401C70473B
:101190000020704710F47F4F04D0C0F30720085C94
:1011A0000930704710F47F0F04D0C0F30740085C8B
:1011B0001130704701EB1060007819307047000063
:1011C000E64B000802E008C8121F08C1002AFAD145
:1011D00070477047002001E001C1121F002AFBD1B7
:1011E0007047000003480168814201D00120704728
:1011F00000207047180100202DE9FF4F89B09B4661
:101200000446002506E025280BD05A460B99904746
:10121000641C6D1C20780028F5D10DB02846BDE86F
:10122000F08F0027B8460122474900E0074314F831
:10123000013F203B02FA03F00842F7D120782E2824
:1012400019D114F8010F47F004072A280ED06FF0C7
:101250002F022078A0F1300109290CD808EB880171
:1012600002EB410100EB0108641CF2E70A98641CE0
:1012700050F8048B0A9020780028CED0642808D03B
:10128000692806D075281ED05A460B9990476D1CC8
:1012900058E00A994FF00A0901C90A91002802DAB8
:1012A00040422D2102E0390504D52B218DF8201074
:1012B000012103E0F90704D02021F7E78A4608AEB0
:1012C0000DE00021FAE70A994FF00A0901C90A91D5
:1012D000F7E74946FEF7F0FF303106F8011D002818
:1012E000F7D1ADEB060000F12009780701D44FF0EB
:1012F0000108C84502DDA8EB090000E00020804697
:10130000002706E008A85A46C05D0B9990476D1C5F
:101310007F1C5745F6DB04E030205A460B99904776
:101320006D1CB8F10001A8F10108F5DC05E016F824
:10133000010B5A460B9990476D1CB9F10001A9F1B8
:101340000109F4DC641C65E7092801002DE9FC4172
:101350001F46DDE90A65DDE90831044604F11400A1
:10136000406000601C346260A760E36021610A464F
:101370002321184602F072FBD4E903014218D4E994
:101380000101121F0D4B02F013FA2060A67666765B
:101390000020E06125626562606120766065A0657D
:1013A0001C3C009001902346054A214604F144006C
:1013B00003F00EF90020BDE8FC8100001542000892
:1013C0005944000810B5029C24F001044472C16124
:1013D000026200218162436200EBC102143252605A
:1013E0001260491C0129F7DB10BD10B5002200EB8B
:1013F000C2011431D1E900436360D1E900342360B4
:1014000049600960521C012AF1DB10BD10B5044689
:1014100000202071401E2063204601F092FE08B19A
:10142000032010BD94F8320294F8331240EA0120F0
:10143000A0F52A41553901D0022010BD14F86A0FD9
:10144000E178627840EA0161A0786A3C000440EAF1
:10145000022001430B48B0EB012F01D1002010BD49
:1014600014F8861FE278637841EA0261A2781204D8
:1014700042EA03221143B0EB012F01D1002010BD3D
:10148000012010BD0046415400E0401C02780AB122
:101490008A42FAD100787047891E8269921E8A4278
:1014A00001D800207047C26A807801FB0020704795
:1014B0002DE9F05F81460E46B07EF17E50EA0120B4
:1014C00002D00020BDE8F09F307800F03F00401EC1
:1014D00000EB800101EBC00401200025DFF860A0D3
:1014E00006F101081AF80510725C11F8081042EABA
:1014F000012788B1FF2C0BD2384601F039FA834618
:101500002046641C39F8100001F032FA834501D0FE
:101510000020D7E7384605E0A7F57F41FF3901D025
:101520000020CFE76D1C0D2DDCD33178490605D5A1
:1015300020B139F8140008B10020C3E70120C1E749
:10154000084D00082DE9F04106460F46002F08D04F
:101550003946304601F0A6FC022809D20120BDE838
:10156000F081356915B1B069A84207D8012505E0B9
:10157000411CF4D0B1698142F1D83D462C46641C2F
:10158000B069A04204D80224022D01D20020E6E76F
:101590002146304601F086FC38B1411CDFD00128DD
:1015A000DDD0AC42EBD10020D9E76FF0704221468C
:1015B000304601F09FFE28B927B122463946304611
:1015C00001F098FE20B101280DD001242046C6E785
:1015D00034617069411CF9D0401E7061707940F02F
:1015E00001007071F2E74FF0FF34EFE72DE9F35F90
:1015F0008846D8F8006000E0761C30782F28FBD0B1
:101600005C28F9D00098D0F81CA000242546284674
:101610006D1C305C202808D32F2806D05C2804D00D
:10162000FF2C09D30620BDE8FC9F7119C8F80010F3
:1016300020282AD2042532E0C0B2A0F181017D2900
:101640000ED829466D1C715C01EB002080B2A1F11F
:1016500040023F2A04D380397F2901D30620E2E7E4
:10166000012101F039F9074647B1802F08D23946E8
:1016700065A0FFF709FF18B10620D4E70620D2E7DE
:101680002046641C2AF81070C1E7002507E0601EA0
:101690003AF81000202801D02E2802D1641E002C18
:1016A000F5D154B100202AF8140000980B22202113
:1016B000806901F03EFD002702E00620B3E77F1CB1
:1016C0003AF817002028FAD02E28F8D01FB145F09C
:1016D000030500E0641E24B1601E3AF810002E28B5
:1016E000F8D14FF00008C1464FF0080B38467F1C78
:1016F0003AF8106006B3202E03D02E2E04D1A74254
:1017000002D045F00305F1E7D84501D2A74219D12F
:10171000BBF10B0F0ED0A74201D045F003050BD84B
:1017200027464FF008084FF00B0B4FEA89604FEA4D
:101730001069DBE745F00305009880690178E52929
:101740003DD03EE0802E08D3304601F011F9002153
:1017500001F0C2F8064645F00205FF2E0FD9ABF1A5
:101760000100804503D345F00305D846BEE7009845
:10177000310A8269404608F10108115418E026B187
:10178000314624A0FFF780FE18B15F2645F003051F
:101790000EE0A6F14100192802D849F0020907E03D
:1017A000A6F16100192803D849F00109203EB6B21C
:1017B00000988169404608F101080E5496E705211A
:1017C0000170BBF1080F03D14FEA89604FEA10693D
:1017D000C9F38100032803D06FEA0901890701D109
:1017E00045F00205A90709D409F00301012901D137
:1017F00045F01005012801D145F0080500988069E1
:10180000C57200200FE70000222A3A3C3E3F7C7F51
:10181000000000002B2C3B3D5B5D000070B50546D1
:101820000E460021284600F08AF988B9002429696B
:10183000286801F086FC58B969690978E5290BD058
:1018400051B100240121284600F06DF80028EED0A7
:10185000042800D1072070BD641CB442F8D0F1E721
:101860002DE9F04704460021204600F068F90028E1
:1018700057D1FF26B1464FF6FF7AA4F820A0216980
:10188000206801F05EFC80465FEA080048D1676985
:101890003D7865B1F87A00F03F00E52D03D00107EF
:1018A00008D50F2806D0FF26A4F820A030E04FF07E
:1018B000040835E00F2801D0CEB11DE0E06938B34F
:1018C000690606D597F80D9025F040052E46E1886B
:1018D0002184B54208D1797B494505D13946FFF7C6
:1018E000E7FD08B1761E00E0FF26F6B210E03846AC
:1018F00003F087F8484513D0A169C87AC00704D11E
:101900000B22384601F0FFFB50B1FF26A4F820A0BF
:101910000021204600F007F880465FEA0800AED0BC
:101920004046BDE8F0872DE9F04104460E46E788C1
:101930007F1C3804000C0AD0216941B1206842891B
:101940005209B7FBF2F302FB13721AB166E00420EE
:10195000BDE8F081491C2161E16871B14289837859
:101960005209B7FBF2F25B1E1A4257D101F09AFA04
:101970000546012D06D80220EAE70089B8424DD875
:101980000420E5E7681C14D020688169A9423FD88B
:101990008EB1E168FFF7D6FD054628000DD0012D78
:1019A0000DD0681C0DD0206803F092F858B10120CA
:1019B000CEE70120CCE70420CAE70720C8E70220D1
:1019C000C6E70120C4E7206800214289343001F0D5
:1019D000B0FB29462068FFF75FFD216808630026F9
:1019E0004FF001080CE080F80480206803F070F8E4
:1019F00008B10120ACE72068016B491C0163761C2B
:101A000020688178B142EED82168096B891B016397
:101A1000E56029462068FFF73FFD2061E7802068E8
:101A200041894909B7FBF1F201FB1271342202EB43
:101A300041110844606100208AE72DE9FE43044615
:101A4000A769E6690C223946684601F069FB9DF8F2
:101A50000B00C00718D00020F872E06101252B466A
:101A600032466946384601F0D1F92046FFF7F8FEC4
:101A700010B96D1C642DF2D3642D0BD004280AD14B
:101A80009DF80B00F872E6619DF80B0080070ED5FB
:101A9000002003E00720BDE8FE83401C36F810104C
:101AA0000029FAD119300D21B0FBF1F600E0012632
:101AB00031462046FFF7B2FE054601271DBB761EC4
:101AC00021D0E088811B204600F039F80546280027
:101AD00019D1A06902F095FF80462169206801F0C4
:101AE00030FB05467DB9F2B243466169E06901F019
:101AF0000FF92068077100212046FFF714FF054603
:101B00000DB9761EE9D1C5B92169206801F019FB2C
:101B10000546280011D120220021606901F009FB4F
:101B2000D4E905010B2201F0FBFAA0696169C07AD2
:101B300000F018000873206807712846ABE770B5FD
:101B400004460D46E580A368012B03D02068816917
:101B5000994201D8022070BD1BB90178032900D138
:101B6000836A2BB141898078490911FB00F618E09E
:101B70000189A94201D8022070BD806A17E0194688
:101B8000206801F08FF90346581C07D0022B03D3BD
:101B900020688069984203D8022070BD012070BD82
:101BA000AD1BB542EBD219462068FFF775FCE36028
:101BB00098B121684A895209B5FBF2F210442061BC
:101BC00048894009B5FBF0F200FB1250342202EBC9
:101BD000401008446061002070BD022070BD10B547
:101BE00001460120002910D001290ED1FEF7DAFFAD
:101BF0004FF4FA70401E0004000CFBD1FFF72CF9E3
:101C0000BDE81040012000F02FB810BD03460420AD
:101C1000002B13D0012B11D1012904D0022906D0A9
:101C200003290AD107E04FF42060106005E04FF46B
:101C30008050108001E0012010600020704770B5D6
:101C400004460D460420002C0DD0012C0BD102F5CA
:101C5000C0624FF6FF7000EA0330110302462846C7
:101C6000FEF710FF002070BD10B50124002807D03A
:101C7000012805D1FFF74CF80249884200D1002421
:101C8000204610BD1840EF0070B504460E461D46B4
:101C90000420002D13D0002C10D0012C0ED102F501
:101CA000C06214032046FFF751F84FF6FF7000EAB8
:101CB000053221463046FEF70BFF002070BD0420A0
:101CC00070BD70B50546284600F0A4FC04464CB92A
:101CD000284602F06DFF044624B9286800212960D7
:101CE00002F058FF204670BD2DE9F74F88B09046AE
:101CF0000998012803D913200BB0BDE8F08F08A87C
:101D000001F054F9002801DA0B20F5E7FE4951F8FB
:101D1000206056B100213170C0B205900598FFF7E0
:101D20005EFFC10703D00320E6E70C20E4E740078D
:101D300001D50A20E0E706F10A0202210598FFF723
:101D400065FF30B97089B0F5805F02D8B0F5007FCB
:101D500001D20120D0E702AA01210598FFF756FF22
:101D600010B90298802801D20120C5E7099911B164
:101D70004FF0000A01E04FF03F0AA0EB0A01029188
:101D8000A8F1010018EA000F01D04FF00008B8F1E7
:101D9000000F13D170894FF4FA62400AB2FBF0F0E1
:101DA000B1FBF0F20020D94B00E0401C33F810509A
:101DB0009542FAD8D54A163232F81080B8F5007F2D
:101DC00002D37089B8FBF0F8B8F1000F01D14FF0E1
:101DD0000108B8F1800F01D94FF08008B1FBF8F08D
:101DE000012740F6F672904200D302274FF6F672B2
:101DF000904200D30327032F1BD0012F24D0420091
:101E0000121D7089521E0244B2FBF0F90125AA038B
:101E1000B2FBF0F001900AEB050B0BEB0900019A05
:101E2000841804EB0800A0EB0A00884212D90E20A7
:101E300062E77289072303EB80001044B0FBF2F9DC
:101E4000202500200190E6E700EB4000401C4208FE
:101E5000D21CD6E703AA03210598FFF7D7FE20B9C5
:101E6000039810B1B0F5004F01D9012003900398F9
:101E70002118491E401E8143081B0390032F0CD0DC
:101E800081440298411BA1EB09020199511AB1FB4F
:101E9000F8F10491022F03D007E005448344F0E7F2
:101EA000049940F6F672914206D3032F06D10499A5
:101EB0004FF6F672914201D20E201DE7032F02D099
:101EC000012F02D006E00C240AE0B0F5803F01D2D9
:101ED000012405E0B0F5803F01D2042400E006248F
:101EE000099810B1F020069039E0728906F13400AB
:101EF0000021079001F01DF906F5F97001214170EC
:101F000081700022C2700471FE214171029943F672
:101F1000C1635144B1FBF3F103913F2343EA9104C0
:101F20008471C171037242728272C272029901732A
:101F30000A0A42730A0C8273090EC173552086F88F
:101F40003202AA2086F8330201230022079905985D
:101F5000FFF79AFE08B10120CEE6F820069006F1C0
:101F6000340472890021204601F0E3F80B2268A1B5
:101F7000204601F0D5F87089E072000A207384F8D9
:101F80000D80A573280AE07301202074032F0BD065
:101F900040026074000AA0740298B0F5803F05D238
:101FA000E074000A20750AE00020F2E704F8200F30
:101FB000010A6170010CA170000EE070203C0698CF
:101FC00060753F20207600206076FF21A176E076C4
:101FD00084F81CA04FEA1A2060774FEA1A40A077D5
:101FE0004FEA1A60E07700F0DDFF0390802229219C
:101FF000032F24D016346074030AA374030CE37413
:10200000000E207584F800904FEA19206070A273CA
:102010002174163C132241A104F12B0001F080F839
:10202000552084F8FE01AA2084F8FF0101235246BE
:1020300021460598FFF728FE60B301205CE62534B1
:10204000A077030AE377030C84F82030000E84F8AD
:10205000210004F8019C4FEA192020704FEA194032
:1020600060704FEA1960A0700220E07100202072B9
:102070006072A0720123E372207306236373A0735E
:10208000E2766177253C132229A104F1470001F093
:1020900047F8C5E7032F06D101230AF106022146BE
:1020A0000598FFF7F1FD5D464FF0000B72890021A6
:1020B000204601F03EF806980390032F12D0012F1E
:1020C0000ED06FF0FF010143039121700398000AC5
:1020D00060700398000CA0700398000EE07039E067
:1020E0001849F0E760F0FF00039020700398000AA1
:1020F00060700398000CA0700398000EE070FF2041
:1021000020716071A0711FE040010020164D000891
:10211000EBFE904D53444F53352E30004E4F204E22
:10212000414D4520202020464154202020202000E1
:102130004E4F204E414D4520202020464154333201
:102140002020200000FFFF00E07120726072A0726A
:102150000F20E0722A466D1C012321460598FFF7E7
:1021600093FD08B10120C7E572890021204600F0E7
:10217000E0FF012003900CE02A466D1C012321465C
:102180000598FFF781FD08B10120B5E50398401CD3
:10219000039003984845EFD30BF1010BBBF1000FFF
:1021A00084D0032F01D0DDF804802A466D1C012362
:1021B00021460598FFF768FD08B101209CE5B8F1BC
:1021C0000108F2D1032F3AD15220207060706120B3
:1021D000A0704121E170722284F8E42184F8E521A5
:1021E00084F8E61184F8E7010498401E84F8E801B9
:1021F000010A84F8E911010C84F8EA11000E84F850
:10220000EB01022084F8EC01002084F8ED0184F851
:10221000EE0184F8EF01552084F8FE01AA2084F82D
:10222000FF0101230AF1010221460598FFF72CFD69
:1022300001230AF1070221460598FFF725FD002238
:1022400011460598FFF7E2FC08B1012054E5002093
:1022500052E500002DE9F74181B017460298009041
:10226000684600F0A3FE0446200003D50B2004B00E
:10227000BDE8F081164E56F824504FF000082DB1FD
:10228000E86800F067FB90B185F80080019931B1F2
:1022900081F80080E0B20C3100F04AFB48B10198AF
:1022A00046F8240008B1012F05D00020DFE7022006
:1022B000DDE70220DBE7002202A901A800F07EFB97
:1022C00004462146019802F065FC2046CFE7000055
:1022D000400100202DE9F747ADF50D7D0646002EA3
:1022E0000FD04FF00008C6F8008002F01F0727F05B
:1022F00001028EA984A800F061FB0546280005D0E4
:1023000096E009200DF5107DBDE8F08781A88A9040
:1023100001A88B9084A88E9900F030FD0546899C19
:102320000DB904B9062517F01C0F51D04DB1042D7D
:1023300003D184A8FFF781FB054647F00807899C75
:1023400008E0E07A10F0110F01D0072502E07807CD
:1023500000D50825DDBB380745D500F023FEA07366
:10236000010AE173020C2274030E6374A075E17517
:102370002276637684F80B8084F81C8084F81D80B4
:1023800084F81E8084F81F802146849800F02FFE78
:1023900081460021204602F02CFB8499012008711F
:1023A000B9F1000F1FD08498D0F830A04946849826
:1023B00001F036F80546280015D18498A9F10109E5
:1023C000C0F810905146849800F0BBFE05460AE024
:1023D0004DB9E07AC10601D5042504E0B90702D55C
:1023E000C00700D007253DB9380701D547F02007C1
:1023F0008498006BF0613462D5B9B77186F80780B4
:102400002146849800F0F3FD3061207FE17F627FF8
:1024100040EA0160A17F090441EA02210843F0601B
:10242000C6F80880C6F8188084983060C088B080EC
:102430002946849802F0AEFB284663E72DE9F84F61
:1024400004468846164699460020C9F800002046F2
:1024500002F0AEFB054635B12946206802F09AFB32
:102460002846BDE8F88FE17921B1206802F092FB9F
:10247000E079F6E7A079C0070BD0D4E90210401A42
:10248000864200D9064604F124004FF0010A00906C
:10249000B7E00721206802F07DFB0720E1E7226812
:1024A000A1685089B1FBF0F300FB1313002B72D12C
:1024B000B1FBF0F093785B1E1840C5B29DB969B1CD
:1024C0001046616900F0EEFC022809D20220E0719A
:1024D0000221206802F05EFB0220C2E72069F3E7D8
:1024E000411C20D0606161692068FEF7D5FF10B300
:1024F00000EB050B20684189B6FBF1F7B7B3817893
:10250000EA198A4200D94F1B40783B465A46414659
:10251000FFF795FBB8B184F807A00121206802F00D
:1025200039FB01209DE784F807A00121206802F013
:1025300031FB012095E70220E0710221206802F0C2
:1025400029FB02208DE7A07940060BD5A069A0EBFE
:102550000B00B84206D221684A89009900FB02802C
:1025600000F0DEFD206845897D4340E0FFE7A26979
:102570005A4525D0A179490612D540780123009902
:10258000FFF782FB40B184F807A00121206802F028
:1025900001FB012065E715E0A07920F04000A07163
:1025A000206801235A4640780099FFF748FB38B16C
:1025B00084F807A00121206802F0ECFA012050E71E
:1025C000C4F818B02068A1684089B1FBF0F200FBA4
:1025D0001212851AB54200D93546B1FBF0F200FB64
:1025E0001210011924312A46404600F099FDA844F2
:1025F000A0682844A060D9F800002844C9F8000069
:10260000761B002E7FF44BAF0021206802F0C2FA47
:10261000002026E770B50446204602F0C9FA0546B8
:10262000002D48D1A079810645D5400612D52068F5
:10263000012304F124014078A269FFF725FB28B1AA
:102640000121206802F0A6FA012070BDA07920F0D7
:102650004000A071E169206800F073FD054655BB9C
:10266000256AE87A40F02000E872207B2877A0896C
:10267000000A6877E068000CA877E068000EE87749
:102680002846216902F0B5F900F08CFCA875010A12
:10269000E975010C2976000E68760020A874E874AC
:1026A000A07920F02000A071216801200871206825
:1026B00002F0B4F905462946206802F06BFA284674
:1026C00070BD2DE9F84F044688461646994600200D
:1026D000C9F80000204602F06BFA054635B12946DC
:1026E000206802F057FA2846BDE8F88FE17921B159
:1026F000206802F04FFAE079F6E7A079800705D468
:102700000721206802F046FA0720EDE7A06881194A
:1027100000D3002604F124004FF0010A0090C9E024
:102720002268A0685189B0FBF1F301FB1303002B71
:102730007DD1B0FBF1F193785B1E1940CDB23DBB6A
:1027400068B110466169FEF7FDFE002870D00128CF
:102750000DD0411C13D060612169C1B118E020691E
:102760000028F2D100211046FEF7ECFEEDE7022032
:10277000E0710221206802F00DFA0220B4E784F82B
:1027800007A00121206802F005FA0120ACE72061D2
:10279000A079400613D520680123A26940780099EA
:1027A000FFF772FA38B184F807A00121206802F01F
:1027B000F1F9012098E7A07920F04000A07161694B
:1027C0002068FEF769FED0B100EB050B2068418957
:1027D000B6FBF1F76FB38178EA198A4200D94F1B33
:1027E00040783B465A464146FFF74EFA78B184F8A6
:1027F00007A00121206802F0CDF9012074E7022032
:10280000E0710221206802F0C5F902206CE7A0699E
:10281000A0EB0B00B8420ED221684A8900FB02816E
:10282000009800F07DFCA07920F0400002E01EE05E
:1028300043E004E0A071206845897D4330E0A16950
:10284000594512D0D4E9021291420ED240780123A8
:102850005A460099FFF7F3F938B184F807A001212F
:10286000206802F097F901203EE7C4F818B020680C
:10287000A1684089B1FBF0F200FB1212851AB54243
:1028800000D93546B1FBF0F200FB12102044243091
:102890002A46414600F044FCA07940F04000A07177
:1028A000A844A0682844A060D9F800002844C9F8CA
:1028B0000000761B002E7FF433AFD4E9020188427A
:1028C00000D9E060A07940F02000A07100212068CC
:1028D00002F060F9002007E770B580281FD345F2A9
:1028E000205409B1104D00E0104D00231022E11AD0
:1028F00001EBD17103EB610135F82160864207D00D
:1029000001D20B4600E00C46A2F10102002AEED1F2
:1029100032B14FF0010000EB410035F8100070BDFE
:102920004FF0000070BD0000C6A10108424D000834
:1029300010B50C46012104A001F0B3F82060002876
:1029400000D0012010BD0000746573745F6D757850
:102950000000000001F0BAB801F0C3B810B54FF4A0
:102960007A7101F007F908B1002010BD012010BDF7
:1029700070B5802806D2A0F16101192901D820384C
:1029800080B270BD0C2300224FF4F774094DA11AD8
:1029900002EB510135F81160864205D001D20A469A
:1029A00000E00C465B1EF2D1002BEAD0024830F862
:1029B000110070BD4AF6020826FA02082DE9FF4709
:1029C0008046084616460027C8F8007000F0EEFA68
:1029D0000546280003D50B2004B0BDE8F087C948A0
:1029E00050F82540ACB1204600F04CFB98B1C8F837
:1029F0000040207820B16078FFF736F9C1070CD08D
:102A00002770E8B26070FFF7EAF8C1070CD0032026
:102A1000E2E70C20E0E70F20DEE71EB1400701D51A
:102A20000A20D9E70020D7E71EB1400701D50A20C8
:102A3000D2E7607804F10A020221FFF7E7F830B923
:102A40006089B0F5007F02D3B0F5805F01D9012025
:102A5000C2E7002529462046FEF7D8FC012826D1EA
:102A60000021E84604EB011000F5F970027952B13B
:102A7000027AC37A42EA0362837A407A1B0443EA09
:102A80000020024300E0002248F82120491C0429CC
:102A9000E8D3002658F8265025B129462046FEF7EF
:102AA000B5FC00E0022010B1761C042EF2D30328FE
:102AB00002D018B10D208FE701208DE794F83F0078
:102AC00094F84010B4F80AC040EA0120604501D0F3
:102AD0000D2081E794F84A0094F84B1040EA012059
:102AE00058B914F8580FE178627840EA0160A1788B
:102AF0000904583C41EA02210843E06194F844A0EB
:102B000084F803A0BAF1010F04D0BAF1020F01D08A
:102B10000D2061E70AFB00FA94F84120A27012B17F
:102B2000511E0A4201D00D2056E794F8451094F842
:102B3000463041EA032323814FEA5C16B3FBF6F1EA
:102B400006FB113109B10D2046E794F8471094F8BF
:102B5000488041EA082179B994F8541094F85780D4
:102B600094F8559041EA086194F856804FEA084875
:102B700048EA092841EA080194F8428094F8439011
:102B800048EA0929B9F1000F08D0B3FBF6F609EBC2
:102B90000A08B044414503D20D201DE70D201BE774
:102BA000A1EB0801B1FBF2F141B3012640F6F67248
:102BB000914200D302264FF6F672914200D30326CB
:102BC000891CA161256205EB09026262A844C4F870
:102BD0002C80032E14D03BB35244A262022E25D087
:102BE00001F0010201EB410102EB5101491E614478
:102BF000B1FBFCF181421BD90D20EDE60D20EBE687
:102C00000BB10D20E8E694F8602094F8633094F856
:102C1000618042EA036294F862301B0443EA0823AD
:102C20001A43A2628900E1E70D20D5E64900DDE7FD
:102C30004FF0FF306061206180206071032E57D11A
:102C400094F8640094F8651040EA012001284FD1FF
:102C5000691C204600F075FAF0BB677194F83202E7
:102C600094F8331240EA0120A0F52A4155393FD1AA
:102C700014F8340FE178627840EA0160A178343CBE
:102C8000090441EA022108431F49884230D194F8DF
:102C9000180294F81B1294F8192240EA016094F883
:102CA0001A12090441EA02210843184988421FD137
:102CB00094F81C0294F81F1294F81D2240EA016057
:102CC00094F81E12090441EA02210843606194F855
:102CD000200294F8231200E00AE040EA016094F830
:102CE000221294F82122090441EA022108432061BA
:102CF00026700449091F0888401C0880E0800020D5
:102D00006AE6000040010020525261417272416146
:102D10002DE9F0434B730F23CB7200230B738B769B
:102D2000CB76531E03EB830404EBC30500231C4640
:102D3000114E01F1010C4FF6FF77BB4203D02B4639
:102D40006D1C30F8133016F8048001F8083016F8BE
:102D500004904FEA132809F80C8003B93B46641C21
:102D60000D2CEAD3BB4202D030F8150008B942F06E
:102D700040020A70BDE8F083084D000873B50446B0
:102D8000019908782F2801D05C2801D1491C0191B4
:102D90000025A56001980078202805D20021204652
:102DA000FEF7CDFE65617CBD01A92046FEF71EFC45
:102DB0000028F8D12046FEF753FDA169C97A28B151
:102DC0000428F0D14907EED405207CBD4907FCD486
:102DD0006169C87AC00601D405207CBD206800F076
:102DE00006F9A060E0E7000070B50446064DE1B2C8
:102DF0002846FEF7AFF980212846FEF72BF9002878
:102E0000F9D0204670BD0000001001407CB5054699
:102E100016461C460B22284600F082F9052C11D9D3
:102E20001F480CE0B61C002322460C4662F35F04E8
:102E30004908E20300D544405B1C102BF4D33188D1
:102E40000029EFD107226B4604F00F0130313929F8
:102E500001D9C91DC9B21046521E19542409002CAB
:102E6000F2D17E2098540021541E06E081387D283E
:102E700002D8A14206D0491C491C914202D2685C8A
:102E80002028F3D1082A03D21046521C185C00E017
:102E900020200C46491C28550829F3D37CBD00008E
:102EA000211001002DE9F04104460D46022D02D308
:102EB000A069A84201D8012609E04FF0FF3620782A
:102EC000012807D0022835D003284BD001263046F0
:102ED000BDE8F08105EB55076089616AB7FBF0F04A
:102EE0000144204600F02DF90028F0D160893946D0
:102EF000B1FBF0F200FB121121447F1C91F83480E9
:102F0000B7FBF0F0616A0144204600F01AF900288E
:102F1000DDD16089B7FBF0F100FB1170204490F81F
:102F2000340048EA0020E90701D00609CFE7C0F3E2
:102F30000B06CCE76089616A4008B5FBF0F00144FC
:102F4000204600F0FEF80028C1D161896800B0FB7E
:102F5000F1F201FB1200204434300178407841EA5C
:102F60000026B4E76089616A8008B5FBF0F001448F
:102F7000204600F0E6F80028A9D16189A800B0FB3E
:102F8000F1F201FB1200204434300178C27841EAAA
:102F9000026182784078120442EA0020014321F065
:102FA000704694E7004870470000214610B504467B
:102FB0004FF0FF302368002B0BD0194600E0491C6E
:102FC0000A78202A01D33A2AF9D10A783A2A01D07C
:102FD000002010BD13F8012B303A0A2AF9D28B4297
:102FE000F7D1022AF5D21046491C216010BD0246D5
:102FF000887ECB7E40EA03201278032A05D10A7D21
:10300000497D42EA012140EA01407047FDF702FA9A
:1030100000244FF47A75FDF7BBFA284601F0D8F882
:10302000641C24B20A2CF6DB064C4FF4FA7506A099
:1030300000F044FC216881F480612160284601F0A1
:10304000C7F8F4E7141C02402A2A2A2A2A2A2A2A24
:103050002A2A2A2A2A2A2A2A2A2A2A6C6564315FDD
:103060007468726561642072756E6E696E672A2A73
:103070002A2A2A2A2A2A2A2A2A2A2A2A2A2A2A2AB0
:103080000A000000C068FFF769BC00002DE9FC41A0
:1030900002201426CDE9000647023B4600220F49D4
:1030A0000FA001F06FF8104C20604FF0FF3588B191
:1030B00001F09EF90320CDE900063B4600220B49B2
:1030C0000BA001F05FF8606030B101F091F90020D1
:1030D000BDE8FC812846FBE72846F9E70D300008EB
:1030E0006C6564310000000024000020254B0008BE
:1030F000746573740000000010B500F0E9F9BDE8D4
:103100001040FFF7C3BF10B50023521E541C05D05A
:1031100010F8013B11F8014B1B1BF6D0184610BDEF
:1031200003E011F8013B00F8013B521E531CF8D19B
:103130007047C9B201E000F8011B521E531CFAD1BE
:10314000704770B504460E460025206BB04210D083
:10315000204601F0BDFC05465DB96078012332468A
:1031600004F13401FEF76BFD10B14FF0FF3601257D
:103170002663284670BD000030B5134C41682268B4
:10318000114402F1080388420DD04D885DB965688D
:10319000A94208D0A5688D4200D1A0604D68456065
:1031A0004968851ACD508168114481420BD04D8801
:1031B000002D08D1A568854200D1A16044684C600B
:1031C0004068891AC15030BDA40000202DE9FF4F8E
:1031D000DDE90DB60F9D6C0602D5DFF814A103E002
:1031E000DFF80CA1AAF1110AEC0601D525F00105C2
:1031F000EC0702D04FF0300901E04FF02009002722
:10320000AC070BD5002A02DA2D27524206E06C07E4
:1032100001D52B2702E02C0700D520270024EE46FD
:103220007AB9302201248DF800200CE00A2B15D049
:1032300002F00F081209A4461AF80880641C0EF860
:103240000C80002AF2D1B44200DD2646ABEB060228
:1032500015F0110F4FF0200309D016E04FF00A0CC3
:10326000B2FBFCF80CFB1828B2FBFCF2E3E73FB121
:10327000002A05DD521E03E0884200D80370401C7E
:10328000B2F1000CA2F10102F6DC27B1884201D8AC
:103290000770521E401CED0605D508E0884201D893
:1032A00080F80090401C151EA2F10102F6DC3027C8
:1032B00003E0884200D80770401C3546761EA542C0
:1032C000F7DC05E0884202D81EF804500570401C67
:1032D000251EA4F10104F5DC03E0884200D8037048
:1032E000401C141EA2F10102F7DC04B0BDE8F08F0F
:1032F000F74C00082DE9F04704460D461646022D0E
:1033000002D3A069A84202D80220BDE8F087207845
:1033100006F0FF094FF00108012805D0022842D02D
:1033200003285AD00220F0E705EB55076089616A4F
:10333000B7FBF0F001442046FFF703FF0028E4D17B
:10334000384661897F1CB0FBF1F201FB120020447A
:103350003430E90703D0017869F31F1100E03146EA
:10336000017084F804806089616AB7FBF0F0014461
:103370002046FFF7E6FE0028C7D16189B7FBF1F2CE
:1033800001FB127121443431EA0702D0C6F307125F
:1033900005E00A78C6F3032302F0F0021A430A702C
:1033A00084F80480B1E76089616A4008B5FBF0F0F9
:1033B00001442046FFF7C5FE0028A6D162896900B6
:1033C000B1FBF2F302FB1311214481F83490320A6D
:1033D00081F8352084F8048097E76089616A800865
:1033E000B5FBF0F001442046FFF7ABFE00288CD17E
:1033F0006289A900B1FBF2F302FB131121443431BD
:103400004FF07043CA7803EA026232430A70130A2B
:103410004B70130C8B70120ECA7084F8048074E722
:103420002DE9F04104460F46022F02D3A069B842AD
:1034300001D8022624E000261FE039462046FFF787
:1034400031FD0546E5B1012D09D0681C09D00022E7
:1034500039462046FFF74EFF06468EB903E00226A6
:103460000EE001260CE06069411C05D0401C606143
:10347000607940F0010060712F46A069B842DCD845
:103480003046BDE8F08100001CB502211420CDE9D2
:1034900000100B020022044904A000F073FEBDE8F6
:1034A0001C4000F0A5BF0000F93000086D61696E96
:1034B0000000000070B5044C044D02E02068804715
:1034C000241DAC42FAD370BD08FE02080CFE0208AF
:1034D00070B5044C044D02E020688047241DAC42C6
:1034E000FAD370BD0CFE020810FE020810B5FCF7FE
:1034F00079FE044A5188491C5180BDE81040FCF710
:1035000075BE00000C01002010B5FCF76BFE094AE7
:103510005188491E09B25180002907DC00215180E1
:10352000FCF764FEBDE8104000F0FCBBBDE81040B5
:10353000FCF75CBE0C01002070B5002833D01A4D9A
:10354000296888422FD3696888422CD2A0F10C04E4
:103550004FF0FF31154800F0A2FC60884FF4F5569B
:1035600010B12088B04208D011A000F0A7F923883C
:103570006288214615A000F0A1F900206080268015
:10358000A868844200D2AC6029686068611A401A59
:103590002969081A28612046FFF7EEFDBDE8704052
:1035A000024800F05CBC70BDA40000209C370020E5
:1035B000746F2066726565206120626164206461B9
:1035C000746120626C6F636B3A0A00006D656D3A3E
:1035D000203078253038782C207573656420666C2F
:1035E00061673A2025642C206D6167696320636FF1
:1035F00064653A203078253034780A0000487047F6
:103600004C010020004870474C11002010B51248B2
:103610004FF47A710068B0FBF1F0401EB0F1807F8A
:1036200009D24FF0E02148610C4AF02010700020D0
:10363000886107200861FDF72BF9FCF797FEFFF77B
:1036400039FFFFF7DFFF0446FFF7D8FF2146BDE84B
:10365000104000F0CFBC00000000002023ED00E08F
:1036600070B50446FFF742FF0F4D16E00A2809D156
:103670000D212846FDF76EFD80212846FDF7EAFC66
:103680000028F9D014F8011B2846FDF763FD8021BE
:103690002846FDF7DFFC0028F9D020780028E5D186
:1036A000BDE87040FFF730BF0010014010B5044680
:1036B00017480168002903D020468847002826D0F3
:1036C00014A0E16900F0FAF816A0A16900F0F6F87C
:1036D00018A0616900F0F2F81AA0216900F0EEF874
:1036E0001CA0E16800F0EAF81EA0A16800F0E6F86E
:1036F00020A0616800F0E2F822A0216800F0DEF866
:1037000000F050FE014623A000F0D8F8FEE710BDFF
:103710002C0100207073723A203078253038780AF6
:10372000000000002070633A203078253038780A95
:1037300000000000206C723A203078253038780A7A
:10374000000000007231323A203078253038780A93
:10375000000000007230333A203078253038780A83
:10376000000000007230323A203078253038780A74
:10377000000000007230313A203078253038780A65
:10378000000000007230303A203078253038780A56
:103790000000000068617264206661756C74206FBF
:1037A0006E207468726561643A2025730A00000017
:1037B00070B50646121D22F00700A0F1400528460C
:1037C0000022094C40F82240521C102AFAD3016210
:1037D000002141628162C1620163436386634FF0ED
:1037E0008071C163284670BDEFBEADDE10B5FCF739
:1037F000F9FC044A1178491C1170BDE81040FCF72F
:10380000F5BC0000A000002010B5FCF7EBFC044A5A
:103810001178491E1170BDE81040FCF7E7BC0000AC
:10382000A000002010B50068143800F09DFD0020B5
:1038300010BD70B505464FF0FF340AE0FCF7D2FC2E
:10384000064628681438046300F08EFD3046FCF705
:10385000CDFC284600F060F80028EFD0002070BDB5
:103860002DE9F04105460E461446304600F0D3FDE2
:1038700006F1140714B1012C1DD104E03946284685
:1038800000F043F817E02C680DE0A4F1140096F85E
:10389000351090F83520914204D23946143000F0AA
:1038A00034F802E02468AC42EFD1AC4203D139468F
:1038B000284600F02AF80020BDE8F0810FB408B5D2
:1038C00003AB00937F210548029A00F019FF0348DB
:1038D000FFF7C6FE01B05DF814FB00001C370020A6
:1038E0000268516002680A600160486070470268BF
:1038F000516002680A600160486070470268516068
:1039000002680A600160486070474268116042685E
:103910004A604160086070470168814201D101201E
:103920007047002070470168814201D10120704733
:1039300000207047D0E900215160D0E900121160E9
:10394000406000607047D0E900215160D0E900126A
:1039500011604060006070472DE9F047002809D0F1
:10396000C01C20F003053B4EF068854204D90020BE
:10397000BDE8F0870020FBE70C2D00D20C254FF0AE
:10398000FF31354800F08BFAB7683168781AD6F8FD
:103990000CC0ACEB050356E00C1862888ABB626869
:1039A000121A0C3AAA424DD3626805F11803121A92
:1039B0000C3A4FF001094FF4F5589A4222D34319BB
:1039C0000C33CA18A2F800804FF0000AA2F802A037
:1039D000D4F804A0C2F804A090606360A4F8029038
:1039E00050680CF10C0C604502D001F108028350C4
:1039F000306928440C303061726982420ED27061A5
:103A00000CE01FE0A4F802906068621A801A326924
:103A1000104430617269824200D27061A4F8008063
:103A2000BC4203D008E040680844B060B0684288F7
:103A300012B172689042F6D1074800F010FA04F112
:103A40000C0095E760688342A6D8034800F007FAA7
:103A500000208DE7A40000209C37002010B503460D
:103A6000CCB2042A15D3810713D1014644EA0423BA
:103A700043EA034305E00B604B608B60CB60103181
:103A8000103A102AF7D201E008C1121F042AFBD213
:103A90000B46E1B201E003F8011B521E541CFAD19F
:103AA00010BD10B50C460146022000F0BFF80028FA
:103AB0000BD000F1140149600960012181830021CC
:103AC0000162FF228277C177447210BD10B50446AF
:103AD00004F11400FFF7ADFE204600F0CCF8002002
:103AE00010BD2DE9F0410446002500F05BFC0646C0
:103AF000FCF778FB0746206AB04207D06C1E34639F
:103B00003846FCF773FB2046BDE8F081E17F491E93
:103B1000C9B2E177B1B9A17F90F83520914204D0C4
:103B200004F11E02022100F0F8FA04F11400064626
:103B3000FFF7F2FE60B1A08B401CA0830020206242
:103B4000FF20A0773846FCF751FB012D0ED00FE087
:103B500060691438206290F83500A077E07F401C3F
:103B6000E0773046FFF75EFE0125EBE700F0DAF87C
:103B70000020C9E72DE9F341044600F013FC054697
:103B8000FCF730FB064600202863206AA84203D1D8
:103B9000E07F401CE07744E0A08B50B1A08B401E3A
:103BA000A083256295F83500A077E07F401CE07780
:103BB00037E0019850B3206A95F8351090F8352019
:103BC000914204D205F13502022100F0A6FA627A90
:103BD000294604F11400FFF743FE0198002809DD8F
:103BE00005F1440001AA0021074600F0C7FC384651
:103BF00000F004FD3046FCF7F9FA00F093F8286B6A
:103C000060B10930C8D0286BBDE8FC816FF00104B9
:103C10002C633046FCF7EAFA2046F5E7FCF7E2FAB7
:103C200006463046FCF7E2FA0020EDE72DE9F041C8
:103C300006460F46304600F03DF80546E868FFF7B7
:103C40008BFE0446ACB12672002060720822394611
:103C5000204600F0BBF9FCF7C5FA064604F10C015A
:103C6000281DFFF73DFE3046FCF7C0FA2046BDE8B0
:103C7000F0810020FBE770B50446FCF7B3FA054677
:103C800004F10C00FFF756FE2846FCF7AFFA204679
:103C9000BDE87040FFF750BC70B50446FCF7A2FACF
:103CA000054604F10C00FFF745FE2846BDE87040CC
:103CB000FCF79CBA0021074A02EB01131B788342F0
:103CC00002D102EB01107047491C0529F4DB0020EA
:103CD00070470000BC0000202DE9F04104460D466D
:103CE00017462846FFF7E6FF064645F0800020729B
:103CF00008223946204600F069F9FCF773FA0546B8
:103D000004F10C01301DFFF7EBFD2846BDE8F04142
:103D1000FCF76CBA007A000601D50120704700203C
:103D20007047000070B5FCF75DFA0546174C6088D7
:103D300020B12846BDE87040FCF758BAA068FDF7EE
:103D40001DFA421E124850F8321014396068814240
:103D500016D0227061600F4A127842B11C311C30BB
:103D6000FCF747FA2846BDE87040FCF73FBA1C3123
:103D70001C30FCF73EFA2846BDE87040FCF736BA26
:103D80002846BDE87040FCF731BA00000C01002065
:103D9000BC370020A000002010B50446FCF722FA32
:103DA000024614F8340F20F00F00401C2070607899
:103DB0000A49343C01EBC00104F114004B6818605F
:103DC0004B684360486001600548A16B83681943F4
:103DD0008160BDE810401046FCF708BABC370020EF
:103DE0000C01002070B50546FCF7FCF9014605F111
:103DF0001404D4E900205060D4E90002106064602B
:103E0000246095F835000A4A02EBC000026882423D
:103E100001D1012000E0002020B10648AB6B826890
:103E20009A438260BDE870400846FCF7DFB90000A5
:103E3000BC3700200C0100202DE9F0410546164654
:103E40001F460A4601212846FFF746FF2C46143438
:103E500064602460AE836F720020BDE8F0812DE9BC
:103E6000F04104460025FCF7BDF9064604F11400B4
:103E70000746FFF751FD40B1A08B401CA0833046A0
:103E8000FCF7B4F9012D05D006E03846FFF7CAFC6F
:103E90000125F4E7FFF746FF0020BDE8F08173B588
:103EA0000446FCF79FF90646A08B28B1401EA0836C
:103EB0003046FCF79BF921E0019808B300F072FA54
:103EC000054600202863627A294604F11400FFF7B2
:103ED000C7FC0198002809DD05F1440001AA002172
:103EE000044600F04BFB204600F088FB3046FCF710
:103EF0007DF9FFF717FF286B002800D100207CBD5B
:103F00003046FCF773F96FF001007CBD08B509A0DD
:103F1000FFF7D4FC0AA0FFF7D1FC12A00323009006
:103F20000022194612A0FFF7C9FCBDE8084018A0FE
:103F3000FFF7C4BC0A205C207C202F0A0000000090
:103F40002D205254202D202020202054687265619D
:103F500064204F7065726174696E67205379737461
:103F6000656D0A00536570203135203230313800DC
:103F7000202F207C205C202020202025642E2564FA
:103F80002E2564206275696C642025730A00000088
:103F90002032303036202D203230313820436F70BF
:103FA0007972696768742062792072742D746872FE
:103FB000656164207465616D0A000000014600E0DF
:103FC000491C0A78002AFBD1081A704710B5002A4C
:103FD00007D0034611F8014B03F8014B14B1521EF0
:103FE000F8D110BD002101E003F8011B521EFBD1E6
:103FF00010BD000070B505460A46E81C20F003011C
:1040000022F00303182B21D9A3F118048C421DD3ED
:10401000114C5A1A183AE26021604FF4F5530B80A4
:104020000C324A600020886048804868084460601C
:10403000038001214180426082600023012207A1A8
:104040000848FFF7F9FE2068A06070BD2946BDE86A
:10405000704005A0FFF732BCA400002068656170C5
:10406000000000009C3700206D656D20696E69744A
:104070002C206572726F7220626567696E206164C0
:10408000647265737320307825782C20616E64200B
:10409000656E64206164647265737320307825787E
:1040A0000A00000010B50A4B00245C800020094A79
:1040B00002EBC00149600960401C0828F8DB0720BA
:1040C00018705C609C6002480C304060006010BD5D
:1040D0000C010020BC37002010B5074CA068FDF78C
:1040E0004DF8401E054951F8300014386060BDE8B5
:1040F00010401C30FCF7ABB80C010020BC3700208E
:104100000020044A02EBC00149600960401C0028FD
:10411000F8D070472401002070472DE9F041044693
:104120001546002924D0012927D0022911D1FCF7F6
:1041300059F8074694F83400012600F00F000128D2
:104140000AD0287884F835008640A6633846FCF704
:104150004DF80020BDE8F0812046FFF743FE2878A7
:1041600084F835008640A6632046FFF715FEEDE78C
:104170002046BDE8F04100F03BB92046BDE8F041E3
:1041800000F028B82DE9FF478046DDE90C67894635
:1041900092461D4641460020FFF748FD0446200098
:1041A0000FD02846FFF7D8FB68B18DE8E1005346F1
:1041B0004A4641462046FDF7C9F8204604B0BDE80E
:1041C000F0870020FAE72046FFF755FD0020F5E7CD
:1041D00000F0EEB870B5044694F83400000702D041
:1041E0002046FFF7FFFD04F1440000F0E1F9042050
:1041F00084F83400FBF7F6FF054604F11401044887
:10420000FFF775FB2846FBF7F1FF002070BD0000AB
:104210001801002070B513480468FBF7E3FF05465A
:104220002046FFF7DFFD042084F8340004F1440049
:1042300000F0BEF92046FFF76DFD012801D1206F87
:1042400058B104F114010848FFF751FB2846FBF769
:10425000CDFFBDE87040FFF765BD2046FFF71CFDB0
:10426000F4E70000100100201801002000F002F81F
:10427000FCE7000070B527E0FBF7B4FF0646FCF74B
:10428000B1FF68B319480468A4F11405D4E900101B
:104290004860D4E90001086064602460FFF726F9F3
:1042A000296F09B1284688472846FFF733FD0128C2
:1042B0000FD0FFF729F93046FBF798FFA86AFFF700
:1042C0003BF92846FFF7D7FCFCF78CFF0028D3D139
:1042D00070BDFFF719F93046BDE87040FBF786BFA7
:1042E0003046BDE87040FBF781BF00001801002098
:1042F0001FB52020C2000721094BCDE90210CDE9EE
:10430000003207480023074A07A1783800F010F868
:1043100004B00348BDE81040783800F069B80000E8
:104320001C3600206D4200087469646C6500000052
:104330002DE9FF5F8146DDE90E76DDE91054884600
:1043400092469B46424600214846FFF7C5FCCDE910
:104350000076CDE902545B46524641464846FCF79A
:10436000F5FF04B0BDE8F09F70B5044694F8340042
:1043700000F00F00022802D04FF0FF3070BDFBF7B5
:1043800031FF054604F11400FFF7DDFA04F14400A3
:1043900000F09EF92846FBF729FF2046FFF7FCFCBA
:1043A000002070BD01480068704700001001002027
:1043B000F1B5FBF717FF05460C480468204600F0EE
:1043C0002AF804F144006A460021064600F0D6F8B7
:1043D000304600F013F92846FBF708FFFFF7A2FC70
:1043E000206B801C00D120630020F8BD100100204C
:1043F00010B534308178417001228A404260022138
:1044000000F83419FFF7B0FFFFF7CCFF08B1FFF752
:1044100089FC002010BD70B5044694F8340000F00B
:104420000F00012802D04FF0FF3070BDFBF7DAFE1D
:10443000054694F8340020F00F00801C84F8340006
:104440002046FFF7CFFC04F1440000F041F9284674
:10445000FBF7CCFE002070BD10B504466FF00100E4
:10446000206304F11400FFF76EFA2046FFF794FC76
:10447000BDE81040FFF756BC70B5FBF7B3FE06462B
:104480001348046894F8340000F00F0001281AD192
:10449000D4E90501884216D004F114000546FFF75F
:1044A00052FA94F835000B4901EBC00041680D60E9
:1044B00041686960456028603046FBF797FEFFF76A
:1044C00031FC002070BD3046FBF790FE002070BD2F
:1044D00010010020BC370020014800687047000030
:1044E0009C00002010B509490868401C0860FFF7CF
:1044F00059FF016C491E016419B9C16B0164FFF7D2
:10450000BBFFBDE8104000F003B800009C00002095
:1045100070B5FFF7E1FF0646FBF764FE054620E0B5
:1045200015480468143C6FF00041A06A301A8842B4
:104530001CD22046FCF759FFD4E907108847FFF743
:10454000CBFF0646607A810708D5C10706D020F068
:1045500001006072204600F051F802E020F00100F6
:1045600060720548FFF7DFF90028D9D02846BDE87A
:104570007040FBF73BBE000024010020002909D059
:10458000012904D0022908D003290FD10AE0406A8A
:1045900010600BE01168416208E0417A21F00201ED
:1045A000417203E0417A41F00201417200207047FC
:1045B00070B50546FBF716FE04462846FCF715FFC6
:1045C0002046FBF713FE2846FFF766FB002070BD70
:1045D0002DE9F8430746DDE9088415461E460A46DC
:1045E00009213846FFF778FB4346324629463846CC
:1045F0000094FCF7E7FEBDE8F88300002DE9F843DE
:104600000446FBF7EFFD05462046FCF7EEFE607A18
:1046100020F0010060722846FBF7E8FDFFF75CFF21
:10462000616A0844A062FBF7DDFD0746DFF89CC025
:10463000CDF800C000226E460CEBC20045680DE0CC
:104640000068A0EBC201A36A4969994204D0C91A63
:104650006FF00043994205D346F8220056F8220035
:10466000A842EDD12AB156F822100831531C46F861
:104670002310521C002ADFD01448001FD0F80080FD
:1046800008F10108C0F8008004F114010098FFF758
:1046900035F902250EE05FEA88700DD1C5F1010001
:1046A00004EBC001143156F82000FFF727F94FEA58
:1046B00098086D1C012DEED9607A40F001006072FF
:1046C0003846FBF793FD0020BDE8F8832401002065
:1046D00070B50446607AC0070ED0FBF783FD05462F
:1046E0002046FCF782FE2846FBF780FD607A20F02A
:1046F00001006072002070BD4FF0FF3070BD0000FF
:104700002DE9FF4F83B082460AEB01077F1E544616
:10471000A74201D24FF0FF374FF020094FF0250B91
:1047200012E1252804D0BC4200D82070641C08E1A6
:1047300000250599491C059108782D2814D02B28AF
:1047400015D0202816D0232817D0302818D04FF0A5
:10475000FF384646059A1278303A0A2A13D205A83D
:1047600000F033F906461AE045F01005E1E745F0A0
:104770000405DEE745F00805DBE745F02005D8E74E
:1047800045F00105D5E72A2809D1491C059106986D
:1047900040C80690002E02DA764245F010050598D2
:1047A00001782E2918D1401C05900178A1F1300222
:1047B0000A2A04D205A800F008F9804607E02A2951
:1047C00005D1401C0590069850F8048B0690B8F16E
:1047D000000F01DA4FF000080021059A10786828D0
:1047E00001D06C2802D10146521C05920A2305987B
:1047F00000786F2871D00CDC632820D004DC2528D9
:104800006CD058280DD187E0642801D0692808D1E0
:1048100086E0702863D073282FD0752871D078284F
:104820007CD0BC4201D884F800B0641C059908789B
:10483000002868D0BC4200D82070641C81E0E806E3
:1048400005D507E0BC4201D884F80090641C761EB0
:10485000002EF7DC069810F8041B0690C8B2BC4284
:1048600000D82070641C04E0BC4201D884F8009099
:10487000641C761E002EF7DC63E0069808C80690DC
:1048800003B941A31846FFF799FBB8F1000F02DD09
:10489000404500DD4046E90605D508E0BC4201D8A8
:1048A00084F80090641C3146761E8142F6DC0021BB
:1048B00006E0BC4201D81A782270641C5B1C491CBB
:1048C0008142F6DB04E0BC4201D884F80090641C0D
:1048D0003146761E8142F6DC33E01BE014E0701CAA
:1048E00002D1082645F00105CDE900680698029539
:1048F000102304C8069039462046FEF767FC04469C
:104900001FE00FE00AE028E0BC4201D884F800B0C4
:10491000641C16E0082305E045F04005102301E083
:1049200045F002056C291BD068291DD0069804C8E3
:104930000690CDE90068394620460295FEF746FC10
:1049400004460598401C05900598007800287FF4DF
:10495000E8AEBC4211D8207010E0491E0591F0E786
:10496000069804C80690E4E7069830F8041B069001
:104970008AB2A807DDD512B2DBE7387007B0A4EB26
:104980000A00BDE8F08F0000284E554C4C2900006D
:1049900000207047002070470020704700207047BB
:1049A00010B5FBF71FFCFEF731FEFFF7AFFAFFF77C
:1049B000A7FBFFF777FBFEF767FDFFF7ADFBFFF700
:1049C00097FCFFF789FB002010BD10B502460020C0
:1049D0006FF02F0407E04B1C1360097800EB800098
:1049E00004EB4000084411680B78303B0A2BF2D3EB
:1049F00010BD81760A0AC2760A0C0275090E41754D
:104A00007047014600200B22430803EBC01011F849
:104A1000013B1844C0B2521EF6D1704770B504462F
:104A2000204600F055F8054628004FD1207803288D
:104A300045D16079012842D104F134006289002116
:104A40000646FEF776FB552084F83202AA2084F849
:104A50003302522084F8340084F83500612084F851
:104A60003600412184F83710722284F8182284F825
:104A7000192284F81A1284F81B02606984F81C0257
:104A8000010A84F81D12010C84F81E12000E84F82D
:104A90001F02206984F82002010A84F82112010C07
:104AA00084F82212000E84F82302226A521C226328
:104AB000607801233146FDF7E7F80020607100229D
:104AC00060781146FDF7A2F800B10125284670BDB7
:104AD0002DE9F04104460027207900281FD0266BDD
:104AE00004F134016078012332468846FDF7CCF8A2
:104AF00008B1012713E000202071606AE169301AD3
:104B000088420CD2E57808E0E06906446078012329
:104B100032464146FDF7B8F86D1E022DF4D23846F4
:104B2000BDE8F08100244FF47A75FBF731FD28468B
:104B3000FFF74EFB641C24B20A2CF6DB054C06A0E2
:104B4000FEF7BCFE216881F4006121602846FFF772
:104B50003FFBF4E7141C02402A2A2A2A2A2A2A2A7E
:104B60002A2A2A2A2A2A2A2A2A2A2A746573745F58
:104B70007468726561642072756E6E696E672A2A48
:104B80002A2A2A2A2A2A2A2A2A2A2A2A2A2A2A2A85
:104B90000A00000000280AD00C2908D00B2906D0F2
:104BA000092904D00F2902D0C068FDF7D5BE70478F
:104BB00010B50446002C0CD0206850B1017841B1EA
:104BC000C188A288914204D14078FDF74DF8C00712
:104BD00001D0092010BD2068FEF754FA08B100206A
:104BE00010BD0F2010BD00000100020001000300F5
:104BF00001000200010004000100020001000300A6
:104C00000100020001000500010002000100030094
:104C10000100020001000400010002000100030085
:104C20000100020001000600010002000100030073
:104C30000100020001000400010002000100030065
:104C40000100020001000500010002000100030054
:104C50000100020001000400010002000100030045
:104C60000100020001000700010002000100030032
:104C70000100020001000400010002000100030025
:104C80000100020001000500010002000100030014
:104C90000100020001000400010002000100030005
:104CA00001000200010006000100020001000300F3
:104CB00001000200010004000100020001000300E5
:104CC00001000200010005000100020001000300D4
:104CD00001000200010004000100020001000300C5
:104CE00001000200010030313233343536373839B3
:104CF000616263646566003031323334353637388B
:104D0000394142434445460001030507090E10128C
:104D10001416181C1E000004000200018000400050
:104D20002000100008000400020000000080004085
:104D300000200010000800400020001000080004BF
:104D40000002A400E8A1A700ECA1A800A7A1B00060
:104D5000E3A1B100C0A1B700A4A1D700C1A1E000A8
:104D6000A4A8E100A2A8E800A8A8E900A6A8EA0073
:104D7000BAA8EC00ACA8ED00AAA8F200B0A8F30015
:104D8000AEA8F700C2A1F900B4A8FA00B2A8FC00CE
:104D9000B9A80101A1A81301A5A81B01A7A82B016F
:104DA000A9A84401BDA84801BEA84D01ADA86B014A
:104DB000B1A8CE01A3A8D001ABA8D201AFA8D4015D
:104DC000B3A8D601B5A8D801B6A8DA01B7A8DC0106
:104DD000B8A85102BBA86102C0A8C702A6A1C90217
:104DE000A5A1CA0240A8CB0241A8D90242A89103BA
:104DF000A1A69203A2A69303A3A69403A4A6950337
:104E0000A5A69603A6A69703A7A69803A8A6990306
:104E1000A9A69A03AAA69B03ABA69C03ACA69D03D6
:104E2000ADA69E03AEA69F03AFA6A003B0A6A103A6
:104E3000B1A6A303B2A6A403B3A6A503B4A6A60372
:104E4000B5A6A703B6A6A803B7A6A903B8A6B1033B
:104E5000C1A6B203C2A6B303C3A6B403C4A6B503D6
:104E6000C5A6B603C6A6B703C7A6B803C8A6B903A6
:104E7000C9A6BA03CAA6BB03CBA6BC03CCA6BD0376
:104E8000CDA6BE03CEA6BF03CFA6C003D0A6C10346
:104E9000D1A6C303D2A6C403D3A6C503D4A6C60312
:104EA000D5A6C703D6A6C803D7A6C903D8A60104AA
:104EB000A7A71004A1A71104A2A71204A3A7130473
:104EC000A4A71404A5A71504A6A71604A8A7170449
:104ED000A9A71804AAA71904ABA71A04ACA71B0416
:104EE000ADA71C04AEA71D04AFA71E04B0A71F04E6
:104EF000B1A72004B2A72104B3A72204B4A72304B6
:104F0000B5A72404B6A72504B7A72604B8A7270485
:104F1000B9A72804BAA72904BBA72A04BCA72B0455
:104F2000BDA72C04BEA72D04BFA72E04C0A72F0425
:104F3000C1A73004D1A73104D2A73204D3A73304C8
:104F4000D4A73404D5A73504D6A73604D8A7370488
:104F5000D9A73804DAA73904DBA73A04DCA73B0455
:104F6000DDA73C04DEA73D04DFA73E04E0A73F0425
:104F7000E1A74004E2A74104E3A74204E4A74304F5
:104F8000E5A74404E6A74504E7A74604E8A74704C5
:104F9000E9A74804EAA74904EBA74A04ECA74B0495
:104FA000EDA74C04EEA74D04EFA74E04F0A74F0465
:104FB000F1A75104D7A710205CA9132043A81420FF
:104FC000AAA1152044A81620ACA11820AEA1192032
:104FD000AFA11C20B0A11D20B1A1252045A82620ED
:104FE000ADA13020EBA13220E4A13320E5A1352092
:104FF00046A83B20F9A1AC2080000321E6A10521B1
:1050000047A8092148A81621EDA1212159A960210D
:10501000F1A26121F2A26221F3A26321F4A2642130
:10502000F5A26521F6A26621F7A26721F8A2682100
:10503000F9A26921FAA26A21FBA26B21FCA27021CC
:10504000A1A27121A2A27221A3A27321A4A2742100
:10505000A5A27521A6A27621A7A27721A8A27821D0
:10506000A9A27921AAA29021FBA19121FCA19221C0
:10507000FAA19321FDA1962149A897214AA8982138
:105080004BA899214CA80822CAA10F22C7A111221E
:10509000C6A115224DA81A22CCA11D22D8A11E22DC
:1050A000DEA11F224EA82022CFA123224FA8252215
:1050B000CEA12722C4A12822C5A12922C9A12A2222
:1050C000C8A12B22D2A12E22D3A13422E0A13522C5
:1050D000DFA13622C3A13722CBA13D22D7A148228E
:1050E000D6A14C22D5A1522250A86022D9A161227A
:1050F000D4A16422DCA16522DDA1662251A8672229
:1051000052A86E22DAA16F22DBA1952292A89922E1
:10511000D1A1A522CDA1BF2253A81223D0A16024E2
:10512000D9A26124DAA26224DBA26324DCA2642473
:10513000DDA26524DEA26624DFA26724E0A2682443
:10514000E1A26924E2A27424C5A27524C6A2762431
:10515000C7A27724C8A27824C9A27924CAA27A2433
:10516000CBA27B24CCA27C24CDA27D24CEA27E2403
:10517000CFA27F24D0A28024D1A28124D2A28224D3
:10518000D3A28324D4A28424D5A28524D6A28624A3
:10519000D7A28724D8A28824B1A28924B2A28A24C3
:1051A000B3A28B24B4A28C24B5A28D24B6A28E24E3
:1051B000B7A28F24B8A29024B9A29124BAA29224B3
:1051C000BBA29324BCA29424BDA29524BEA2962483
:1051D000BFA29724C0A29824C1A29924C2A29A2453
:1051E000C3A29B24C4A20025A4A90125A5A9022528
:1051F000A6A90325A7A90425A8A90525A9A90625C7
:10520000AAA90725ABA90825ACA90925ADA90A2596
:10521000AEA90B25AFA90C25B0A90D25B1A90E2566
:10522000B2A90F25B3A91025B4A91125B5A9122536
:10523000B6A91325B7A91425B8A91525B9A9162506
:10524000BAA91725BBA91825BCA91925BDA91A25D6
:10525000BEA91B25BFA91C25C0A91D25C1A91E25A6
:10526000C2A91F25C3A92025C4A92125C5A9222576
:10527000C6A92325C7A92425C8A92525C9A9262546
:10528000CAA92725CBA92825CCA92925CDA92A2516
:10529000CEA92B25CFA92C25D0A92D25D1A92E25E6
:1052A000D2A92F25D3A93025D4A93125D5A93225B6
:1052B000D6A93325D7A93425D8A93525D9A9362586
:1052C000DAA93725DBA93825DCA93925DDA93A2556
:1052D000DEA93B25DFA93C25E0A93D25E1A93E2526
:1052E000E2A93F25E3A94025E4A94125E5A94225F6
:1052F000E6A94325E7A94425E8A94525E9A94625C6
:10530000EAA94725EBA94825ECA94925EDA94A2595
:10531000EEA94B25EFA9502554A8512555A8522593
:1053200056A8532557A8542558A8552559A8562599
:105330005AA857255BA858255CA859255DA85A2569
:105340005EA85B255FA85C2560A85D2561A85E2539
:1053500062A85F2563A8602564A8612565A8622509
:1053600066A8632567A8642568A8652569A86625D9
:105370006AA867256BA868256CA869256DA86A25A9
:105380006EA86B256FA86C2570A86D2571A86E2579
:1053900072A86F2573A8702574A8712575A8722549
:1053A00076A8732577A8812578A8822579A88325F2
:1053B0007AA884257BA885257CA886257DA88725B5
:1053C0007EA8882580A8892581A88A2582A88B2582
:1053D00083A88C2584A88D2585A88E2586A88F2551
:1053E00087A8932588A8942589A895258AA8A0250B
:1053F000F6A1A125F5A1B225F8A1B325F7A1BC25F9
:105400008BA8BD258CA8C625F4A1C725F3A1CB2563
:10541000F0A1CE25F2A1CF25F1A1E2258DA8E325AB
:105420008EA8E4258FA8E52590A80526EFA10626DD
:10543000EEA1092691A84026E2A14226E1A1003072
:10544000A1A10130A2A10230A3A10330A8A105307F
:10545000A9A1063065A9073096A90830B4A1093082
:10546000B5A10A30B6A10B30B7A10C30B8A10D30F0
:10547000B9A10E30BAA10F30BBA11030BEA11130BE
:10548000BFA1123093A81330FEA11430B2A1153081
:10549000B3A11630BCA11730BDA11D3094A81E3099
:1054A00095A8213040A9223041A9233042A92430B7
:1054B00043A9253044A9263045A9273046A92830DC
:1054C00047A9293048A94130A1A44230A2A44330C1
:1054D000A3A44430A4A44530A5A44630A6A44730D4
:1054E000A7A44830A8A44930A9A44A30AAA44B30A4
:1054F000ABA44C30ACA44D30ADA44E30AEA44F3074
:10550000AFA45030B0A45130B1A45230B2A4533043
:10551000B3A45430B4A45530B5A45630B6A4573013
:10552000B7A45830B8A45930B9A45A30BAA45B30E3
:10553000BBA45C30BCA45D30BDA45E30BEA45F30B3
:10554000BFA46030C0A46130C1A46230C2A4633083
:10555000C3A46430C4A46530C5A46630C6A4673053
:10556000C7A46830C8A46930C9A46A30CAA46B3023
:10557000CBA46C30CCA46D30CDA46E30CEA46F30F3
:10558000CFA47030D0A47130D1A47230D2A47330C3
:10559000D3A47430D4A47530D5A47630D6A4773093
:1055A000D7A47830D8A47930D9A47A30DAA47B3063
:1055B000DBA47C30DCA47D30DDA47E30DEA47F3033
:1055C000DFA48030E0A48130E1A48230E2A4833003
:1055D000E3A48430E4A48530E5A48630E6A48730D3
:1055E000E7A48830E8A48930E9A48A30EAA48B30A3
:1055F000EBA48C30ECA48D30EDA48E30EEA48F3073
:10560000EFA49030F0A49130F1A49230F2A4933042
:10561000F3A49B3061A99C3062A99D3066A99E309D
:1056200067A9A130A1A5A230A2A5A330A3A5A4304B
:10563000A4A5A530A5A5A630A6A5A730A7A5A830E6
:10564000A8A5A930A9A5AA30AAA5AB30ABA5AC30B6
:10565000ACA5AD30ADA5AE30AEA5AF30AFA5B03086
:10566000B0A5B130B1A5B230B2A5B330B3A5B43056
:10567000B4A5B530B5A5B630B6A5B730B7A5B83026
:10568000B8A5B930B9A5BA30BAA5BB30BBA5BC30F6
:10569000BCA5BD30BDA5BE30BEA5BF30BFA5C030C6
:1056A000C0A5C130C1A5C230C2A5C330C3A5C43096
:1056B000C4A5C530C5A5C630C6A5C730C7A5C83066
:1056C000C8A5C930C9A5CA30CAA5CB30CBA5CC3036
:1056D000CCA5CD30CDA5CE30CEA5CF30CFA5D03006
:1056E000D0A5D130D1A5D230D2A5D330D3A5D430D6
:1056F000D4A5D530D5A5D630D6A5D730D7A5D830A6
:10570000D8A5D930D9A5DA30DAA5DB30DBA5DC3075
:10571000DCA5DD30DDA5DE30DEA5DF30DFA5E03045
:10572000E0A5E130E1A5E230E2A5E330E3A5E43015
:10573000E4A5E530E5A5E630E6A5E730E7A5E830E5
:10574000E8A5E930E9A5EA30EAA5EB30EBA5EC30B5
:10575000ECA5ED30EDA5EE30EEA5EF30EFA5F03085
:10576000F0A5F130F1A5F230F2A5F330F3A5F43055
:10577000F4A5F530F5A5F630F6A5FC3060A9FD30AE
:1057800063A9FE3064A90531C5A80631C6A8073152
:10579000C7A80831C8A80931C9A80A31CAA80B315D
:1057A000CBA80C31CCA80D31CDA80E31CEA80F312D
:1057B000CFA81031D0A81131D1A81231D2A81331FD
:1057C000D3A81431D4A81531D5A81631D6A81731CD
:1057D000D7A81831D8A81931D9A81A31DAA81B319D
:1057E000DBA81C31DCA81D31DDA81E31DEA81F316D
:1057F000DFA82031E0A82131E1A82231E2A823313D
:10580000E3A82431E4A82531E5A82631E6A827310C
:10581000E7A82831E8A82931E9A82032E5A22132F9
:10582000E6A22232E7A22332E8A22432E9A22532FC
:10583000EAA22632EBA22732ECA22832EDA22932CC
:10584000EEA231325AA9A33249A98E334AA98F3325
:105850004BA99C334CA99D334DA99E334EA9A1332E
:105860004FA9C43350A9CE3351A9D13352A9D23351
:1058700053A9D53354A9004EBBD2014EA1B6024E56
:105880004081034EDFC6044E4181054E4281064EE3
:105890004381074EF2CD084EC9D5094EFDC80A4EC8
:1058A000CFC90B4EC2CF0C4EA2D80D4EBBB20E4E7E
:1058B000EBD30F4E4481104EA4D8114EF3B3124EC9
:1058C0004581134EA8D7144ED2C7154EA7D8164EF1
:1058D000C0CA174E4681184EF0C7194EFBB11A4E7A
:1058E000B5D21B4ED4B41C4EABB61D4EBFCB1E4E14
:1058F000A9D81F4E4781204E4881214E4981224E12
:10590000AAB6234E4A81244EBDC1254ECFD1264E84
:105910004B81274EA5C9284EADD8294E4C812A4E21
:10592000F6B82B4EBED12C4EDCE32D4ED0D62E4EEB
:105930004D812F4E4E81304EE1B7314E4F81324E68
:10594000AEB4334E5081344ED9C1354E5181364EAE
:10595000BCD8374E5281384EE8CD394EA4B53A4EB8
:10596000AACE3B4EF7D63C4E53813D4EF6C03E4E3E
:10597000D9BE3F4EAFD8404E5481414E5581424E24
:105980005681434ECBC4444E5781454EC3BE464E0E
:105990005881474EB1D8484EB4C3494EE5D24A4E1D
:1059A00059814B4EAED64C4EDACE4D4EA7D54E4E0B
:1059B000F5BA4F4EA6B7504ED6C0514E5A81524EF0
:1059C000B9C6534ED2C5544EC7C7554E5B81564ECD
:1059D000D4B9574E5C81584ECBB3594ED2D25A4EA1
:1059E0005D815B4E5E815C4EBFD85D4EC5BE5E4E36
:1059F000F2C65F4EB2D2604EB0CF614EE7CF624E7C
:105A00005F81634E6081644E6181654E6281664E46
:105A1000E9CA674E6381684E6481694EC0D86A4E98
:105A200065816B4E66816C4E67816D4E68816E4EEE
:105A300069816F4E6A81704EF2C2714ED2C2724E4F
:105A40006B81734EE9C8744E6C81754E6D81764ED4
:105A50006E81774E6F81784E7081794E71817A4E6A
:105A600072817B4E73817C4E74817D4E75817E4E3A
:105A7000ACC77F4E7681804E7781814E7881824E91
:105A80007981834E7A81844E7B81854E7C81864EDE
:105A9000CBC1874E7D81884EE8D3894EF9D58A4E99
:105AA0007E818B4EC2CA8C4EFEB68D4EA1D88E4ED4
:105AB000DAD38F4EF7BF904E8081914EC6D4924E6E
:105AC000A5BB934EC1D8944EE5CE954EAEBE964E34
:105AD0008181974E8281984EA8D8994E83819A4EA3
