:020000040800F2
:1000000030570020C1010008C90100088B02000818
:10001000CD010008CF010008D10100080000000058
:10002000000000000000000000000000D3010008F4
:10003000D50100080000000013020008C1200008DC
:10004000DB010008DB010008DB010008DB01000820
:10005000DB010008DB010008DB010008DB01000810
:10006000DB010008DB010008DB010008DB01000800
:10007000DB010008DB010008DB010008DB010008F0
:10008000DB010008DB010008DB010008DB010008E0
:10009000DB010008DB010008DB010008DB010008D0
:1000A000DB010008DB010008DB010008DB010008C0
:1000B000DB010008DB010008DB010008DB010008B0
:1000C000DB010008DB010008DB010008DB010008A0
:1000D000DB010008DB010008DB010008DB01000890
:1000E000DB01000865140008DB010008DB010008E3
:1000F000DB010008DB010008DB010008DB01000870
:10010000DB010008DB010008DB010008DB0100085F
:10011000DB010008DB010008DB010008DB0100084F
:10012000DB010008DB010008DB010008DB0100083F
:10013000DB010008DB010008DB010008DB0100082F
:10014000DB010008DB010008DB010008DB0100081F
:10015000DB010008DB010008DB010008DB0100080F
:10016000DB010008DB010008DB010008DB010008FF
:10017000DB010008DB010008DB010008DB010008EF
:10018000DB010008DB010008DB010008DB010008DF
:10019000DB010008DB010008DB010008DB010008CF
:1001A000DB010008DB010008DB010008DFF80CD0F0
:1001B00000F0C6F800480047A303000830570020AD
:1001C0000648804706480047FEE7FEE7FEE7FEE7F1
:1001D000FEE7FEE7FEE7FEE7FEE7FEE7D5200008C4
:1001E000AD010008EFF3108072B6704780F31088FD
:1001F00070472B4A1368012B04D04FF001031360A2
:10020000284A1060284A116028484FF08051016048
:100210007047EFF3108272B62148016891B14FF038
:10022000000101601F48016829B1EFF3098121E94C
:10023000F00F006801601C4909680968B1E8F00F17
:1002400081F3098882F310884EF0040E7047164936
:10025000086014494FF00000086011494FF0010098
:10026000086013484FF47F01D0F8002041EA0201F2
:1002700001600E484FF0805101600E480068006830
:1002800080F3088861B662B67047EFF3098000B565
:1002900002F060FD5DF804EB4EF0040E70470000C4
:1002A000CC000020C4000020C800002004ED00E0C5
:1002B00020ED00E008ED00E0D2B201E000F8012BF3
:1002C000491EFBD270470022F6E710B513460A46D6
:1002D00004461946FFF7F0FF204610BD2DE9F05FF8
:1002E0000546002092469B468846064681464024A5
:1002F0001BE0284641464746224600F042F8534656
:100300005A46C01A914110D311461846224600F0B1
:1003100029F82D1A67EB01084F46224601200021DB
:1003200000F020F817EB00094E41201EA4F1010453
:10033000DFDC484631462A464346BDE8F09F0000D0
:10034000064C074D06E0E06840F0010394E8070022
:1003500098471034AC42F6D3FFF72CFFEC5000085E
:100360000C510008202A04DB203A00FA02F1002098
:1003700070479140C2F1200320FA03F319439040E3
:100380007047202A04DB203A21FA02F0002170474E
:1003900021FA02F3D040C2F12002914008431946ED
:1003A000704710B5FFF71EFF03F0F4FC002010BDEE
:1003B0007CB50121080200F0E1FE4FF400640094D6
:1003C00001208DF8040000208DF8060002208DF831
:1003D00007008DF80500054D6946284600F0CEF966
:1003E0002146284600F018FA7CBD0000002002409B
:1003F00010B50121CC05204600F0CEFE2046BDE818
:100400001040002100F0C8BE01460020024A526898
:100410000A4200D00120704700B0024030B50024ED
:100420002A4B19682A4A1140196019680268114359
:100430001960596B21F007015963596B42681143E8
:1004400059634168002928D001292DD0022930D0D4
:10045000032933D0C1680A010169090244692403F0
:100460008568214315430D43996B0D439D63816955
:10047000D963196C6FF30D011964196CC2691143CA
:100480001964818C09045A6C02F040425A645A6C17
:10049000006A02430A435A6430BDC1680A02018AF5
:1004A0000904047D2406DBE7C1680A02018A090405
:1004B000D6E7C1684A010169C902D1E7C1684A01AA
:1004C000016989024469E403CAE7000000B0024000
:1004D000FCE0FCFF0248016841F001010160704747
:1004E00000B0024070B586B00121084600F046FE1B
:1004F0000121102000F07AFE00248DF81640012022
:100500008DF8170002258DF815508DF81450400213
:1005100004901C4E04A9304600F030F98DF81450B8
:100520006902049104A9304600F028F907220A2143
:10053000304600F061F907220921304600F05CF9ED
:100540004FF4E1300090ADF80440ADF80640ADF84E
:100550000840ADF80C400C20ADF80A000A4C694682
:10056000204601F00DFE00F0B1FD012240F22551C0
:10057000204601F0EAFD0121204601F0D3FD06B03E
:1005800070BD0000000002400010014001490860F9
:1005900070470000143C014030B51B4A8379016864
:1005A000002B2AD013688B431360111D0B6804685D
:1005B000A3430B60017911440B68046823430B606B
:1005C000114C08342168036899432160231D196880
:1005D0000568A94319604179102905D011440A68BA
:1005E000006802430A6030BD21680268114321603F
:1005F000196800680143196030BD00791044026831
:100600008A43026030BD0000003C014000224FF0F0
:10061000204310280AD0B0F5807F09D0B0F5805F64
:1006200009D0D3F85801814309D107E0586EFAE7A1
:10063000D3F88400F7E7D3F8A400F4E701221046CA
:1006400070470000D0E9001211438268C068521E52
:10065000520142EA40200143014801607047000016
:10066000500100A070B50468A100A1F1C041D1F80B
:100670004011CE0BF603D0E901121143D0E9032358
:100680001A4311434269C36911438269056A1143E0
:100690001943426A2943114331434FF02046002C4D
:1006A0003CD0D6F840416FF30E042B432243134352
:1006B000C6F8403102689200A2F1C042C2F840116F
:1006C000016871B38900A1F1C041D1F8481101F06E
:1006D0007043816A0A684C68521E641E42EA041420
:1006E0008A68521E44EA02240A8A521E44EA0242DE
:1006F0001A43D6F8483103F07043CC68898A641EE7
:100700002403491E44EA01511943C6F84811006800
:100710008000A0F1C040C0F8482170BDC6F840116B
:10072000CEE7FFE7D6F8481101F07041806A026811
:100730004368521E5B1E42EA03138268521E43EA5C
:100740000223C268521E43EA0233028A521E43EA5F
:100750000243828A007E521E43EA0252401E42EA4F
:1007600000600843C6F8480170BD000002490A68ED
:1007700042EA400008607047540100A02DE9F041B2
:10078000002201274FF0030C07FA02F50B682B40FB
:10079000AB422CD1066853000CFA03F4A643066062
:1007A0000E79D0F800809E4046EA080606600E7971
:1007B000012E01D0022E12D18668A64386604E79A2
:1007C000D0F808809E4046EA080686604668AE4338
:1007D000466045688E799640B6B235434560C56837
:1007E000A543C560CC799C40C3681C43C460521CBF
:1007F000102AC9D3BDE8F08110B54B07DB0E9A4033
:10080000C90800EB8100016A0F249C40A1430162EA
:10081000016A1143016210BD418370470183704733
:10082000F0B58BB00446E50A04F01F07C4F3451683
:10083000FFF7DEFD4FF44030019002200290049655
:100840000397059520040012000E06900C4C60687A
:100850000790002008904FF4F07009904FF4487012
:100860000A9001A8FFF7DAFDFFF734FE0220FFF738
:10087000CBFD0028FAD0208800F0A2FA0BB0F0BD22
:10088000300000202DE9FF4F83B00446DDE91068F9
:1008900089461746DFF864A04FF4487B1FE08028A4
:1008A00001D93D4600E07D082038C0B20B68C988F8
:1008B0002A46414303EB4100CDE9000918211020ED
:1008C000069B00F09BFA0E48CDE900082A46214617
:1008D0004846069B00F016F8601984B2761C5C4509
:1008E00009D23078002806D0DAF80C108A8813195B
:1008F0009BB29342D3D207B0BDE8F08F3000002006
:10090000D41000202DE9F04FDDE9095900264FF4FD
:1009100016646043DFF844B0DBF804701AE000248A
:10092000BBF80280BBF800A00EE015F801CBCC4567
:1009300004D107EB410C2CF8008003E007EB410CDD
:100940002CF800A0491C641C9442EED3C2F54874F4
:100950002144761C9E42E2D3BDE8F08F3000002097
:100960002DE9FC5F012140F2FF1000F007FC4FF081
:100970000408CDF8008002208DF805008DF80400F1
:1009800000208DF806008DF807006946AA48FFF799
:10099000F5FE0E220221A848FFF72EFF4FF00809AE
:1009A000CDF800906946A448FFF7E8FE0E22032127
:1009B000A148FFF721FF4FF4807ACDF800A06946E7
:1009C0009D48FFF7DBFE0E2208219B48FFF714FF2E
:1009D0000124009469469948FFF7D0FE09220021BE
:1009E0009648FFF709FF4FF4006BCDF800B0694659
:1009F0009348FFF7C3FE0E220B219148FFF7FCFE40
:100A00002003009069468E48FFF7B8FE0E220C21A5
:100A10008B48FFF7F1FE0220009069468748FFF7F8
:100A2000ADFE092201218548FFF7E6FE402500952D
:100A300069468448FFF7A2FE0E2206218148FFF78F
:100A4000DBFE2020009069467F48FFF797FE0E22CC
:100A500005217D48FFF7D0FE009569467A48FFF7EB
:100A60008DFE0E2206217848FFF7C6FE6003009037
:100A700069467148FFF782FE0E220D216E48FFF78E
:100A8000BBFEA602009669466E48FFF777FE092274
:100A90000A216C48FFF7B0FEE00300906946664803
:100AA000FFF76CFE0E220F216348FFF7A5FE0094AE
:100AB00069466648FFF762FE0E2200216348FFF791
:100AC0009BFE8027009769466148FFF757FE0E227C
:100AD00007215F48FFF790FECDF8008069465B482C
:100AE000FFF74CFE0E2202215848FFF785FE4FF01B
:100AF0001008CDF8008069465348FFF73FFE0E22EC
:100B000004215148FFF778FE2003009069464D48C4
:100B1000FFF734FE0E220C214A48FFF76DFE0095C8
:100B20004C4D69462846FFF729FE0E22062128462D
:100B3000FFF762FECDF800B069464248FFF71EFE9F
:100B40000E220B213F48FFF757FECDF80080694683
:100B50003E48FFF713FE0E2204213C48FFF74CFEEF
:100B6000CDF8009069463648FFF708FE0E220321B3
:100B70003348FFF741FECDF800A069462F48FFF744
:100B8000FDFD0E2208212D48FFF736FE4FF40079B7
:100B9000CDF8009069462948FFF7F0FD0E220921A3
:100BA0002648FFF729FE009769462648FFF7E6FD2D
:100BB0000E2207212348FFF71FFE009669462348AF
:100BC000FFF7DCFD0E220A212048FFF715FECDF8C5
:100BD000009069461D48FFF7D1FD0E2209211B48F0
:100BE000FFF70AFE00961C4E69463046FFF7C6FD29
:100BF0000E220A213046FFF7FFFDCDF800800220CB
:100C00008DF805008DF8044000208DF806008DF861
:100C1000074069462846FFF7B1FD00976946284618
:100C2000FFF7ACFD10212846FFF7F8FD802128468C
:100C3000FFF7F4FDBDE8FC9F001C024000040240E9
:100C40000000024000180240001002400020024054
:100C500000080240000C02400014024010B590B0A1
:100C60000121880600F0C2FA0121C80500F086FAC9
:100C7000FFF776FE01F026F9002401940294039414
:100C800004940D940E940F94042207214FF4C07025
:100C900000F048FB4FF4803000F034FB012000F0FE
:100CA0003BFB3D2000F002FB0028FAD0059406949F
:100CB0002E2007901720089040F24E30099040F205
:100CC000F7100A9040F262300B9040F20D200C9029
:100CD00001A800F047F910B010BD000030B591B088
:100CE0002F20019040F24E3002901820039040F2E5
:100CF000F710049003240594FF200690002007902D
:100D0000089009900A904FF480600B9005200C9099
:100D100040F243600E90C01E0F904FF4F0701090A0
:100D20004FF050400D90144D01A9284600F07CF979
:100D3000059412490D9161020B9107210C910E4C03
:100D400001A98034204600F06FF9012000F0B8F9C5
:100D50000121284600F05CF90121204600F058F9F5
:100D6000012000F0ADF9064800F012F8012000F073
:100D7000E9F811B030BD00008468014000B80BD024
:100D800028000020014A1080518070473000002068
:100D90000149C86070470000300000200649002863
:100DA00004D0064848600120886070474FF05040EA
:100DB00048600020886070473000002000B80BD0E9
:100DC00001490880704700003000002010B5094933
:100DD0008968002908D00146074800F017F9BDE8E6
:100DE0001040012000F06CB901460348803800F043
:100DF0000DF9F4E730000020046901402DE9F04FBF
:100E0000ADF2044D0446DDF828B40F461546984669
:100E1000200490FBF5F909F10109380490FBF8FA78
:100E20000AF1010A00264FF4806101A8FFF74BFA8E
:100E30002046784335D0B0F5806F32DA05FB08F0F4
:100E400000282ED0B0F5804F2BDA01AA00210CE04B
:100E5000002007E03BF81130C34003F0010302F823
:100E6000013B401CA042F5D3491CB942F0D30DF11F
:100E7000040C0E4A002312E00021300C04FB00C7D2
:100E8000002007E007EB114B9BF800B002F800B020
:100E90004944401CA842F5D356442A445B1C4345B0
:100EA000EAD30DF2044DBDE8F08F0000D41000200D
:100EB0002DE9FC410121882000F060F94FF48065A4
:100EC000009501218DF8041000208DF806008DF8A2
:100ED00007108DF80500114F69463846FFF74EFCA4
:100EE0006C00009469463846FFF748FC660000969F
:100EF00069463846FFF742FC0094094F6946384678
:100F0000FFF73CFC054918310D800C800E8021460E
:100F10003846FFF781FCBDE8FC810000001C024060
:100F2000000C02400649002804D0086840F0010087
:100F300008607047086820F00100086070470000F2
:100F4000186801400649002804D0086840F4803041
:100F500008607047086820F480300860704700001F
:100F60001868014030B5264A136826490B401360C3
:100F7000038A1B04146845692C431C431460121D2A
:100F800013680B401360038B1B041468C5692C4362
:100F90001C431460121D13680B401360038C1B0468
:100FA0001468456A2C431C431460121D13680B40DF
:100FB0001360018D09041368C46A23430B43136053
:100FC000111D0A68104B1A400A60D0E900231A4329
:100FD000D0E9023423431A430B681A430A60416B79
:100FE0000A02018E0B04064924310C6804F07F4488
:100FF0000C600C68806B134304431C430C6030BDD1
:101000000868014000F800F08F88FE0F41617047CA
:10101000002904D0016841F00101016070470168B6
:1010200021F001010160704770B58A88120443689D
:1010300003F4704343600B68134343608A891204CE
:10104000836803F4704383608B6813438360026991
:1010500022F0070202610A690261CA6913020A8C5E
:10106000120491F8244024068569002585618E6963
:1010700022431E4316438661426922F0FF02426109
:101080004A694261C26940F207739A43C261D1E979
:101090000A231A43C261826A85620A6B82620A8FDE
:1010A0001204C36A03F0E023C3624B6B1343C362B1
:1010B000026B6FF30A020263C96B016370BD00002B
:1010C00001490860704700002468014008B54FF4EA
:1010D000A06000F043F825208DF8000001208DF875
:1010E00001008DF802008DF80300684600F002F858
:1010F00008BD000030B50F23C27801250178002A11
:101100001FD0154A126802F4E062C2F5E062C2F331
:101110000722C2F10404D3404278A24084781C40E4
:101120001443220101F1E02181F80024007800F04D
:101130001F018D404009800000F1E020C0F80051FF
:1011400030BD01F01F0085404809800000F1E0201B
:10115000C0F8805130BD00000CED00E002490843AA
:1011600002490860704700000000FA050CED00E03D
:10117000014908627047000000000E42054A00293C
:1011800003D01168014311607047116881431160F9
:101190007047000030380240054A002903D011682A
:1011A000014311607047116881431160704700006E
:1011B00010380240054A002903D01168014311602C
:1011C0007047116881431160704700003838024051
:1011D000054A002903D01168014311607047116866
:1011E000814311607047000040380240054A0029E1
:1011F00003D0116801431160704711688143116089
:10120000704700004438024070B5244B196801F063
:101210000C01234C00291ED0224E04291DD0082980
:101220001DD00460196801F0F00109091E4A545CE0
:101230000168E14041601C6804F4E054A40A145DB4
:1012400021FA04F484601B6803F460435B0BD25CF6
:10125000D140C16070BD0460E4E70660E2E70F4A78
:10126000121F1168C1F38055116801F03F0135B1BB
:10127000B6FBF1F11468C4F38814614305E0B4FBD4
:10128000F1F11468C4F3881461431268C2F3014297
:10129000521C5200B1FBF2F10160C3E70838024072
:1012A0000024F40040787D01140000200246002054
:1012B000510901290BD002290DD00949096802F012
:1012C0001F02012393400B4200D0012070470449C4
:1012D00074390968F3E70249091F0968EFE700005C
:1012E00074380240064900220A700A70012804D0AE
:1012F000042801D10520087070470120087070474C
:1013000070380240034A116821F4403101431160F2
:10131000704700008C3802400149086770470000A0
:1013200000004742800140EA0160024940EA027041
:101330000860704788380240014908607047000023
:101340003C0E4742C0F30121032907D1074B19681E
:1013500021F4F8120649014011431960034A68322A
:101360001168C0F30B000143116070470838024058
:10137000FFFCFF0F38B500220092144CCA222260F5
:1013800053222260114A1C3A002904D011680143FB
:101390001160012015E01168814311600B4A183A71
:1013A0009513116801EA1021009B5B1C0093009BC0
:1013B000AB4201D00029F4D0116811EA102F03D0FC
:1013C0000120FF21216038BD0020FAE724280040D9
:1013D000F0B587B04FF400363046FFF7D7F80496E3
:1013E00000258DF8145008208DF8150001248DF883
:1013F000164004A8FFF7D0F829208DF818008DF8C2
:1014000019508DF81A508DF81B4006A8FFF772FE90
:10141000270200213846FFF7ADFF8DF803508DF805
:1014200000408DF8014005208DF80200C0070190B2
:101430004008029002208DF80C006A4639460020D0
:1014400000F076F90121080300F01EF90121384669
:10145000FFF790FF384600F06BF83046FFF796F83C
:1014600007B0F0BD10B501F015FD4FF480542046D3
:1014700000F0C8F828B1204600F068F86001FFF7D6
:1014800085F804494FF400600883BDE8104001F07E
:101490000FBD000000200240010901EB810149005D
:1014A00000F00F000844C0B27047002103E0491C5F
:1014B000C9B20A38C0B20A28F9D2090740EA116055
:1014C000704700000EB501210807FFF781FE0120DB
:1014D000FFF74EFE0120FFF705FF4120FFF7E6FE74
:1014E0000028FAD04FF48070FFF72CFF0120FFF79F
:1014F00023FF00F0F5FA7F200190FF2002900020EA
:101500000090684600F0E2F8002802D101A000F047
:1015100099FE0EBD0A0D2052544320CAB1D6D3B352
:10152000F5CABCBBAFCAA7B0DC200D0A00000000A2
:1015300080B240F08000C1430348026802F080029C
:1015400011430160704700000C280040000980B280
:1015500040F08000C1430348026802F0800211435A
:10156000016070470C28004008B5002000900E492B
:101570000868400615D44FF0FF3008608B130868E8
:1015800000F04000009A521C0092009A9A4201D04A
:101590000028F4D00868400601D5012008BD0020CD
:1015A00008BD012008BD00000C2800400248016869
:1015B00021F08001016070470C28004010B5024600
:1015C0000C460E4801680E480140080CE070C1F35B
:1015D0000423637001F03F03A370C1F34231217013
:1015E000002A0AD1FFF758FFE0706078FFF754FF38
:1015F0006070A078FFF750FFA07010BD0428004075
:101600003FFFFF0000210C4A126802F004030A4A5F
:10161000383A126803EAD03302401A43064B343B8F
:101620001B6803EA1010002A03D00004000C00D04D
:1016300001210846704700004028004010B50246CE
:101640000C460F4801680F480140C1F30540207067
:10165000C1F30623637001F07F03A37001F48001DE
:10166000090CE170002A0AD1FFF716FF207060789C
:10167000FFF712FF6070A078FFF70EFFA07010BD9B
:10168000002800407F7F7F0030B50F4DCA222A60BE
:1016900053222A600C4C0C4B1C3C20F004021C33DF
:1016A00000F00400002906D0216811432160196868
:1016B0000143196005E02168914321601968814365
:1016C0001960FF20286030BD2428004070B5044612
:1016D0000025114ECA20306053203060FFF744FFD0
:1016E000A8B10D481C38016821F040010160016873
:1016F0002268114301600848A1681438016001683C
:10170000A28841EA02410160FFF750FF0125FF2056
:101710003060284670BD00002428004008B5034909
:1017200001EB800000900098006808BD5028004040
:1017300070B505460E46144600202B49002D06D0F4
:101740000968490608D52078FFF7A6FE05E0096874
:10175000490607D4E07005E0E070A068A8B1207BDE
:10176000FFF79AFEADB1A0782178E27840EA014017
:101770006178090241EA02410843217B40EA0160A5
:10178000A1680843616808431CE0207BFFF784FEE2
:10179000E8E72078FFF789FE05046078FFF785FE0B
:1017A00045EA0025A078FFF780FE0543E07845EA8A
:1017B0000045207BFFF779FEA16845EA00600843F9
:1017C000616808430849CA221C310A6053220A6032
:1017D000B6F5807F04D00A1F1060FF20086070BD3E
:1017E000014A14321060F8E70828004070B5054639
:1017F0000C460026002D06D16078C10603D520F0E6
:1018000010000A3060702DB16078FFF745FEA078B7
:10181000FFF742FE55B1A078E17840EA01456078D3
:101820002178000240EA413005430FE0E078FFF7FD
:101830003CFE05046078FFF738FE45EA0025A078F5
:10184000FFF733FE0543207845EA40350E4CCA20A9
:10185000206053202060FFF787FE88B10B480540C9
:10186000094820380560FFF7A1FE07481C380068CA
:10187000800604D400F034F910B1012600E00126FE
:10188000FF202060304670BD242800403FFFFF004D
:101890002DE9F04105460C4600260020244F002D7E
:1018A00006D03968490608D52078FFF7F5FD05E030
:1018B0003968490602D4E07000E0E07055B1A078C4
:1018C000217840EA01456078E178000240EA014071
:1018D00005430FE02078FFF7E8FD05046078FFF787
:1018E000E4FD45EA0025A078FFF7DFFD0543E07839
:1018F00045EA00450E4CCA201C342060532020606D
:10190000FFF732FE78B10B480540094808380560FA
:10191000FFF74CFE3868800604D400F0E1F810B1FF
:10192000012600E00126FF2020603046BDE8F0815E
:10193000082800407F7F7F007CB500208DF80700DD
:1019400001248DF804408DF805408DF8064001A96A
:10195000FFF79EFF43F2F2252946002000F0E6F84B
:101960008DF800408DF802408DF801408DF803405D
:1019700069460020FFF73AFF2946002000F0D6F81C
:101980007CBD00009EB0002404A90020FFF756FE95
:1019900003A90020FFF712FE9DF81200A04241D0DB
:1019A0009DF80C0000909DF80E309DF80D209DF8DC
:1019B0000F101EA000F046FC9DF80C009DF80E10C4
:1019C000CDE900109DF80D309DF80F2025A105A848
:1019D00000F048FC002405ADCDE9005424231A464C
:1019E00032210A20FEF74EFF9DF812309DF811209B
:1019F0009DF8101028A000F025FC9DF81200009022
:101A00009DF811309DF810202CA105A800F02AFCAB
:101A1000CDE9005424231A4664210A20FEF732FF40
:101A20002E4800689DF81240AEE70000546865201B
:101A300044617465203A2020593A323025302E32E4
:101A400064202D204D3A25302E3264202D20443A3A
:101A500025302E3264202D20573A25302E32640D49
:101A60000A0000005468652044617465203A202013
:101A7000593A323025302E3264202D204D3A25300F
:101A80002E3264202D20443A25302E3264202D2021
:101A9000573A25302E3264005468652054696D65CC
:101AA000203A202025302E32643A25302E32643AF6
:101AB00025302E3264200D0A0D0A0000546865207E
:101AC00054696D65203A202025302E32643A253045
:101AD0002E32643A25302E32640000000428004083
:101AE00018B500200090104BCA20186053201860D1
:101AF0000D491839086820F0A00008604FF4003440
:101B0000086800F02000009A521C0092009AA2423D
:101B100001D00028F4D00868800601D5012000E03B
:101B20000020FF21196018BD2428004008B5034A91
:101B300002EB800000900098016008BD5028004032
:101B40002DE9FC5F0121FC20FFF718FB02208DF836
:101B500004008DF8050000208DF806008DF80700C0
:101B6000012000906946D148FEF708FE0C220021B2
:101B7000CE48FEF741FE022000906946CB48FEF7B2
:101B8000FDFD0C220121C948FEF736FE042000901D
:101B90006946C648FEF7F2FD0C220221C348FEF753
:101BA0002BFE082000906946C048FEF7E7FD0C2296
:101BB0000321BE48FEF720FE102700976946BB4868
:101BC000FEF7DCFD0C220421B848FEF715FE4FF0AD
:101BD0002008CDF800806946B448FEF7CFFD0C22FE
:101BE0000521B248FEF708FE4FF48059CDF8009069
:101BF0006946AE48FEF7C2FD0C221146AB48FEF71F
:101C0000FBFD4FF4005ACDF800A06946A748FEF747
:101C1000B5FD0C220D21A548FEF7EEFDBD02009595
:101C20006946A248FEF7AAFD0C220E219F48FEF746
:101C3000E3FD6C00009469469C48FEF79FFD0C2272
:101C40000F219A48FEF7D8FD012000906946984878
:101C5000FEF794FD0C2200219548FEF7CDFD0220F1
:101C6000009069469248FEF789FD0C2201219048B8
:101C7000FEF7C2FD009569468E48FEF77FFD0C22F7
:101C80000E218C48FEF7B8FD009469468948FEF79E
:101C900075FD0C220F218748FEF7AEFD0120009054
:101CA00069468448FEF76AFD0C2200218148FEF750
:101CB000A3FD0220009069467E48FEF75FFD0C22DE
:101CC00001217C48FEF798FD4FF0800BCDF800B065
:101CD00069467948FEF752FD0C2207217648FEF747
:101CE0008BFDE611009669467348FEF747FD0C220E
:101CF00008217148FEF780FDA011009069466E48EA
:101D0000FEF73CFD0C2209216B48FEF775FD6011C2
:101D1000009069466848FEF731FD0C220A216648AA
:101D2000FEF76AFD2011009069466348FEF726FD24
:101D30000C220B216048FEF75FFDCDF8009069464C
:101D40005D48FEF71BFD0C2211465B48FEF754FD73
:101D5000CDF800A069465848FEF710FD0C220D2171
:101D60005548FEF749FD009569465348FEF706FDC4
:101D70000C220E215048FEF73FFD009469464E4864
:101D8000FEF7FCFC0C220F214B48FEF735FD0096B8
:101D900069464848FEF7F2FC0C2208214548FEF748
:101DA0002BFDA011009069464248FEF7E7FC0C228B
:101DB00009214048FEF720FD6011009069463D482A
:101DC000FEF7DCFC0C220A213A48FEF715FD402004
:101DD00000903A4D69462846FEF7D0FC0C220621B9
:101DE0002846FEF709FD009769463148FEF7C6FC14
:101DF0000C2204212E48FEF7FFFCCDF80080694636
:101E00002B48FEF7BBFC0C2205212948FEF7F4FC09
:101E1000012000902A4F69463846FEF7AFFC0C229D
:101E200000213846FEF7E8FC2011009069461F4863
:101E3000FEF7A4FC0C220B211C48FEF7DDFC0094ED
:101E400069461B48FEF79AFC0C220F211848FEF742
:101E5000D3FC009669461648FEF790FC0C22082138
:101E60001348FEF7C9FCCDF800B069462846FEF7D6
:101E700085FC0C2207212846FEF7BEFC02200090BC
:101E800069460D48FEF77AFC0C2201210A48FEF74C
:101E9000B3FC0120009069460748FEF76FFC0C2256
:101EA00000210548FEF7A8FCBDE8FC9F0014024095
:101EB00000180240000C024000100240001C0240CA
:101EC0000008024000B593B0FFF73AFE0121084632
:101ED000FFF770F90220019007220292042103917A
:101EE0000492059006900790012008900020099028
:101EF0000A9110210B9140210C914FF4C0710D916A
:101F00000E904FF400610F9110908800119001A87D
:101F1000129008A8FEF7A6FB00F002F813B000BD6F
:101F20002DE9FF4101250095082601960295002420
:101F3000039420210120FEF769FB0028F9D16846AF
:101F4000FEF780FB0A2000F041F802200090019685
:101F50000295039420210120FEF758FB0028F9D1B7
:101F60006846FEF76FFB0320009001960427029756
:101F7000039420210120FEF749FB0028F9D168468F
:101F8000FEF760FB20210120FEF740FB0028F9D17D
:101F90006846FEF757FB40F2312000970196029504
:101FA000039020210120FEF731FB0028F9D168467B
:101FB000FEF748FB40F26A50FEF7D8FB20210120D3
:101FC000FEF724FB0028F9D1BDE8FF8101B581B0FF
:101FD000054901984843009002E00098401E009097
:101FE00000980028F9D10CBDA08601001CB5002185
:101FF000019100912E4A106840F4803010604FF437
:10200000A043106800F4003000900198401C01903B
:10201000009810B901989842F3D11068800302D556
:102020000120009000E00091009801283FD1204855
:102030004030016841F0805101601E49086840F459
:10204000404008601A48083003680360036843F49E
:1020500000430360036843F4A0530360041F164B5E
:102060002360136843F08073136013689B01FCD5F1
:102070000A6842F480320A604A68D203FCD50A68D2
:1020800042F400320A604A689203FCD50B4A40F2DF
:1020900005711160016821F003010160016841F0E0
:1020A000020101600168C1F381010229FAD11CBD5E
:1020B0000038024000700040195A4007003C0240BE
:1020C00010B500F0E7FE01F007FCBDE8104000F09D
:1020D000EFBE000010B50F48016841F0010101603A
:1020E0000C4A00210832116002680B4B1A40026052
:1020F000031D0A4A1A60026822F480220260054821
:102100000C300160FFF772FF05494FF00060086076
:1021100010BD000000380240FFFFF6FE1030002422
:1021200008ED00E0002904D0818941F4005181814B
:102130007047818921F40051818170470246002057
:1021400012880A4200D00120704710B540F66A1389
:10215000C1F3421301F01F040121A140012B07D05C
:10216000022B07D014303AB102680A43026010BD56
:102170000C30F8E71030F6E702688A43026010BDC1
:102180007FB504460D46208A20F44051E888084374
:102190002082A08941F20C618843A9882A891143D1
:1021A0006A8902431143A181A08A20F44071A88961
:1021B0000843A0826846FFF727F81E48844202D0F1
:1021C0001D48844201D1039800E00298A1890904C6
:1021D00008D500EBC00101EB001029684900B0FBF5
:1021E000F1F007E000EBC00101EB00102968890065
:1021F000B0FBF1F06422B0FBF2F109010B096FF0C2
:1022000018056B4300EB8300A3891D044FF03203D4
:1022100007D503EBC000B0FBF2F000F00700084365
:1022200006E003EB0010B0FBF2F000F00F000843F3
:1022300020817FBD0010014000140140C1F308015E
:10224000818070470FB4054B10B503A9044A02986A
:1022500000F05AF810BC5DF814FB000039280008A3
:10226000D00000200FB4084B10B504A902AA0398AF
:1022700000F04AF8044602A9002000F0D7FA2046F0
:1022800010BC5DF814FB00002D280008002807D0C2
:102290000F4910F0FF0F05D0C0B2085C401C70471A
:1022A0000020704710F47F4F04D0C0F30720085C73
:1022B0000930704710F47F0F04D0C0F30740085C6A
:1022C0001130704701EB1060007819307047000042
:1022D000BA4F000802E008C8121F08C1002AFAD14C
:1022E00070477047002001E001C1121F002AFBD196
:1022F0007047000003480168814201D00120704707
:1023000000207047AC0000202DE9FF4F8DB00F4634
:102310000546002606E025280BD0DDE90F12904780
:102320006D1C761C28780028F5D111B03046BDE828
:10233000F08F0024A246A1460122EC4900E00443AC
:1023400015F8013F203B02FA03F00842F7D1287844
:102350002A2810D06FF02F022878A0F13001092927
:1023600014D80AEB8A0102EB410144F0020400EBAD
:10237000010A6D1CF0E701CF5FEA000A03D544F4BF
:102380000054CAF1000A44F002046D1C28782E287B
:1023900017D115F8010F44F004042A280ED06FF06D
:1023A0002F022878A0F1300109290AD809EB890108
:1023B00002EB410100EB01096D1CF2E757F8049BA9
:1023C0006D1C28786C280FD006DC4C2817D06828A4
:1023D0000DD06A2814D104E0742810D07A280FD1C7
:1023E0000DE044F400140AE044F4801401E044F4E5
:1023F00040146978814202D104F580146D1C6D1C73
:102400002A786E2A1FD00CDC632A31D004DC002A23
:102410008BD0582A11D1A3E0642A68D0692A0CD144
:1024200065E0732A2ED004DC6F2A73D0702A04D1A1
:102430009BE0752A6FD0782A6ED01046DDE90F1226
:102440009047761C50E1C4F30250022806D00328BE
:1024500009D0042801CF09D0066045E101CFF1176A
:10246000C0E9006140E101CF06803DE106703BE13B
:1024700017F8040B8DF8000000208DF80100EB46E2
:10248000012003E057F804BB4FF0FF3061074FF025
:10249000000102D40DE008F10101884649450FDA38
:1024A0008045F8DB1BF808100029F4D108E008F19A
:1024B000010188468142FADB1BF808100029F6D199
:1024C000DDE90F23AAEB08008146214600F036F92A
:1024D000304400EB080604E0DDE90F121BF8010BA5
:1024E0009047B8F10108F7D221464846F7E00A21A3
:1024F000C4F302534FF0000B0891022B04D001CF1C
:10250000C117032B09D00AE0FF1D27F00707F7E8E2
:10251000020108E032E01FE020E000B2C117042B06
:1025200001D140B2C117031E71F1000307DA4FF069
:10253000000CD0EB0C006CEB01012D2302E0230515
:1025400004D52B238DF82430012303E0E30701D0C9
:102550002023F7E7984658E00A2110E010210EE00A
:1025600010204FF0000B08900CE010214FF0000BF2
:1025700044F004044FF00809089103E008214FF0EB
:10258000000B0891C4F30253022B04D001CF0021A9
:10259000032B06D006E0FF1D27F00707F7E802012E
:1025A00003E080B2042B00D1C0B24FF00008230733
:1025B0002BD5702A07D0DDF820C08CF0100C5CEA17
:1025C0000B0C05D00EE040238DF82430012308E0E9
:1025D00050EA010306D030238DF824308DF82520F1
:1025E00002239846DDF820C08CF0080C5CEA0B0C46
:1025F0000BD150EA010301D1630706D530238DF8D2
:1026000024304FF00108A9F10109582A04D038A25A
:102610000B9208AA0A920BE03AA2F9E75B46089AE5
:10262000FDF75CFE0B9B9B5C0A9A521E0A9213708C
:1026300050EA0102F2D10A98ADEB000000F1200B44
:10264000600702D524F4803401E04FF00109D94538
:1026500002DDA9EB0B0000E0002000EB0B01414480
:102660000890AAEB010AE00306D4DDE90F23214616
:10267000504600F063F806444FF0000908E009A94D
:1026800011F80900DDE90F12904709F10109761CE4
:10269000C145F4DBE0030CD5DDE90F2321465046AC
:1026A00000F04CF8064404E0DDE90F1230209047BA
:1026B000761C0899481E08900029F5DC08E00A9865
:1026C0000A990078491C0A91DDE90F129047761C9F
:1026D000BBF10001ABF1010BF1DC21465046DDE915
:1026E0000F2300F019F806446D1C1BE609280100B1
:1026F0003031323334353637383961626364656678
:102700000000000030313233343536373839414239
:1027100043444546000000002DE9F04104460025F1
:102720001E461746880404D405E039462020B047E9
:102730006D1C641EF9D52846BDE8F0812DE9F041F5
:10274000044600251E469046C80301D5302700E008
:102750002027880404D505E041463846B0476D1C63
:10276000641EF9D52846BDE8F08100002DE9FC4142
:102770001F46DDE90A65DDE90831044604F114006D
:10278000406000601C346260A760E36021610A461B
:102790002321184600F098FCD4E903014218D4E93B
:1027A0000101121F0D4B00F057FB2060A6766676E4
:1027B0000020E06125626562606120766065A06549
:1027C0001C3C009001902346054A214604F1440038
:1027D00001F0F8F80020BDE8FC810000493600084F
:1027E0004D38000810B5029C24F001044472C16108
:1027F000026200218162436200EBC1021432526026
:102800001260491C0129F7DB10BD10B5002200EB56
:10281000C2011431D1E900436360D1E9003423607F
:1028200049600960521C012AF1DB10BD0A68531C83
:102830000B6010707047000070B50446064DE1B2A1
:102840002846FFF7FBFC80212846FFF777FC00288D
:10285000F9D0204670BD0000001001401CB51420C6
:102860000321CDE900104FF480630022064907A040
:1028700000F0C3FE0749086018B100F0B3FF002064
:102880001CBD4FF0FF301CBDE73D0008746573743C
:10289000000000002400002010B500F0E7F8BDE8BB
:1028A0001040FFF7DBBF000030B5134C41682268D1
:1028B000114402F1080388420DD04D885DB9656866
:1028C000A94208D0A5688D4200D1A0604D6845603E
:1028D0004968851ACD508168114481420BD04D88DA
:1028E000002D08D1A568854200D1A16044684C60E4
:1028F0004068891AC15030BD480000202DE9FF4FC3
:10290000DDE90DB60F9D6C0602D5DFF814A103E0DA
:10291000DFF80CA1AAF1110AEC0601D525F001059A
:10292000EC0702D04FF0300901E04FF020090027FA
:10293000AC070BD5002A02DA2D27524206E06C07BD
:1029400001D52B2702E02C0700D520270024EE46D6
:102950007AB9302201248DF800200CE00A2B15D022
:1029600002F00F081209A4461AF80880641C0EF839
:102970000C80002AF2D1B44200DD2646ABEB060201
:1029800015F0110F4FF0200309D016E04FF00A0C9C
:10299000B2FBFCF80CFB1828B2FBFCF2E3E73FB1FA
:1029A000002A05DD521E03E0884200D80370401C57
:1029B000B2F1000CA2F10102F6DC27B1884201D885
:1029C0000770521E401CED0605D508E0884201D86C
:1029D00080F80090401C151EA2F10102F6DC3027A1
:1029E00003E0884200D80770401C3546761EA54299
:1029F000F7DC05E0884202D81EF804500570401C40
:102A0000251EA4F10104F5DC03E0884200D8037020
:102A1000401C141EA2F10102F7DC04B0BDE8F08FE7
:102A2000CB5000081CB502211420CDE900100B0288
:102A30000022044904A000F0E0FDBDE81C4000F0C5
:102A4000D1BE0000992800086D61696E0000000089
:102A500070B5044C044D02E020688047241DAC4250
:102A6000FAD370BDE0500008E450000870B5044C83
:102A7000044D02E020688047241DAC42FAD370BDAB
:102A8000E4500008E850000810B5FDF7ABFB044A1D
:102A90005188491C5180BDE81040FDF7A7BB0000DC
:102AA000A000002010B5FDF79DFB094A5188491E82
:102AB00009B25180002907DC00215180FDF796FB07
:102AC000BDE8104000F0A0BBBDE81040FDF78EBB94
:102AD000A000002070B5002833D01A4D2968884224
:102AE0002FD3696888422CD2A0F10C044FF0FF313B
:102AF000154800F044FC60884FF4F55610B120886A
:102B0000B04208D011A000F00FFA23886288214655
:102B100015A000F009FA002060802680A868844291
:102B200000D2AC6029686068611A401A2969081AE5
:102B300028612046FFF7B8FEBDE87040024800F06B
:102B400000BC70BD48000020CC520020746F20668D
:102B50007265652061206261642064617461206235
:102B60006C6F636B3A0A00006D656D3A2030782512
:102B70003038782C207573656420666C61673A2064
:102B800025642C206D6167696320636F64653A205A
:102B90003078253034780A0000487047D40000208F
:102BA00000487047D410002010B53B484FF47A71AC
:102BB0000068B0FBF1F0401EB0F1807F09D24FF009
:102BC000E0214861354AF02010700020886107201C
:102BD0000861FEF76DF9FDF7EBFBFDF783FC30A014
:102BE000FFF730FBFEF73AF8FEF778F80120FEF722
:102BF00099F90020FEF7D2F84FF400442046FDF783
:102C00000FFE0120FEF7CAF8FF20FEF7DFF820468E
:102C1000FDF706FE21464FF47C40FEF7B3F8FEF7C1
:102C200051FC0020FEF77AFDA0F54851F23904D09E
:102C3000FEF7CEFBFEF780FE22E07B20FEF736FBA0
:102C400018B11EA0FFF7FEFA06E07A20FEF72EFB71
:102C500010B120A0FFF7F6FA24A0FFF7F3FA012144
:102C60000807FEF7B5FA0120FEF782FAFEF738FFF3
:102C70004FF48070FEF75CFC4FF40030FDF786FCEB
:102C8000FFF7E6FEFFF78CFF0446FFF785FF2146BE
:102C9000BDE8104000F01EBC0000002023ED00E065
:102CA0000A0DD5E2CAC7D2BBB8F6525443C4D6D631
:102CB000D3CAB5D1E9200D0A000000000D0A20B7E3
:102CC000A2C9FAB5E7D4B4B8B4CEBB2E2E2E2E0DC1
:102CD0000A0000000D0A20B7A2C9FACDE2B2BFB8BF
:102CE000B4CEBB2E2E2E2E0D0A0000000D0A20B2EF
:102CF000BBD0E8D2AAD6D8D0C2C5E4D6C35254437A
:102D00002E2E2E2E0D0A000070B50446FFF7BCFED5
:102D10000F4D16E00A2809D10D212846FFF78EFA3B
:102D200080212846FFF70AFA0028F9D014F8011B81
:102D30002846FFF783FA80212846FFF7FFF900288D
:102D4000F9D020780028E5D1BDE87040FFF7AABE91
:102D50000010014010B5044617480168002903D04F
:102D600020468847002826D014A0E16900F0DCF84E
:102D700016A0A16900F0D8F818A0616900F0D4F895
:102D80001AA0216900F0D0F81CA0E16800F0CCF88E
:102D90001EA0A16800F0C8F820A0616800F0C4F887
:102DA00022A0216800F0C0F800F016FD014623A023
:102DB00000F0BAF8FEE710BDC00000207073723A50
:102DC000203078253038780A000000002070633AFF
:102DD000203078253038780A00000000206C723AE4
:102DE000203078253038780A000000007231323AFD
:102DF000203078253038780A000000007230333AED
:102E0000203078253038780A000000007230323ADD
:102E1000203078253038780A000000007230313ACE
:102E2000203078253038780A000000007230303ABF
:102E3000203078253038780A00000000686172641C
:102E4000206661756C74206F6E20746872656164B1
:102E50003A2025730A00000070B50646121D22F0C4
:102E60000700A0F1400528460022094C40F8224006
:102E7000521C102AFAD30162002141628162C162B0
:102E80000163436386634FF08071C163284670BD60
:102E9000EFBEADDE10B5FDF7A5F9044A1178491C67
:102EA0001170BDE81040FDF7A1B9000044000020FA
:102EB00010B5FDF797F9044A1178491E1170BDE865
:102EC0001040FDF793B90000440000202DE9F041C7
:102ED00005460E461446304600F097FC06F11407EE
:102EE00014B1012C1DD104E03946284600F043F806
:102EF00017E02C680DE0A4F1140096F8351090F856
:102F00003520914204D23946143000F034F802E002
:102F10002468AC42EFD1AC4203D13946284600F0D8
:102F20002AF80020BDE8F0810FB408B503AB009388
:102F30007F210548029A00F0DDFD0348FFF7E4FE1B
:102F400001B05DF814FB00004C5200200268516093
:102F500002680A6001604860704702685160026858
:102F60000A600160486070470268516002680A6048
:102F70000160486070474268116042684A60416081
:102F8000086070470168814201D10120704700202C
:102F900070470168814201D10120704700207047CD
:102FA000D0E900215160D0E900121160406000605A
:102FB0007047D0E900215160D0E9001211604060F3
:102FC000006070472DE9F047002809D0C01C20F0B0
:102FD00003053B4EF068854204D90020BDE8F08728
:102FE0000020FBE70C2D00D20C254FF0FF313548B7
:102FF00000F0C5F9B7683168781AD6F80CC0ACEBA8
:10300000050356E00C1862888ABB6268121A0C3AF3
:10301000AA424DD3626805F11803121A0C3A4FF018
:1030200001094FF4F5589A4222D343190C33CA18B8
:10303000A2F800804FF0000AA2F802A0D4F804A081
:10304000C2F804A090606360A4F8029050680CF18C
:103050000C0C604502D001F108028350306928440D
:103060000C303061726982420ED270610CE01FE058
:10307000A4F802906068621A801A326910443061C4
:103080007269824200D27061A4F80080BC4203D011
:1030900008E040680844B060B068428812B17268C5
:1030A0009042F6D1074800F04CF904F10C0095E786
:1030B00060688342A6D8034800F043F900208DE7FA
:1030C00048000020CC52002010B50346CCB2042AA0
:1030D00015D3810713D1014644EA042343EA03438D
:1030E00005E00B604B608B60CB601031103A102A0A
:1030F000F7D201E008C1121F042AFBD20B46E1B24D
:1031000001E003F8011B521E541CFAD110BD2DE939
:10311000F04106460F46304600F03EF80546E868A6
:10312000FFF750FF0446ACB12672002060720822FF
:103130003946204600F0BAF9FDF754F8064604F186
:103140000C01281DFFF702FF3046FDF74FF820461F
:10315000BDE8F0810020FBE770B50446FDF742F8BA
:10316000054604F10C00FFF71BFF2846FDF73EF86B
:103170002046BDE87040FFF7ADBC70B50446FDF7D2
:1031800031F8054604F10C00FFF70AFF2846BDE8B8
:103190007040FDF72BB800000021074A02EB011335
:1031A0001B78834202D102EB01107047491C0429AD
:1031B000F4DB002070470000600000202DE9F041A2
:1031C00004460D4617462846FFF7E6FF064645F03B
:1031D0008000207208223946204600F067F9FDF78A
:1031E00001F8054604F10C01301DFFF7AFFE28463B
:1031F000BDE8F041FCF7FABF007A000601D50120D6
:10320000704700207047000070B5FCF7EBFF0546E3
:10321000174C608820B12846BDE87040FCF7E6BF37
:10322000A068FFF733F8421E124850F832101439E4
:103230006068814216D0227061600F4A127842B1F4
:103240001C311C30FCF7D5FF2846BDE87040FCF768
:10325000CDBF1C311C30FCF7CCFF2846BDE87040C8
:10326000FCF7C4BF2846BDE87040FCF7BFBF0000B4
:10327000A0000020EC5200204400002010B50446BD
:10328000FCF7B0FF024614F8340F20F00F00401C8A
:10329000207060780A49343C01EBC00104F114004D
:1032A0004B6818604B684360486001600548A16B3B
:1032B000836819438160BDE810401046FCF796BF53
:1032C000EC520020A000002070B50546FCF78AFFF4
:1032D000014605F11404D4E900205060D4E900024D
:1032E00010606460246095F835000A4A02EBC00063
:1032F0000268824201D1012000E0002020B106488E
:10330000AB6B82689A438260BDE870400846FCF768
:103310006DBF0000EC520020A00000202DE9F0411C
:10332000054616461F460A4601212846FFF746FF76
:103330002C46143464602460AE836F720020BDE8B4
:10334000F08170B504460025FCF74CFF064604F1F9
:103350001400FFF717FE40B1A08B401CA08330463D
:10336000FCF744FF012D06D007E06069143800F037
:1033700015FA0125F3E7FFF747FF002070BD73B58D
:103380000446FCF72FFF0646A08B28B1401EA08301
:103390003046FCF72BFF21E0019808B300F01CFA3F
:1033A000054600202863627A294604F11400FFF7DD
:1033B0008DFD0198002809DD05F1440001AA0021D6
:1033C000044600F0D5FA204600F012FB3046FCF728
:1033D0000DFFFFF719FF286B002800D100207CBDEE
:1033E0003046FCF703FF6FF001007CBD08B509A073
:1033F000FFF79AFD0AA0FFF797FD12A003230090A4
:103400000022194612A0FFF78FFDBDE8084018A062
:10341000FFF78ABD0A205C207C202F0A00000000F4
:103420002D205254202D20202020205468726561C8
:1034300064204F7065726174696E6720537973748C
:10344000656D0A0053657020313520323031380007
:10345000202F207C205C202020202025642E256425
:103460002E2564206275696C642025730A000000B3
:103470002032303036202D203230313820436F70EA
:103480007972696768742062792072742D74687229
:10349000656164207465616D0A000000014600E00A
:1034A000491C0A78002AFBD1081A704710B5002A77
:1034B00007D0034611F8014B03F8014B14B1521E1B
:1034C000F8D110BD002101E003F8011B521EFBD111
:1034D00010BD000070B505460A46E81C20F0030147
:1034E00022F00303182B21D9A3F118048C421DD319
:1034F000114C5A1A183AE26021604FF4F5530B80D0
:103500000C324A6000208860488048680844606047
:10351000038001214180426082600023012207A1D3
:103520000848FFF7FBFE2068A06070BD2946BDE893
:10353000704005A0FFF7F8BC480000206865617086
:1035400000000000CC5200206D656D20696E69742A
:103550002C206572726F7220626567696E206164EB
:10356000647265737320307825782C20616E642036
:10357000656E6420616464726573732030782578A9
:103580000A00000010B50A4B00245C800020094AA4
:1035900002EBC00149600960401C0828F8DB0720E5
:1035A00018705C609C6002480C304060006010BD88
:1035B000A0000020EC52002010B5074CA068FEF7D8
:1035C00065FE401E054951F8300014386060BDE8C2
:1035D00010401C30FCF73BBEA0000020EC52002045
:1035E0000020044A02EBC00149600960401C002829
:1035F000F8D07047B800002070472DE9FF4780469B
:10360000DDE90C67894692461D4641460020FFF7DA
:103610007EFD044620000FD02846FFF7D3FC68B19A
:103620008DE8E10053464A4641462046FFF79EF8A2
:10363000204604B0BDE8F0870020FAE72046FFF7F7
:103640008BFD0020F5E7000070B513480468FCF717
:10365000C9FD05462046FFF737FE042084F83400F4
:1036600004F1440000F09EF92046FFF7C5FD012853
:1036700001D1206F58B104F114010848FFF76DFC27
:103680002846FCF7B3FDBDE87040FFF7BDBD2046FE
:10369000FFF773FDF4E70000A4000020AC00002059
:1036A00000F002F8FCE7000070B527E0FCF79AFD97
:1036B0000646FEF71FFE68B319480468A4F1140516
:1036C000D4E900104860D4E9000108606460246017
:1036D000FFF7DAF9296F09B1284688472846FFF72E
:1036E0008BFD01280FD0FFF7DDF93046FCF77EFD9A
:1036F000A86AFFF7EFF92846FFF72EFDFEF7FAFD5F
:103700000028D3D170BDFFF7CDF93046BDE8704039
:10371000FCF76CBD3046BDE87040FCF767BD0000AB
:10372000AC0000201FB52020C2000721094BCDE9C5
:103730000210CDE9003207480023074A07A1783874
:1037400000F010F804B00348BDE81040783800F0ED
:1037500049B800004C510020A13600087469646C1F
:10376000650000002DE9FF5F8146DDE90E76DDE9A9
:103770001054884692469B46424600214846FFF731
:103780001DFDCDE90076CDE902545B465246414627
:103790004846FEF7EBFF04B0BDE8F09F70B5044665
:1037A00094F8340000F00F00022802D04FF0FF30F0
:1037B00070BDFCF717FD054604F11400FFF7F9FB97
:1037C00004F1440000F07EF92846FCF70FFD204686
:1037D000FFF754FD002070BD0148006870470000ED
:1037E000A400002010B534308178417001228A4055
:1037F0004260022100F83419FFF7D0FFFFF7ECFF19
:1038000008B1FFF701FD002010BD70B5044694F823
:10381000340000F00F00012802D04FF0FF3070BDDF
:10382000FCF7E0FC054694F8340020F00F00801C03
:1038300084F834002046FFF747FD04F1440000F00F
:1038400041F92846FCF7D2FC002070BD10B50446B3
:103850006FF00100206304F11400FFF7AAFB20467B
:10386000FFF70CFDBDE81040FFF7CEBC70B5FCF7CC
:10387000B9FC06461348046894F8340000F00F00C1
:1038800001281AD1D4E90501884216D004F11400A8
:103890000546FFF78EFB94F835000B4901EBC0009D
:1038A00041680D6041686960456028603046FCF7FA
:1038B0009DFCFFF7A9FC002070BD3046FCF796FC8C
:1038C000002070BDA4000020EC52002001480068D8
:1038D000704700004000002010B509490868401CEE
:1038E0000860FFF779FF016C491E016419B9C16BCB
:1038F0000164FFF7BBFFBDE8104000F003B8000013
:103900004000002070B5FFF7E1FF0646FCF76AFCB7
:10391000054620E015480468143C6FF00041A06A99
:10392000301A88421CD22046FEF76FFFD4E90710F8
:103930008847FFF7CBFF0646607A810708D5C107A5
:1039400006D020F001006072204600F051F802E03D
:1039500020F0010060720548FFF71BFB0028D9D05A
:103960002846BDE87040FCF741BC0000B8000020CC
:10397000002909D0012904D0022908D003290FD138
:103980000AE0406A10600BE01168416208E0417A89
:1039900021F00201417203E0417A41F002014172DB
:1039A0000020704770B50546FCF71CFC044628460D
:1039B000FEF72BFF2046FCF719FC2846FFF7DDFB3E
:1039C000002070BD2DE9F8430746DDE9088415465F
:1039D0001E460A4609213846FFF7F0FB43463246A9
:1039E000294638460094FEF7FDFEBDE8F883000046
:1039F0002DE9F8430446FCF7F5FB05462046FEF7A3
:103A000004FF607A20F0010060722846FCF7EEFBAC
:103A1000FFF75CFF616A0844A062FCF7E3FB07461E
:103A2000DFF89CC0CDF800C000226E460CEBC2004F
:103A300045680DE00068A0EBC201A36A496999429C
:103A400004D0C91A6FF00043994205D346F822000A
:103A500056F82200A842EDD12AB156F822100831BA
:103A6000531C46F82310521C002ADFD01448001FB4
:103A7000D0F8008008F10108C0F8008004F11401BA
:103A80000098FFF771FA02250EE05FEA88700DD109
:103A9000C5F1010004EBC001143156F82000FFF716
:103AA00063FA4FEA98086D1C012DEED9607A40F058
:103AB000010060723846FCF799FB0020BDE8F883EE
:103AC000B800002070B50446607AC0070ED0FCF73D
:103AD00089FB05462046FEF798FE2846FCF786FB44
:103AE000607A20F001006072002070BD4FF0FF305E
:103AF00070BD00002DE9FF4F83B082460AEB01073D
:103B00007F1E5446A74201D24FF0FF374FF02009E5
:103B10004FF0250B12E1252804D0BC4200D82070BC
:103B2000641C08E100250599491C059108782D2899
:103B300014D02B2815D0202816D0232817D03028B1
:103B400018D04FF0FF384646059A1278303A0A2AC4
:103B500013D205A800F033F906461AE045F0100527
:103B6000E1E745F00405DEE745F00805DBE745F051
:103B70002005D8E745F00105D5E72A2809D1491CD9
:103B80000591069840C80690002E02DA764245F06C
:103B90001005059801782E2918D1401C0590017850
:103BA000A1F130020A2A04D205A800F008F98046E3
:103BB00007E02A2905D1401C0590069850F8048B8F
:103BC0000690B8F1000F01DA4FF000080021059AC5
:103BD0001078682801D06C2802D10146521C059249
:103BE0000A23059800786F2871D00CDC632820D058
:103BF00004DC25286CD058280DD187E0642801D03A
:103C0000692808D186E0702863D073282FD07528E2
:103C100071D078287CD0BC4201D884F800B0641CF4
:103C200005990878002868D0BC4200D82070641C30
:103C300081E0E80605D507E0BC4201D884F8009091
:103C4000641C761E002EF7DC069810F8041B069004
:103C5000C8B2BC4200D82070641C04E0BC4201D849
:103C600084F80090641C761E002EF7DC63E0069852
:103C700008C8069003B941A31846FFF70FFCB8F136
:103C8000000F02DD404500DD4046E90605D508E0AD
:103C9000BC4201D884F80090641C3146761E8142F3
:103CA000F6DC002106E0BC4201D81A782270641CC0
:103CB0005B1C491C8142F6DB04E0BC4201D884F85D
:103CC0000090641C3146761E8142F6DC33E01BE036
:103CD00014E0701C02D1082645F00105CDE900680A
:103CE00006980295102304C8069039462046FEF730
:103CF00005FE04461FE00FE00AE028E0BC4201D8C0
:103D000084F800B0641C16E0082305E045F0400587
:103D1000102301E045F002056C291BD068291DD055
:103D2000069804C80690CDE90068394620460295F9
:103D3000FEF7E4FD04460598401C059005980078C0
:103D400000287FF4E8AEBC4211D8207010E0491E74
:103D50000591F0E7069804C80690E4E7069830F865
:103D6000041B06908AB2A807DDD512B2DBE73870D3
:103D700007B0A4EB0A00BDE8F08F0000284E554CB8
:103D80004C29000000207047002070470020704739
:103D90000020704710B5FCF725FAFEF705FFFFF786
:103DA00025FBFFF71DFCFFF7EDFBFEF73BFEFFF7E2
:103DB00023FCFFF7B7FCFFF7FFFB002010BD10B599
:103DC000024600206FF02F0407E04B1C13600978B7
:103DD00000EB800004EB4000084411680B78303B96
:103DE0000A2BF2D310BDFDF7CDBD0000000000008E
:103DF00000000000000000000000000000000000C3
:103E000000000000000000000000000000000000B2
:103E100000000000000000000000000080018001A0
:103E2000800180018001800180018001800180018A
:103E300080018001800100000000800180010000FD
:103E40000000000000000000000000000000CC00A6
:103E5000CC00CC00CC00CC00CC0000000000000066
:103E60000000000000000000000000000000000052
:103E70000000000000000000000000000000000042
:103E8000000000000000600C600C600C3006300682
:103E9000FE1FFE1F300638071803FE1FFE1F180303
:103EA00018038C018C018C01000000008000E003ED
:103EB000F80F9C0E8C1C8C188C009800F801E00701
:103EC000800E801C8C188C189C18B80CF00FE00326
:103ED00080008000000000000000000000000000E2
:103EE0000E181B0C110C11061106110311039B0176
:103EF0008E01C038C06C6044604430443044184483
:103F0000186C0C380000000000000000E001F00315
:103F10003807180618063003F001F000F8009C314D
:103F20000E33061E061C061C063FFC73F021000023
:103F300000000000000000000000000000000C0075
:103F40000C000C000C000C000C0000000000000035
:103F50000000000000000000000000000000000061
:103F6000000000000000000000000000000200034C
:103F70008001C000C00060006000300030003000F0
:103F80003000300030003000300060006000C000C1
:103F9000C00080010003000200000000200060005B
:103FA000C000800180010003000300060006000637
:103FB000000600060006000600060003000380015C
:103FC0008001C00060002000000000000000000030
:103FD000000000000000C000C000D806F807E001A3
:103FE000300338070000000000000000000000005F
:103FF00000000000000000000000000000000000C1
:10400000000000000000800180018001800180012B
:10401000FC3FFC3F800180018001800180010000A5
:104020000000000000000000000000000000000090
:104030000000000000000000000000000000000080
:10404000000000000000000000000000800180016E
:1040500000010001800000000000000000000000DE
:104060000000000000000000000000000000000050
:104070000000E007E0070000000000000000000072
:104080000000000000000000000000000000000030
:104090000000000000000000000000000000000020
:1040A000000000000000000000000000C000C00090
:1040B000000000000000000000000000000C000CE8
:1040C00000060006000600030003000380038001D1
:1040D00080018001C000C000C000600060000000DE
:1040E000000000000000000000000000E003F007F6
:1040F000380E180C0C180C180C180C180C180C187E
:104100000C180C180C18180C380EF007E0030000FF
:10411000000000000000000000000000000180011D
:10412000C001F001980188018001800180018001B7
:1041300080018001800180018001800180010000F8
:10414000000000000000000000000000E003F80F85
:10415000180C0C180C1800180018000C00060003AE
:104160008001C000600030001800FC1FFC1F000030
:10417000000000000000000000000000E001F8075F
:10418000180E0C0C0C0C000C0006C003C007000C31
:10419000001800180C180C18180CF807E0030000A1
:1041A000000000000000000000000000000C000EF5
:1041B000000F000F800DC00C600C600C300C180C50
:1041C0000C0CFC3FFC3F000C000C000C000C000031
:1041D000000000000000000000000000F80FF80FD1
:1041E000180018000C00EC03FC071C0E001C001843
:1041F000001800180C181C0C180EF807E00300003B
:10420000000000000000000000000000C007F00FE8
:10421000381C181818000C00CC03EC0F3C0E1C1CAA
:104220000C180C180C18181C380EF007E0030000CE
:10423000000000000000000000000000FC1FFC1F48
:10424000000C00060006000380038001C001C000CE
:10425000E0006000600070003000300030000000BE
:10426000000000000000000000000000E003F00774
:10427000380E180C180C180C3806F007F007180C3C
:104280000C180C180C180C18380CF80FE003000070
:10429000000000000000000000000000E003F00744
:1042A000380E1C0C0C180C180C181C1C381EF81B93
:1042B000E0190018000C000C1C0EF807F0010000BB
:1042C00000000000000000000000000000000000EE
:1042D00000000000000080018001000000000000DC
:1042E00000000000000000000000800180010000CC
:1042F00000000000000000000000000000000000BE
:1043000000000000000080018001000000000000AB
:10431000000000000000000000008001800100019A
:10432000000180000000000000000000000000000C
:10433000000000000000000000000010001C800FC2
:10434000E003F8001800F800E003800F001C0010E4
:10435000000000000000000000000000000000005D
:1043600000000000000000000000F81F0000000036
:104370000000F81F00000000000000000000000026
:10438000000000000000000000000000000000002D
:104390000000000000000000000008003800F001EC
:1043A000C007001F0018001FC007F00138000800F8
:1043B000000000000000000000000000E003F80F13
:1043C000180C0C180C180018000C000600038001D3
:1043D000C000C000C00000000000C000C00000001D
:1043E0000000000000000000000000000000E007E6
:1043F00018180420C229224A1144094409440944D6
:1044000009221113E20C024004201818E0070000F2
:104410000000000000000000000000008003800396
:10442000C006C006C006600C600C3018301830188A
:10443000F83FF83F1C700C600C6006C006C000001E
:10444000000000000000000000000000FC03FC0F62
:104450000C0C0C180C180C180C0CFC07FC0F0C188E
:104460000C300C300C300C300C18FC1FFC0700001A
:10447000000000000000000000000000C007F01F66
:1044800038381C300C700660060006000600060076
:104490000600060006600C701C30F01FE0070000EC
:1044A000000000000000000000000000FE03FE0FFE
:1044B000060E06180618063006300630063006309E
:1044C0000630063006180618060EFE0FFE03000022
:1044D000000000000000000000000000FC3FFC3F66
:1044E0000C000C000C000C000C00FC1FFC1F0C004E
:1044F0000C000C000C000C000C00FC3FFC3F00000A
:10450000000000000000000000000000F83FF83F3D
:1045100018001800180018001800F81FF81F1800DD
:1045200018001800180018001800180018000000E3
:10453000000000000000000000000000E00FF83F55
:104540003C780E6006E007C00300030003FE03FE94
:1045500003C007C006C00EC03CF0F83FE00F0000EB
:104560000000000000000000000000000C300C30D3
:104570000C300C300C300C300C30FC3FFC3F0C305D
:104580000C300C300C300C300C300C300C30000087
:104590000000000000000000000000008001800119
:1045A0008001800180018001800180018001800103
:1045B0008001800180018001800180018001000074
:1045C00000000000000000000000000000060006DF
:1045D00000060006000600060006000600060006AB
:1045E00000060006180618063807F003E001000070
:1045F0000000000000000000000000000630061867
:10460000060C060606038601C60066007600DE007C
:104610008E0106030606060C06180630066000002A
:10462000000000000000000000000000180018005A
:1046300018001800180018001800180018001800BA
:1046400018001800180018001800F81FF81F0000C4
:104650000000000000000000000000000EE01EF05E
:104660001EF01EF036D836D836D836D866CC66CC92
:1046700066CCC6C6C6C6C6C6C6C686C386C3000046
:104680000000000000000000000000000C301C30A2
:104690003C303C306C306C30CC30CC308C310C3316
:1046A0000C330C360C360C3C0C3C0C380C30000037
:1046B000000000000000000000000000E007F81FFC
:1046C0001C380E70066003C003C003C003C003C0E3
:1046D00003C003C006600E701C38F81FE00700001E
:1046E000000000000000000000000000FC0FFC1FA4
:1046F0000C380C300C300C300C300C18FC1FFC0744
:104700000C000C000C000C000C000C000C00000055
:10471000000000000000000000000000E007F81F9B
:104720001C380E70066003E003C003C003C003C062
:1047300003C007E006630E3F1C3CF83FE0F700C0F3
:10474000000000000000000000000000FE0FFE1F3F
:1047500006380630063006300638FE1FFE07060310
:104760000606060C0618061806300630066000001D
:10477000000000000000000000000000E003F80F4F
:104780001C0C0C180C180C001C00F803E00F001E89
:104790000038063006300E301C1CF80FE007000011
:1047A000000000000000000000000000FE7FFE7F0F
:1047B00080018001800180018001800180018001F1
:1047C0008001800180018001800180018001000062
:1047D0000000000000000000000000000C300C3061
:1047E0000C300C300C300C300C300C300C300C30E9
:1047F0000C300C300C300C301818F81FE00700009B
:10480000000000000000000000000000036006300F
:10481000063006300C180C180C18180C180C380E32
:1048200030063006700760036003C001C00100005D
:104830000000000000000000000000000360C361F1
:10484000C361C3616633663366336633663366338A
:104850006C1B6C1B6C1B2C1A3C1E380E380E000097
:104860000000000000000000000000000FE00C70DD
:1048700018303018700C600EC00780038003C0032E
:10488000E006700C301C18180C300E6007E00000B9
:1048900000000000000000000000000003C00660EF
:1048A0000C301C383818300C6006E007C00380015B
:1048B0008001800180018001800180018001000071
:1048C000000000000000000000000000FC7FFC7FF2
:1048D000006000300018000C000600038001C000DA
:1048E0006000300018000C000600FE7FFE7F000014
:1048F000000000000000000000000000E003E003F2
:1049000060006000600060006000600060006000A7
:104910006000600060006000600060006000600097
:1049200060006000E003E0030000000030003000A1
:10493000600060006000C000C000C000C0018001D5
:104940008001800100030003000300060006000050
:10495000000000000000000000000000E003E00391
:10496000000300030003000300030003000300032F
:10497000000300030003000300030003000300031F
:1049800000030003E003E003000000000000C0019A
:10499000C00160036003600330063006180C180C79
:1049A0000000000000000000000000000000000007
:1049B00000000000000000000000000000000000F7
:1049C00000000000000000000000000000000000E7
:1049D000000000000000000000000000FFFFFFFFDB
:1049E0000000000000000000000000000C000C00AF
:1049F0000C000C000C000C00000000000000000087
:104A000000000000000000000000000000000000A6
:104A10000000000000000000000000000000000096
:104A2000000000000000F003F8071C0C0C0C000F45
:104A3000F00FF80C0C0C0C0C1C0FF80FF018000009
:104A40000000000000000000000000001800180036
:104A5000180018001800D803F80F380C1818181888
:104A60001818181818181818380CF80FD803000060
:104A70000000000000000000000000000000000036
:104A8000000000000000C003F007300E180C1800F2
:104A9000180018001800180C300EF007C0030000B2
:104AA00000000000000000000000000000180018D6
:104AB000001800180018C01BF01F301C1818181818
:104AC0001818181818181818301CF01FC01B0000F0
:104AD00000000000000000000000000000000000D6
:104AE000000000000000C003F00F300C1818F81F81
:104AF000F81F180018003818301CF00FC00700000D
:104B0000000000000000000000000000800FC00F47
:104B1000C000C000C000F007F007C000C000C00027
:104B2000C000C000C000C000C000C000C000000045
:104B30000000000000000000000000000000000075
:104B4000000000000000E00DF80F180E0C0C0C0C1B
:104B50000C0C0C0C0C0C0C0C180EF80FE00D000CCF
:104B60000C0C1C06F807F0010000000018001800EB
:104B7000180018001800D807F80F381C1818181853
:104B800018181818181818181818181818180000D5
:104B9000000000000000000000000000C000C00095
:104BA000000000000000C000C000C000C000C00045
:104BB000C000C000C000C000C000C000C0000000B5
:104BC000000000000000000000000000C000C00065
:104BD000000000000000C000C000C000C000C00015
:104BE000C000C000C000C000C000C000C000C000C5
:104BF000C000C000F8007800000000000C000C00AD
:104C00000C000C000C000C0C0C060C038C01CC00EE
:104C10006C00FC009C018C030C030C060C0C0000C7
:104C2000000000000000000000000000C000C00004
:104C3000C000C000C000C000C000C000C000C00074
:104C4000C000C000C000C000C000C000C000000024
:104C50000000000000000000000000000000000054
:104C60000000000000007C3CFF7EC7E383C183C1DD
:104C700083C183C183C183C183C183C183C1000058
:104C80000000000000000000000000000000000024
:104C90000000000000009807F80F381C18181818BA
:104CA00018181818181818181818181818180000B4
:104CB00000000000000000000000000000000000F4
:104CC000000000000000C003F00F300C1818181886
:104CD0001818181818181818300CF00FC003000016
:104CE00000000000000000000000000000000000C4
:104CF000000000000000D803F80F380C181818182E
:104D00001818181818181818380CF80FD8031800A5
:104D10001800180018001800000000000000000033
:104D2000000000000000C01BF01F301C18181818ED
:104D30001818181818181818301CF01FC01B001865
:104D40000018001800180018000000000000000003
:104D5000000000000000B007F003700030003000D9
:104D600030003000300030003000300030000000F3
:104D70000000000000000000000000000000000033
:104D8000000000000000E003F003380E180C3800AB
:104D9000F003C007000C180C380EF007E003000009
:104DA0000000000000000000000000000000800083
:104DB000C000C000C000F007F007C000C000C00085
:104DC000C000C000C000C000C000C00780070000D5
:104DD00000000000000000000000000000000000D3
:104DE00000000000000018181818181818181818D3
:104DF0001818181818181818381CF01FE019000097
:104E000000000000000000000000000000000000A2
:104E10000000000000000C18180C180C180C3006CC
:104E200030063006600360036003C001C00100006B
:104E30000000000000000000000000000000000072
:104E4000000000000000C141C141C36163636363AE
:104E500063633636363636361C1C1C1C1C1C0000A0
:104E60000000000000000000000000000000000042
:104E70000000000000001C38381C300C6006600385
:104E80006003600360036006300C381C1C380000AF
:104E90000000000000000000000000000000000012
:104EA0000000000000001830301830187018600C36
:104EB000600CE00CC006C006800380038003800104
:104EC0008001C001F0007000000000000000000040
:104ED000000000000000FC1FFC1F000C0006000387
:104EE0008001C000600030001800FC1FFC1F0000A3
:104EF000000000000000000000000000000380012E
:104F0000C000C000C000C000C000C0006000600061
:104F1000300060004000C000C000C000C000C00001
:104F2000C00080010003000000000000800180013B
:104F30008001800180018001800180018001800169
:104F40008001800180018001800180018001800159
:104F50008001800180018001000000006000C0002D
:104F6000C0018001800180018001800100030003F5
:104F700000060003000180018001800180018001A2
:104F80008001C00060000000000000000000000080
:104F900000000000000000000000F010F81F080FE3
:104FA0000000000000000000000000000000000001
:104FB00000000000000000000000000001000200EE
:104FC00001000300010002000100040001000200D2
:104FD00001000300010002000100050001000200C1
:104FE00001000300010002000100040001000200B2
:104FF00001000300010002000100060001000200A0
:105000000100030001000200010004000100020091
:105010000100030001000200010005000100020080
:105020000100030001000200010004000100020071
:10503000010003000100020001000700010002005E
:105040000100030001000200010004000100020051
:105050000100030001000200010005000100020040
:105060000100030001000200010004000100020031
:10507000010003000100020001000600010002001F
:105080000100030001000200010004000100020011
:105090000100030001000200010005000100020000
:1050A00001000300010002000100040001000200F1
:1050B00001000300010002000100303132333435B9
:1050C00036373839616263646566003031323334B3
:1050D000353637383941424344454600913D000852
:1050E000893D0008853D00088D3D00080C510008F1
:1050F00000000020D4000000D4220008E051000885
:10510000D40000205C560000E42200080095BA0A92
:105110000000000000000000010203040607080967
:10512000000000000102030401020304060708094D
:1051300000000000EA3D0008100018000000FFFF1A
:10514000000000D00000000000000000000000008F
:10515000000000000000000000000000000000004F
:10516000000000000000000000000000000000003F
:1051700064000020640000207800000001000000AE
:1051800074000020740000202000000004000000D3
:10519000840000208400002030000000090000008E
:1051A00094000020940000202C000000000000006B
:1051B00000000000000000000000000000000000EF
:1051C00000000000000000000000000000000000DF
:1051D00000000000000000000000000000000000CF
:04000005080001AD41
:00000001FF
