:020000040800F2
:1000000020170020C1010008C90100088B02000868
:10001000CD010008CF010008D10100080000000058
:10002000000000000000000000000000D3010008F4
:10003000D50100080000000013020008B106000806
:10004000DB010008DB010008DB010008DB01000820
:10005000DB010008DB010008DB010008DB01000810
:10006000DB010008DB010008DB010008DB01000800
:10007000DB010008DB010008DB010008DB010008F0
:10008000DB010008DB010008DB010008DB010008E0
:10009000DB010008DB010008DB010008DB010008D0
:1000A000DB010008DB010008DB010008DB010008C0
:1000B000DB010008DB010008DB010008DB010008B0
:1000C000DB010008DB010008DB010008DB010008A0
:1000D000DB010008DB010008DB010008DB01000890
:1000E000DB010008DB010008DB010008DB01000880
:1000F000DB010008DB010008DB010008DB01000870
:10010000DB010008DB01000815070008DB0100081F
:10011000DB010008DB010008DB010008DB0100084F
:10012000DB010008DB010008DB010008DB0100083F
:10013000DB010008DB010008DB010008DB0100082F
:10014000DB010008DB010008DB010008DB0100081F
:10015000DB010008DB010008DB010008DB0100080F
:10016000DB010008DB010008DB010008DB010008FF
:10017000DB010008DB010008DB010008DB010008EF
:10018000DB010008DB010008DB010008DB010008DF
:10019000DB010008DB010008DB010008DB010008CF
:1001A000DB010008DB010008DB010008DFF80CD0F0
:1001B00000F082F800480047DD0200082017002008
:1001C0000648804706480047FEE7FEE7FEE7FEE7F1
:1001D000FEE7FEE7FEE7FEE7FEE7FEE7C5060008EE
:1001E000AD010008EFF3108072B6704780F31088FD
:1001F00070472B4A1368012B04D04FF001031360A2
:10020000284A1060284A116028484FF08051016048
:100210007047EFF3108272B62148016891B14FF038
:10022000000101601F48016829B1EFF3098121E94C
:10023000F00F006801601C4909680968B1E8F00F17
:1002400081F3098882F310884EF0040E7047164936
:10025000086014494FF00000086011494FF0010098
:10026000086013484FF47F01D0F8002041EA0201F2
:1002700001600E484FF0805101600E480068006830
:1002800080F3088861B662B67047EFF3098000B565
:1002900000F09CFF5DF804EB4EF0040E7047000088
:1002A000C4000020BC000020C000002004ED00E0DD
:1002B00020ED00E008ED00E0064C074D06E0E068A8
:1002C00040F0010394E8070098471034AC42F6D39D
:1002D000FFF770FF90250008B025000810B5FFF764
:1002E00081FF01F0B5FF002010BD10B500F0FEFB4E
:1002F00000F0A4FABDE8104000F02EBC70B586B046
:100300000121084600F0EEF80121102000F006F966
:1003100000248DF8164001208DF8170002258DF875
:1003200015508DF81450400204901C4E04A930461C
:1003300000F038F88DF814506902049104A9304691
:1003400000F030F807220A21304600F069F8072251
:100350000921304600F064F84FF4E1300090ADF828
:100360000440ADF80640ADF80840ADF80C400C2054
:10037000ADF80A000A4C6946204600F031FC00F056
:100380005FF8012240F22551204600F00DFC0121CA
:10039000204600F0F6FB06B070BD000000000240F1
:1003A000001001402DE9F041002201274FF0030C1D
:1003B00007FA02F50B682B40AB422CD106685300BC
:1003C0000CFA03F4A64306600E79D0F800809E4034
:1003D00046EA080606600E79012E01D0022E12D1DF
:1003E0008668A64386604E79D0F808809E4046EA2B
:1003F000080686604668AE43466045688E7996403A
:10040000B6B235434560C568A543C560CC799C400C
:10041000C3681C43C460521C102AC9D3BDE8F081D4
:1004200010B54B07DB0E9A40C90800EB8100016A4A
:100430000F249C40A1430162016A1143016210BD77
:1004400008B54FF4A06000F043F825208DF80000B7
:1004500001208DF801008DF802008DF80300684638
:1004600000F002F808BD000030B50F23C278012566
:100470000178002A1FD0154A126802F4E062C2F522
:10048000E062C2F30722C2F10404D3404278A240E2
:1004900084781C401443220101F1E02181F80024FA
:1004A000007800F01F018D404009800000F1E0203D
:1004B000C0F8005130BD01F01F00854048098000A0
:1004C00000F1E020C0F8805130BD00000CED00E0EC
:1004D0000249084302490860704700000000FA051D
:1004E0000CED00E0054A002903D0116801431160BA
:1004F0007047116881431160704700003038024036
:10050000054A002903D01168014311607047116842
:10051000814311607047000040380240054A0029BD
:1005200003D0116801431160704711688143116065
:10053000704700004438024070B5244B196801F040
:100540000C01234C00291ED0224E04291DD008295D
:100550001DD00460196801F0F00109091E4A545CBD
:100560000168E14041601C6804F4E054A40A145D91
:1005700021FA04F484601B6803F460435B0BD25CD3
:10058000D140C16070BD0460E4E70660E2E70F4A55
:10059000121F1168C1F38055116801F03F0135B198
:1005A000B6FBF1F11468C4F38814614305E0B4FBB1
:1005B000F1F11468C4F3881461431268C2F3014274
:1005C000521C5200B1FBF2F10160C3E7083802404F
:1005D0000024F40040787D01140000201CB50021A7
:1005E000019100912E4A106840F4803010604FF461
:1005F000A043106800F4003000900198401C019066
:10060000009810B901989842F3D11068800302D580
:100610000120009000E00091009801283FD120487F
:100620004030016841F0805101601E49086840F483
:10063000404008601A48083003680360036843F4C8
:1006400000430360036843F4A0530360041F164B88
:100650002360136843F08073136013689B01FCD51B
:100660000A6842F480320A604A68D203FCD50A68FC
:1006700042F400320A604A689203FCD50B4A40F209
:1006800005711160016821F003010160016841F00A
:10069000020101600168C1F381010229FAD11CBD88
:1006A0000038024000700040195A4007003C0240E8
:1006B00010B500F02BFE01F06DFBBDE8104000F01E
:1006C00033BE000010B50F48016841F00101016020
:1006D0000C4A00210832116002680B4B1A4002607C
:1006E000031D0A4A1A60026822F48022026005484B
:1006F0000C300160FFF772FF05494FF000600860A1
:1007000010BD000000380240FFFFF6FE103000244C
:1007100008ED00E02DE9F041294C0121204600F0D0
:1007200076F8002849D0274B9888401C81B29980E0
:100730000022FF2913D95888401C81B259802248D1
:100740000088814209D91888401C81B219801F484D
:100750000088814200D31A805A809A8027E01C4D7D
:100760002868174EC0F3074734361A488F4204D31F
:100770001F8830F81770376000E032602E68C6F3CB
:1007800007270F4E38368F4204D31F8830F8177072
:10079000376000E032602D68EEB2094D3C358E4284
:1007A00004D3198830F81100286000E02A60204640
:1007B000BDE8F041012100F01BB8BDE8F081000068
:1007C000000C00402C0000203200002034000020EB
:1007D00028000020F4220008002904D0018841F0FC
:1007E000800101807047018821F0800101807047FD
:1007F000C94301827047002904D0018841F00101FA
:1008000001807047018821F0010101807047024694
:100810000020138A0B4092890A40002B02D0002A44
:1008200000D001207047002A03D082890A438281C8
:10083000704782898A4382817047000030B589B051
:1008400001210820FFF75CFE40F2FF1007900B200B
:10085000ADF818000024ADF82040ADF81A401B4D4B
:1008600006A9284600F004F96021ADF80410012122
:10087000ADF8061003940221ADF8101001A9284626
:1008800000F026F80821284600F056F801A928466D
:1008900000F058F80821284600F098F801A92846E9
:1008A00000F09EF80821284600F0DCF801212846D7
:1008B000FFF792FF012211462846FFF7B4FF0121FE
:1008C0002846FFF798FF09B030BD0000000C00403B
:1008D00030B5028C22F001020284058C8388028BE1
:1008E00022F0700222F003020C88144325F0020269
:1008F0008D8915434A882A430D4DA84202D00D4DDB
:10090000A8420FD122F00805CA892A4322F0040523
:100910008A882A4323F4807323F400730D8A1D43CD
:100920004B8A2B438380048389684163028430BDF2
:100930000000014000040140028B22F008020A433B
:100940000283704770B5028C22F010020284028C80
:100950008388048B24F4E04424F440760D884FF619
:10096000FF7404EA0525354322F020028E8904EA4B
:10097000061616434A8804EA02123243114EB04268
:1009800002D0114EB04217D122F08002CE8904EA83
:100990000616164326F040068A8804EA02123243FD
:1009A00023F4806323F400630E8A04EA86061E4360
:1009B0004B8A04EA83033343838005838968816318
:1009C000028470BD0000014000040140028B22F44B
:1009D00000624FF6FF7303EA012111430183704760
:1009E00070B5028C22F480720284028C8388848B1E
:1009F00024F0700424F003040D88254322F40072CF
:100A00008E894FF6FF7404EA062616434A8804EAE4
:100A100002223243114EB04202D0114EB04217D1E1
:100A200022F40066CA8904EA0222324322F4806674
:100A30008A8804EA0222324323F4805323F40053C9
:100A40000E8A04EA06161E434B8A04EA0313334354
:100A5000838085838968C163028470BD0000014082
:100A600000040140828B22F008020A43828370470F
:100A700030B50288164C174DA0420DD0A8420BD0BD
:100A8000B0F1804F08D0144B984205D0134B9842D8
:100A900002D0134B984203D122F070034A881A43C4
:100AA000104B984206D0104B984203D022F440736A
:100AB0000A891A4302804A68C2620A880285A042F3
:100AC00001D0A84201D1897A01860121818230BDFD
:100AD0000000014000040140000400400008004004
:100AE000000C004000100040001400401CB5012123
:100AF0008020FFF7F7FC174C02220A212046FFF75F
:100B00008FFC02220B212046FFF78AFC02220C21D7
:100B10002046FFF785FC2115009102218DF8041075
:100B200000218DF806108DF8071003218DF80510AF
:100B300069462046FFF736FCE114009169462046DD
:100B4000FFF730FCA114009169462046FFF72AFC0C
:100B50001CBD0000001C024008B54FF4C060FFF748
:100B6000B7FC32208DF8000000208DF80100022033
:100B70008DF8020001208DF803006846FFF774FC31
:100B800008BD002904D0818941F40051818170475A
:100B9000818921F40051818170470246002012882A
:100BA0000A4200D00120704710B540F66A13C1F325
:100BB000421301F01F040121A140012B07D0022B99
:100BC00007D014303AB102680A43026010BD0C30FD
:100BD000F8E71030F6E702688A43026010BD0000B3
:100BE0007FB504460D46208A20F44051E88808432A
:100BF0002082A08941F20C618843A9882A89114387
:100C00006A8902431143A181A08A20F44071A88916
:100C10000843A0826846FFF78FFC1E48844202D03A
:100C20001D48844201D1039800E00298A18909047B
:100C300008D500EBC00101EB001029684900B0FBAA
:100C4000F1F007E000EBC00101EB0010296889001A
:100C5000B0FBF1F06422B0FBF2F109010B096FF077
:100C600018056B4300EB8300A3891D044FF032038A
:100C700007D503EBC000B0FBF2F000F0070008431B
:100C800006E003EB0010B0FBF2F000F00F000843A9
:100C900020817FBD0010014000140140C1F3080114
:100CA00081807047002807D00F4910F0FF0F05D052
:100CB000C0B2085C401C70470020704710F47F4FA2
:100CC00004D0C0F30720085C0930704710F47F0F90
:100CD00004D0C0F30740085C1130704701EB10608E
:100CE00000781930704700005C24000802E008C852
:100CF000121F08C1002AFAD170477047002001E096
:100D000001C1121F002AFBD170470000034801688F
:100D1000814201D00120704700207047A4000020CC
:100D20002DE9FC411F46DDE90A65DDE9083104468D
:100D300004F11400406000601C346260A760E3604E
:100D400021610A462321184600F0FAFBD4E9030189
:100D50004218D4E90101121F0D4B00F0B9FA2060CE
:100D6000A67666760020E061256265626061207685
:100D70006065A0651C3C009001902346054A214611
:100D800004F1440001F07CF80020BDE8FC81000083
:100D9000C51A0008091D000810B5029C24F00104C2
:100DA0004472C161026200218162436200EBC102B0
:100DB000143252601260491C0129F7DB10BD10B5D6
:100DC000002200EBC2011431D1E900436360D1E994
:100DD0000034236049600960521C012AF1DB10BD18
:100DE0001CB514200321CDE900104FF4007300223C
:100DF000064907A000F03DFE0749086018B100F061
:100E00004FFF00201CBD4FF0FF301CBDA522000885
:100E100074657374000000002400002010B500F019
:100E2000E7F8BDE81040FFF7DBBF000030B5134C1A
:100E300041682268114402F1080388420DD04D88B0
:100E40005DB96568A94208D0A5688D4200D1A0604F
:100E50004D6845604968851ACD50816811448142CA
:100E60000BD04D88002D08D1A568854200D1A16026
:100E700044684C604068891AC15030BD4000002071
:100E80002DE9FF4FDDE90DB60F9D6C0602D5DFF8A9
:100E900014A103E0DFF80CA1AAF1110AEC0601D5B8
:100EA00025F00105EC0702D04FF0300901E04FF0CA
:100EB00020090027AC070BD5002A02DA2D27524261
:100EC00006E06C0701D52B2702E02C0700D5202770
:100ED0000024EE467AB9302201248DF800200CE07F
:100EE0000A2B15D002F00F081209A4461AF8088040
:100EF000641C0EF80C80002AF2D1B44200DD2646B4
:100F0000ABEB060215F0110F4FF0200309D016E0ED
:100F10004FF00A0CB2FBFCF80CFB1828B2FBFCF2F9
:100F2000E3E73FB1002A05DD521E03E0884200D806
:100F30000370401CB2F1000CA2F10102F6DC27B1F3
:100F4000884201D80770521E401CED0605D508E006
:100F5000884201D880F80090401C151EA2F10102C1
:100F6000F6DC302703E0884200D80770401C354685
:100F7000761EA542F7DC05E0884202D81EF8045030
:100F80000570401C251EA4F10104F5DC03E0884235
:100F900000D80370401C141EA2F10102F7DC04B05B
:100FA000BDE8F08F6D2500081CB502211420CDE9A5
:100FB00000100B020022044904A000F05AFDBDE815
:100FC0001C4000F06DBE00001D0E00086D61696ED2
:100FD0000000000070B5044C044D02E0206880471A
:100FE000241DAC42FAD370BD842500088825000872
:100FF00070B5044C044D02E020688047241DAC42CB
:10100000FAD370BD882500088C25000810B5FFF7BD
:10101000E9F8044A5188491C5180BDE81040FFF7A7
:10102000E5B800009800002010B5FFF7DBF8094A8A
:101030005188491E09B25180002907DC00215180E6
:10104000FFF7D4F8BDE8104000F01ABBBDE810402F
:10105000FFF7CCB89800002070B5002833D01A4DA7
:10106000296888422FD3696888422CD2A0F10C04E9
:101070004FF0FF31154800F0BEFB60884FF4F55685
:1010800010B12088B04208D011A000F089F923885F
:101090006288214615A000F083F900206080268038
:1010A000A868844200D2AC6029686068611A401A5E
:1010B0002969081A28612046FFF7B8FEBDE870408C
:1010C000024800F07ABB70BD40000020C012002032
:1010D000746F2066726565206120626164206461BE
:1010E000746120626C6F636B3A0A00006D656D3A43
:1010F000203078253038782C207573656420666C34
:1011000061673A2025642C206D6167696320636FF5
:1011100064653A203078253034780A0000487047FA
:10112000C800002000487047C810002010B51248C1
:101130004FF47A710068B0FBF1F0401EB0F1807F8F
:1011400009D24FF0E02148610C4AF02010700020D5
:10115000886107200861FFF7C8F8FFF7CFF8FFF7AD
:1011600039FFFFF7DFFF0446FFF7D8FF2146BDE850
:10117000104000F0EBBB00000000002023ED00E079
:1011800070B50446FFF742FF0F4D16E00A2809D15B
:101190000D212846FFF782FD80212846FFF7FDFC40
:1011A0000028F9D014F8011B2846FFF777FD8021AD
:1011B0002846FFF7F2FC0028F9D020780028E5D176
:1011C000BDE87040FFF730BF0010014010B5044685
:1011D00017480168002903D020468847002826D0F8
:1011E00014A0E16900F0DCF816A0A16900F0D8F8BD
:1011F00018A0616900F0D4F81AA0216900F0D0F8B5
:101200001CA0E16800F0CCF81EA0A16800F0C8F8AE
:1012100020A0616800F0C4F822A0216800F0C0F8A6
:1012200000F018FD014623A000F0BAF8FEE710BD5B
:10123000B80000207073723A203078253038780A70
:10124000000000002070633A203078253038780A9A
:1012500000000000206C723A203078253038780A7F
:10126000000000007231323A203078253038780A98
:10127000000000007230333A203078253038780A88
:10128000000000007230323A203078253038780A79
:10129000000000007230313A203078253038780A6A
:1012A000000000007230303A203078253038780A5B
:1012B0000000000068617264206661756C74206FC4
:1012C0006E207468726561643A2025730A0000001C
:1012D00070B50646121D22F00700A0F14005284611
:1012E0000022094C40F82240521C102AFAD3016215
:1012F000002141628162C1620163436386634FF0F2
:101300008071C163284670BDEFBEADDE10B5FEF73B
:1013100069FF044A1178491C1170BDE81040FEF7BE
:1013200065BF00003C00002010B5FEF75BFF044ADB
:101330001178491E1170BDE81040FEF757BF00003C
:101340003C0000202DE9F04105460E46144630468B
:1013500000F0B9FC06F1140714B1012C1DD104E012
:101360003946284600F043F817E02C680DE0A4F158
:10137000140096F8351090F83520914204D2394681
:10138000143000F034F802E02468AC42EFD1AC42F3
:1013900003D13946284600F02AF80020BDE8F08144
:1013A0000FB408B503AB00937F210548029A00F003
:1013B000FFFD0348FFF7E4FE01B05DF814FB0000F9
:1013C000401200200268516002680A6001604860B3
:1013D00070470268516002680A60016048607047A7
:1013E0000268516002680A600160486070474268A4
:1013F000116042684A60416008607047016881423C
:1014000001D101207047002070470168814201D15D
:101410000120704700207047D0E900215160D0E9D9
:1014200000121160406000607047D0E900215160F7
:10143000D0E9001211604060006070472DE9F0476C
:10144000002809D0C01C20F003053B4EF0688542FF
:1014500004D90020BDE8F0870020FBE70C2D00D266
:101460000C254FF0FF31354800F0C5F9B7683168F9
:10147000781AD6F80CC0ACEB050356E00C1862885D
:101480008ABB6268121A0C3AAA424DD3626805F10F
:101490001803121A0C3A4FF001094FF4F5589A420A
:1014A00022D343190C33CA18A2F800804FF0000A67
:1014B000A2F802A0D4F804A0C2F804A0906063606F
:1014C000A4F8029050680CF10C0C604502D001F1B8
:1014D00008028350306928440C30306172698242BE
:1014E0000ED270610CE01FE0A4F802906068621AEE
:1014F000801A3269104430617269824200D2706190
:10150000A4F80080BC4203D008E040680844B06002
:10151000B068428812B172689042F6D1074800F074
:101520004CF904F10C0095E760688342A6D80348A3
:1015300000F043F900208DE740000020C012002099
:1015400010B50346CCB2042A15D3810713D1014646
:1015500044EA042343EA034305E00B604B608B60DD
:10156000CB601031103A102AF7D201E008C1121FE7
:10157000042AFBD20B46E1B201E003F8011B521E24
:10158000541CFAD110BD2DE9F04106460F463046F5
:1015900000F03EF80546E868FFF750FF0446ACB19E
:1015A00026720020607208223946204600F0BAF9FF
:1015B000FEF718FE064604F10C01281DFFF702FF96
:1015C0003046FEF713FE2046BDE8F0810020FBE721
:1015D00070B50446FEF706FE054604F10C00FFF761
:1015E0001BFF2846FEF702FE2046BDE87040FFF7CD
:1015F00033BD70B50446FEF7F5FD054604F10C0059
:10160000FFF70AFF2846BDE87040FEF7EFBD000077
:101610000021074A02EB01131B78834202D102EB3F
:1016200001107047491C0429F4DB002070470000BA
:10163000580000202DE9F04104460D461746284683
:10164000FFF7E6FF064645F0800020720822394683
:10165000204600F067F9FEF7C5FD054604F10C01D0
:10166000301DFFF7AFFE2846BDE8F041FEF7BEBDD6
:10167000007A000601D50120704700207047000065
:1016800070B5FEF7AFFD0546174C608820B12846BF
:10169000BDE87040FEF7AABDA068FFF703FB421E3D
:1016A000124850F8321014396068814216D0227006
:1016B00061600F4A127842B11C311C30FEF799FD6F
:1016C0002846BDE87040FEF791BD1C311C30FEF786
:1016D00090FD2846BDE87040FEF788BD2846BDE86D
:1016E0007040FEF783BD000098000020E01200204B
:1016F0003C00002010B50446FEF774FD024614F8C5
:10170000340F20F00F00401C207060780A49343CF0
:1017100001EBC00104F114004B6818604B68436092
:10172000486001600548A16B836819438160BDE88A
:1017300010401046FEF75ABDE0120020980000202D
:1017400070B50546FEF74EFD014605F11404D4E9D7
:1017500000205060D4E9000210606460246095F8B5
:1017600035000A4A02EBC0000268824201D1012022
:1017700000E0002020B10648AB6B82689A4382608B
:10178000BDE870400846FEF731BD0000E0120020C1
:10179000980000202DE9F041054616461F460A46EE
:1017A00001212846FFF746FF2C461434646024606C
:1017B000AE836F720020BDE8F08170B5044600254D
:1017C000FEF710FD064604F11400FFF717FE40B1C6
:1017D000A08B401CA0833046FEF708FD012D06D0EB
:1017E00007E06069143800F017FA0125F3E7FFF706
:1017F00047FF002070BD73B50446FEF7F3FC0646B4
:10180000A08B28B1401EA0833046FEF7EFFC21E0FC
:10181000019808B300F01EFA054600202863627A9A
:10182000294604F11400FFF78DFD0198002809DD19
:1018300005F1440001AA0021044600F0F7FA204611
:1018400000F034FB3046FEF7D1FCFFF719FF286BA0
:10185000002800D100207CBD3046FEF7C7FC6FF0A9
:1018600001007CBD08B509A0FFF79AFD0AA0FFF7AB
:1018700097FD12A0032300900022194612A0FFF743
:101880008FFDBDE8084018A0FFF78ABD0A205C2044
:101890007C202F0A000000002D205254202D2020F3
:1018A000202020546872656164204F7065726174F5
:1018B000696E672053797374656D0A0053657020F3
:1018C0003135203230313800202F207C205C202020
:1018D00020202025642E25642E2564206275696CE5
:1018E000642025730A0000002032303036202D207D
:1018F0003230313820436F707972696768742062C2
:10190000792072742D746872656164207465616DEC
:101910000A000000014600E0491C0A78002AFBD1B9
:10192000081A704710B5002A07D0034611F8014B7A
:1019300003F8014B14B1521EF8D110BD002101E093
:1019400003F8011B521EFBD110BD000070B5054607
:101950000A46E81C20F0030122F00303182B21D9CA
:10196000A3F118048C421DD3114C5A1A183AE260A4
:1019700021604FF4F5530B800C324A6000208860E0
:1019800048804868084460600380012141804260CB
:1019900082600023012207A10848FFF7FBFE2068B0
:1019A000A06070BD2946BDE8704005A0FFF7F8BCF7
:1019B000400000206865617000000000C012002037
:1019C0006D656D20696E69742C206572726F72206E
:1019D000626567696E206164647265737320307834
:1019E00025782C20616E6420656E642061646472C9
:1019F00065737320307825780A00000010B50A4B13
:101A000000245C800020094A02EBC00149600960A3
:101A1000401C0828F8DB072018705C609C600248B6
:101A20000C304060006010BD98000020E0120020E3
:101A300010B5074CA068FFF735F9401E054951F86D
:101A4000300014386060BDE810401C30FEF7FFBB6A
:101A500098000020E01200200020044A02EBC001A0
:101A600049600960401C0028F8D07047B000002091
:101A700070472DE9FF478046DDE90C6789469246AD
:101A80001D4641460020FFF77EFD044620000FD092
:101A90002846FFF7D3FC68B18DE8E10053464A467B
:101AA00041462046FFF73CF9204604B0BDE8F087E8
:101AB0000020FAE72046FFF78BFD0020F5E700F055
:101AC000CFB8000070B513480468FEF78BFB0546DD
:101AD0002046FFF735FE042084F8340004F144006A
:101AE00000F0BEF92046FFF7C3FD012801D1206FA9
:101AF00058B104F114010848FFF76BFC2846FEF7C3
:101B000075FBBDE87040FFF7BBBD2046FFF771FDD8
:101B1000F4E700009C000020A400002000F002F880
:101B2000FCE7000070B527E0FEF75CFB0646FFF718
:101B3000EDF868B319480468A4F11405D4E900105D
:101B40004860D4E90001086064602460FFF75EFA31
:101B5000296F09B1284688472846FFF789FD0128E3
:101B60000FD0FFF761FA3046FEF740FBA86AFFF797
:101B700073FA2846FFF72CFDFFF7C8F80028D3D1E9
:101B800070BDFFF751FA3046BDE87040FEF72EBB3E
:101B90003046BDE87040FEF729BB0000A4000020DD
:101BA0001FB52020C2000721094BCDE90210CDE965
:101BB000003207480023074A07A1783800F010F8E0
:101BC00004B00348BDE81040783800F069B8000060
:101BD000401100201D1B00087469646C6500000042
:101BE0002DE9FF5F8146DDE90E76DDE91054884678
:101BF00092469B46424600214846FFF71BFDCDE931
:101C00000076CDE902545B46524641464846FFF70E
:101C100087F804B0BDE8F09F70B5044694F834002E
:101C200000F00F00022802D04FF0FF3070BDFEF729
:101C3000D9FA054604F11400FFF7F7FB04F144005C
:101C400000F09EF92846FEF7D1FA2046FFF752FD34
:101C5000002070BD01480068704700009C00002013
:101C6000F1B5FEF7BFFA05460C480468204600F0BF
:101C70002AF804F144006A460021064600F0D6F82E
:101C8000304600F013F92846FEF7B0FAFFF7F8FCEB
:101C9000206B801C00D120630020F8BD9C00002038
:101CA00010B534308178417001228A4042600221AF
:101CB00000F83419FFF7B0FFFFF7CCFF08B1FFF7CA
:101CC000DFFC002010BD70B5044694F8340000F02D
:101CD0000F00012802D04FF0FF3070BDFEF782FAEE
:101CE000054694F8340020F00F00801C84F834007E
:101CF0002046FFF725FD04F1440000F041F9284695
:101D0000FEF774FA002070BD10B504466FF00100B4
:101D1000206304F11400FFF788FB2046FFF7EAFC7C
:101D2000BDE81040FFF7ACBC70B5FEF75BFA0646A5
:101D30001348046894F8340000F00F0001281AD109
:101D4000D4E90501884216D004F114000546FFF7D6
:101D50006CFB94F835000B4901EBC00041680D6045
:101D600041686960456028603046FEF73FFAFFF73A
:101D700087FC002070BD3046FEF738FA002070BDA9
:101D80009C000020E012002001480068704700001D
:101D90003800002010B509490868401C0860FFF7AA
:101DA00059FF016C491E016419B9C16B0164FFF749
:101DB000BBFFBDE8104000F003B800003800002071
:101DC00070B5FFF7E1FF0646FEF70CFA054620E086
:101DD00015480468143C6FF00041A06A301A88422C
:101DE0001CD22046FEF7EBFFD4E907108847FFF727
:101DF000CBFF0646607A810708D5C10706D020F0E0
:101E000001006072204600F051F802E020F001006D
:101E100060720548FFF7F9FA0028D9D02846BDE8D6
:101E20007040FEF7E3B90000B0000020002909D09F
:101E3000012904D0022908D003290FD10AE0406A01
:101E400010600BE01168416208E0417A21F0020164
:101E5000417203E0417A41F0020141720020704773
:101E600070B50546FEF7BEF904462846FEF7A7FF03
:101E70002046FEF7BBF92846FFF7BBFB002070BDEC
:101E80002DE9F8430746DDE9088415461E460A4653
:101E900009213846FFF7CEFB4346324629463846ED
:101EA0000094FEF779FFBDE8F88300002DE9F843C0
:101EB0000446FEF797F905462046FEF780FF607A54
:101EC00020F0010060722846FEF790F9FFF75CFFF2
:101ED000616A0844A062FEF785F90746DFF89CC0F6
:101EE000CDF800C000226E460CEBC20045680DE044
:101EF0000068A0EBC201A36A4969994204D0C91ADB
:101F00006FF00043994205D346F8220056F82200AC
:101F1000A842EDD12AB156F822100831531C46F8D8
:101F20002310521C002ADFD01448001FD0F8008074
:101F300008F10108C0F8008004F114010098FFF7CF
:101F40004FFA02250EE05FEA88700DD1C5F101005D
:101F500004EBC001143156F82000FFF741FA4FEAB4
:101F600098086D1C012DEED9607A40F00100607276
:101F70003846FEF73BF90020BDE8F883B0000020AA
:101F800070B50446607AC0070ED0FEF72BF90546FF
:101F90002046FEF714FF2846FEF728F9607A20F065
:101FA00001006072002070BD4FF0FF3070BD000076
:101FB0002DE9FF4F83B082460AEB01077F1E54468E
:101FC000A74201D24FF0FF374FF020094FF0250B09
:101FD00012E1252804D0BC4200D82070641C08E11E
:101FE00000250599491C059108782D2814D02B2827
:101FF00015D0202816D0232817D0302818D04FF01D
:10200000FF384646059A1278303A0A2A13D205A8B4
:1020100000F033F906461AE045F01005E1E745F017
:102020000405DEE745F00805DBE745F02005D8E7C5
:1020300045F00105D5E72A2809D1491C05910698E4
:1020400040C80690002E02DA764245F01005059849
:1020500001782E2918D1401C05900178A1F1300299
:102060000A2A04D205A800F008F9804607E02A29C8
:1020700005D1401C0590069850F8048B0690B8F1E5
:10208000000F01DA4FF000080021059A1078682847
:1020900001D06C2802D10146521C05920A230598F2
:1020A00000786F2871D00CDC632820D004DC252850
:1020B0006CD058280DD187E0642801D0692808D158
:1020C00086E0702863D073282FD0752871D07828C7
:1020D0007CD0BC4201D884F800B0641C0599087813
:1020E000002868D0BC4200D82070641C81E0E8065B
:1020F00005D507E0BC4201D884F80090641C761E28
:10210000002EF7DC069810F8041B0690C8B2BC42FB
:1021100000D82070641C04E0BC4201D884F8009010
:10212000641C761E002EF7DC63E0069808C8069053
:1021300003B941A31846FFF7EDFBB8F1000F02DD2C
:10214000404500DD4046E90605D508E0BC4201D81F
:1021500084F80090641C3146761E8142F6DC002132
:1021600006E0BC4201D81A782270641C5B1C491C32
:102170008142F6DB04E0BC4201D884F80090641C84
:102180003146761E8142F6DC33E01BE014E0701C21
:1021900002D1082645F00105CDE9006806980295B0
:1021A000102304C8069039462046FEF769FE04460F
:1021B0001FE00FE00AE028E0BC4201D884F800B03C
:1021C000641C16E0082305E045F04005102301E0FB
:1021D00045F002056C291BD068291DD0069804C85B
:1021E0000690CDE90068394620460295FEF748FE84
:1021F00004460598401C05900598007800287FF457
:10220000E8AEBC4211D8207010E0491E0591F0E7FD
:10221000069804C80690E4E7069830F8041B069078
:102220008AB2A807DDD512B2DBE7387007B0A4EB9D
:102230000A00BDE8F08F0000284E554C4C290000E4
:102240000020704700207047002070470020704732
:1022500010B5FDF7C7FFFEF769FFFFF703FBFFF7B8
:10226000FBFBFFF7CBFBFEF79FFEFFF701FCFFF741
:1022700097FCFFF7DDFB002010BD10B502460020E3
:102280006FF02F0407E04B1C1360097800EB80000F
:1022900004EB4000084411680B78303B0A2BF2D362
:1022A00010BD000005A0FFF77BF80EA0FFF778F83F
:1022B0004FF47A742046FFF702FCFBE70D0A20BBBF
:1022C000B6D3ADCAB9D3C3B1FCBBF0202053544D33
:1022D0003332204634303720BFAAB7A2B0E5A1A3DD
:1022E0000D0A00000D0A20BAF4CEFCB5C6C0FDB33D
:1022F000CC0D0A000000090012001B0024002D0074
:1023000036003F0048005100590062006B00740025
:102310007D0085008E0097009F00A800B000B800E7
:10232000C100C900D100DA00E200EA00F200F900C1
:102330000101090111011801200127012E013601B7
:102340003D0144014B01510158015F0165016C01E0
:10235000720178017E0184018A018F0195019A0141
:10236000A001A501AA01AF01B401B801BD01C101DD
:10237000C601CA01CE01D101D501D901DC01DF01BD
:10238000E201E501E801EB01ED01F001F201F401E8
:10239000F601F701F901FA01FC01FD01FE01FE0160
:1023A000FF01000200020002000200020002FF0121
:1023B000FE01FE01FD01FC01FA01F901F701F60140
:1023C000F401F201F001ED01EB01E801E501E201A8
:1023D000DF01DC01D901D501D101CE01CA01C6015D
:1023E000C101BD01B801B401AF01AA01A501A0015D
:1023F0009A0195018F018A0184017E0178017201A1
:102400006C0165015F01580151014B0144013D011F
:1024100036012E01270120011801110109010101D6
:10242000F900F200EA00E200DA00D100C900C100C0
:10243000B800B000A8009F0097008E0085007D00C6
:1024400074006B0062005900510048003F003600E4
:102450002D0024001B0012000900000000000100F4
:10246000020001000300010002000100040001005D
:10247000020001000300010002000100050001004C
:10248000020001000300010002000100040001003D
:10249000020001000300010002000100060001002B
:1024A000020001000300010002000100040001001D
:1024B000020001000300010002000100050001000C
:1024C00002000100030001000200010004000100FD
:1024D00002000100030001000200010007000100EA
:1024E00002000100030001000200010004000100DD
:1024F00002000100030001000200010005000100CC
:1025000002000100030001000200010004000100BC
:1025100002000100030001000200010006000100AA
:10252000020001000300010002000100040001009C
:10253000020001000300010002000100050001008B
:10254000020001000300010002000100040001007C
:1025500002000100030001000200010030313233AB
:10256000343536373839616263646566003031323C
:10257000333435363738394142434445460000004C
:102580004D22000845220008412200084922000887
:10259000B025000800000020C8000000EC0C000876
:1025A00078260008C800002058160000FC0C00081F
:1025B0000095BA0A000000000000000001020304B8
:1025C00006070809000000000102030401020304D9
:1025D0000607080900000000FF00FF0000000000DF
:1025E00000000100B4000000000000000000000036
:1025F00000000000000000000000000000000000DB
:102600000000000000000000000000005C0000204E
:102610005C00002078000000010000006C00002039
:102620006C00002020000000040000007C0000205E
:102630007C00002030000000090000008C00002019
:102640008C0000202C0000000000000000000000B2
:10265000000000000000000000000000000000007A
:10266000000000000000000000000000000000006A
:08267000000000000000000062
:04000005080001AD41
:00000001FF
