:020000040800F2
:1000000040170020C1010008C9010008C70200080C
:10001000CD010008CF010008D10100080000000058
:10002000000000000000000000000000D3010008F4
:10003000D50100080000000013020008450D00086B
:10004000DB010008DB010008DB010008DB01000820
:10005000DB010008DB010008DB010008DB01000810
:10006000DB010008DB010008DB010008DB01000800
:10007000DB010008DB010008DB010008DB010008F0
:10008000DB010008DB010008DB010008DB010008E0
:10009000C9030008DB010008DB010008DB010008E0
:1000A000DB010008DB010008DB010008DB010008C0
:1000B000DB010008DB010008DB010008DB010008B0
:1000C000DB010008DB010008DB010008DB010008A0
:1000D000DB010008DB010008DB010008DB01000890
:1000E000DB010008DB010008DB010008DB01000880
:1000F000DB010008DB010008DB010008DB01000870
:10010000DB010008DB010008DB010008DB0100085F
:10011000DB010008DB010008DB010008DB0100084F
:10012000DB010008DB010008DB010008DB0100083F
:10013000DB010008DB010008DB010008DB0100082F
:10014000DB010008DB010008DB010008DB0100081F
:10015000DB010008DB010008DB010008DB0100080F
:10016000DB010008DB010008DB010008DB010008FF
:10017000DB010008DB010008DB010008DB010008EF
:10018000DB010008DB010008DB010008DB010008DF
:10019000DB010008DB010008DB010008DB010008CF
:1001A000DB010008DB010008DB010008DFF80CD0F0
:1001B00000F0D2F800480047BB03000840170020B9
:1001C0000648804706480047FEE7FEE7FEE7FEE7F1
:1001D000FEE7FEE7FEE7FEE7FEE7FEE7590D000853
:1001E000AD010008EFF3108072B6704780F31088FD
:1001F00070473A4A1368012B04D04FF00103136093
:10020000374A1060374A116037484FF0805101601B
:100210007047EFF3108272B63048016851B34FF067
:10022000000101602E48016891B1EFF309811EF0D1
:10023000100F08BF21ED108B21E9F00F4FF00004E3
:100240001EF0100F08BF012441F8044D0068016042
:1002500024490968096808C9B1E8F00F002B18BFE4
:10026000B1EC108B81F309884EF0100E002B18BFF3
:100270002EF0100E82F310884EF0040E70471949CC
:100280000860EFF3148222F0040282F31488144908
:100290004FF00000086011494FF00100086013485A
:1002A0004FF47F01D0F8002041EA020101600E48BE
:1002B0004FF0805101600E480068006880F30888A4
:1002C00061B662B67047EFF3098000B501F008FB34
:1002D0005DF804EB4EF0040E70470000B8000020FB
:1002E000B0000020B400002004ED00E020ED00E0AC
:1002F00008ED00E02DE9F05F0546002092469B46A0
:1003000088460646814640241BE02846414647462B
:10031000224600F042F853465A46C01A914110D383
:1003200011461846224600F029F82D1A67EB0108FD
:100330004F4622460120002100F020F817EB00096B
:100340004E41201EA4F10104DFDC484631462A4616
:100350004346BDE8F09F0000064C074D06E0E0680C
:1003600040F0010394E8070098471034AC42F6D3FC
:10037000FFF720FF842D0008A42D0008202A04DBAD
:10038000203A00FA02F1002070479140C2F12003A8
:1003900020FA03F3194390407047202A04DB203AE7
:1003A00021FA02F00021704721FA02F3D040C2F195
:1003B0002002914008431946704710B5FFF712FF1D
:1003C00002F0E2FA002010BD10B501F02BFB0B4A41
:1003D00000210B4800F0C2F908480168B1F5457FDB
:1003E00008D1017A31B9807A082803D1054800681C
:1003F00001F07FFDBDE8104001F022BBD4100020C9
:10040000006400402800002010B500F0AFF800F0B4
:1004100091F900F061F9BDE8104000F087B80000E4
:1004200010B50C4988420AD101214C06204600F043
:10043000B1FB2046BDE81040002100F0ABBB01211C
:100440008C06204600F0A6FB2046BDE810400021A7
:1004500000F0A0BB00640040F0B5827A0121914019
:10046000304C226842F0010222602E4D1C352A6871
:100470008A432A602B4A067B0C322B4B002E14D168
:1004800016688E4316604688C78846EA0746877A0C
:1004900003EBC707C7F840660688878846EA074621
:1004A000877A03EBC707C7F84466067B012E14D191
:1004B00016680E4316604288068842EA0642867A2B
:1004C00003EBC606C6F84026C288868842EA064282
:1004D000867A03EBC603C3F84426124AC37A121D78
:1004E0003BB113680B4313600E4A0389143223B1E6
:1004F00006E013688B431360F6E713688B431360C1
:100500000389012B02D113680B431360407B012840
:1005100002D1286808432860206820F0010020608C
:10052000F0BD000000660040006000401FB50020E4
:100530008DF80A008DF80B0001218DF80C10ADF834
:100540000200ADF80000ADF80600ADF80400ADF80B
:1005500008008DF80D106846FFF77EFF012202218A
:10056000014800F02DF81FBD006400407CB501215A
:10057000082000F0F3FA114E09220021304600F065
:1005800041FA09220121304600F03CFA022400948D
:100590008DF804408DF8054000208DF806000125F7
:1005A0008DF807506946304600F0EEF900958DF859
:1005B00004406946304600F0E7F97CBD000C02407B
:1005C000002A03D042690A434261704742698A4364
:1005D0004261704710B50022036823F002030360F4
:1005E000036843F0010303604FF6FF7300E0521C01
:1005F0004468E40701D19A42F9D14268D2073ED05B
:100600008A79012A3DD0026822F080020260CA790C
:10061000012A3BD0026822F0400202600A7A012AD5
:1006200039D0026822F0200202604A7A012A37D0CB
:10063000026822F0100202608A7A012A35D002682C
:1006400022F008020260CA7A012A33D0026822F03E
:10065000040202608A78CC78920742EA04620C793C
:1006600042EA04424C79098842EA0452491E0A438C
:10067000C261016821F001010160002120E0002039
:1006800010BD026842F080020260C0E7026842F0DA
:1006900040020260C2E7026842F020020260C4E742
:1006A000026842F010020260C6E7026842F00802E7
:1006B0000260C8E7026842F004020260CAE7491C0F
:1006C0004268D20701D09942F9D14068C00701D0F1
:1006D000002010BD012010BD3EB50121480600F0EC
:1006E0004BFA134C2046FFF79BFE684600F08CF84F
:1006F00000218DF8061001228DF807208DF80820C2
:100700008DF809108DF80A108DF80B108DF8021075
:100710008DF8031004208DF8040002208DF80500E8
:100720000A20ADF8000069462046FFF753FF3EBDA2
:100730000064004008B54FF4C06000F005FA1420D2
:100740008DF8000000208DF801008DF802000120D6
:100750008DF80300684600F0C3F908BD10B500EB42
:100760000113D3F8B04104F004041472002C2CD00F
:10077000D3F8B041E408546003F5D8731C6804F062
:10078000020454725C6804F00F0494725C68240ADA
:10079000D4749C68D4729C68240A14739C68240CDA
:1007A00054739C68240E9473DC68D473DC68240A48
:1007B0001474DC68240C5474DB681B0E937449B108
:1007C000016941F02001016110BDD3F8B041640D11
:1007D0001460D1E7C16841F02001C16010BD002163
:1007E0004FF48072026041F21432426000220272C1
:1007F000427208228272431801EB4102DA72491CEC
:10080000C9B20829F7D3704700218171C171017203
:1008100041728172C1728170C17003210171022124
:10082000417101210180704730B502460020936874
:100830005B010AD49068000101D5012005E09068B1
:10084000C00001D5022000E0042004283BD002EBC8
:100850000012D2F8803103F00103C2F880310B7A24
:1008600093B3D2F880414D681C434B7A43EAC503E9
:100870001C43C2F880418B7A03F00F038B7202F5A0
:10088000C072536823F00F03536053688C7A23437C
:100890005360CB7A8C7B0D7B43EA04634C7B24044E
:1008A00044EA052423439360CB7B8C7C43EA0463B6
:1008B0004C7C097C240444EA01210B43D360116879
:1008C00041F00101116030BDFFE7D2F880314C7A70
:1008D00023430C8843EA4453C2F88031CBE700003D
:1008E00070B586B00121022000F038F901211020F6
:1008F00000F05EF900248DF8164001208DF81700F5
:1009000002258DF815508DF81450402004901C4E8F
:1009100004A9304600F038F88DF814508021049175
:1009200004A9304600F030F807221146304600F0A6
:1009300069F807220621304600F064F84FF4E130F0
:100940000090ADF80440ADF80640ADF80840ADF8B1
:100950000C400C20ADF80A000A4C6946204600F015
:1009600057FA00F0A9F8012240F22551204600F084
:1009700034FA0121204600F01DFA06B070BD0000D7
:1009800000040240001001402DE9F041002201273F
:100990004FF0030C07FA02F50B682B40AB422CD149
:1009A000066853000CFA03F4A64306600E79D0F8EB
:1009B00000809E4046EA080606600E79012E01D0AE
:1009C000022E12D18668A64386604E79D0F8088040
:1009D0009E4046EA080686604668AE434660456823
:1009E0008E799640B6B235434560C568A543C5606B
:1009F000CC799C40C3681C43C460521C102AC9D3E4
:100A0000BDE8F08110B54B07DB0E9A40C90800EB3A
:100A10008100016A0F249C40A1430162016A1143D5
:100A2000016210BD1CB50121052000F097F80120DE
:100A3000009000208DF804008DF80700064C6946F0
:100A40002046FFF7A1FF4FF4005100916946204670
:100A5000FFF79AFF1CBD0000000802402DE9FC4191
:100A60000121802000F07AF84FF480640094012086
:100A70008DF8040000218DF806108DF807008DF820
:100A800005100C4F69463846FFF77EFF660000965A
:100A900069463846FFF778FFA50000956946384655
:100AA000FFF772FF03481830048006800580BDE818
:100AB000FC810000001C024008B54FF4A06000F06B
:100AC00043F825208DF8000001208DF801008DF8F5
:100AD00002008DF80300684600F002F808BD00002F
:100AE00030B50F23C27801250178002A1FD0154A9E
:100AF000126802F4E062C2F5E062C2F30722C2F1BA
:100B00000404D3404278A24084781C40144322015C
:100B100001F1E02181F80024007800F01F018D40F0
:100B20004009800000F1E020C0F8005130BD01F024
:100B30001F0085404809800000F1E020C0F8805186
:100B400030BD00000CED00E0024908430249086096
:100B5000704700000000FA050CED00E0054A00298E
:100B600003D011680143116070471168814311601F
:100B70007047000030380240054A002903D0116850
:100B80000143116070471168814311607047000094
:100B900040380240054A002903D011680143116022
:100BA000704711688143116070470000203802408F
:100BB000054A002903D0116801431160704711688C
:100BC00081431160704700004438024070B5244BE7
:100BD000196801F00C01234C00291ED0224E042973
:100BE0001DD008291DD00460196801F0F001090921
:100BF0001E4A545C0168E14041601C6804F4E05402
:100C0000A40A145D21FA04F484601B6803F46043B1
:100C10005B0BD25CD140C16070BD0460E4E706604C
:100C2000E2E70F4A121F1168C1F38055116801F005
:100C30003F0135B1B6FBF1F11468C4F38814614388
:100C400005E0B4FBF1F11468C4F388146143126841
:100C5000C2F30142521C5200B1FBF2F10160C3E742
:100C6000083802400024F40040787D011400002080
:100C70001CB50021019100912E4A106840F480308B
:100C800010604FF4A043106800F400300090019809
:100C9000401C0190009810B901989842F3D1106857
:100CA000800302D50120009000E000910098012807
:100CB0003FD120484030016841F0805101601E4919
:100CC000086840F4404008601A4808300368036030
:100CD000036843F400430360036843F4A0530360D4
:100CE000041F164B2360136843F08073136013686E
:100CF0009B01FCD50A6842F480320A604A68D2033C
:100D0000FCD50A6842F400320A604A689203FCD5B6
:100D10000B4A40F205711160016821F00301016086
:100D2000016841F0020101600168C1F381010229FB
:100D3000FAD11CBD0038024000700040195A40072B
:100D4000003C024010B500F06DFE01F0BFFBBDE8B5
:100D5000104000F075BE000010B51248016841F463
:100D6000700101601048016841F0010101600E4A04
:100D700000210832116002680C4B1A400260031D0A
:100D80000B4A1A60026822F48022026006480C3086
:100D90000160FFF76DFF03494FF000608039086084
:100DA00010BD000088ED00E000380240FFFFF6FEB5
:100DB00010300024002904D0818941F40051818140
:100DC0007047818921F400518181704702460020DB
:100DD00012880A4200D00120704710B540F66A130D
:100DE000C1F3421301F01F040121A140012B07D0E0
:100DF000022B07D014303AB102680A43026010BDDA
:100E00000C30F8E71030F6E702688A43026010BD44
:100E10007FB504460D46208A20F44051E8880843F7
:100E20002082A08941F20C618843A9882A89114354
:100E30006A8902431143A181A08A20F44071A889E4
:100E40000843A0826846FFF7C1FE1E48844202D0D4
:100E50001D48844201D1039800E00298A189090449
:100E600008D500EBC00101EB001029684900B0FB78
:100E7000F1F007E000EBC00101EB001029688900E8
:100E8000B0FBF1F06422B0FBF2F109010B096FF045
:100E900018056B4300EB8300A3891D044FF0320358
:100EA00007D503EBC000B0FBF2F000F007000843E9
:100EB00006E003EB0010B0FBF2F000F00F00084377
:100EC00020817FBD0010014000140140C1F30801E2
:100ED000818070470FB4054B10B503A9044A0298EE
:100EE00000F046F810BC5DF814FB000095140008F3
:100EF000BC000020002807D00F4910F0FF0F05D0DC
:100F0000C0B2085C401C70470020704710F47F4F4F
:100F100004D0C0F30720085C0930704710F47F0F3D
:100F200004D0C0F30740085C1130704701EB10603B
:100F30000078193070470000942B000802E008C8C0
:100F4000121F08C1002AFAD170477047002001E043
:100F500001C1121F002AFBD170470000034801683D
:100F6000814201D001207047002070479800002086
:100F70002DE9FF4F8DB00F460546002606E02528D7
:100F80000BD0DDE90F1290476D1C761C28780028E5
:100F9000F5D111B03046BDE8F08F0024A246A1463D
:100FA0000122EC4900E0044315F8013F203B02FA1E
:100FB00003F00842F7D128782A2810D06FF02F02CA
:100FC0002878A0F13001092914D80AEB8A0102EB34
:100FD000410144F0020400EB010A6D1CF0E701CF6F
:100FE0005FEA000A03D544F40054CAF1000A44F051
:100FF00002046D1C28782E2817D115F8010F44F033
:1010000004042A280ED06FF02F022878A0F13001B6
:1010100009290AD809EB890102EB410100EB01091A
:101020006D1CF2E757F8049B6D1C28786C280FD0D4
:1010300006DC4C2817D068280DD06A2814D104E0AB
:10104000742810D07A280FD10DE044F400140AE07F
:1010500044F4801401E044F440146978814202D1E0
:1010600004F580146D1C6D1C2A786E2A1FD00CDCD0
:10107000632A31D004DC002A8BD0582A11D1A3E096
:10108000642A68D0692A0CD165E0732A2ED004DC6A
:101090006F2A73D0702A04D19BE0752A6FD0782A0A
:1010A0006ED01046DDE90F129047761C50E1C4F374
:1010B0000250022806D0032809D0042801CF09D005
:1010C000066045E101CFF117C0E9006140E101CFC1
:1010D00006803DE106703BE117F8040B8DF8000037
:1010E00000208DF80100EB46012003E057F804BB17
:1010F0004FF0FF3061074FF0000102D40DE008F11E
:101100000101884649450FDA8045F8DB1BF80810D5
:101110000029F4D108E008F1010188468142FADB98
:101120001BF808100029F6D1DDE90F23AAEB08000F
:101130008146214600F036F9304400EB080604E011
:10114000DDE90F121BF8010B9047B8F10108F7D247
:1011500021464846F7E00A21C4F302534FF0000B42
:101160000891022B04D001CFC117032B09D00AE04C
:10117000FF1D27F00707F7E8020108E032E01FE053
:1011800020E000B2C117042B01D140B2C117031EE9
:1011900071F1000307DA4FF0000CD0EB0C006CEBA0
:1011A00001012D2302E0230504D52B238DF82430E3
:1011B000012303E0E30701D02023F7E7984658E036
:1011C0000A2110E010210EE010204FF0000B0890D3
:1011D0000CE010214FF0000B44F004044FF008091C
:1011E000089103E008214FF0000B0891C4F302536B
:1011F000022B04D001CF0021032B06D006E0FF1DF7
:1012000027F00707F7E8020103E080B2042B00D1C2
:10121000C0B24FF0000823072BD5702A07D0DDF8A5
:1012200020C08CF0100C5CEA0B0C05D00EE04023C3
:101230008DF82430012308E050EA010306D0302362
:101240008DF824308DF8252002239846DDF820C043
:101250008CF0080C5CEA0B0C0BD150EA010301D1B5
:10126000630706D530238DF824304FF00108A9F12B
:101270000109582A04D038A20B9208AA0A920BE05E
:101280003AA2F9E75B46089AFFF734F80B9B9B5CA0
:101290000A9A521E0A92137050EA0102F2D10A9879
:1012A000ADEB000000F1200B600702D524F4803480
:1012B00001E04FF00109D94502DDA9EB0B0000E088
:1012C000002000EB0B0141440890AAEB010AE00367
:1012D00006D4DDE90F232146504600F063F80644AA
:1012E0004FF0000908E009A911F80900DDE90F1223
:1012F000904709F10109761CC145F4DBE0030CD5E8
:10130000DDE90F232146504600F04CF8064404E086
:10131000DDE90F1230209047761C0899481E08908E
:101320000029F5DC08E00A980A990078491C0A911E
:10133000DDE90F129047761CBBF10001ABF1010B08
:10134000F1DC21465046DDE90F2300F019F8064490
:101350006D1C1BE609280100303132333435363735
:1013600038396162636465660000000030313233F1
:101370003435363738394142434445460000000091
:101380002DE9F041044600251E461746880404D482
:1013900005E039462020B0476D1C641EF9D528466B
:1013A000BDE8F0812DE9F041044600251E46904637
:1013B000C80301D5302700E02027880404D505E0C4
:1013C00041463846B0476D1C641EF9D52846BDE835
:1013D000F08100002DE9FC411F46DDE90A65DDE9E9
:1013E0000831044604F11400406000601C3462605F
:1013F000A760E36021610A462321184600F02CFC17
:10140000D4E903014218D4E90101121F0D4B00F089
:10141000E9FA2060A67666760020E06125626562C2
:10142000606120766065A0651C3C009001902346B9
:10143000054A214604F1440001F0BEF80020BDE851
:10144000FC810000FD2100084124000810B5029C29
:1014500024F001044472C16102620021816243628E
:1014600000EBC102143252601260491C0129F7DB03
:1014700010BD10B5002200EBC2011431D1E90043C8
:101480006360D1E90034236049600960521C012A7D
:10149000F1DB10BD70B50446064DE1B22846FFF7FA
:1014A00015FD80212846FFF791FC0028F9D0204641
:1014B00070BD0000001001401CB5002211460EA0B6
:1014C00000F0F4FC0F4C606010B10FA000F0F4FAD3
:1014D00014200321CDE900104FF4007300220F49BE
:1014E0000FA000F062FE206018B100F075FF002030
:1014F0001CBD4FF0FF301CBD746573745F73656D68
:101500000000000024000020D0C5BAC5C1BFB4B49B
:10151000BDA8B3C9B9A6A3A10A0A0000DD29000825
:10152000746573740000000010B500F0E7F8BDE8C2
:101530001040FFF7C1BF000030B5134C416822686E
:10154000114402F1080388420DD04D885DB96568E9
:10155000A94208D0A5688D4200D1A0604D684560C1
:101560004968851ACD508168114481420BD04D885D
:10157000002D08D1A568854200D1A16044684C6067
:101580004068891AC15030BD340000202DE9FF4F5A
:10159000DDE90DB60F9D6C0602D5DFF814A103E05E
:1015A000DFF80CA1AAF1110AEC0601D525F001051E
:1015B000EC0702D04FF0300901E04FF0200900277E
:1015C000AC070BD5002A02DA2D27524206E06C0741
:1015D00001D52B2702E02C0700D520270024EE465A
:1015E0007AB9302201248DF800200CE00A2B15D0A6
:1015F00002F00F081209A4461AF80880641C0EF8BD
:101600000C80002AF2D1B44200DD2646ABEB060284
:1016100015F0110F4FF0200309D016E04FF00A0C1F
:10162000B2FBFCF80CFB1828B2FBFCF2E3E73FB17D
:10163000002A05DD521E03E0884200D80370401CDA
:10164000B2F1000CA2F10102F6DC27B1884201D808
:101650000770521E401CED0605D508E0884201D8EF
:1016600080F80090401C151EA2F10102F6DC302724
:1016700003E0884200D80770401C3546761EA5421C
:10168000F7DC05E0884202D81EF804500570401CC3
:10169000251EA4F10104F5DC03E0884200D80370A4
:1016A000401C141EA2F10102F7DC04B0BDE8F08F6B
:1016B000A52C00081CB502211420CDE900100B0256
:1016C0000022044904A000F070FDBDE81C4000F0B9
:1016D00083BE0000291500086D61696E00000000DE
:1016E00070B5044C044D02E020688047241DAC42D4
:1016F000FAD370BD782D00087C2D000870B5044C1D
:10170000044D02E020688047241DAC42FAD370BD2E
:101710007C2D0008802D000810B5FEF763FD044AFB
:101720005188491C5180BDE81040FEF75FBD0000A4
:101730008C00002010B5FEF755FD094A5188491E5E
:1017400009B25180002907DC00215180FEF74EFDCF
:10175000BDE8104000F020BBBDE81040FEF746BDDC
:101760008C00002070B5002833D01A4D29688842BB
:101770002FD3696888422CD2A0F10C044FF0FF31BE
:10178000154800F0D4FB60884FF4F55610B120885E
:10179000B04208D011A000F08FF92388628821465A
:1017A00015A000F089F9002060802680A868844296
:1017B00000D2AC6029686068611A401A2969081A69
:1017C00028612046FFF7B8FEBDE87040024800F0EF
:1017D00090BB70BD34000020E0120020746F2066C2
:1017E00072656520612062616420646174612062B9
:1017F0006C6F636B3A0A00006D656D3A2030782596
:101800003038782C207573656420666C61673A20E7
:1018100025642C206D6167696320636F64653A20DD
:101820003078253034780A0000487047C000002026
:1018300000487047C010002010B514484FF47A716A
:101840000068B0FBF1F0401EB0F1807F09D24FF08C
:10185000E02148610E4AF0201070002088610720C6
:101860000861FFF7FBF8FFF73BF8FFF7DBF8FEF73F
:10187000CBFDFFF735FFFFF7DBFF0446FFF7D4FF93
:101880002146BDE8104000F0FDBB00000000002034
:1018900023ED00E070B50446FFF73EFF0F4D16E064
:1018A0000A2809D10D212846FFF710FB8021284680
:1018B000FFF78CFA0028F9D014F8011B2846FFF72F
:1018C00005FB80212846FFF781FA0028F9D020780F
:1018D0000028E5D1BDE87040FFF72CBF00100140A3
:1018E00010B5044617480168002903D020468847F0
:1018F000002826D014A0E16900F0DEF816A0A16946
:1019000000F0DAF818A0616900F0D6F81AA0216991
:1019100000F0D2F81CA0E16800F0CEF81EA0A1688B
:1019200000F0CAF820A0616800F0C6F822A0216883
:1019300000F0C2F800F02AFD014623A000F0BCF838
:10194000FEE710BDAC0000207073723A203078259D
:101950003038780A000000002070633A2030782583
:101960003038780A00000000206C723A2030782568
:101970003038780A000000007231323A2030782581
:101980003038780A000000007230333A2030782571
:101990003038780A000000007230323A2030782562
:1019A0003038780A000000007230313A2030782553
:1019B0003038780A000000007230303A2030782544
:1019C0003038780A00000000686172642066617532
:1019D0006C74206F6E207468726561643A202573A0
:1019E0000A00000070B50646121D22F00700A0F1A3
:1019F0004405284600220A4C40F82240521C112A75
:101A0000FAD3416200218162C16201634163836351
:101A1000C6634FF0807202640160284670BD00000A
:101A2000EFBEADDE10B5FEF7DDFB044A1178491CB0
:101A30001170BDE81040FEF7D9BB00003000002057
:101A400010B5FEF7CFFB044A1178491E1170BDE8AE
:101A50001040FEF7CBBB0000300000202DE9F04124
:101A600005460E461446304600F0C9FC06F1140740
:101A700014B1012C1DD104E03946284600F043F88A
:101A800017E02C680DE0A4F1140096F8351090F8DA
:101A90003520914204D23946143000F034F802E087
:101AA0002468AC42EFD1AC4203D13946284600F05D
:101AB0002AF80020BDE8F0810FB408B503AB00930D
:101AC0007F210548029A00F00FFE0348FFF7E2FE6F
:101AD00001B05DF814FB0000601200200268516044
:101AE00002680A60016048607047026851600268DD
:101AF0000A600160486070470268516002680A60CD
:101B00000160486070474268116042684A60416005
:101B1000086070470168814201D1012070470020B0
:101B200070470168814201D1012070470020704751
:101B3000D0E900215160D0E90012116040600060DE
:101B40007047D0E900215160D0E900121160406077
:101B5000006070472DE9F047002809D0C01C20F034
:101B600003053B4EF068854204D90020BDE8F087AC
:101B70000020FBE70C2D00D20C254FF0FF3135483B
:101B800000F0D5F9B7683168781AD6F80CC0ACEB1C
:101B9000050356E00C1862888ABB6268121A0C3A78
:101BA000AA424DD3626805F11803121A0C3A4FF09D
:101BB00001094FF4F5589A4222D343190C33CA183D
:101BC000A2F800804FF0000AA2F802A0D4F804A006
:101BD000C2F804A090606360A4F8029050680CF111
:101BE0000C0C604502D001F1080283503069284492
:101BF0000C303061726982420ED270610CE01FE0DD
:101C0000A4F802906068621A801A32691044306148
:101C10007269824200D27061A4F80080BC4203D095
:101C200008E040680844B060B068428812B1726849
:101C30009042F6D1074800F05CF904F10C0095E7FA
:101C400060688342A6D8034800F053F900208DE76E
:101C500034000020E012002010B50346CCB2042A64
:101C600015D3810713D1014644EA042343EA034311
:101C700005E00B604B608B60CB601031103A102A8E
:101C8000F7D201E008C1121F042AFBD20B46E1B2D1
:101C900001E003F8011B521E541CFAD110BD2DE9BE
:101CA000F04106460F46304600F03EF80546E8682B
:101CB000FFF750FF0446ACB1267200206072082284
:101CC0003946204600F0CAF9FEF78CFA064604F1C0
:101CD0000C01281DFFF702FF3046FEF787FA204669
:101CE000BDE8F0810020FBE770B50446FEF77AFA04
:101CF000054604F10C00FFF71BFF2846FEF776FAB5
:101D00002046BDE87040FFF72DBD70B50446FEF7D4
:101D100069FA054604F10C00FFF70AFF2846BDE802
:101D20007040FEF763BA00000021074A02EB01137E
:101D30001B78834202D102EB01107047491C042931
:101D4000F4DB0020704700004C0000202DE9F0413A
:101D500004460D4617462846FFF7E6FF064645F0BF
:101D60008000207208223946204600F077F9FEF7FD
:101D700039FA054604F10C01301DFFF7AFFE284685
:101D8000BDE8F041FEF732BA007A000601D5012025
:101D9000704700207047000070B5FEF723FA054633
:101DA000174C608820B12846BDE87040FEF71EBA87
:101DB000A068FFF79FF8421E124850F832101439FD
:101DC0006068814216D0227061600F4A127842B179
:101DD0001C311C30FEF70DFA2846BDE87040FEF7B6
:101DE00005BA1C311C30FEF704FA2846BDE87040E5
:101DF000FEF7FCB92846BDE87040FEF7F7B90000D1
:101E00008C000020001300203000002010B5044694
:101E1000FEF7E8F9024614F8340F20F00F00401CDA
:101E2000207060780A49343C01EBC00104F11400D1
:101E30004B6818604B684360486001600548A16BBF
:101E4000836819438160BDE810401046FEF7CEB9A3
:101E5000001300208C00002070B50546FEF7C2F983
:101E6000014605F11404D4E900205060D4E90002D1
:101E700010606460246095F835000A4A02EBC000E7
:101E80000268824201D1012000E0002020B1064812
:101E9000AB6B82689A438260BDE870400846FEF7EB
:101EA000A5B90000001300208C00002070B50C467E
:101EB000154601460120FFF7F2FE002805D000F18B
:101EC0001401496009608483457270BD2DE9F041B9
:101ED000054616461F460A4601212846FFF736FFEB
:101EE0002C46143464602460AE836F720020BDE819
:101EF000F08170B504460025FEF774F9064604F13A
:101F00001400FFF707FE40B1A08B401CA0833046B1
:101F1000FEF76CF9012D06D007E06069143800F077
:101F200017FA0125F3E7FFF737FF002070BD73B5FF
:101F30000446FEF757F90646A08B28B1401EA08341
:101F40003046FEF753F921E0019808B300F01EFA7D
:101F5000054600202863627A294604F11400FFF741
:101F60007DFD0198002809DD05F1440001AA00214A
:101F7000044600F0F7FA204600F034FB3046FEF746
:101F800035F9FFF709FF286B002800D100207CBD40
:101F90003046FEF72BF96FF001007CBD08B509A0B3
:101FA000FFF78AFD0AA0FFF787FD12A00323009028
:101FB0000022194612A0FFF77FFDBDE8084018A0D7
:101FC000FFF77ABD0A205C207C202F0A0000000069
:101FD0002D205254202D202020202054687265612D
:101FE00064204F7065726174696E672053797374F1
:101FF000656D0A0041707220313620323032300077
:10200000202F207C205C202020202025642E256489
:102010002E2564206275696C642025730A00000017
:102020002032303036202D203230313820436F704E
:102030007972696768742062792072742D7468728D
:10204000656164207465616D0A000000014600E06E
:10205000491C0A78002AFBD1081A704710B5002ADB
:1020600007D0034611F8014B03F8014B14B1521E7F
:10207000F8D110BD002101E003F8011B521EFBD175
:1020800010BD000070B505460A46E81C20F00301AB
:1020900022F00303182B21D9A3F118048C421DD37D
:1020A000114C5A1A183AE26021604FF4F5530B8034
:1020B0000C324A60002088604880486808446060AC
:1020C000038001214180426082600023012207A138
:1020D0000848FFF7FBFE2068A06070BD2946BDE8F8
:1020E000704005A0FFF7E8BC34000020686561700F
:1020F00000000000E01200206D656D20696E6974BB
:102100002C206572726F7220626567696E2061644F
:10211000647265737320307825782C20616E64209A
:10212000656E64206164647265737320307825780D
:102130000A00000010B50A4B00245C800020094A08
:1021400002EBC00149600960401C0828F8DB072049
:1021500018705C609C6002480C304060006010BDEC
:102160008C0000200013002010B5074CA068FEF77B
:10217000C1FE401E054951F8300014386060BDE8CA
:1021800010401C30FEF77BB88C00002000130020AC
:102190000020044A02EBC00149600960401C00288D
:1021A000F8D07047A400002070472DE9FF47804613
:1021B000DDE90C67894692461D4641460020FFF73F
:1021C0006EFD044620000FD02846FFF7C3FC68B11F
:1021D0008DE8E10053464A4641462046FFF7FAF8AB
:1021E000204604B0BDE8F0870020FAE72046FFF75C
:1021F0007BFD0020F5E700F0CFB8000070B5134874
:102200000468FDF7EFFF05462046FFF725FE042092
:1022100084F8340004F1440000F0BEF92046FFF7D2
:10222000B3FD012801D1206F58B104F11401084811
:10223000FFF75BFC2846FDF7D9FFBDE87040FFF7CC
:10224000ABBD2046FFF761FDF4E7000090000020E1
:102250009800002000F002F8FCE7000070B527E0CD
:10226000FDF7C0FF0646FEF779FE68B3194804681B
:10227000A4F11405D4E900104860D4E90001086015
:1022800064602460FFF748FA296F09B1284688473F
:102290002846FFF779FD01280FD0FFF74BFA3046AB
:1022A000FDF7A4FFA86AFFF75DFA2846FFF71CFDBB
:1022B000FEF754FE0028D3D170BDFFF73BFA30463D
:1022C000BDE87040FDF792BF3046BDE87040FDF7B5
:1022D0008DBF0000980000201FB52020C2000721FC
:1022E000094BCDE90210CDE9003207480023074A27
:1022F00007A1783800F010F804B00348BDE810409A
:10230000783800F069B800006011002055220008FC
:102310007469646C650000002DE9FF5F8146DDE9AA
:102320000E76DDE91054884692469B4642460021CF
:102330004846FFF70BFDCDE90076CDE902545B4638
:10234000524641464846FFF745F804B0BDE8F09FC5
:1023500070B5044694F8340000F00F00022802D053
:102360004FF0FF3070BDFDF73DFF054604F114004E
:10237000FFF7E7FB04F1440000F09EF92846FDF763
:1023800035FF2046FFF742FD002070BD0148006880
:102390007047000090000020F1B5FDF723FF0546CF
:1023A0000C480468204600F02AF804F144006A460C
:1023B0000021064600F0D6F8304600F013F9284612
:1023C000FDF714FFFFF7E8FC206B801C00D12063B1
:1023D0000020F8BD9000002010B5343081784170A5
:1023E00001228A404260022100F83419FFF7B0FF51
:1023F000FFF7CCFF08B1FFF7CFFC002010BD70B590
:10240000044694F8340000F00F00012802D04FF089
:10241000FF3070BDFDF7E6FE054694F8340020F06D
:102420000F00801C84F834002046FFF715FD04F1EE
:10243000440000F041F92846FDF7D8FE002070BDA9
:1024400010B504466FF00100206304F11400FFF79B
:1024500078FB2046FFF7DAFCBDE81040FFF79CBC94
:1024600070B5FDF7BFFE06461348046894F83400C3
:1024700000F00F0001281AD1D4E90501884216D0D6
:1024800004F114000546FFF75CFB94F835000B4996
:1024900001EBC00041680D604168696045602860DB
:1024A0003046FDF7A3FEFFF777FC002070BD3046F5
:1024B000FDF79CFE002070BD90000020001300205E
:1024C00001480068704700002C00002010B5094941
:1024D0000868401C0860FFF759FF016C491E016441
:1024E00019B9C16B0164FFF7BBFFBDE8104000F0F4
:1024F00003B800002C00002070B5FFF7E1FF06468E
:10250000FDF770FE054620E015480468143C6FF0A6
:102510000041A06A301A88421CD22046FEF7A9FF6B
:10252000D4E907108847FFF7CBFF0646607A81079A
:1025300008D5C10706D020F001006072204600F0E7
:1025400051F802E020F0010060720548FFF7E9FA57
:102550000028D9D02846BDE87040FDF747BE0000EE
:10256000A4000020002909D0012904D0022908D0A4
:1025700003290FD10AE0406A10600BE01168416244
:1025800008E0417A21F00201417203E0417A41F012
:10259000020141720020704770B50546FDF722FE2A
:1025A00004462846FEF765FF2046FDF71FFE284635
:1025B000FFF7ABFB002070BD2DE9F8430746DDE9CE
:1025C000088415461E460A4609213846FFF7BEFB19
:1025D00043463246294638460094FEF737FFBDE8A9
:1025E000F88300002DE9F8430446FDF7FBFD05469E
:1025F0002046FEF73EFF607A20F001006072284618
:10260000FDF7F4FDFFF75CFF616A0844A062FDF787
:10261000E9FD0746DFF89CC0CDF800C000226E46F9
:102620000CEBC20045680DE00068A0EBC201A36A94
:102630004969994204D0C91A6FF00043994205D301
:1026400046F8220056F82200A842EDD12AB156F8E9
:1026500022100831531C46F82310521C002ADFD0E8
:102660001448001FD0F8008008F10108C0F800806D
:1026700004F114010098FFF73FFA02250EE05FEA2B
:1026800088700DD1C5F1010004EBC001143156F87A
:102690002000FFF731FA4FEA98086D1C012DEED9A2
:1026A000607A40F0010060723846FDF79FFD00201F
:1026B000BDE8F883A400002070B50446607AC00726
:1026C0000ED0FDF78FFD05462046FEF7D2FE2846C8
:1026D000FDF78CFD607A20F001006072002070BD73
:1026E0004FF0FF3070BD00002DE9FF4F83B08246F0
:1026F0000AEB01077F1E5446A74201D24FF0FF3775
:102700004FF020094FF0250B12E1252804D0BC42E0
:1027100000D82070641C08E100250599491C05912A
:1027200008782D2814D02B2815D0202816D023283F
:1027300017D0302818D04FF0FF384646059A127847
:10274000303A0A2A13D205A800F033F906461AE0F7
:1027500045F01005E1E745F00405DEE745F0080522
:10276000DBE745F02005D8E745F00105D5E72A2845
:1027700009D1491C0591069840C80690002E02DA3E
:10278000764245F01005059801782E2918D1401C95
:1027900005900178A1F130020A2A04D205A800F0C0
:1027A00008F9804607E02A2905D1401C05900698C3
:1027B00050F8048B0690B8F1000F01DA4FF00008D2
:1027C0000021059A1078682801D06C2802D10146B2
:1027D000521C05920A23059800786F2871D00CDCF2
:1027E000632820D004DC25286CD058280DD187E040
:1027F000642801D0692808D186E0702863D0732846
:102800002FD0752871D078287CD0BC4201D884F8AC
:1028100000B0641C05990878002868D0BC4200D834
:102820002070641C81E0E80605D507E0BC4201D8B1
:1028300084F80090641C761E002EF7DC069810F8D1
:10284000041B0690C8B2BC4200D82070641C04E08F
:10285000BC4201D884F80090641C761E002EF7DC80
:1028600063E0069808C8069003B941A31846FFF72D
:10287000EDFBB8F1000F02DD404500DD4046E90602
:1028800005D508E0BC4201D884F80090641C3146AC
:10289000761E8142F6DC002106E0BC4201D81A789F
:1028A0002270641C5B1C491C8142F6DB04E0BC42C4
:1028B00001D884F80090641C3146761E8142F6DC13
:1028C00033E01BE014E0701C02D1082645F001053E
:1028D000CDE9006806980295102304C80690394691
:1028E0002046FEF753FE04461FE00FE00AE028E012
:1028F000BC4201D884F800B0641C16E0082305E04F
:1029000045F04005102301E045F002056C291BD07D
:1029100068291DD0069804C80690CDE9006839469C
:1029200020460295FEF732FE04460598401C0590AD
:102930000598007800287FF4E8AEBC4211D82070DA
:1029400010E0491E0591F0E7069804C80690E4E7F8
:10295000069830F8041B06908AB2A807DDD512B29B
:10296000DBE7387007B0A4EB0A00BDE8F08F000089
:10297000284E554C4C29000000207047002070471D
:10298000002070470020704710B5FDF72BFCFEF7C4
:1029900053FFFFF703FBFFF7FBFBFFF7CBFBFEF754
:1029A00089FEFFF701FCFFF797FCFFF7DDFB002036
:1029B00010BD10B5024600206FF02F0407E04B1C3D
:1029C0001360097800EB800004EB400008441168B4
:1029D0000B78303B0A2BF2D310BD00002DA0FEF780
:1029E00079FA36A0FEF776FA3DA0FEF773FA40A01A
:1029F000FEF770FA4848FEF76DFA4848FEF76AFAA3
:102A000047A0FEF767FA554F4FF480684FF400690E
:102A10004FF4805A07F1020BA7F80080A7F8009046
:102A2000ABF800A04E48FDF7DAFE4D494D48FDF7E2
:102A3000FBFE3220FFF7DFFB4B4800214068FFF729
:102A400076FA18BB464C49A014342168FEF742FAC6
:102A500046A06168FEF73EFA04F10B0545A0FEF7BB
:102A600039FA00240A26295D48A0FEF733FA601CD3
:102A700090FBF6F106FB110010B918A0FEF72AFA38
:102A8000641C082CEFDB15A0FEF724FA1420FFF7D6
:102A9000B2FBC1E70D0A20BBB6D3ADCAB9D3C3D2CE
:102AA000B0BBF0202053544D33322046343239200D
:102AB000BFAAB7A2B0E5A1A30D0A00000D0A20D25B
:102AC000B0BBF0463432392043414ECDA8D1B6BB1D
:102AD000D8BBB7CAB5D1E9C0FDB3CC0D0A00000020
:102AE0000D0A20CAB5D1E9B2BDD6E8A3BA0D0A00D5
:102AF0000D0A20312ECAB9D3C3BBD8BBB7C4A3CAF1
:102B0000BDA3ACB2BBD0E8D2AAC1ACBDD3CDE2B2BA
:102B1000BFD0BEC6AC0D0A00042D0008B82C0008BA
:102B20000D0A20342EB1BEC0FDD6D0B5C463616E8F
:102B3000B2A8CCD8C2CACEAA314D427073A3ACCED3
:102B4000AA73746D3332B5C463616ED7EEB8DFCB50
:102B5000D9C2CAA1A3200D0A00000000181C02401F
:102B6000C010002000640040240000203078257848
:102B70000D0A00003C3C2D43414E2D444542554733
:102B80002D41525241592D3E3E0A000025303278E7
:102B900020202000000001000200010003000100CD
:102BA0000200010004000100020001000300010016
:102BB0000200010005000100020001000300010005
:102BC00002000100040001000200010003000100F6
:102BD00002000100060001000200010003000100E4
:102BE00002000100040001000200010003000100D6
:102BF00002000100050001000200010003000100C5
:102C000002000100040001000200010003000100B5
:102C100002000100070001000200010003000100A2
:102C20000200010004000100020001000300010095
:102C30000200010005000100020001000300010084
:102C40000200010004000100020001000300010075
:102C50000200010006000100020001000300010063
:102C60000200010004000100020001000300010055
:102C70000200010005000100020001000300010044
:102C80000200010004000100020001000300010035
:102C90000200010030313233343536373839616261
:102CA0006364656600303132333435363738394144
:102CB00042434445460000000D0A20332EC8F4BFAD
:102CC000AAB7A2B0E5B5C443414EBDD3CAD5B5BD80
:102CD000C0A9D5B94944CEAA307831333134B5C40E
:102CE000CAFDBEDDB0FCA3ACBBE1B0D1CAFDBEDD08
:102CF000D2D4B4F2D3A1B5BDB4AEBFDAA1A3200D36
:102D00000A0000000D0A20322EB0B4CFC2BFAAB70D
:102D1000A2B0E5B5C44B455931BCFCA3ACBBE1CA7C
:102D2000B9D3C343414ECFF2CDE2B7A2CBCD302DC4
:102D300037B5C4CAFDBEDDB0FCA3ACB0FCB5C4C0A1
:102D4000A9D5B94944CEAA3078313331342028D3BB
:102D5000C9D3DABBD8BBB7C4A3CABDA3ACCAC7D753
:102D6000D4BCBAB7A2CBCDB8F8D7D4BCBA290D0A17
:102D700000000000852900087D2900087929000845
:102D800081290008A42D000800000020C0000000D8
:102D90003C0F0008642E0008C000002080160000D0
:102DA0004C0F00080095BA0A000000000000000067
:102DB00001020304060708090000000001020304E1
:102DC00001020304060708090000000000000000DB
:102DD00000000000000000000000000000000000F3
:102DE00000000000000000000000000000000000E3
:102DF000000000005000002050000020780000007B
:102E000001000000600000206000002020000000A1
:102E1000040000007000002070000020300000005E
:102E20000900000080000020800000202C0000002D
:102E30000000000000000000000000000000000092
:102E40000000000000000000000000000000000082
:102E50000000000000000000000000000000000072
:042E6000000000006E
:04000005080001AD41
:00000001FF
