:020000040800F2
:1000000018170020C1010008C90100088B02000870
:10001000CD010008CF010008D10100080000000058
:10002000000000000000000000000000D3010008F4
:10003000D50100080000000013020008E5070008D1
:10004000DB010008DB010008DB010008DB01000820
:10005000DB010008DB010008DB010008DB01000810
:10006000DB010008DB010008DB010008DB01000800
:10007000DB010008DB010008DB010008DB010008F0
:10008000DB010008DB010008DB010008DB010008E0
:10009000DB010008DB010008DB010008DB010008D0
:1000A000DB010008DB010008DB010008DB010008C0
:1000B000DB010008DB010008DB010008DB010008B0
:1000C000DB010008DB010008DB010008DB010008A0
:1000D000DB010008DB010008DB010008DB01000890
:1000E000DB010008DB010008DB010008DB01000880
:1000F000DB010008DB010008DB010008DB01000870
:10010000DB010008DB010008DB010008DB0100085F
:10011000DB010008DB010008DB010008DB0100084F
:10012000DB010008DB010008DB010008DB0100083F
:10013000DB010008DB010008DB010008DB0100082F
:10014000DB010008DB010008DB010008DB0100081F
:10015000DB010008DB010008DB010008DB0100080F
:10016000DB010008DB010008DB010008DB010008FF
:10017000DB010008DB010008DB010008DB010008EF
:10018000DB010008DB010008DB010008DB010008DF
:10019000DB010008DB010008DB010008DB010008CF
:1001A000DB010008DB010008DB010008DFF80CD0F0
:1001B00000F0B4F8004800477F030008181700203B
:1001C0000648804706480047FEE7FEE7FEE7FEE7F1
:1001D000FEE7FEE7FEE7FEE7FEE7FEE7F9070008B9
:1001E000AD010008EFF3108072B6704780F31088FD
:1001F00070472B4A1368012B04D04FF001031360A2
:10020000284A1060284A116028484FF08051016048
:100210007047EFF3108272B62148016891B14FF038
:10022000000101601F48016829B1EFF3098121E94C
:10023000F00F006801601C4909680968B1E8F00F17
:1002400081F3098882F310884EF0040E7047164936
:10025000086014494FF00000086011494FF0010098
:10026000086013484FF47F01D0F8002041EA0201F2
:1002700001600E484FF0805101600E480068006830
:1002800080F3088861B662B67047EFF3098000B565
:1002900001F006FA5DF804EB4EF0040E7047000022
:1002A000B4000020AC000020B000002004ED00E00D
:1002B00020ED00E008ED00E02DE9F05F05460020AC
:1002C00092469B4688460646814640241BE02846C7
:1002D00041464746224600F042F853465A46C01A65
:1002E000914110D311461846224600F029F82D1AE4
:1002F00067EB01084F4622460120002100F020F85C
:1003000017EB00094E41201EA4F10104DFDC484632
:1003100031462A464346BDE8F09F0000064C074D93
:1003200006E0E06840F0010394E8070098471034C5
:10033000AC42F6D3FFF73EFF7C2900089C29000859
:10034000202A04DB203A00FA02F100207047914095
:10035000C2F1200320FA03F3194390407047202A8A
:1003600004DB203A21FA02F00021704721FA02F35F
:10037000D040C2F12002914008431946704710B5A1
:10038000FFF730FF02F0CEF9002010BD10B500F0ED
:10039000D3FB00F071FAFF22BDE810401146104671
:1003A00000F09EB970B586B00121084600F0EEF865
:1003B0000121102000F014F900248DF816400120CE
:1003C0008DF8170002258DF815508DF81450400255
:1003D00004901C4E04A9304600F038F88DF81450F3
:1003E0006902049104A9304600F030F807220A217E
:1003F000304600F069F807220921304600F064F821
:100400004FF4E1300090ADF80440ADF80640ADF88F
:100410000840ADF80C400C20ADF80A000A4C6946C3
:10042000204600F0EDFB00F05FF8012240F225517C
:10043000204600F0CAFB0121204600F0B3FB06B0C5
:1004400070BD000000000240001001402DE9F041A5
:10045000002201274FF0030C07FA02F50B682B402E
:10046000AB422CD1066853000CFA03F4A643066095
:100470000E79D0F800809E4046EA080606600E79A4
:10048000012E01D0022E12D18668A64386604E79D5
:10049000D0F808809E4046EA080686604668AE436B
:1004A000466045688E799640B6B235434560C5686A
:1004B000A543C560CC799C40C3681C43C460521CF2
:1004C000102AC9D3BDE8F08110B54B07DB0E9A4066
:1004D000C90800EB8100016A0F249C40A14301621E
:1004E000016A1143016210BD08B54FF4A06000F02D
:1004F00043F825208DF8000001208DF801008DF8CB
:1005000002008DF80300684600F002F808BD000004
:1005100030B50F23C27801250178002A1FD0154A73
:10052000126802F4E062C2F5E062C2F30722C2F18F
:100530000404D3404278A24084781C401443220132
:1005400001F1E02181F80024007800F01F018D40C6
:100550004009800000F1E020C0F8005130BD01F0FA
:100560001F0085404809800000F1E020C0F880515C
:1005700030BD00000CED00E002490843024908606C
:10058000704700000000FA050CED00E0054A002964
:1005900003D01168014311607047116881431160F5
:1005A0007047000030380240054A002903D0116826
:1005B000014311607047116881431160704700006A
:1005C00034380240054A002903D011680143116004
:1005D0007047116881431160704700004038024045
:1005E000054A002903D01168014311607047116862
:1005F00081431160704700004438024070B5244BBD
:10060000196801F00C01234C00291ED0224E042948
:100610001DD008291DD00460196801F0F0010909F6
:100620001E4A545C0168E14041601C6804F4E054D7
:10063000A40A145D21FA04F484601B6803F4604387
:100640005B0BD25CD140C16070BD0460E4E7066022
:10065000E2E70F4A121F1168C1F38055116801F0DB
:100660003F0135B1B6FBF1F11468C4F3881461435E
:1006700005E0B4FBF1F11468C4F388146143126817
:10068000C2F30142521C5200B1FBF2F10160C3E718
:10069000083802400024F40040787D011400002056
:1006A0000649002804D0086840F00400086070473C
:1006B000086820F004000860704700000008065039
:1006C00001460020024A12680A4200D00120704709
:1006D00004080650014800687047000008080650EA
:1006E000034B1860181D0160001D02607047000078
:1006F000340C0040054AC0F307411160121DC0F3DD
:1007000007211160111DC0B208607047340C004011
:100710001CB50021019100912E4A106840F48030F0
:1007200010604FF4A043106800F40030009001986E
:10073000401C0190009810B901989842F3D11068BC
:10074000800302D50120009000E00091009801286C
:100750003FD120484030016841F0805101601E497E
:10076000086840F4404008601A4808300368036095
:10077000036843F400430360036843F4A053036039
:10078000041F164B2360136843F0807313601368D3
:100790009B01FCD50A6842F480320A604A68D203A1
:1007A000FCD50A6842F400320A604A689203FCD51C
:1007B0000B4A40F205711160016821F003010160EC
:1007C000016841F0020101600168C1F38101022961
:1007D000FAD11CBD0038024000700040195A400791
:1007E000003C024010B500F0FBFF01F03DFDBDE80C
:1007F000104001F003B8000010B50F48016841F047
:10080000010101600C4A00210832116002680B4BA3
:100810001A400260031D0A4A1A60026822F480220C
:10082000026005480C300160FFF772FF05494FF088
:100830000060086010BD000000380240FFFFF6FEB7
:100840001030002408ED00E0002904D0018841F0B8
:10085000800101807047018821F08001018070478C
:10086000002904D0018841F001010180704701880E
:1008700021F001010180704730B589B001210820C5
:10088000FFF7A0FEFF200790214822490068B0FB37
:10089000F1F0C0EB00104FF0FF3101EB4000ADF87C
:1008A00018000024ADF82040ADF81A401A4D06A9F2
:1008B000284600F003F96021ADF804100121ADF8DD
:1008C000061003940221ADF8101001A9284600F08B
:1008D00025F80821284600F055F801A9284600F01F
:1008E00057F80821284600F097F801A9284600F09B
:1008F0009DF80821284600F0DBF801212846FFF783
:10090000A3FF01212846FFF7ABFF09B030BD00006F
:100910000000002080841E00000C004030B5028CD6
:1009200022F001020284058C8388028B22F070027F
:1009300022F003020C88144325F002028D8915432E
:100940004A882A430D4DA84202D00D4DA8420FD12E
:1009500022F00805CA892A4322F004058A882A431E
:1009600023F4807323F400730D8A1D434B8A2B43B9
:100970008380048389684163028430BD00000140A4
:1009800000040140028B22F008020A4302837047F0
:1009900070B5028C22F010020284028C8388048BD2
:1009A00024F4E04424F440760D884FF6FF7404EA02
:1009B0000525354322F020028E8904EA06161643E7
:1009C0004A8804EA02123243114EB04202D0114E5C
:1009D000B04217D122F08002CE8904EA06161643EF
:1009E00026F040068A8804EA0212324323F4806328
:1009F00023F400630E8A04EA86061E434B8A04EA47
:100A0000830333438380058389688163028470BDD7
:100A10000000014000040140028B22F400624FF606
:100A2000FF7303EA012111430183704770B5028C03
:100A300022F480720284028C8388848B24F07004F8
:100A400024F003040D88254322F400728E894FF6AA
:100A5000FF7404EA062616434A8804EA0222324357
:100A6000114EB04202D0114EB04217D122F40066AE
:100A7000CA8904EA0222324322F480668A8804EAA0
:100A80000222324323F4805323F400530E8A04EAF3
:100A900006161E434B8A04EA03133343838085837F
:100AA0008968C163028470BD0000014000040140F8
:100AB000828B22F008020A438283704730B5028895
:100AC000164C174DA0420DD0A8420BD0B0F1804F6C
:100AD00008D0144B984205D0134B984202D0134BC8
:100AE000984203D122F070034A881A43104B98426F
:100AF00006D0104B984203D022F440730A891A435F
:100B000002804A68C2620A880285A04201D0A842D7
:100B100001D1897A01860121818230BD0000014026
:100B2000000401400004004000080040000C0040A8
:100B300000100040001400401CB501218020FFF788
:100B400025FD174C02220A212046FFF7BDFC022298
:100B50000B212046FFF7B8FC02220C212046FFF7AC
:100B6000B3FC2115009102218DF8041000218DF8AD
:100B700006108DF8071003218DF8051069462046F0
:100B8000FFF764FCE114009169462046FFF75EFC24
:100B9000A114009169462046FFF758FC1CBD0000D7
:100BA000001C0240002904D0818941F40051818158
:100BB0007047818921F400518181704702460020ED
:100BC00012880A4200D00120704710B540F66A131F
:100BD000C1F3421301F01F040121A140012B07D0F2
:100BE000022B07D014303AB102680A43026010BDEC
:100BF0000C30F8E71030F6E702688A43026010BD57
:100C00007FB504460D46208A20F44051E888084309
:100C10002082A08941F20C618843A9882A89114366
:100C20006A8902431143A181A08A20F44071A889F6
:100C30000843A0826846FFF7E1FC1E48844202D0C8
:100C40001D48844201D1039800E00298A18909045B
:100C500008D500EBC00101EB001029684900B0FB8A
:100C6000F1F007E000EBC00101EB001029688900FA
:100C7000B0FBF1F06422B0FBF2F109010B096FF057
:100C800018056B4300EB8300A3891D044FF032036A
:100C900007D503EBC000B0FBF2F000F007000843FB
:100CA00006E003EB0010B0FBF2F000F00F00084389
:100CB00020817FBD0010014000140140C1F30801F4
:100CC000818070470FB4054B10B503A9044A029800
:100CD00000F046F810BC5DF814FB00008512000817
:100CE000B8000020002807D00F4910F0FF0F05D0F2
:100CF000C0B2085C401C70470020704710F47F4F62
:100D000004D0C0F30720085C0930704710F47F0F4F
:100D100004D0C0F30740085C1130704701EB10604D
:100D200000781930704700004828000802E008C821
:100D3000121F08C1002AFAD170477047002001E055
:100D400001C1121F002AFBD170470000034801684F
:100D5000814201D00120704700207047940000209C
:100D60002DE9FF4F8DB00F460546002606E02528E9
:100D70000BD0DDE90F1290476D1C761C28780028F7
:100D8000F5D111B03046BDE8F08F0024A246A1464F
:100D90000122EC4900E0044315F8013F203B02FA30
:100DA00003F00842F7D128782A2810D06FF02F02DC
:100DB0002878A0F13001092914D80AEB8A0102EB46
:100DC000410144F0020400EB010A6D1CF0E701CF81
:100DD0005FEA000A03D544F40054CAF1000A44F063
:100DE00002046D1C28782E2817D115F8010F44F045
:100DF00004042A280ED06FF02F022878A0F13001C9
:100E000009290AD809EB890102EB410100EB01092C
:100E10006D1CF2E757F8049B6D1C28786C280FD0E6
:100E200006DC4C2817D068280DD06A2814D104E0BD
:100E3000742810D07A280FD10DE044F400140AE091
:100E400044F4801401E044F440146978814202D1F2
:100E500004F580146D1C6D1C2A786E2A1FD00CDCE2
:100E6000632A31D004DC002A8BD0582A11D1A3E0A8
:100E7000642A68D0692A0CD165E0732A2ED004DC7C
:100E80006F2A73D0702A04D19BE0752A6FD0782A1C
:100E90006ED01046DDE90F129047761C50E1C4F386
:100EA0000250022806D0032809D0042801CF09D017
:100EB000066045E101CFF117C0E9006140E101CFD3
:100EC00006803DE106703BE117F8040B8DF8000049
:100ED00000208DF80100EB46012003E057F804BB29
:100EE0004FF0FF3061074FF0000102D40DE008F130
:100EF0000101884649450FDA8045F8DB1BF80810E8
:100F00000029F4D108E008F1010188468142FADBAA
:100F10001BF808100029F6D1DDE90F23AAEB080021
:100F20008146214600F036F9304400EB080604E023
:100F3000DDE90F121BF8010B9047B8F10108F7D259
:100F400021464846F7E00A21C4F302534FF0000B54
:100F50000891022B04D001CFC117032B09D00AE05E
:100F6000FF1D27F00707F7E8020108E032E01FE065
:100F700020E000B2C117042B01D140B2C117031EFB
:100F800071F1000307DA4FF0000CD0EB0C006CEBB2
:100F900001012D2302E0230504D52B238DF82430F5
:100FA000012303E0E30701D02023F7E7984658E048
:100FB0000A2110E010210EE010204FF0000B0890E5
:100FC0000CE010214FF0000B44F004044FF008092E
:100FD000089103E008214FF0000B0891C4F302537D
:100FE000022B04D001CF0021032B06D006E0FF1D09
:100FF00027F00707F7E8020103E080B2042B00D1D5
:10100000C0B24FF0000823072BD5702A07D0DDF8B7
:1010100020C08CF0100C5CEA0B0C05D00EE04023D5
:101020008DF82430012308E050EA010306D0302374
:101030008DF824308DF8252002239846DDF820C055
:101040008CF0080C5CEA0B0C0BD150EA010301D1C7
:10105000630706D530238DF824304FF00108A9F13D
:101060000109582A04D038A20B9208AA0A920BE070
:101070003AA2F9E75B46089AFFF71EF90B9B9B5CC7
:101080000A9A521E0A92137050EA0102F2D10A988B
:10109000ADEB000000F1200B600702D524F4803492
:1010A00001E04FF00109D94502DDA9EB0B0000E09A
:1010B000002000EB0B0141440890AAEB010AE00379
:1010C00006D4DDE90F232146504600F063F80644BC
:1010D0004FF0000908E009A911F80900DDE90F1235
:1010E000904709F10109761CC145F4DBE0030CD5FA
:1010F000DDE90F232146504600F04CF8064404E099
:10110000DDE90F1230209047761C0899481E0890A0
:101110000029F5DC08E00A980A990078491C0A9130
:10112000DDE90F129047761CBBF10001ABF1010B1A
:10113000F1DC21465046DDE90F2300F019F80644A2
:101140006D1C1BE609280100303132333435363747
:101150003839616263646566000000003031323303
:1011600034353637383941424344454600000000A3
:101170002DE9F041044600251E461746880404D494
:1011800005E039462020B0476D1C641EF9D528467D
:10119000BDE8F0812DE9F041044600251E46904649
:1011A000C80301D5302700E02027880404D505E0D6
:1011B00041463846B0476D1C641EF9D52846BDE847
:1011C000F08100002DE9FC411F46DDE90A65DDE9FB
:1011D0000831044604F11400406000601C34626071
:1011E000A760E36021610A462321184600F012FC43
:1011F000D4E903014218D4E90101121F0D4B00F09C
:10120000D1FA2060A67666760020E06125626562EC
:10121000606120766065A0651C3C009001902346CB
:10122000054A214604F1440001F094F80020BDE88D
:10123000FC810000991F0008DD21000810B5029C08
:1012400024F001044472C1610262002181624362A0
:1012500000EBC102143252601260491C0129F7DB15
:1012600010BD10B5002200EBC2011431D1E90043DA
:101270006360D1E90034236049600960521C012A8F
:10128000F1DB10BD70B50446064DE1B22846FFF70C
:1012900015FD80212846FFF791FC0028F9D0204653
:1012A00070BD0000001001401CB514200321CDE9E1
:1012B00000104FF400730022064907A000F043FE1F
:1012C0000749086018B100F055FF00201CBD4FF021
:1012D000FF301CBD7927000874657374000000009E
:1012E0002400002010B500F0E7F8BDE81040FFF73B
:1012F000DBBF000030B5134C41682268114402F195
:10130000080388420DD04D885DB96568A94208D0B0
:10131000A5688D4200D1A0604D6845604968851A76
:10132000CD508168114481420BD04D88002D08D1E9
:10133000A568854200D1A16044684C604068891A64
:10134000C15030BD300000202DE9FF4FDDE90DB662
:101350000F9D6C0602D5DFF814A103E0DFF80CA1A5
:10136000AAF1110AEC0601D525F00105EC0702D01F
:101370004FF0300901E04FF020090027AC070BD5F2
:10138000002A02DA2D27524206E06C0701D52B27EE
:1013900002E02C0700D520270024EE467AB930223F
:1013A00001248DF800200CE00A2B15D002F00F0864
:1013B0001209A4461AF80880641C0EF80C80002A52
:1013C000F2D1B44200DD2646ABEB060215F0110F58
:1013D0004FF0200309D016E04FF00A0CB2FBFCF8E6
:1013E0000CFB1828B2FBFCF2E3E73FB1002A05DD55
:1013F000521E03E0884200D80370401CB2F1000C7A
:10140000A2F10102F6DC27B1884201D80770521E12
:10141000401CED0605D508E0884201D880F8009010
:10142000401C151EA2F10102F6DC302703E08842C1
:1014300000D80770401C3546761EA542F7DC05E053
:10144000884202D81EF804500570401C251EA4F1E5
:101450000104F5DC03E0884200D80370401C141E30
:10146000A2F10102F7DC04B0BDE8F08F59290008B1
:101470001CB502211420CDE900100B020022044902
:1014800004A000F060FDBDE81C4000F073BE000049
:10149000E51200086D61696E0000000070B5044C33
:1014A000044D02E020688047241DAC42FAD370BD91
:1014B000702900087429000870B5044C044D02E03E
:1014C00020688047241DAC42FAD370BD74290008FF
:1014D0007829000810B5FEF785FE044A5188491C9A
:1014E0005180BDE81040FEF781BE0000880000205A
:1014F00010B5FEF777FE094A5188491E09B251809E
:10150000002907DC00215180FEF770FEBDE8104085
:1015100000F020BBBDE81040FEF768BE8800002048
:1015200070B5002833D01A4D296888422FD36968D6
:1015300088422CD2A0F10C044FF0FF31154800F086
:10154000C4FB60884FF4F55610B12088B04208D033
:1015500011A000F08FF923886288214615A000F0C1
:1015600089F9002060802680A868844200D2AC609F
:1015700029686068611A401A2969081A286120469A
:10158000FFF7B8FEBDE87040024800F080BB70BDB8
:1015900030000020B4120020746F20667265652050
:1015A0006120626164206461746120626C6F636BAE
:1015B0003A0A00006D656D3A203078253038782C75
:1015C000207573656420666C61673A2025642C2061
:1015D0006D6167696320636F64653A2030782530F8
:1015E00034780A0000487047BC000020004870476B
:1015F000BC10002010B515484FF47A710068B0FB9C
:10160000F1F0401EB0F1807F09D24FF0E021486137
:101610000F4AF02010700020886107200861FEF753
:10162000B5FEFEF7BFFE01214020FEF7BDFF012001
:10163000FFF736F8FFF732FFFFF7D8FF0446FFF752
:10164000D1FF2146BDE8104000F0EABB00000020B9
:1016500023ED00E070B50446FFF73CFF0F4D16E0A8
:101660000A2809D10D212846FFF728FB80212846AA
:10167000FFF7A4FA0028F9D014F8011B2846FFF759
:101680001DFB80212846FFF799FA0028F9D0207821
:101690000028E5D1BDE87040FFF72ABF00100140E7
:1016A00010B5044617480168002903D02046884732
:1016B000002826D014A0E16900F0DCF816A0A1698A
:1016C00000F0D8F818A0616900F0D4F81AA02169D8
:1016D00000F0D0F81CA0E16800F0CCF81EA0A168D2
:1016E00000F0C8F820A0616800F0C4F822A02168CA
:1016F00000F0C0F800F018FD014623A000F0BAF891
:10170000FEE710BDA80000207073723A20307825E3
:101710003038780A000000002070633A20307825C5
:101720003038780A00000000206C723A20307825AA
:101730003038780A000000007231323A20307825C3
:101740003038780A000000007230333A20307825B3
:101750003038780A000000007230323A20307825A4
:101760003038780A000000007230313A2030782595
:101770003038780A000000007230303A2030782586
:101780003038780A00000000686172642066617574
:101790006C74206F6E207468726561643A202573E2
:1017A0000A00000070B50646121D22F00700A0F1E5
:1017B000400528460022094C40F82240521C102ABD
:1017C000FAD30162002141628162C1620163436315
:1017D00086634FF08071C163284670BDEFBEADDEF9
:1017E00010B5FEF7FFFC044A1178491C1170BDE8E2
:1017F0001040FEF7FBBC00002C00002010B5FEF7E7
:10180000F1FC044A1178491E1170BDE81040FEF742
:10181000EDBC00002C0000202DE9F04105460E46ED
:101820001446304600F0B9FC06F1140714B1012C3F
:101830001DD104E03946284600F043F817E02C6833
:101840000DE0A4F1140096F8351090F8352091427F
:1018500004D23946143000F034F802E02468AC4277
:10186000EFD1AC4203D13946284600F02AF80020D7
:10187000BDE8F0810FB408B503AB00937F210548A4
:10188000029A00F0FFFD0348FFF7E4FE01B05DF8A7
:1018900014FB0000341200200268516002680A60E4
:1018A0000160486070470268516002680A60016028
:1018B000486070470268516002680A6001604860D1
:1018C00070474268116042684A6041600860704732
:1018D0000168814201D101207047002070470168F2
:1018E000814201D10120704700207047D0E90021DA
:1018F0005160D0E900121160406000607047D0E98B
:1019000000215160D0E90012116040600060704712
:101910002DE9F047002809D0C01C20F003053B4EFC
:10192000F068854204D90020BDE8F0870020FBE77D
:101930000C2D00D20C254FF0FF31354800F0C5F9D1
:10194000B7683168781AD6F80CC0ACEB050356E0DE
:101950000C1862888ABB6268121A0C3AAA424DD3EC
:10196000626805F11803121A0C3A4FF001094FF49E
:10197000F5589A4222D343190C33CA18A2F80080B2
:101980004FF0000AA2F802A0D4F804A0C2F804A004
:1019900090606360A4F8029050680CF10C0C6045F4
:1019A00002D001F108028350306928440C303061C4
:1019B000726982420ED270610CE01FE0A4F80290BE
:1019C0006068621A801A326910443061726982421A
:1019D00000D27061A4F80080BC4203D008E04068E7
:1019E0000844B060B068428812B172689042F6D183
:1019F000074800F04CF904F10C0095E76068834259
:101A0000A6D8034800F043F900208DE730000020FD
:101A1000B412002010B50346CCB2042A15D38107B6
:101A200013D1014644EA042343EA034305E00B6073
:101A30004B608B60CB601031103A102AF7D201E076
:101A400008C1121F042AFBD20B46E1B201E003F8E1
:101A5000011B521E541CFAD110BD2DE9F04106465F
:101A60000F46304600F03EF80546E868FFF750FFA5
:101A70000446ACB126720020607208223946204626
:101A800000F0BAF9FEF7AEFB064604F10C01281D82
:101A9000FFF702FF3046FEF7A9FB2046BDE8F081C4
:101AA0000020FBE770B50446FEF79CFB054604F1F9
:101AB0000C00FFF71BFF2846FEF798FB2046BDE809
:101AC0007040FFF72DBD70B50446FEF78BFB054651
:101AD00004F10C00FFF70AFF2846BDE87040FEF74E
:101AE00085BB00000021074A02EB01131B788342EB
:101AF00002D102EB01107047491C0429F4DB0020DD
:101B000070470000480000202DE9F04104460D46D2
:101B100017462846FFF7E6FF064645F0800020728C
:101B200008223946204600F067F9FEF75BFB0546C0
:101B300004F10C01301DFFF7AFFE2846BDE8F0416F
:101B4000FEF754BB007A000601D501207047002043
:101B50007047000070B5FEF745FB0546174C6088DE
:101B600020B12846BDE87040FEF740BBA068FFF7F3
:101B7000B9F8421E124850F8321014396068814298
:101B800016D0227061600F4A127842B11C311C30AD
:101B9000FEF72FFB2846BDE87040FEF727BB1C313F
:101BA0001C30FEF726FB2846BDE87040FEF71EBB42
:101BB0002846BDE87040FEF719BB000088000020F1
:101BC000D41200202C00002010B50446FEF70AFBBA
:101BD000024614F8340F20F00F00401C207060788B
:101BE0000A49343C01EBC00104F114004B68186051
:101BF0004B684360486001600548A16B83681943E6
:101C00008160BDE810401046FEF7F0BAD412002003
:101C10008800002070B50546FEF7E4FA014605F19C
:101C20001404D4E900205060D4E90002106064601C
:101C3000246095F835000A4A02EBC000026882422F
:101C400001D1012000E0002020B10648AB6B826882
:101C50009A438260BDE870400846FEF7C7BA0000AC
:101C6000D4120020880000202DE9F04105461646D8
:101C70001F460A4601212846FFF746FF2C4614342A
:101C800064602460AE836F720020BDE8F08170B59F
:101C900004460025FEF7A6FA064604F11400FFF7F5
:101CA00017FE40B1A08B401CA0833046FEF79EFA81
:101CB000012D06D007E06069143800F017FA0125FD
:101CC000F3E7FFF747FF002070BD73B50446FEF74A
:101CD00089FA0646A08B28B1401EA0833046FEF745
:101CE00085FA21E0019808B300F01EFA05460020AD
:101CF0002863627A294604F11400FFF78DFD0198EC
:101D0000002809DD05F1440001AA0021044600F085
:101D1000F7FA204600F034FB3046FEF767FAFFF78B
:101D200019FF286B002800D100207CBD3046FEF74B
:101D30005DFA6FF001007CBD08B509A0FFF79AFDC0
:101D40000AA0FFF797FD12A0032300900022194676
:101D500012A0FFF78FFDBDE8084018A0FFF78ABD6D
:101D60000A205C207C202F0A000000002D20525405
:101D7000202D2020202020546872656164204F703F
:101D800065726174696E672053797374656D0A00BA
:101D9000536570203135203230313800202F207CBF
:101DA000205C202020202025642E25642E25642000
:101DB0006275696C642025730A000000203230309F
:101DC00036202D203230313820436F7079726967A8
:101DD00068742062792072742D7468726561642061
:101DE0007465616D0A000000014600E0491C0A7834
:101DF000002AFBD1081A704710B5002A07D0034605
:101E000011F8014B03F8014B14B1521EF8D110BD6B
:101E1000002101E003F8011B521EFBD110BD0000A0
:101E200070B505460A46E81C20F0030122F00303C2
:101E3000182B21D9A3F118048C421DD3114C5A1A26
:101E4000183AE26021604FF4F5530B800C324A607F
:101E50000020886048804868084460600380012151
:101E60004180426082600023012207A10848FFF7F9
:101E7000FBFE2068A06070BD2946BDE8704005A04B
:101E8000FFF7F8BC300000206865617000000000BA
:101E9000B41200206D656D20696E69742C20657226
:101EA000726F7220626567696E2061646472657327
:101EB0007320307825782C20616E6420656E642054
:101EC0006164647265737320307825780A000000BD
:101ED00010B50A4B00245C800020094A02EBC001C7
:101EE00049600960401C0828F8DB072018705C6016
:101EF0009C6002480C304060006010BD88000020EB
:101F0000D412002010B5074CA068FEF7EBFE401E6F
:101F1000054951F8300014386060BDE810401C30AD
:101F2000FEF795B988000020D41200200020044A52
:101F300002EBC00149600960401C0028F8D07047DE
:101F4000A000002070472DE9FF478046DDE90C67BF
:101F5000894692461D4641460020FFF77EFD044615
:101F600020000FD02846FFF7D3FC68B18DE8E100D0
:101F700053464A4641462046FFF724F9204604B01E
:101F8000BDE8F0870020FAE72046FFF78BFD002030
:101F9000F5E700F0CFB8000070B513480468FEF70D
:101FA00021F905462046FFF735FE042084F8340069
:101FB00004F1440000F0BEF92046FFF7C3FD0128FC
:101FC00001D1206F58B104F114010848FFF76BFCF0
:101FD0002846FEF70BF9BDE87040FFF7BBBD204671
:101FE000FFF771FDF4E700008C0000209400002052
:101FF00000F002F8FCE7000070B527E0FEF7F2F809
:102000000646FEF7A3FE68B319480468A4F1140558
:10201000D4E900104860D4E90001086064602460DD
:10202000FFF758FA296F09B1284688472846FFF775
:1020300089FD01280FD0FFF75BFA3046FEF7D6F88E
:10204000A86AFFF76DFA2846FFF72CFDFEF77EFE23
:102050000028D3D170BDFFF74BFA3046BDE8704081
:10206000FEF7C4B83046BDE87040FEF7BFB80000C8
:10207000940000201FB52020C2000721094BCDE9A4
:102080000210CDE9003207480023074A07A178383B
:1020900000F010F804B00348BDE81040783800F0B4
:1020A00069B8000034110020F11F00087469646CE5
:1020B000650000002DE9FF5F8146DDE90E76DDE970
:1020C0001054884692469B46424600214846FFF7F8
:1020D0001BFDCDE90076CDE902545B4652464146F0
:1020E0004846FFF76FF804B0BDE8F09F70B50446AE
:1020F00094F8340000F00F00022802D04FF0FF30B7
:1021000070BDFEF76FF8054604F11400FFF7F7FB0A
:1021100004F1440000F09EF92846FEF767F82046D7
:10212000FFF752FD002070BD0148006870470000B5
:102130008C000020F1B5FEF755F805460C48046800
:10214000204600F02AF804F144006A4600210646C1
:1021500000F0D6F8304600F013F92846FEF746F8AE
:10216000FFF7F8FC206B801C00D120630020F8BD35
:102170008C00002010B534308178417001228A40F3
:102180004260022100F83419FFF7B0FFFFF7CCFFDF
:1021900008B1FFF7DFFC002010BD70B5044694F8CD
:1021A000340000F00F00012802D04FF0FF3070BD66
:1021B000FEF718F8054694F8340020F00F00801C54
:1021C00084F834002046FFF725FD04F1440000F0B8
:1021D00041F92846FEF70AF8002070BD10B5044604
:1021E0006FF00100206304F11400FFF788FB204624
:1021F000FFF7EAFCBDE81040FFF7ACBC70B5FDF797
:10220000F1FF06461348046894F8340000F00F000C
:1022100001281AD1D4E90501884216D004F114002E
:102220000546FFF76CFB94F835000B4901EBC00045
:1022300041680D6041686960456028603046FDF77F
:10224000D5FFFFF787FC002070BD3046FDF7CEFFBD
:10225000002070BD8C000020D412002001480068CE
:10226000704700002800002010B509490868401C8C
:102270000860FFF759FF016C491E016419B9C16B71
:102280000164FFF7BBFFBDE8104000F003B8000099
:102290002800002070B5FFF7E1FF0646FDF7A2FF1A
:1022A000054620E015480468143C6FF00041A06A20
:1022B000301A88421CD22046FEF7D3FFD4E907101B
:1022C0008847FFF7CBFF0646607A810708D5C1072C
:1022D00006D020F001006072204600F051F802E0C4
:1022E00020F0010060720548FFF7F9FA0028D9D004
:1022F0002846BDE87040FDF779BF0000A00000202F
:10230000002909D0012904D0022908D003290FD1BE
:102310000AE0406A10600BE01168416208E0417A0F
:1023200021F00201417203E0417A41F00201417261
:102330000020704770B50546FDF754FF0446284657
:10234000FEF78FFF2046FDF751FF2846FFF7BBFB46
:10235000002070BD2DE9F8430746DDE908841546E5
:102360001E460A4609213846FFF7CEFB4346324651
:10237000294638460094FEF761FFBDE8F883000067
:102380002DE9F8430446FDF72DFF05462046FEF7EC
:1023900068FF607A20F0010060722846FDF726FF92
:1023A000FFF75CFF616A0844A062FDF71BFF074668
:1023B000DFF89CC0CDF800C000226E460CEBC200D6
:1023C00045680DE00068A0EBC201A36A4969994223
:1023D00004D0C91A6FF00043994205D346F8220091
:1023E00056F82200A842EDD12AB156F82210083141
:1023F000531C46F82310521C002ADFD01448001F3B
:10240000D0F8008008F10108C0F8008004F1140140
:102410000098FFF74FFA02250EE05FEA88700DD1B1
:10242000C5F1010004EBC001143156F82000FFF79C
:1024300041FA4FEA98086D1C012DEED9607A40F000
:10244000010060723846FDF7D1FE0020BDE8F88338
:10245000A000002070B50446607AC0070ED0FDF7DA
:10246000C1FE05462046FEF7FCFE2846FDF7BEFEEF
:10247000607A20F001006072002070BD4FF0FF30E4
:1024800070BD00002DE9FF4F83B082460AEB0107C3
:102490007F1E5446A74201D24FF0FF374FF020096C
:1024A0004FF0250B12E1252804D0BC4200D8207043
:1024B000641C08E100250599491C059108782D2820
:1024C00014D02B2815D0202816D0232817D0302838
:1024D00018D04FF0FF384646059A1278303A0A2A4B
:1024E00013D205A800F033F906461AE045F01005AE
:1024F000E1E745F00405DEE745F00805DBE745F0D8
:102500002005D8E745F00105D5E72A2809D1491C5F
:102510000591069840C80690002E02DA764245F0F2
:102520001005059801782E2918D1401C05900178D6
:10253000A1F130020A2A04D205A800F008F9804669
:1025400007E02A2905D1401C0590069850F8048B15
:102550000690B8F1000F01DA4FF000080021059A4B
:102560001078682801D06C2802D10146521C0592CF
:102570000A23059800786F2871D00CDC632820D0DE
:1025800004DC25286CD058280DD187E0642801D0C0
:10259000692808D186E0702863D073282FD0752869
:1025A00071D078287CD0BC4201D884F800B0641C7B
:1025B00005990878002868D0BC4200D82070641CB7
:1025C00081E0E80605D507E0BC4201D884F8009018
:1025D000641C761E002EF7DC069810F8041B06908B
:1025E000C8B2BC4200D82070641C04E0BC4201D8D0
:1025F00084F80090641C761E002EF7DC63E00698D9
:1026000008C8069003B941A31846FFF7EDFBB8F1DF
:10261000000F02DD404500DD4046E90605D508E033
:10262000BC4201D884F80090641C3146761E814279
:10263000F6DC002106E0BC4201D81A782270641C46
:102640005B1C491C8142F6DB04E0BC4201D884F8E3
:102650000090641C3146761E8142F6DC33E01BE0BC
:1026600014E0701C02D1082645F00105CDE9006890
:1026700006980295102304C8069039462046FEF7B6
:1026800063FE04461FE00FE00AE028E0BC4201D8E8
:1026900084F800B0641C16E0082305E045F040050E
:1026A000102301E045F002056C291BD068291DD0DC
:1026B000069804C80690CDE9006839462046029580
:1026C000FEF742FE04460598401C059005980078E8
:1026D00000287FF4E8AEBC4211D8207010E0491EFB
:1026E0000591F0E7069804C80690E4E7069830F8EC
:1026F000041B06908AB2A807DDD512B2DBE738705A
:1027000007B0A4EB0A00BDE8F08F0000284E554C3E
:102710004C290000002070470020704700207047BF
:102720000020704710B5FDF75DFDFEF763FFFFF772
:1027300003FBFFF7FBFBFFF7CBFBFEF799FEFFF771
:1027400001FCFFF797FCFFF7DDFB002010BD10B583
:10275000024600206FF02F0407E04B1C136009783D
:1027600000EB800004EB4000084411680B78303B1C
:102770000A2BF2D310BD000012A0FEF7A3FA1BA093
:10278000FEF7A0FA1EA0FEF79DFA284E4FF47A75C8
:102790003046FDF7AFFF2846FFF7FBFB0120FDF7B2
:1027A0008FFF0028FAD0FDF795FF20F07F442146E7
:1027B0001FA0FEF787FA2046FDF79CFF2846FFF78B
:1027C000E8FBE5E70D0A20BBB6D3ADCAB9D3C3B168
:1027D000FCBBF0202053544D333220463430372098
:1027E000BFAAB7A2B0E5A1A30D0A00000D0A20C838
:1027F000ABB2CA4C4544B5C6C0FDB3CC0D0A00000F
:102800000D0A20CAB9D3C350574DBFD8D6C65247B8
:1028100042B5C6A3ACBFC9BFD8D6C6CAE4B3F6B8E2
:10282000F7D6D6D1D5C9AB0D0A20000000FFFF00B6
:102830000D0A20CBE6BBFAD1D5C9ABD6B5A3BA30C9
:102840007825303678000000000001000200010009
:102850000300010002000100040001000200010069
:102860000300010002000100050001000200010058
:102870000300010002000100040001000200010049
:102880000300010002000100060001000200010037
:102890000300010002000100040001000200010029
:1028A0000300010002000100050001000200010018
:1028B0000300010002000100040001000200010009
:1028C00003000100020001000700010002000100F6
:1028D00003000100020001000400010002000100E9
:1028E00003000100020001000500010002000100D8
:1028F00003000100020001000400010002000100C9
:1029000003000100020001000600010002000100B6
:1029100003000100020001000400010002000100A8
:102920000300010002000100050001000200010097
:102930000300010002000100040001000200010088
:1029400003000100020001003031323334353637E4
:10295000383961626364656600303132333435364C
:1029600037383941424344454600000021270008DA
:1029700019270008152700081D2700089C290008B2
:1029800000000020BC0000002C0D0008582A0008A0
:10299000BC0000205C1600003C0D00080095BA0A3F
:1029A00000000000000000000102030406070809FF
:1029B00000000000010203040102030406070809E5
:1029C0000000000000000000000000000000000007
:1029D00000000000000000000000000000000000F7
:1029E00000000000000000004C0000204C0000200F
:1029F00078000000010000005C0000205C00002066
:102A000020000000040000006C0000206C0000208A
:102A100030000000090000007C0000207C00002045
:102A20002C0000000000000000000000000000007A
:102A30000000000000000000000000000000000096
:102A40000000000000000000000000000000000086
:082A500000000000000000007E
:04000005080001AD41
:00000001FF
