:020000040800F2
:1000000008880020C1010008D7070008C7020008BF
:10001000D5070008490400087539000800000000F1
:100020000000000000000000000000006D09000852
:100030004B0400080000000013020008450A0008F5
:10004000DB010008DB010008DB010008DB01000820
:10005000DB010008DB010008DB010008DB01000810
:10006000DB010008DB010008DB010008DB01000800
:10007000DB010008DB010008DB010008DB010008F0
:10008000DB010008DB010008DB010008DB010008E0
:10009000DB010008DB010008DB010008DB010008D0
:1000A000DB010008DB010008DB010008DB010008C0
:1000B000B50A0008DB010008DB010008DB010008CD
:1000C000DB010008DB010008DB010008DB010008A0
:1000D000DB010008DB010008DB010008DB01000890
:1000E000DB010008DB010008DB010008DB01000880
:1000F000DB010008DB010008DB010008DB01000870
:10010000DB010008DB010008DB010008DB0100085F
:10011000DB010008DB010008DB010008DB0100084F
:10012000DB010008DB010008DB010008DB0100083F
:10013000DB010008DB010008DB010008DB0100082F
:10014000DB010008DB010008DB010008DB0100081F
:10015000DB010008DB010008DB010008DB0100080F
:10016000DB010008DB010008DB010008DB010008FF
:10017000DB01000869080008DB010008DB0100085A
:10018000DB010008DB010008DB010008DB010008DF
:10019000DB010008DB010008DB010008DB010008CF
:1001A000DB010008DB010008DB010008DFF80CD0F0
:1001B00000F0BEF800480047AB03000808880020A4
:1001C0000648804706480047FEE7FEE7FEE7FEE7F1
:1001D000FEE7FEE7FEE7FEE7FEE7FEE7590A000856
:1001E000AD010008EFF3108072B6704780F31088FD
:1001F00070473A4A1368012B04D04FF00103136093
:10020000374A1060374A116037484FF0805101601B
:100210007047EFF3108272B63048016851B34FF067
:10022000000101602E48016891B1EFF309811EF0D1
:10023000100F08BF21ED108B21E9F00F4FF00004E3
:100240001EF0100F08BF012441F8044D0068016042
:1002500024490968096808C9B1E8F00F002B18BFE4
:10026000B1EC108B81F309884EF0100E002B18BFF3
:100270002EF0100E82F310884EF0040E70471949CC
:100280000860EFF3148222F0040282F31488144908
:100290004FF00000086011494FF00100086013485A
:1002A0004FF47F01D0F8002041EA020101600E48BE
:1002B0004FF0805101600E480068006880F30888A4
:1002C00061B662B67047EFF3098000B505F01EFD18
:1002D0005DF804EB4EF0040E70470000B8020020F9
:1002E000B0020020B402002004ED00E020ED00E0A8
:1002F00008ED00E0421C10F8011B0029FBD1801A18
:10030000704730B50B46014600202022012409E049
:1003100021FA02F59D4205D303FA02F5491B04FABE
:1003200002F52844151EA2F10102F1DC30BD0000E7
:10033000064C074D06E0E06840F0010394E8070032
:1003400098471034AC42F6D3FFF734FFB01F0308D0
:10035000D01F030870B58C1810F8015B15F0070367
:1003600001D110F8013B2A1106D110F8012B03E04E
:1003700010F8016B01F8016B5B1EF9D12B0705D456
:100380000023521E0DD401F8013BFAE710F8013B9F
:10039000CB1A921C03E013F8015B01F8015B521EBB
:1003A000F9D5A142D8D3002070BD10B5FFF71AFFD0
:1003B00006F0D8FC002010BD10B5074C20600846A0
:1003C00000F00CF820680028FCD1BDE810400021A6
:1003D0004FF0804000F07FBBCC0100203EB50446CA
:1003E0004FF080450021284600F075FB00220121D6
:1003F000284600F088FB022C02D0012C03D005E037
:100400000B20019002E042F6DF6001900520ADF87C
:1004100000000020ADF80800ADF80200694628464B
:1004200000F07CFB0121284600F052FB0121284608
:1004300000F042FB01221146284600F064FB012136
:10044000284600F048FB3EBDFEE7704770B586B019
:100450000121084600F00EFA0121102000F026FAD2
:10046000204E07220A21304600F07EF8072209219B
:10047000304600F079F800248DF8164001208DF800
:10048000170002258DF81450410204918DF8155083
:1004900004A9304600F02AF88DF814506802049040
:1004A00004A9304600F022F84FF4E1300090ADF896
:1004B0000440ADF80640ADF80840ADF80C400C2003
:1004C000ADF80A00084C6946204600F07DFB01218A
:1004D000204600F065FB4021204600F05DFB06B0A1
:1004E00070BD000000000240001001402DE9F04105
:1004F000002201274FF0030C07FA02F50B682B408E
:10050000AB422CD1066853000CFA03F4A6430660F4
:100510000E79D0F800809E4046EA080606600E7903
:10052000012E01D0022E12D18668A64386604E7934
:10053000D0F808809E4046EA080686604668AE43CA
:10054000466045688E799640B6B235434560C568C9
:10055000A543C560CC799C40C3681C43C460521C51
:10056000102AC9D3BDE8F08110B54B07DB0E9A40C5
:10057000C90800EB8100016A0F249C40A14301627D
:10058000016A1143016210BD0246002012690A424D
:1005900000D00120704701837047000010B5012191
:1005A0000448FFF7F1FF012801D0002010BD012011
:1005B00010BD00000000024010B54FF40051044887
:1005C000FFF7E2FF012801D0002010BD012010BD7F
:1005D000000802404069806880B27047D0F8CC00C3
:1005E0000068C0F341407047084490F89B0370478F
:1005F00000EB8100D0F85003704710B5044600228C
:100600000023C4F8103304EB8200C0F81433C0F8A0
:100610005033A01880F88C33521CD2B20F2AF2D378
:100620000820A4F8B203204602F02AFA204601F07E
:10063000B9FF204601F0DAFE0121204602F082FADD
:10064000204601F027FF204601F0E6FF002010BD04
:10065000D0F81003704710B502F0FBF9002010BD70
:100660000022431883F89B2300EB4113C3F8C023F7
:1006700002F028B91CB50121084600F0FBF8012062
:10068000009000208DF804008DF807008DF805001B
:1006900069460248FFF72AFF1CBD00000000024027
:1006A0001CB50121042000F0E5F84FF40050009043
:1006B00000208DF804008DF807008DF805006946CC
:1006C0000148FFF713FF1CBD000802400160002134
:1006D0000171022242718271C1717047C90701D054
:1006E000002101710079704770B5044600256079DA
:1006F00001281DD0022811D00125022603281FD071
:1007000004280AD1E0790A30C0B2E0710A2804D383
:100710002068804750B1A571657170BD2068804721
:100720000028FAD0E5710420607170BD667170BD5B
:10073000206880470028FAD1E5710320607170BD00
:10074000E0790A30C0B2E0710A28F8D32068804707
:1007500008B1657170BDA57166712079401CC0B289
:100760002071FA28F6D9FA20207170BD2DE9FC41DC
:100770000121802000F07EF84FF480660096012170
:100780008DF8041000208DF806008DF807108DF804
:1007900005000F4F69463846FFF7A8FE7400009425
:1007A00069463846FFF7A2FE65000095694638465F
:1007B000FFF79CFE31463846FFF7EDFE21463846EE
:1007C000FFF7E9FE29463846FFF7E5FEBDE8FC8164
:1007D000001C0240FEE7704730B50F23C2780125A8
:1007E0000178002A1FD0154A126802F4E062C2F5AF
:1007F000E062C2F30722C2F10404D3404278A2406F
:1008000084781C401443220101F1E02181F8002486
:10081000007800F01F018D404009800000F1E020C9
:10082000C0F8005130BD01F01F008540480980002C
:1008300000F1E020C0F8805130BD00000CED00E078
:100840000249084302490860704700000000FA05A9
:100850000CED00E0024A114001430248016070477C
:1008600080FFFF1F08ED00E0014801F0B7BA00006B
:100870007C3F0020054A002903D011680143116024
:1008800070471168814311607047000030380240A2
:10089000054A002903D011680143116070471168AF
:1008A000814311607047000040380240054A00292A
:1008B00003D01168014311607047116881431160D2
:1008C000704700004438024070B5244B196801F0AD
:1008D0000C01234C00291ED0224E04291DD00829CA
:1008E0001DD00460196801F0F00109091E4A545C2A
:1008F0000168E14041601C6804F4E054A40A145DFE
:1009000021FA04F484601B6803F460435B0BD25C3F
:10091000D140C16070BD0460E4E70660E2E70F4AC1
:10092000121F1168C1F38055116801F03F0135B104
:10093000B6FBF1F11468C4F38814614305E0B4FB1D
:10094000F1F11468C4F3881461431268C2F30142E0
:10095000521C5200B1FBF2F10160C3E708380240BB
:100960000024F40040787D0114000020704700004E
:100970001CB50021019100912E4A106840F480308E
:1009800010604FF4A043106800F40030009001980C
:10099000401C0190009810B901989842F3D110685A
:1009A000800302D50120009000E00091009801280A
:1009B0003FD120484030016841F0805101601E491C
:1009C000086840F4404008601A4808300368036033
:1009D000036843F400430360036843F4A0530360D7
:1009E000041F164B2360136843F080731360136871
:1009F0009B01FCD50A6842F480320A604A68D2033F
:100A0000FCD50A6842F400320A604A689203FCD5B9
:100A10000B4A40F205711160016821F00301016089
:100A2000016841F0020101600168C1F381010229FE
:100A3000FAD11CBD00380240007000401954400734
:100A4000003C024010B505F003FA05F02DFFBDE8AB
:100A5000104005F00BBA000010B51248016841F4CF
:100A6000700101601048016841F0010101600E4A07
:100A700000210832116002680C4B1A400260031D0D
:100A80000B4A1A60026822F48022026006480C3089
:100A90000160FFF76DFF03494FF000608039086087
:100AA00010BD000088ED00E000380240FFFFF6FEB8
:100AB0001030002401F078BC002904D0018841F0F6
:100AC000800101807047018821F08001018070471A
:100AD000C94301827047002904D0018841F0010117
:100AE00001807047018821F00101018070470246B2
:100AF0000020138A0B4092890A40002B02D0002A62
:100B000000D001207047002A03D082890A438281E5
:100B1000704782898A4382817047000030B502881D
:100B2000164C174DA0420DD0A8420BD0B0F1804F0B
:100B300008D0144B984205D0134B984202D0134B67
:100B4000984203D122F070034A881A43104B98420E
:100B500006D0104B984203D022F440730A891A43FE
:100B600002804A68C2620A880285A04201D0A84277
:100B700001D1897A01860121818230BD00000140C6
:100B8000000401400004004000080040000C004048
:100B900000100040001400408A05C94301807047DE
:100BA000002904D0818941F40051818170478189F5
:100BB00021F40051818170470246002012880A42C8
:100BC00000D00120704700007FB504460D46208A02
:100BD00020F44051E88808432082A08941F20C614A
:100BE0008843A9882A8911436A8902431143A18154
:100BF000A08A20F44071A8890843A0826846FFF7C4
:100C000063FE1E48844202D01D48844201D10398ED
:100C100000E00298A189090408D500EBC00101EBAE
:100C2000001029684900B0FBF1F007E000EBC001BB
:100C300001EB001029688900B0FBF1F06422B0FBE1
:100C4000F2F109010B096FF018056B4300EB83000B
:100C5000A3891D044FF0320307D503EBC000B0FB9E
:100C6000F2F000F00700084306E003EB0010B0FBD1
:100C7000F2F000F00F00084320817FBD001001401A
:100C800000140140C1F308018180704770B504462B
:100C90000D46204600F02CF9A0F57F42FF3A05D022
:100CA00004EB400245F40041A2F88C15C0B270BDBF
:100CB00070B50D46194600EB4114012384F8AE339C
:100CC000C4F8B853C4F8BC2394F8C423002A06D04F
:100CD000022284F8B423FFF7C3FC002070BD002279
:100CE00084F8B423F7E770B50D46194600EB4114BC
:100CF000002384F8AE33C4F8B853C4F8BC2394F886
:100D0000C523002A06D0022284F8B423FFF7A8FCEA
:100D1000002070BD84F8B433F8E730B402240C75B9
:100D200001244C750024CC820A834C83150600EB09
:100D3000431202D582F8C44301E082F8C543002380
:100D400030BC1A4600F017B80121C0F8101300207B
:100D5000704770B50D46194600EB411404F56C74EC
:100D6000012304F8023C02232371A560E260FFF72F
:100D700077FC002070BD70B50C4611461A4601255F
:100D8000E078012802D0022819D105E0204601F0C0
:100D90006CFA0220E07012E0207F01210D2804D0BF
:100DA0000B2807D00C2808D009E0E170002020773C
:100DB000002504E0E170022501E0E17003252846EA
:100DC00070BD70B50D46194600EB4114002384F840
:100DD000AE33C4F8B853C4F8BC23002A02D10122B0
:100DE00084F8C52394F8C52332B1022284F8B423D1
:100DF000FFF736FC002070BD84F8B433F8E710B577
:100E00000C46114600EB411303F56C73002203F806
:100E1000022C03221A719C600822DA60FFF720FC82
:100E2000C0B210BD0221002200EB4103A3F88C25C3
:100E3000491CC9B20829F7D30020704770B5054690
:100E40000C46002121706170A1700122E2702277AE
:100E50004020A07184F8201084F8212021792846B0
:100E600000F021F86179284600F01DF8002070BDDF
:100E70000021C0F810130020704770B504460A2501
:100E800005290AD0042908D006290BD12570D4F8E9
:100E900080000068BDE870400047D4F88000406CD6
:100EA0008047257070BD082907D200EB4100B0F8DB
:100EB0008C15C1F30E01A0F88C150020704730B4DA
:100EC000DDE9025442F080020A7506224A75CB829F
:100ED0000322B2EB132F03D140F209420A8301E04F
:100EE00000220A834C8323462A4630BCFFF743BFC7
:100EF0000146002001EB4002B2F88C25120405D512
:100F0000401CC0B20828F5D34FF6FF7070470A881E
:100F100003781A440A800178084470472DE9FC4799
:100F200006460F461546002406F58878CDE900856B
:100F30004FF40073002239463046FFF7C0FFB0F18E
:100F4000000913D10B4805E0311991F81011015532
:100F5000641CA4B2AC42F7D3434607F1500207F138
:100F60003E0107F13400009500F0B4FF4846BDE8AB
:100F7000FC870000203900202DE9FC410E46154673
:100F800000F588744FF4807300223146CDE90045A6
:100F9000FFF795FF071E05D12A46214606F12200DC
:100FA00001F01AF83846BDE8FC812DE9FC411E46E7
:100FB000089D00F5887442F440730022CDE9004595
:100FC000FFF77DFF071E04D12A463146204601F077
:100FD00052F83846BDE8FC812DE9F05F80460C46AA
:100FE00000270020A074207F0B2509260121DFF8AF
:100FF000E4914FF0080B4FF0050A0C280FD2DFE800
:1010000000F0E6060F3B445F6D8790B3C5D9627967
:1010100004F114014046FFF7F2FE02202077D6E0EB
:1010200061794046FFF7E0FA012802D003281FD07B
:10103000CDE0207D00F08000618B59B141F2883114
:10104000A9F80010802802D084F81CA009E0032031
:10105000207706E03221A9F80010802806D007206A
:1010600020774046FFF7B6FA2082B0E02677F8E70F
:10107000257784F812A0AAE02379A2894046A168C6
:10108000FFF767FE04202077A1E021794046FFF7B3
:10109000ABFA012800D1267704280CD003280DD004
:1010A0004046FFF797FA218A401AB9F800108842A3
:1010B00000D925778BE06078207088E0257786E07E
:1010C000607908EB401080F8C5136379A289404627
:1010D000A168FFF776FE0620207778E06179404628
:1010E000FFF782FA012806D0042807D002280AD088
:1010F00003280BD06BE00720207768E06078207031
:101100000C20207763E084F81CA060E025775EE087
:101110000022237911464046FFF71BFE84F81CB0DD
:1011200055E021794046FFF75FFA0646012E0CD0C4
:10113000032E0FD04046FFF74DFA218A401AB9F826
:101140000010884208D9257741E0607820700D2092
:1011500020773CE025773AE0042E38D16078207083
:101160000420A074032732E0607908EB401090F867
:10117000C51381F0010180F8C5130022637911467F
:101180004046FFF71EFE0A20207720E061794046A6
:10119000FFF72AFA012804D0022807D0032807D035
:1011A00015E0607820700D20207710E026770EE0A3
:1011B00025770CE0A07B401CC0B2A073022801D8A8
:1011C000217704E084F812B0607820700227384656
:1011D000BDE8F09F980100202DE9F04192B007464C
:1011E0000C460126A1780025FF204FF001080A29AE
:1011F00027D2DFE801F00527375B657992ABC4CED3
:10120000082221463846FFF7B7FE002819D194F886
:101210002900A0713846FFF71EFA84F80280A079F1
:101220000023CDE9005061791A46384600F0BCFD34
:10123000A0790023CDE9005021791A46384600F004
:10124000B3FDA7E0122221463846FFF795FE00289D
:10125000F7D1D4F88000C16904F122008847022048
:10126000A07097E001222146384600F0E6FF0028F2
:101270001BD1022001F0B4F8A41C84F81E80D4F81D
:101280007E00006A80470320207000950195A27FB0
:10129000A1780023384600F087FD00950195A27FD4
:1012A000E1780023384600F07FFD73E009222146F3
:1012B0003846FFF733FE00286CD10420A07069E0A7
:1012C000E28E21463846FFF729FE002862D1D4F885
:1012D000800004F1500204F13E01436A04F134003D
:1012E00098470520A07055E094F8302006256AB193
:1012F000009002AB21463846FFF757FE28BBD4F8D2
:101300008000816A02A88847A57043E0D4F8800075
:10131000816A22A08847A5703CE094F83120072517
:101320006AB1009002AB21463846FFF73EFE60B935
:10133000D4F88000C16A02A88847A5702AE0D4F8D2
:101340008000C16A15A08847A57023E094F8322078
:1013500008256AB1009002AB21463846FFF725FE0A
:10136000C0B9D4F88000016B02A88847A57011E0CD
:10137000D4F88000016B09A08847A5700AE094F8B2
:1013800039202146384600F064FF18B90920A070C2
:1013900000E0002612B03046BDE8F0814E2F41003B
:1013A0002DE9F0410746069E884614461D463846FC
:1013B00000F0B8FF002000F09FFF21463846FFF7FD
:1013C0003DFD44F87C5F666041463846FFF715F9FD
:1013D0006068016888473846BDE8F04100F08EBF7C
:1013E00021220A75FF224A750022CA820A834A8393
:1013F00000231A46FFF7BFBC70B5044601200C4D10
:10140000002A02D0012A0BD105E02B78EA78204689
:10141000FFF783FC04E06B78AA782046FFF77DFC99
:10142000044A1169491C1161042900D9042070BDC6
:10143000603B0020A0010020014900200870704797
:10144000503B002070B5054601242846FFF700F9FF
:10145000F8B1124801782846FFF7CAF80D2801D0E4
:10146000022416E00E480F4A0168914210D1A0F103
:1014700020024168526891420BD1007B20B10128C3
:1014800007D0022802D004E0002402E0022400E099
:10149000022403481030C473204670BD603B002016
:1014A000403B0020555342530A490A22012803D0E9
:1014B000022800D10A707047074B1878401CC0B250
:1014C00018700A2804D2062008700120C8707047DE
:1014D0000A707047503B0020B4010020A1220A7519
:1014E000FE224A750022CA820A8301224A8301230E
:1014F000014AFFF740BC0000683B00202DE9F35F84
:101500000E4601240098FFF7A3F8002818D04F4D8D
:10151000DFF83CA14F4F28784FF00008A3464FF06A
:1015200008090B280CD2DFE800F0060C1A475461BA
:101530006E797E398C00009800F0BCF985F800B017
:1015400080E031460098FFF74BFF0446022004B9C3
:101550002870032C76D168700920287072E031461B
:101560000098FFF7BBFF044620004FF0030107D1AE
:101570009AF808008AF8080208B1787818B129703A
:10158000032C07D05EE087F801B0D6F88000006C2D
:10159000804757E069700920287053E07379002272
:1015A00031460098FFF7B9FB044620004AD18AF87B
:1015B00008826878287045E0009800F063FB10B15D
:1015C000FFF772FF3EE00420287087F800800024B7
:1015D00038E0009800F0B6FA10B1FFF765FF31E08F
:1015E0000520287087F8008000242BE0009800F088
:1015F000EDF910B1FFF758FF24E085F8009087F867
:10160000008000241EE0009800F0ECFA10B1FFF713
:101610004BFF17E068782870002413E031460098EB
:1016200000F01AF80EE0D6F88000C06B8047C0B218
:1016300010B1012803D005E085F8009002E00624EF
:1016400000E004242046BDE8FC9F0000503B002041
:10165000603B0020B40100202DE9F35F0098FEF705
:10166000F7FF002821D0904C052790482179904D14
:1016700000264FF008094FF0070B4FF002084FF01B
:10168000010A092911D2DFE801F01005123C71C0EE
:10169000D5EBF600844943781F2230390098FFF7D4
:1016A00022FB84F805A084F80480BDE8FC9F417803
:1016B0000098FEF799FF012808D002281ED00428C0
:1016C000F3D185F800A084F80490EEE72E6184F849
:1016D000058075483038017B01F08001806858B181
:1016E0006860A068A860E860802902D004202071AA
:1016F000DBE703202071D8E72771D6E760792071F6
:10170000D3E7804601780098FEF76EFF0146012975
:1017100002D06079032822D02E6103206071B8F8CE
:101720000420686882420ED298F80030A9680098B8
:10173000FFF7BEFAB8F804006968091A6960A96879
:101740000844A860B1E740B182B298F80030A968B7
:101750000098FFF7ADFA6E60A7E72771A5E70429A7
:10176000A3D12E7084F804B067719EE7804641785B
:101770000098FEF739FF0146012909D002292BD034
:10178000042992D185F800A084F8049067718CE751
:101790002E6104206071B8F80620686882420FD27A
:1017A00098F80130A9680098FFF79DFAA868E860EA
:1017B000B8F806100844A8606868401A686074E7C2
:1017C00040B182B298F80130A9680098FFF78BFA0F
:1017D0006E606AE7277168E7D5E9021081420AD096
:1017E000B8F8062098F80130009802B0891ABDE8D0
:1017F000F05FFFF778BA98F80130B8F80620009843
:1018000002B0BDE8F05FFFF76EBA67712649103984
:10181000A1603F22A2810D228E54521ED2B2002A14
:10182000FAD10E7003783F220098FFF741FA0620A4
:1018300020713AE701780098FEF7D6FE012805D01E
:10184000042889D12E7084F804B02EE72E616771C8
:10185000A0782070DDE90001FFF7F4FDE07324E7D4
:10186000DDE900010022FFF7C7FD28B104288ED171
:1018700084F80F8019E708E02878022802D0607900
:10188000207112E784F804900FE7DDE900010122DE
:10189000FFF7B2FD20B1042891D184F80F8004E74E
:1018A0006079207101E70000503B0020603B002080
:1018B000A001002010B5FEF7CBFE002148B108487A
:1018C000064A0260074A42604173054A01203032ED
:1018D000D070054801610548017010BD5553424361
:1018E000203B002050403020A0010020B401002007
:1018F00070B506460C4C00256178002907D03046AB
:1019000000F010FF61783046FFF7CDFA657021785E
:10191000002907D0304600F005FF21783046FFF758
:10192000C2FA257070BD0000603B00202DE9FC412B
:1019300006460C4694F84300082803D194F8450065
:10194000502806D0D4F88000006C80470020BDE805
:10195000FC8194F852101C4D080604D5E970B4F8C7
:101960005400A88003E0A970B4F85400E88094F80B
:101970005A10080604D5E970B4F85C00A88003E0AA
:10198000A970B4F85C00E880A9783046FFF77EF9CA
:101990006870E9783046FFF779F92870E8880227FF
:1019A000CDE900702034697863782278304600F001
:1019B00069FAA888CDE900706378227829783046E2
:1019C00000F060FAC2E70000603B002070B503241D
:1019D000FEF73EFE30B3214E214B0022F078012568
:1019E000012802D0022836D11DE01E493F248C6018
:1019F000802008730A208873B3600520B07010201F
:101A00000B18DA73401EC0B20028F9D11A20C8732F
:101A10004C74CC743571072030700320F0730220B1
:101A2000F070032417E0F07B20B101280ED00228CB
:101A30000FD010E0987801060948A0F1100001D5F8
:101A4000057300E00273F570002404E0F5700124D2
:101A500001E0F5700224204670BD0000503B0020DC
:101A60007C3D0020203B00202DE9FF4F81B08346C4
:101A70000E461F46304C4FF0030884F8008058464D
:101A8000FEF7E6FDC8B32D4A01254FF0020AD078D3
:101A90004FF00009012802D0022849D12EE0284940
:101AA0008F60802008730A208873966010200B18BE
:101AB00083F80F90401EC0B20028F8D12820C873C8
:101AC0009DF80F0048749DF80E0088749DF80D0075
:101AD000C8749DF80C000875780A00909DF8010004
:101AE00088759DF80000C87515710720107082F880
:101AF0000F8082F803A084F8008019E0D07B16469E
:101B000038B95846FEF7A4FD18B1F57084F8009076
:101B10000EE0F07B012805D15846FEF799FD08B18B
:101B2000F57005E0F07B022802D1F57084F800A082
:101B3000207805B0BDE8F08FC8010020503B0020A0
:101B4000203B002070B50324FEF782FD20B3224E17
:101B500001252248F178012902D002293AD11CE05E
:101B60001F4908228A6080220A730A228A73B060A1
:101B70000420B070102000220B18DA73401EC0B28F
:101B80000028F9D12520C873357107203070032053
:101B9000F0730220F07003241CE0F17B21B10129D5
:101BA00013D0022914D015E00C4902781039CA70FC
:101BB00042788A7082784A70C2780A7082794A7252
:101BC000C0790872F570002404E0F570012401E08A
:101BD000F5700224204670BD503B00207C3D002063
:101BE000203B002070B50324FEF732FD38B3224EAF
:101BF0000125224AF078012802D0022839D11FE0BD
:101C00001F493F248C60802008730A208873B260CB
:101C1000B07870700620B070102000220B18DA73B4
:101C2000401EC0B20028F9D10320C8730A74CC74D6
:101C3000357107213170F0730220F070032418E031
:101C4000F07B20B101280FD0022810D011E00B4802
:101C500011781038C1715178817191784171D178C2
:101C60000171F570002404E0F570012401E0F570C5
:101C70000224204670BD0000503B00207C3D002027
:101C8000203B002070B50324FEF7E2FC10B31A4E8F
:101C90000125F078012802D002282BD11BE017493A
:101CA00000228A600A73062088731548B0603F20BE
:101CB000B0810324B47010200B18DA73401EC0B238
:101CC0000028F9D1CA73357107203070F4730220EF
:101CD000F07003240EE0F07B20B1012805D002282B
:101CE00006D007E0F570002404E0F570012401E05F
:101CF000F5700224204670BD503B0020203B0020A0
:101D0000403B0020FFB581B00F461D460324FEF77F
:101D10009FFC98B3224E0123F078012802D00228BC
:101D20003BD12CE01F4A9560002414730A20907365
:101D3000B76010201118CC73401EC0B20028F9D132
:101D40002A20D0739DF80F0050749DF80E009074F7
:101D50009DF80D00D0749DF80C001075680A009075
:101D60009DF8010090759DF80000D0753371072033
:101D700030700320F0730220F07003240DE0F07B3C
:101D800020B1012805D0022805D006E0F370002418
:101D900003E0F37001E0F370022405B02046F0BDCB
:101DA000503B0020203B002070B5059D00EB411406
:101DB000002A01D084F8AC23B4F8B223AA4202D09E
:101DC0000DB1A4F8B25394F8AF239A4202D00BB1EC
:101DD00084F8AF3300F0D8FC002070BD38B505465C
:101DE000002400200090284600F008FE002847D07C
:101DF000284600F00AFE0090009808B9002038BD7F
:101E00000098C0F3C00018B1284601F089FD0443D2
:101E10000098C0F3001018B1284601F0CEFC04432E
:101E20000098C0F3401018B1284601F008FB0443A5
:101E30000098C0F3806018B1284601F027FC0443E5
:101E40000098C0F3406018B1284600F0D0FE04436B
:101E50000098C0F3006018B1284601F087FB0443E6
:101E60000098C0F3407018B1284600F087FE044384
:101E70000098C0F3405018B1284600F095FE044386
:101E80002046BCE72DE9F041DDE9067600EB41058F
:101E900095F88C4504F07F0C00EB411404F56B744D
:101EA00084F801C095F88C55C5F3C015A570227053
:101EB0006771E680E370002222766276A4F56B7487
:101EC000002B02D1012284F8B02300F05DFC002039
:101ED000BDE8F0812DE9FF4F85B007461299914684
:101EE0001C4618783870587878709878DA7800EB53
:101EF00002207880187938715A797A719A79BA7192
:101F0000DA79FA711A7A3A7209295FD909210191AD
:101F1000DFF8C08002284FD953E001A92046FEF720
:101F2000F6FF04466078042846D194F902600698CA
:101F300006EBC60101EB000BE07803283CD22146FA
:101F400002A800F085F800259DF80C00022833D87F
:101F50002EE001A92046FEF7DAFF04466078052846
:101F600026D109EB061000EBC50A98F80000B04234
:101F700006D088F8006002A9584600F069F80BE026
:101F80002079617900EB0120B8F80210884213D360
:101F900002A9584600F05CF82146504600F048F887
:101FA0002079617900EB0120A8F802006D1C6DB268
:101FB0009DF80C00A842CCDC7888BDF8041088425B
:101FC000ABD80020A8F8020088F8000009B0BDE8EE
:101FD000F08F00009A01002010B50B7803704B7849
:101FE00043708B78CC7803EB042343800B79037127
:101FF0004B7943718B798371CB79C371082A16D9D8
:102000000A7A4B7A02EB032202818A7ACB7A02EBBC
:10201000032242810A7B4B7B02EB032282818A7B73
:102020008273CA7BC2730A7C0274497C417410BDFE
:102030000A7802704A7842708A788270CA78C270D0
:102040000A794B7902EB032282808979817170478A
:102050000A7802704A7842708A788270CA78C270B0
:102060000A7902714A7942718A798271CA79C27198
:10207000097A0172704710B54378032B11D10378A8
:102080009C1E944200DC9A1E93B2801C002204E045
:10209000845C01F8014B921C92B29A42F8D3002062
:1020A000087010BDFEB506460C4602250295304666
:1020B000FEF7CEFA20B9207810B1022800D02570A2
:1020C0002078002704F120050B2847D2DFE800F034
:1020D00006129D464764788654468D003046FEF7CA
:1020E000B7FA00283AD001202070BDE8FE406420F5
:1020F00000F076B9D4F8800080688047002130462F
:10210000FEF7C4FD607180213046FEF7BFFD2071EF
:102110003046FEF7A0FA002820D1241DE06FC068E9
:1021200080473046FEF75AFAC0B26077042104F8BF
:10213000041CE16F89698847A078CDE90070637F4E
:10214000227F21783046FFF79DFEA078CDE9007010
:10215000637F227F61783046FFF794FEFEBD214603
:102160003046FFF739F80028F8D1D4F88000406BEA
:10217000804708202070FEBDD4F88000806B804727
:102180000128F8D1E06F21460268304690470028C8
:10219000F1D105202070FEBDE06F214682683046F7
:1021A000904702909DF8080038B19DF8081003B0E0
:1021B0002046BDE8F040FEF760BE06202070FEBD60
:1021C000E06F2146C2683046904702909DF80810A3
:1021D00003B02046BDE8F040FEF74FBE03B02146F5
:1021E0003046BDE8F040FEF7F7BE21463046FEF728
:1021F00025FED4F8800040688047E06F2946426899
:1022000003B03046BDE8F0401047D4F880000069C4
:10221000804721463046FEF711FED4F88000406822
:102220008047E06F29464268304690473046FEF7C7
:10223000F9FD2770FEBD0020704730B400230B75F8
:1022400005244C75CA820B834B8330BC1A46FEF7BB
:1022500092BD30B400230B7509244C75CA820B83E0
:102260004B8330BC1A46FEF786BD037843700723C4
:1022700003708160828101210177002070474879D5
:102280007047704770470000014902A001F074BB1D
:102290004E1E03083C3C2D5553422D494E464F2DB2
:1022A0003E3E2025730A0000014902A001F064BBF4
:1022B000631E03083C3C2D5553422D494E464F2D7D
:1022C0003E3E2025730A00007047704770477047F4
:1022D00003480178002901D10121017070470000F5
:1022E0001802002000207047704770477047704701
:1022F00070477047012070477047704708B54FF42A
:10230000C060FEF79DFA4D208DF8000001208DF889
:10231000010003218DF802108DF803006846FEF7D6
:102320005BFA08BD1CB501210220FEF7A3FA4FF4A9
:102330004040009003208DF8050002208DF8040035
:102340000A4C69462046FEF7D1F80C220E212046A1
:10235000FEF70AF90C220F212046FEF705F90121AC
:102360004807FEF787FA00F003F81CBD000402409E
:1023700008B500214FF00060FEF76CFA4FF4A06042
:10238000FEF75EFA1C208DF8000001208DF8010098
:102390008DF802008DF803006846FEF71DFA012152
:1023A0000846FEF775FA08BD10B501218C072046D6
:1023B000FEF79DFB002809D001212046FEF788FB8F
:1023C00006490A681AB10868401E086010BD204618
:1023D000BDE810400021FEF77EBB0000CC010020CC
:1023E0000121FDF7E9BF0221FDF7E6BF3EB5044636
:1023F00000250020029001900090217AE0680129D8
:1024000019D0C16841F040010291C160204600F03E
:102410009BF84FF434100190607A10B14FF47410AF
:102420000190E168019888631420FFF7D9FFE078F4
:10243000012824D02CE0816B21F480310191627A53
:1024400012B141F48011019101998163E068C16882
:1024500021F0400141F4801121F4800121F4003188
:1024600021F400210291C160204600F06DF8E0786F
:102470000128DCD12A200090E1688860D7E7E06875
:10248000816821F01E010A3141F020010091816034
:1024900028463EBDFEB504460027002500260296CC
:1024A000019600962046FFF727FFD4F80C0106603E
:1024B000207A01280FD00121204600F093FA20460F
:1024C00000F0C7FA6069016821F004010091016021
:1024D000E07A28B11AE00021204600F083FAEEE706
:1024E000E1684FF400704862ADF808004010ADF8A4
:1024F0000A00E268029991624FF44071ADF804104D
:10250000ADF80600E1680198C1F8000110212046ED
:1025100000F0CCF8204600F0ABF84FF0FF3107E0B8
:1025200004EB850050F8902F91600068C6606D1C28
:102530002078A842F4D80121204600F03BF820463C
:1025400000F072F83846FEBDF8B5054600270024B5
:1025500000200090124E0320FFF745FFE868006955
:102560000090641CB44201D90020F8BD00980028F6
:10257000F1DA0021009840F0010000900098EA682C
:102580001061E86802690092491CB14202D8009AC1
:10259000D207F7D10320FFF726FF3846F8BD000029
:1025A000400D03000022C068816821F001018160B4
:1025B0001046704738B504460D4629462046FFF7B9
:1025C0009CFE204600F026FA0090C10407D4012D9D
:1025D00005D140F480500090D4F8CC1008600098E9
:1025E000C10406D52DB920F480500090D4F8CC1049
:1025F0000860BDE83840C820FFF7F2BEC2684FF05F
:10260000FF315160C2686FF0804151610149C0687B
:1026100081617047000800800022C068816841F035
:10262000010181601046704738B50446002500203E
:102630000090E1688861E168401E48612046FFF72C
:10264000DDFFE07808B910200090009840F080701D
:1026500040F0007040F0005040F0080040F40010DE
:10266000E1688A69824302438A61284638BD0000D6
:1026700038B50025002100220092009A42F0100295
:102680000092009AC3681A61074BC26814690094EB
:10269000491C994202D8009CE006F7D40320FFF7BA
:1026A000A2FE284638BD0000400D030038B50025C5
:1026B000002200230093009B43F020030093009B23
:1026C00061F38A1300930099C3681961074BC168CD
:1026D0000C690094521C9A4202D8009CA006F7D4C0
:1026E0000320FFF780FE284638BD0000400D0300A0
:1026F000C068406900F00100704710B50346002033
:102700004FF00042012464F3DC4203EB810151F8F5
:10271000903F1A6109680A6842F0004222F0804244
:102720000A6010BD10B586B000230022039201920A
:1027300000EB8101D1F89020116841F0004141F097
:102740008041009111F4402F0BD0C1F38144022C41
:1027500007D0406900690190019810F47F0F0BD0F9
:102760000DE0C068C06A0390039810F47F0F06D193
:1027700021F00040009002E021F00040009000981D
:10278000106006B0184610BDFFB500260025029562
:10279000039501956A1E009200EB8104D4F89030F5
:1027A0009A60C278012A01D10422039200EB4112FF
:1027B00092F8B13333B1012B36D0022B02D0032B68
:1027C00042D11CE0039B43F0010343F0080343F0B4
:1027D000800343F4806343F01003039392F8AE73D5
:1027E0001FB143F4807303932EE043F0400303933F
:1027F00092F8B07347B343F02003039324E0039BA4
:1028000043F0010343F0100343F0080343F0800357
:1028100043F4806343F40073039392F8AE739FB163
:1028200043F4807303930FE0039B43F0010343F4ED
:10283000007343F02003039392F8AE7327B143F083
:10284000800343F480730393D4F89070039BFB6080
:1028500001238B4041698F691F438F614FF00071E5
:102860000291C068816941F00071816192F8AC0306
:1028700060F39C5592F8AD0360F3CE2592F8AE0359
:1028800060F3CF35019592F8AF0302280DD025F4FF
:10289000003092F8B11361F39340B2F8B22362F3BF
:1028A0000A000190032903D005E045F40030F0E769
:1028B00040F000500190D4F890100198086004B0E6
:1028C0003046F0BDF0B588B0054600264FF4807C58
:1028D000002206920792009205EB4114D4F8BC73D3
:1028E000002F0DD0B4F8B233F818401EB0FBF3F04F
:1028F00080B2604505D960461B02C4F8BC3300E0D5
:10290000012094F8AE3323B1B4F8B2334343C4F892
:10291000BC33D4F8BC3363F3120260F3DC4294F8A6
:10292000B40360F35E72069205EB8103D3F8900066
:102930000261E878012804D1D3F89020D4F8B803D4
:10294000506153F8900F0268284600F051F860F388
:102950005D7242F0004020F0804007901A681060DD
:10296000E878E0BB94F8AE03C8BBD4F8BC33B3B38B
:1029700094F8B10330B1012815D0022802D0032801
:1029800023D110E0E868C26A0392DB1CC3F38F0214
:10299000039B9BB2934218D220220092826942F09C
:1029A0002002826111E0686900690190DB1CC3F3B9
:1029B0008F00019A92B2824207D24FF0806000905D
:1029C000E868826942F080628261B4F8BC030A461A
:1029D00083B2D4F8B8030146284600F0B7FF08B028
:1029E0003046F0BD4069026861F301020260704741
:1029F0004069806840F30000401C704700B5FFF755
:102A000077FE012800D0002000BDC06841698069C0
:102A100008407047D0F8CC00006820F0040020F097
:102A2000020020F0080020F0200070474069406953
:102A3000704710B5044608460021D21C9308D4F80C
:102A4000D02003E0146840F8044B491C9942F9D3A4
:102A500010BD70B505462846FFF7DCFF40F48074D2
:102A600055F8CC0F04600A20FFF7BAFC24F48070FC
:102A7000296808601420FFF7B3FC012070BD000036
:102A800070B5002200250024C47001238370402605
:102A900086800226012901D059B115E04FF0A042ED
:102AA000C37208210170042141709115C180067222
:102AB0000AE0234AC4720C210170062141704FF4D0
:102AC000A061C1800672C370C26002F5006101613D
:102AD00000210AE002EB411300EB810403F51066CC
:102AE000A66103F530636365491C43788B42F1D8D6
:102AF00002F5806141614031C0F8CC10002108E04E
:102B000002EB411300EB810403F5A063C4F890309D
:102B1000491C03788B42F3D8002108E002EB013313
:102B200000EB810403F58053C4F8D030491C0378CE
:102B30008B42F3D802F56062C0F80C21284670BDC4
:102B40000000044038B50024C368D86820F0005065
:102B500020F080420092012901D021B106E042F02C
:102B60000050009002E042F0804000900098D86051
:102B70003220FFF735FC204638BD000038B504464A
:102B80000020009007480068816820468847009828
:102B900020F0005000F1005000900098E16848617A
:102BA000012038BD940100200CB50146D1F89000F9
:102BB00000680090009820F0004000F10040009074
:102BC000009820F0804000F180400090009AD1F8F9
:102BD0009000026000200190019820F4001000F5A0
:102BE000001001900198CA68506101200CBD7CB5AD
:102BF0000546002400262846FFF718FF019000BF75
:102C00001BE0019880B20121A1400840A0B105F16C
:102C1000900050F82400006800900098C0F3C03085
:102C200028B12146284600F00DF8064304E021466D
:102C3000284600F01CFA0643641C2878A042E0D81D
:102C400030467CBD70B586B005460C4605F1900057
:102C500050F82460B0680590F0680490DDE9041035
:102C60000840059005F1900050F82400006803909A
:102C7000002004900598C0F38000D0B1002001909E
:102C8000019820F00400001D01900198B06005F14A
:102C9000900050F82400C0680190019820F00200D4
:102CA000801C019005F1900050F824000199C1604A
:102CB00073E00598C0F3401048B1002001900198DE
:102CC00020F02000203001900198B06065E0059868
:102CD000C0F3C00078B305F1900050F82400C0683C
:102CE0000190019820F00200801C019005F19000F5
:102CF00050F824000199C160052105F56370015564
:102D000000200190019820F01000103001900198EF
:102D1000B06000200190019820F008000830019078
:102D20000198B060059820F010000590E1B22846A7
:102D3000FFF7F8FC31E0FFE70598C0F3802060B3AF
:102D400005F1900050F82400C0680190019820F02F
:102D50000200801C019005F1900050F824000199B8
:102D6000C160E1B22846FFF7DDFC00200190019828
:102D700020F01000103001900198B060082105F596
:102D80006370015500200190019820F4806000F5E7
:102D9000806001900198B06000BF0598C0F34020AA
:102DA000F8B105F1900050F82400C0680190019836
:102DB00020F00200801C019005F1900050F82400E2
:102DC0000199C160E1B22846FFF7ACFC00200190F8
:102DD000019820F4007000F5007001900198B06037
:102DE00042E1059800F00100002871D0E878012840
:102DF00012D105F1900050F824000069029005F509
:102E00006B7000EB441000690299C1F31201411A82
:102E100005F5547040F82410012105F56370015543
:102E20000021783840F8241000200190019820F00B
:102E30000100401C01900198B0600398C0F38140EC
:102E400020B10398C0F3814002282AD105F19000F7
:102E500050F82400C0680190019820F00200801C06
:102E6000019005F1900050F824000199C160E1B291
:102E70002846FFF757FC00200190019820F0100031
:102E8000103001900198B06005F56B7000EB4410B4
:102E9000007E80F0010105F56B7000EB44100176B7
:102EA000E2E00398C0F38140032899D1039820F011
:102EB000005000F10050039005F1900050F82400FC
:102EC00003990160012105F29B300155CCE0FFE739
:102ED0000598C0F34000002851D005F1900050F84B
:102EE0002400C0680190019820F00200019005F1D3
:102EF000900050F824000199C16005F56370005DF1
:102F0000012804D1012105F29B3001552DE005F582
:102F10006370005D052804D1042105F29B30015542
:102F200023E005F56370005D062804D005F56370A5
:102F3000005D082808D1002105F5457040F82410EF
:102F400003218730015510E00398C0F38140032826
:102F50000BD105F56B7000EB4410007E80F0010191
:102F600005F56B7000EB441001760020019001988C
:102F700020F00200801C01900198B06074E0059878
:102F8000C0F3C01040B305F1900050F82400C068B1
:102F90000190019820F00200801C019005F1900042
:102FA00050F824000199C16005F5457050F82410CF
:102FB000491C40F82410062178300155E1B228461A
:102FC000FFF7B0FB00200190019820F080008030D6
:102FD00001900198B06047E00598C0F30010E8B395
:102FE0000398C0F38140032815D105F1900050F8F3
:102FF0002400C0680190019820F00200801C01901C
:1030000005F1900050F824000199C160E1B2284612
:10301000FFF788FB18E00398C0F3814020B10398C4
:10302000C0F3814002280FD1039820F0004000F146
:1030300000400390039820F08040039005F1900039
:1030400050F8240003990160032105F563700155D0
:1030500000200190019820F0100000E004E0103002
:1030600001900198B06000BF012006B070BD7FB52F
:1030700005460C4605F1900050F82460B0680390B6
:10308000F0680290DDE902100840039005F190001D
:1030900050F82400006801900398C0F38000D0B17C
:1030A00000200090009820F00400001D009000987F
:1030B000B06005F1900050F82400C06800900098BE
:1030C00020F00200801C009005F1900050F82400D0
:1030D0000099C160B0E10398C0F3401048B10020EE
:1030E0000090009820F02000203000900098B06000
:1030F000A2E10398C0F34020F8B105F1900050F828
:103100002400C0680090009820F00200801C00900D
:1031100005F1900050F824000099C160E1B2284602
:10312000FFF700FB00200090009820F4007000F5ED
:10313000007000900098B0607EE1039800F00100FC
:1031400038B3002105F5457040F8241005F19000D2
:1031500050F82400C0680090009820F00200801C05
:10316000009005F1900050F824000099C160E1B290
:103170002846FFF7D7FA00200090009820F00100C1
:10318000401C00900098B060012105F56370015566
:1031900052E10398C0F3C00010B3002000900098E3
:1031A00020F00800083000900098B06005F1900011
:1031B00050F82400C0680090009820F00200801CA5
:1031C000009005F1900050F824000099C160E1B230
:1031D0002846FFF7A7FA052105F5637001552BE195
:1031E0000398C0F3001038B3002105F5457040F88E
:1031F000241005F1900050F82400C0680090009859
:1032000020F00200801C009005F1900050F824008E
:103210000099C160E1B22846FFF784FA00200090CF
:10322000009820F01000103000900098B06003214A
:1032300005F563700155FFE00398C0F3C01040B37B
:1032400005F1900050F82400C0680090009820F02C
:103250000200801C009005F1900050F824000099B5
:10326000C160E1B22846FFF75DFA05F5457050F8F8
:103270002410491C40F82410062178300155002004
:103280000090009820F08000803000900098B0609E
:10329000D2E00398C0F3801038B3002105F54570E3
:1032A00040F8241005F1900050F82400C068009008
:1032B000009820F00200801C009005F1900050F86A
:1032C00024000099C160E1B22846FFF72BFA0020E4
:1032D0000090009820F04000403000900098B060CE
:1032E000042105F563700155A6E00398C0F3802022
:1032F00060B305F1900050F82400C0680090009879
:1033000020F00200801C009005F1900050F824008D
:103310000099C160E1B22846FFF704FA002000904E
:10332000009820F01000103000900098B060082144
:1033300005F56370015500200090009820F480602E
:1033400000F5806000900098B06075E00398C0F3CD
:103350004000002870D005F1900050F82400C068AB
:103360000090009820F00200009005F1900050F8C5
:1033700024000099C16005F56370005D012815D136
:10338000012105F29B3001550198C0F381400228CC
:1033900048D105F56B7000EB4410407E80F00101D0
:1033A00005F56B7000EB441041763BE005F563706A
:1033B000005D032804D1022105F29B30015531E064
:1033C00005F56370005D04280FD105F56B7000EB07
:1033D00044100079012803D1E1B22846FFF78DF9A6
:1033E000022105F29B3001551CE005F56370005D7C
:1033F000052804D1042105F29B30015512E005F5A2
:103400006370005D06280DD105F5457050F8240065
:10341000032807D1032105F29B300155002187388D
:1034200040F8241000200090009820F00200801C3A
:1034300000900098B06000BF012004B070BD7FB55F
:103440000446E068C06A00900198C0F3C30104F527
:103450006B7000EB41100069C01CC0F38F0673E075
:103460004FF6FF71009801EA80050198C0F3C3018F
:1034700004F56B7000EB41100069A84215D2019869
:10348000C0F3C30104F56B7000EB4110008A85B2F4
:1034900000200390039820F0200020300390E06883
:1034A000806903998843E16888610198C0F3C3018A
:1034B00004F56B7000EB41100069C01CC0F38F066F
:1034C0000198C0F3C302C0F3C30304F56B7000EBB3
:1034D00043102B46C168204600F038FA0198C0F32B
:1034E000C30104F56B7000EB4110C06841190198ED
:1034F000C0F3C30204F56B7000EB4210C160019889
:10350000C0F3C30104F56B7000EB41100069411B6F
:103510000198C0F3C30204F56B7000EB4210016127
:103520000198C0F3C30104F56B7000EB41104069D2
:1035300041190198C0F3C30204F56B7000EB42100F
:103540004161E068C06A0090009880B2B0420ADD34
:103550000198C0F3C30104F56B7000EB41100069E2
:1035600000287FF47DAF012004B070BDFEB5044695
:10357000002600250020009002900190D4F8CC0095
:1035800000680290D4F8CC0000680190019820F007
:1035900004000190019820F002000190019820F0B1
:1035A00008000190019820F0200001900298C0F3DB
:1035B000400058B1019820F00200801C0190324870
:1035C000006841682046884745F001050298C0F32D
:1035D000C000002842D0019820F008000830019077
:1035E0000298C0F38000002838D02748006841685E
:1035F000204688470298C0F34140022804D0029830
:10360000C0F34140012828D1606900680090029809
:10361000C0F34140022811D141F2707160694160EC
:10362000009800F00300022818D0207A022803D165
:1036300002212046FFF7D6F901260FE04BF6803134
:1036400060694160009800F00300012806D0012164
:103650002046FFF7C7F9012600E001260298C0F3D3
:10366000401030B1019820F020002030019045F04A
:10367000010516B12046FFF7ECF90199D4F8CC000A
:1036800001602846FEBD000094010020FEB50446FE
:103690006069006900900198C0F3C30104F56B7084
:1036A00000EB41100069C01CC0F38F0674E04FF6B8
:1036B000FF71009801EA80050198C0F3C30104F589
:1036C0006B7000EB41100069A84216D20198C0F35C
:1036D000C30104F56B7000EB4110008A85B2002035
:1036E0000290029820F0806000F180600290E06813
:1036F000806902998843E16888610198C0F3C30139
:1037000004F56B7000EB41100069C01CC0F38F061C
:103710000198C0F3C302C0F3C30304F56B7000EB60
:1037200043102B46C168204600F010F90198C0F301
:10373000C30104F56B7000EB4110C068411901989A
:10374000C0F3C30204F56B7000EB4210C160019836
:10375000C0F3C30104F56B7000EB41100069411B1D
:103760000198C0F3C30204F56B7000EB42100161D5
:103770000198C0F3C30104F56B7000EB4110406980
:1037800041190198C0F3C30204F56B7000EB4210BD
:103790004161606900690090009880B2B0420ADD22
:1037A0000198C0F3C30104F56B7000EB4110006990
:1037B00000287FF47CAF0120FEBD30B585B0044603
:1037C000002000900390039820F010001030039028
:1037D000E068806903998843E1688861E068006A6D
:1037E0000490049800F00F00009004F190009DF800
:1037F000001050F82100006801900498C0F3434085
:10380000022806D0032878D0052877D0072873D15E
:1038100075E00498C0F30A10002869DD04F56B70A8
:103820009DF8001000EB4110C068002860D004989B
:10383000C0F30A1204F56B709DF8003000EB4310E2
:10384000C1682046FFF7F5F8049800F00F0104F571
:103850006B7000EB4110C0680499C1F30A11014478
:10386000049800F00F0204F56B7000EB4210C16089
:10387000049800F00F0104F56B7000EB41104069F3
:103880000499C1F30A110144049800F00F0204F5F1
:103890006B7000EB4210416104F56B709DF80010F5
:1038A00000EB4110456904F554709DF8001040F894
:1038B000215004F190009DF8001050F8210000699B
:1038C00002900298C0F3C940002811DD019820F051
:1038D000004000F100400190019820F080400190EC
:1038E00004F190009DF80020019950F82200016039
:1038F00006E002E002E0FFE700BF00BF00BF00BF3C
:1039000000BF039820F0100010300390E068806939
:1039100003990843E1688861012005B030BD0000CB
:1039200038B504460020009007480068016820462A
:103930008847009820F00800083000900098E1685F
:103940004861012038BD00009401002030B50546D3
:103950000020EC78002C0CD1DB1C9B0805EB8202CC
:10396000D2F8D02003E051F8045B1560641C9C423F
:10397000F9D330BDFEE700000FB4054B10B503A925
:10398000044A029800F05AF810BC5DF814FB0000DD
:103990002D510008BC0200200FB4084B10B504A93B
:1039A00002AA039800F04AF8044602A9002000F099
:1039B00081F9204610BC5DF814FB0000B53C0008FE
:1039C000002807D00F4910F0FF0F05D0C0B2085CE7
:1039D000401C70470020704710F47F4F04D0C0F3A4
:1039E0000720085C0930704710F47F0F04D0C0F343
:1039F0000740085C1130704701EB10600078193007
:103A0000704700007B1E030802E008C8121F08C1AF
:103A1000002AFAD170477047002001E001C1121F4F
:103A2000002AFBD17047000003480168814201D0A1
:103A30000120704700207047980200202DE9FF4FB9
:103A40008BB09A460F460546002606E025280BD087
:103A500052460D9990476D1C761C28780028F5D1A8
:103A60000FB03046BDE8F08F0024A0460122604927
:103A700000E0044315F8013F203B02FA03F008423E
:103A8000F7D128782E2817D115F8010F44F0040437
:103A90002A280ED06FF02F022878A0F130010929D2
:103AA0000AD808EB880102EB410100EB01086D1C0C
:103AB000F2E757F8048B6D1C287869283ED006DCA5
:103AC0000028CDD063280BD0642804D136E07328B9
:103AD00010D075284BD052460D999047761C85E042
:103AE00017F8040B8DF8000000208DF80100E9465E
:103AF000012003E057F8049B4FF0FF3061074FF0BF
:103B0000000401D40AE0641C44450DDA8442FADB67
:103B100019F804100029F6D106E0641C8442FCDB8D
:103B200019F804100029F8D1264404E019F8010B13
:103B300052460D999047641EF8D257E001CF4FF0DE
:103B40000A0B002802DA40422D2102E0210504D5AB
:103B50002B218DF82410012103E0E10705D020215D
:103B6000F7E70DF1200908910CE00021F9E701CFFA
:103B70004FF00A0BF9E75946FCF7C3FB01F130029D
:103B800009F8012D0028F6D1ADEB090000F1200B5A
:103B9000600701D44FF00108D84502DDA8EB0B0007
:103BA00000E000208046002406E009A85246005D9F
:103BB0000D999047641C761C08988442F5DB04E05C
:103BC000302052460D999047761CB8F10001A8F1BB
:103BD0000108F5DC05E019F8010B52460D999047F4
:103BE000761CBBF10001ABF1010BF4DC6D1C34E77A
:103BF000092801002DE9FC411F46DDE90A65DDE9E0
:103C00000831044604F11400406000601C34626016
:103C1000A760E36021610A462321184602F03AFAC0
:103C2000D4E903014218D4E90101121F0D4B02F03F
:103C3000EFF82060A67666760020E0612562656276
:103C4000606120766065A0651C3C00900190234671
:103C5000054A214604F1440002F09CFE0020BDE824
:103C6000FC810000196600081D68000810B5029C60
:103C700024F001044472C161026200218162436246
:103C800000EBC102143252601260491C0129F7DBBB
:103C900010BD10B5002200EBC2011431D1E9004380
:103CA0006360D1E90034236049600960521C012A35
:103CB000F1DB10BD0A68531C0B60107070470000E8
:103CC00010B5044600202071401EE062204601F03D
:103CD000F2FB08B1032010BD94F82E0294F82F12C5
:103CE00040EA0120A0F52A41553901D0022010BD3B
:103CF00014F8660FE178627840EA0161A078663CCA
:103D0000000440EA022001430B48B0EB012F01D12F
:103D1000002010BD14F8821FE278637841EA026146
:103D2000A278120442EA03221143B0EB012F01D121
:103D3000002010BD012010BD0046415400E0401C91
:103D400002780AB18A42FAD100787047891E426926
:103D5000921E8A4201D800207047826A807801FB57
:103D6000002070472DE9F05F81460F46387820F03B
:103D70004000401E00EB800101EBC004002601253D
:103D8000DFF85CA007F101084FF6FF7B1AF8060088
:103D9000395C10F8080041EA00207DB100F0A0FF76
:103DA0000546FF2C07D22046641C39F8100000F0AD
:103DB00097FFA84206D00020BDE8F09F584501D0EB
:103DC0000020F9E7761C0D2EE0D33878400605D5A3
:103DD00025B139F8140008B10020EDE70120EBE728
:103DE0004C7100082DE9F04106460F46002F08D01F
:103DF0003946304601F0F8F9022809D20120BDE821
:103E0000F081F56815B17069A84207D8012505E071
:103E1000411CF4D071698142F1D83D462C46641CA6
:103E20007069A04204D80224022D01D20020E6E7E6
:103E30002146304601F0D8F938B1411CDFD00128C5
:103E4000DDD0AC42EBD10020D9E76FF070422146C3
:103E5000304601F041FC28B927B1224639463046A8
:103E600001F03AFC20B101280DD001242046C6E71C
:103E7000F4603069411CF9D0401E3061707940F027
:103E800001007071F2E74FF0FF34EFE72DE9F35FC7
:103E90008846D8F8006000E0761C30782F28FBD0E8
:103EA0005C28F9D00098D0F81CA0002425462846AC
:103EB0006D1C305C202808D32F2806D05C2804D045
:103EC000FF2C09D30620BDE8FC9F7119C8F800102B
:103ED00020282AD2042532E0C0B2A0F181017D2938
:103EE0000ED829466D1C715CA1F140023F2A04D313
:103EF000403A7F2A01D30620E5E701EB002080B29B
:103F0000012100F0C1FE074647B1802F08D2394693
:103F100065A0FFF713FF18B10620D4E70620D2E70B
:103F20002046641C2AF81070C1E7002507E0601ED7
:103F30003AF81000202801D02E2802D1641E002C4F
:103F4000F5D154B100202AF8140000980B2220214A
:103F5000806901F0A8FA002702E00620B3E77F1C81
:103F60003AF817002028FAD02E28F8D01FB145F0D3
:103F7000030500E0641E24B1601E3AF810002E28EC
:103F8000F8D14FF00008C1464FF0080B38467F1CAF
:103F90003AF8106006B3202E03D02E2E04D1A7428B
:103FA00002D045F00305F1E7D84501D2A74219D167
:103FB000BBF10B0F0ED0A74201D045F003050BD883
:103FC00027464FF008084FF00B0B4FEA89604FEA85
:103FD0001069DBE745F00305009880690178E52961
:103FE0003DD03EE0802E08D3304600F079FE00211F
:103FF00000F04AFE064645F00205FF2E0FD9ABF150
:104000000100804503D345F00305D846BEE700987C
:10401000310A8269404608F10108115418E026B1BE
:10402000314624A0FFF78AFE18B15F2645F003054C
:104030000EE0A6F14100192802D849F0020907E074
:10404000A6F16100192803D849F00109203EB6B253
:1040500000988169404608F101080E5496E7052151
:104060000170BBF1080F03D14FEA89604FEA106974
:10407000C9F38100032803D06FEA0901890701D140
:1040800045F00205A90709D409F00301012901D16E
:1040900045F01005012801D145F008050098806918
:1040A000C57200200FE70000222A3A3C3E3F7C7F89
:1040B000000000002B2C3B3D5B5D000070B5054609
:1040C0000E460021284600F0E4F988B90024296949
:1040D000286801F0F0F958B969690978E5290BD029
:1040E00051B100240121284600F06DF80028EED0DF
:1040F000042800D1072070BD641CB442F8D0F1E759
:104100002DE9F04704460021204600F0C2F90028BE
:1041100057D1FF26B1464FF6FF7AA4F820A02169B7
:10412000206801F0C8F980465FEA080048D1676955
:104130003D7865B1F87A00F03F00E52D03D0010726
:1041400008D50F2806D0FF26A4F820A030E04FF0B5
:10415000040835E00F2801D0CEB11DE0E06938B386
:10416000690606D597F80D9025F040052E46E188A2
:104170002184B54208D1797B494505D13946FFF7FD
:10418000F1FD08B1761E00E0FF26F6B210E03846D9
:1041900002F05EFE484513D0A169C87AC00704D179
:1041A0000B22384601F069F950B1FF26A4F820A08F
:1041B0000021204600F007F880465FEA0800AED0F4
:1041C0004046BDE8F0872DE9F04104460E46E788F9
:1041D0007F1C3804000C0AD0216941B12068428953
:1041E0005209B7FBF2F302FB13721AB166E0042026
:1041F000BDE8F081491C2161E16871B14289837891
:104200005209B7FBF2F25B1E1A4257D100F0ECFFE5
:104210000546012D06D80220EAE70089B8424DD8AC
:104220000420E5E7681C14D020684169A9423FD802
:104230008EB1E168FFF7D6FD054628000DD0012DAF
:104240000DD0681C0DD0206802F069FE58B1012025
:10425000CEE70120CCE70420CAE70720C8E7022008
:10426000C6E70120C4E7206800214289303001F010
:104270001AF929462068FFF769FD2168C8620026FF
:104280004FF001080CE080F80480206802F047FE3F
:1042900008B10120ACE72068C16A491CC162761CE4
:1042A00020688178B142EED82168C96A891BC16251
:1042B000E56029462068FFF749FD2061E780206816
:1042C00041894909B7FBF1F201FB1271302202EB7F
:1042D00041110844606100208AE72DE9F047054656
:1042E0008946FF26B046042748E0286801F0E3F835
:1042F0000746380045D1686904787CB1C17A01F07D
:104300003F01E52C08D02E2C06D021F02002082AEF
:1043100006D000224A4505D0FF261FE0042730E0E2
:104320000122F7E70F2901D026BB1FE0610606D561
:1043300090F80D8024F040042646E9882984B44290
:104340000AD1417B414507D1EA690146104601F097
:10435000CDF808B1761E00E0FF26F6B2002128460F
:10436000FFF731FF0746380008D00AE002F070FD81
:10437000404506D04FF6FF70288402E029690029E5
:10438000B3D10FB1002028613846BDE8F0872DE990
:10439000FE430446A769E6690C223946684601F0E7
:1043A00079F89DF80B00C00718D00020F872E06182
:1043B00001252B4632466946384600F0C9FE2046A4
:1043C000FFF79EFE10B96D1C642DF2D3642D0BD047
:1043D00004280AD19DF80B00F872E6619DF80B00E5
:1043E00080070ED5002003E00720BDE8FE83401CB7
:1043F00036F810100029FAD119300D21B0FBF1F672
:1044000000E0012631462046FFF758FE0546012709
:104410001DBB761E21D0E088811B204600F039F8B4
:104420000546280019D1A06902F012FD80462169D5
:10443000206801F040F805467DB9F2B24346616953
:10444000E06900F007FE2068077100212046FFF7B1
:10445000BAFE05460DB9761EE9D1C5B921692068B5
:1044600001F029F80546280011D1202200216069B9
:1044700001F019F8D4E905010B2201F00BF8A0694D
:104480006169C07A00F01800087320680771284637
:10449000ABE770B504460D46E580A368012B03D059
:1044A00020684169994201D8022070BD1BB901788A
:1044B000032900D1436A2BB141898078490911FB56
:1044C00000F618E00189A94201D8022070BD406AB7
:1044D00017E01946206800F087FE0346581C07D0F5
:1044E000022B03D320684069984203D8022070BD94
:1044F000012070BDAD1BB542EBD219462068FFF715
:1045000025FCE36098B121684A895209B5FBF2F2B3
:104510001044206148894009B5FBF0F200FB1250BD
:10452000302202EB401008446061002070BD022080
:1045300070BD000010B501240348FCF789F800B1F4
:104540000024204610BD00007C3F0020002909D037
:10455000012909D04FF4007002290AD003290BD099
:104560000420704700207047054800681060002054
:1045700070471080002070471060002070470000D6
:104580006C3D00202DE9F0410E4617461D460024E3
:104590000D48FCF75DF888B16D022B463A4631466E
:1045A0000948FDF761FA044608490748FDF754F841
:1045B0000548FCF74DF808B1032CEED014B10120EA
:1045C000BDE8F0810020FBE77C3F0020284500206B
:1045D000002070472DE9F0410E4617461D46002485
:1045E0000D48FCF735F888B16D022B463A46314646
:1045F0000948FDF787FB044608490748FDF72CF8F2
:104600000548FCF725F808B1032CEED014B10120C1
:10461000BDE8F0810020FBE77C3F0020284500201A
:1046200010B50446204600F004FA002806D12046C2
:1046300002F076FD002801D10021216010BD0000AC
:1046400017B581B0144602980090684600F0C0FE8D
:10465000002802DA0B2004B010BD0B4B53F82010D9
:10466000002201B10A700199002900D00A7043F8B4
:10467000201001D0012C01D00020ECE7002202A97B
:1046800001A800F043FBE6E7143900202DE9F747C5
:10469000ADF50D7D0646002E0FD04FF00008C6F890
:1046A000008002F01F0727F001028EA984A800F005
:1046B0002DFB0546280005D092E009200DF5107D60
:1046C000BDE8F08781A88A9001A88B9084A88E9974
:1046D00000F0F6FC0546899C0DB904B9062517F0D3
:1046E0001C0F4DD04DB1042D03D184A8FFF74FFE10
:1046F000054647F00807899C08E0E07A10F0110FA2
:1047000001D0072502E0780700D50825BDBB380792
:1047100041D500F0E9FDA073010AE173010C217499
:10472000000E607484F80B8084F81C8084F81D806F
:1047300084F81E8084F81F802146849800F069FE6A
:1047400081460021204602F07BFB849901200871FC
:10475000B9F1000F1FD08498D0F82CA04946849856
:1047600001F08AF90546280015D18498A9F10109BC
:10477000C0F80C905146849800F09DFE05460AE072
:104780004DB9E07AC10601D5042504E0B90702D588
:10479000C00700D007253DB9380701D547F02007ED
:1047A0008498C06AF0613462D5B9B77186F8078021
:1047B0002146849800F02DFE3061207FE17F627FEA
:1047C00040EA0160A17F090441EA02210843F06048
:1047D000C6F80880C6F8188084983060C088B08019
:1047E00028466BE733B5ADF5057D0546002D07D0AE
:1047F000002286A984A800F089FA044624B126E0A4
:1048000009200DF5077D30BD8498286081A8A86136
:1048100001A8E8612846869900F052FC04469CB93C
:10482000696941B1C87AC00604D5849800F0F1FDE9
:10483000A86000E005243CB98498C088A8800021C5
:104840002846FFF726FE0446042C00D105240CB1AF
:10485000002028602046D4E72DE9F84F044688461A
:10486000164699460020C9F80000204602F058FC80
:10487000002812D1E07900280FD1A079C0070BD011
:10488000D4E90210401A864200D9064604F12400F9
:104890004FF0010A009098E00720BDE8F88F2268E9
:1048A000A0685189B0FBF1F301FB1303002B6DD11C
:1048B000B0FBF1F193785B1E1940CDB275B940B1F0
:1048C0001046616900F090FC022804D20220E071D9
:1048D000E3E72069F8E7411C1CD06061616920684A
:1048E000FFF734FAD0B100EB050B20684189B6FB25
:1048F000F1F74FB38178EA198A4200D94F1B40780B
:104900003B465A464146FFF73DFE50B184F807A0AA
:104910000120C2E784F807A00120BEE70220E07171
:10492000BBE7A07940060BD5A069A0EB0B00B8420D
:1049300006D221684A89009900FB028000F0AAFD96
:10494000206845897D4336E0A2695A451CD0A1798B
:1049500049060DD5407801230099FFF73BFE18B1B9
:1049600084F807A0012098E7A07920F04000A0710A
:10497000206801235A4640780099FFF703FE18B1DA
:1049800084F807A0012088E7C4F818B02068A1685F
:104990004089B1FBF0F200FB1212851AB54200D932
:1049A0003546B1FBF0F200FB1210011924312A4602
:1049B000404600F06FFDA844A0682844A060D9F8E4
:1049C00000002844C9F80000761B002E7FF467AF72
:1049D000002062E770B5ADF5047D04460E46204622
:1049E00002F09EFB002810D15EB181A8A06101A851
:1049F000E06100212046FFF770FC0025042807D065
:104A000008E000212046FFF744FD0DF5047D70BD50
:104A1000256100200028F8D13146204600F068FCCE
:104A200000212046FFF7CFFB0428EED125610020AE
:104A3000EBE770B50446204602F072FB00280ED169
:104A4000A1798A060BD548060ED52068012304F10A
:104A500024014078A269FFF7BDFD08B1012070BDB7
:104A6000A07920F04000A071E169206800F023FDEA
:104A70000028F4D1256AE87A40F02000E872207B13
:104A80002877A089000A6877E068000CA877E068BA
:104A9000000EE8772846216902F0D2F900F024FCE4
:104AA000A875010AE975010C2976000E68760020C8
:104AB000A874E874A07920F02000A071216801207A
:104AC00008712068BDE8704002F0CFB92DE9F84FB9
:104AD00004468846164699460020C9F8000020463C
:104AE00002F01EFB002806D1E079002803D1A0794E
:104AF000800702D40720BDE8F88FA068811900D391
:104B0000002604F124004FF0010A0090ADE0226875
:104B1000A0685189B0FBF1F301FB1303002B7DD199
:104B2000B0FBF1F193785B1E1940CDB2F5B968B1D5
:104B300010466169FFF756F9002870D001280DD0A2
:104B4000411C0ED06061216979B10FE02069002815
:104B5000F2D100211046FFF745F9EDE70220E071A0
:104B6000C9E784F807A00120C5E72061A0794006C5
:104B70000FD520680123A26940780099FFF72AFD2C
:104B800018B184F807A00120B5E7A07920F0400013
:104B9000A07161692068FFF7D9F8B0B100EB050B8F
:104BA00020684189B6FBF1F737B38178EA198A4268
:104BB00000D94F1B40783B465A464146FFF70AFD55
:104BC00030B184F807A0012095E70220E07192E758
:104BD000A069A0EB0B00B8420AD221684A8900FB09
:104BE0000281009800F056FCA07920F04000A071EE
:104BF000206845897D432EE0A169594510D0D4E94C
:104C0000021291420CD2407801235A460099FFF7D4
:104C1000B9FC28B184F807A001206CE702E027E086
:104C2000C4F818B02068A1684089B1FBF0F200FB1D
:104C30001212851AB54200D93546B1FBF0F200FBDD
:104C40001210204424302A46414600F023FCA0796B
:104C500040F04000A071A844A0682844A060D9F8A2
:104C600000002844C9F80000761B002E7FF44FAFE7
:104C7000D4E90201884200D9E060A07940F0200028
:104C8000A071002037E7000070B580281FD345F2DF
:104C9000205409B1104D00E0104D00231022E11AFC
:104CA00001EBD17103EB610135F82160864207D039
:104CB00001D20B4600E00C46A2F10102002AEED11F
:104CC00032B14FF0010000EB410035F8100070BD2B
:104CD0004FF0000070BD00000AC601088671000890
:104CE0000021084B00E0491C33F811200AB1824230
:104CF000F9D133F81120002A02D0034830F811000E
:104D0000704700008E1A03086E1C03082DE9FF4748
:104D10008046084616460027C8F8007000F058FB89
:104D20000546280003D50B2004B0BDE8F087C54830
:104D300050F825408CB1C8F80040207820B1607848
:104D4000FFF746FCC1070AD02770E8B26070FFF792
:104D5000F1FBC1070AD00320E6E70C20E4E71EB10F
:104D6000400701D50A20DFE70020DDE71EB140073C
:104D700001D50A20D8E7607804F10A020221FFF782
:104D8000E5FB30B96089B0F5007F02D3B0F5805FF4
:104D900001D90120C8E7002529462046FEF790FFEB
:104DA000012826D10021E84604EB011000F5F77038
:104DB000027952B1027AC37A42EA0362837A407A74
:104DC0001B0443EA0020024300E0002248F82120AF
:104DD000491C0429E8D3002658F8265025B1294655
:104DE0002046FEF76DFF00E0022010B1761C042E75
:104DF000F2D3032802D018B10D2095E7012093E7E4
:104E000094F83B0094F83C10B4F80AC040EA012042
:104E1000604501D00D2087E794F8460094F84710CC
:104E200040EA012058B914F8540FE178627840EA5A
:104E30000160A1780904543C41EA02210843A061C1
:104E400094F840A084F803A0BAF1010F04D0BAF19D
:104E5000020F01D00D2067E70AFB00FA94F83D200D
:104E6000A27012B1511E0A4201D00D205CE794F8E5
:104E7000411094F8423041EA032323814FEA5C1643
:104E8000B3FBF6F106FB113109B10D204CE794F8A4
:104E9000431094F8448041EA082179B994F85010FD
:104EA00094F8538094F8519041EA086194F8528044
:104EB0004FEA084848EA092841EA080194F83E8088
:104EC00094F83F9048EA0929B9F1000F08D0B3FBE4
:104ED000F6F609EB0A08B044414503D20D2023E75A
:104EE0000D2021E7A1EB0801B1FBF2F141B301264E
:104EF00040F6F672914200D302264FF6F6729142C6
:104F000000D30326891C6161E56105EB0902226279
:104F1000A844C4F82880032E14D03BB352446262E4
:104F2000022E25D001F0010201EB410102EB5101FB
:104F3000491E6144B1FBFCF181421BD90D20F3E60F
:104F40000D20F1E60BB10D20EEE694F85C2094F80C
:104F50005F3094F85D8042EA036294F85E301B048F
:104F600043EA08231A4362628900E1E70D20DBE689
:104F70004900DDE74FF0FF302061E0608020607184
:104F8000032E57D194F8600094F8611040EA012094
:104F900001284FD1691C204600F08DFAF0BB6771E3
:104FA00094F82E0294F82F1240EA0120A0F52A412D
:104FB00055393FD114F8300FE178627840EA01604A
:104FC000A178303C090441EA022108431E49884285
:104FD00030D194F8140294F8171294F8152240EA8C
:104FE000016094F81612090441EA022108431749A6
:104FF00088421FD194F8180294F81B1294F81922D1
:1050000040EA016094F81A12090441EA02210843B7
:10501000206194F81C0294F81F1200E00AE040EAB4
:10502000016094F81E1294F81D22090441EA02213D
:105030000843E060267006490888401C0880E0802C
:10504000002071E6143900205252614172724161B0
:10505000840100202DE9F0434B730F23CB72002312
:105060000B738B76CB76531E03EB830404EBC305E3
:1050700000231C46114E01F1010C4FF6FF77BB4295
:1050800003D02B466D1C30F8133016F8048001F85D
:10509000083016F804904FEA132809F80C8003B979
:1050A0003B46641C0D2CEAD3BB4202D030F81500FD
:1050B00008B942F040020A70BDE8F0834C71000864
:1050C00073B50446019908782F2801D05C2801D1D6
:1050D000491C01910025A56001980078202805D27F
:1050E00000212046FFF7D5F965617CBD01A9204666
:1050F000FEF7CCFE0028F8D12046FFF701F8A169A1
:10510000C97A28B10428F0D14907EED405207CBD26
:105110004907FCD46169C87AC00601D405207CBD6A
:10512000206800F076F9A060E0E7000070B5044662
:10513000064DE1B22846FBF7A5FD80212846FBF786
:105140003BFD0028F9D0204670BD00000010014052
:105150007CB5054616461C460B22284600F09AF9F7
:10516000052C11D91F480CE0B61C002322460C4622
:1051700062F35F044908E20300D544405B1C102B36
:10518000F4D331880029EFD107226B4604F00F01D8
:105190003031392901D9C91DC9B21046521E1954DE
:1051A0002409002CF2D17E2098540021541E06E0E0
:1051B00081387D2802D8A14206D0491C491C914261
:1051C00002D2685C2028F3D1082A03D21046521C70
:1051D000185C00E020200C46491C28550829F3D310
:1051E0007CBD0000211001002DE9F04104460D4670
:1051F000022D02D36069A84201D8012609E04FF0D0
:10520000FF362078012807D0022835D003284BD05C
:1052100001263046BDE8F08105EB55076089216A1B
:10522000B7FBF0F00144204600F045F90028F0D12A
:1052300060893946B1FBF0F200FB121121447F1C5A
:1052400091F83080B7FBF0F0216A0144204600F06D
:1052500032F90028DDD16089B7FBF0F100FB117055
:10526000204490F8300048EA0020E90701D0060900
:10527000CFE7C0F30B06CCE76089216A4008B5FB95
:10528000F0F00144204600F016F90028C1D16189F0
:105290006800B0FBF1F201FB1200204430300178CD
:1052A000407841EA0026B4E76089216A8008B5FBAE
:1052B000F0F00144204600F0FEF80028A9D16189F1
:1052C000A800B0FBF1F201FB12002044303001785D
:1052D000C27841EA026182784078120442EA0020F2
:1052E000014321F0704694E7004870470000FC42FB
:1052F0002DE9F0410E4606F109050169002937D074
:10530000436900242146641C5A5C202A17D0052AD0
:1053100000D1E522092C02D12E2105F8011BA2F1B2
:105320004101192909D81F7B092C01D3102100E064
:1053300008210F4201D02032D2B205F8012B0B2CEC
:10534000E0D3D97A3172197FDA7F5C7F41EA02615A
:105350009A7F120442EA042211433160197E5A7E78
:1053600041EA0221B180997DDA7D41EA0221F18092
:105370004FF0000885F80080B769002F26D0002480
:10538000016909B3F169F9B1018CA1F57F42FF3AD6
:105390001AD0C56914E00021FFF776FC58B1FF2848
:1053A00003D9020A2146641C7A54F169491EA142BC
:1053B00003D8002408E0002406E02146641C785449
:1053C00035F8020B0028E6D107F80480BDE8F0812B
:1053D00010B504464FF0FF302368002B0BD0194660
:1053E00000E0491C0A78202A01D33A2AF9D10A7828
:1053F0003A2A01D0002010BD13F8012B303A0A2AB6
:10540000F9D28B42F7D1032AF5D21046491C21600C
:1054100010BD0246887ECB7E40EA03201278032A24
:1054200005D10A7D497D42EA012140EA01407047E9
:105430001CB514200321CDE900104FF400630022B5
:10544000064907A001F0C1F80749486018B101F00A
:10545000B1F900201CBD4FF0FF301CBD756F000876
:1054600074657374000000002400002010B500F083
:105470005BFBBDE81040FFF7DBBF10B50023521EF9
:10548000541C05D010F8013B11F8014B1B1BF6D042
:10549000184610BD03E011F8013B00F8013B521E15
:1054A000531CF8D17047C9B201E000F8011B521E2D
:1054B000531CFAD1704770B504460E460025E06AC9
:1054C000B04210D0204601F02AFD05465DB9607853
:1054D0000123324604F13001FFF754F810B14FF0C8
:1054E000FF360125E662284670BD00002DE9F04137
:1054F0000A7802F03F02521E02EB820303EBC20263
:1055000000230125144F4E1C4FF6FF7CFC5C11F864
:105510000480A45D48EA042455B1FF2A02D3002088
:10552000BDE8F08190462546521C20F8184003E063
:10553000644501D00020F3E75B1C0D2BE6D309780E
:10554000490606D5FF2A01D30020E9E7002120F80B
:1055500012100120E4E700004C71000830B5134C34
:1055600041682268114402F1080388420DD04D8839
:105570005DB96568A94208D0A5688D4200D1A060D8
:105580004D6845604968851ACD5081681144814253
:105590000BD04D88002D08D1A568854200D1A160AF
:1055A00044684C604068891AC15030BD2402002014
:1055B0002DE9FF4FDDE90DB60F9D6C0602D5DFF832
:1055C00014A103E0DFF80CA1AAF1110AEC0601D541
:1055D00025F00105EC0702D04FF0300901E04FF053
:1055E00020090027AC070BD5002A02DA2D275242EA
:1055F00006E06C0701D52B2702E02C0700D52027F9
:105600000024EE467AB9302201248DF800200CE007
:105610000A2B15D002F00F081209A4461AF80880C8
:10562000641C0EF80C80002AF2D1B44200DD26463C
:10563000ABEB060215F0110F4FF0200309D016E076
:105640004FF00A0CB2FBFCF80CFB1828B2FBFCF282
:10565000E3E73FB1002A05DD521E03E0884200D88F
:105660000370401CB2F1000CA2F10102F6DC27B17C
:10567000884201D80770521E401CED0605D508E08F
:10568000884201D880F80090401C151EA2F101024A
:10569000F6DC302703E0884200D80770401C35460E
:1056A000761EA542F7DC05E0884202D81EF80450B9
:1056B0000570401C251EA4F10104F5DC03E08842BE
:1056C00000D80370401C141EA2F10102F7DC04B0E4
:1056D000BDE8F08F8C1F03082DE9F04704460D4606
:1056E0001646022D02D36069A84202D80220BDE806
:1056F000F087207806F0FF094FF00108012805D057
:10570000022842D003285AD00220F0E705EB5507C3
:105710006089216AB7FBF0F001442046FFF7CBFE19
:105720000028E4D1384661897F1CB0FBF1F201FB0F
:10573000120020443030E90703D0017869F31F11CB
:1057400000E03146017084F804806089216AB7FB6B
:10575000F0F001442046FFF7AEFE0028C7D1618972
:10576000B7FBF1F201FB127121443031EA0702D09C
:10577000C6F3071205E00A78C6F3032302F0F0022D
:105780001A430A7084F80480B1E76089216A4008EE
:10579000B5FBF0F001442046FFF78DFE0028A6D1AE
:1057A00062896900B1FBF2F302FB1311214481F815
:1057B0003090320A81F8312084F8048097E76089BC
:1057C000216A8008B5FBF0F001442046FFF773FE24
:1057D00000288CD16289A900B1FBF2F302FB1311FE
:1057E000214430314FF07043CA7803EA02623243F9
:1057F0000A70130A4B70130C8B70120ECA7084F867
:10580000048074E710B52DA0FEF7B6F80A2236A181
:105810003B48FEF73BFF3B4C2070002815D03AA0D8
:10582000FEF7AAF83FA0FEF7A7F801222EA1344800
:10583000FEF72CFF2070002825D044A0FEF79CF82E
:10584000BDE810402E48FEF7EBBE46A0FEF794F8E8
:105850002C4B4422083303F213112948FFF736F981
:10586000207038B101464FA0FEF786F82448FEF7B5
:10587000D7FED7E751A0A168FEF77EF8584959A096
:10588000FEF77AF8F2E75FA0FEF776F81D4B4FF4CB
:105890008062083360491A48FEF7DEFF207020B1AD
:1058A00001465EA0FEF768F8CAE762A0A168FEF7AD
:1058B00063F8594968A0FEF75FF8C1E70D0A2A2A84
:1058C0002A2A2A2A20BCB4BDABBDF8D0D0CEC4BC95
:1058D000FED0B4C8EBB2E2CAD42E2E2E202A2A2A39
:1058E0002A2A2A0D0A000000303A4661744673B62F
:1058F000C1D0B4B2E2CAD4CEC4BCFE2E7478740057
:10590000F018002024000020A3A1A3A1B4F2BFAA94
:105910002FB4B4BDA8CEC4BCFECAA7B0DCA1A30DF1
:105920000A0000002A2A2A2A2A2A20BCB4BDABBDBC
:10593000F8D0D0CEC4BCFEB6C1C8A1B2E2CAD42E43
:105940002E2E202A2A2A2A2A2A0D0A00A3A1A3A140
:10595000B4F2BFAACEC4BCFECAA7B0DCA1A30D0A94
:1059600000000000A1B7B4F2BFAA2FB4B4BDA8468E
:1059700061744673B6C1D0B4B2E2CAD4CEC4BCFE20
:105980002E747874CEC4BCFEB3C9B9A6A3ACCFF252
:10599000CEC4BCFED0B4C8EBCAFDBEDDA1A30D0AC7
:1059A00000000000A3A1A3A1CEC4BCFED0B4C8EBEC
:1059B000CAA7B0DCA3BA282564290A00A1B7CEC4BF
:1059C000BCFED0B4C8EBB3C9B9A6A3ACD0B4C8EB85
:1059D000D7D6BDDACAFDBEDDA3BA25640A00000031
:1059E0003F010020A1B7CFF2CEC4BCFED0B4C8EBBB
:1059F000B5C4CAFDBEDDCEAAA3BA0D0A25730D0A31
:105A000000000000A1B7B4F2BFAACEC4BCFEB3C967
:105A1000B9A6A1A30D0A0000C0020020A3A1A3A162
:105A2000CEC4BCFEB6C1C8A1CAA7B0DCA3BA2825A3
:105A300064290A00A1B7CEC4BCFEB6C1C8A1B3C9CF
:105A4000B9A62CB6C1B5BDD7D6BDDACAFDBEDDA399
:105A5000BA25640D0A000000A1B7B6C1C8A1B5C33C
:105A6000B5C4CEC4BCFECAFDBEDDCEAAA3BA0D0A23
:105A70002573200D0A0000002DE9F04104460F4671
:105A8000022F02D36069B84201D8022624E0002622
:105A90001FE039462046FFF7A7FB0546E5B1012D7B
:105AA00009D0681C09D0002239462046FFF714FEB1
:105AB00006468EB903E002260EE001260CE02069BE
:105AC000411C05D0401C2061607940F001006071EC
:105AD0002F466069B842DCD83046BDE8F08100004E
