:020000040800F2
:1000000028170020C1010008C90100088B02000860
:10001000CD010008CF010008D10100080000000058
:10002000000000000000000000000000D3010008F4
:10003000D501000800000000130200081910000894
:10004000DB010008DB010008DB010008DB01000820
:10005000DB010008DB010008DB010008DB01000810
:10006000DB010008DB010008DB010008DB01000800
:10007000DB010008DB010008DB010008DB010008F0
:10008000DB010008DB010008DB010008DB010008E0
:10009000DB010008DB010008DB010008DB010008D0
:1000A000DB010008DB010008DB010008DB010008C0
:1000B000DB010008DB010008DB010008DB010008B0
:1000C000DB010008DB010008DB010008DB010008A0
:1000D000DB010008DB010008DB010008DB01000890
:1000E000DB010008DB010008DB010008DB01000880
:1000F000DB010008DB010008DB010008DB01000870
:10010000DB010008DB010008DB010008DB0100085F
:10011000DB010008DB010008DB010008DB0100084F
:10012000DB010008DB010008DB010008DB0100083F
:10013000DB010008DB010008DB010008DB0100082F
:10014000DB010008DB010008DB010008DB0100081F
:10015000DB010008DB010008DB010008DB0100080F
:10016000DB010008DB010008DB010008DB010008FF
:10017000DB010008DB010008DB010008DB010008EF
:10018000DB010008DB010008DB010008DB010008DF
:10019000DB010008DB010008DB010008DB010008CF
:1001A000DB010008DB010008DB010008DFF80CD0F0
:1001B00000F00EFB00480047110900082817002036
:1001C0000648804706480047FEE7FEE7FEE7FEE7F1
:1001D000FEE7FEE7FEE7FEE7FEE7FEE72D1000087C
:1001E000AD010008EFF3108072B6704780F31088FD
:1001F00070472B4A1368012B04D04FF001031360A2
:10020000284A1060284A116028484FF08051016048
:100210007047EFF3108272B62148016891B14FF038
:10022000000101601F48016829B1EFF3098121E94C
:10023000F00F006801601C4909680968B1E8F00F17
:1002400081F3098882F310884EF0040E7047164936
:10025000086014494FF00000086011494FF0010098
:10026000086013484FF47F01D0F8002041EA0201F2
:1002700001600E484FF0805101600E480068006830
:1002800080F3088861B662B67047EFF3098000B565
:1002900001F094FE5DF804EB4EF0040E7047000090
:1002A000BC000020B4000020B800002004ED00E0F5
:1002B00020ED00E008ED00E080EA010210B502F058
:1002C0000043400022D04A001FD0010E01EB126112
:1002D000C0F35600C2F3560240F4000042F400029C
:1002E000A0FB022000047F39140400D0401C50EA17
:1002F000124001D44000491EC2B20C0604EBD010DB
:10030000401C4008802A02D003E0002010BD20F0ED
:100310000100002900DA0020184310BD420005D07A
:10032000C0F3C7525242914201DC0020704700EBFB
:10033000C150704796230022114600F063B800F0C8
:10034000004230F000400AD0C10D01F56071C0F3E9
:10035000160042EA0151C2084007114370470020CD
:100360000146704730B50B4601460020202201248B
:1003700009E021FA02F59D4205D303FA02F5491B73
:1003800004FA02F52844151EA2F10102F1DC30BD89
:100390002DE9F05F0546002092469B4688460646BA
:1003A000814640241BE0284641464746224600F04D
:1003B00030FA53465A46C01A914110D31146184696
:1003C000224600F017FA2D1A67EB01084F46224625
:1003D0000120002100F00EFA17EB00094E41201E0B
:1003E000A4F10104DFDC484631462A464346BDE815
:1003F000F09F0029A8BF7047401C490008BF20F0AB
:100400000100704710B4B0FA80FC00FA0CF050EA1A
:10041000010404BF10BC704749B1CCF1200421FA9B
:1004200004F411FA0CF118BF012121430843A3EB96
:100430000C01CB1D4FEA00614FEA102042BF0020A3
:1004400010BC704700EBC35010440029A4BF10BC7F
:100450007047401C490008BF20F0010010BC7047E5
:100460002DE9FE4F804681EA0300C00F0C46009044
:1004700021F0004123F00045B8EB0200A94105D26C
:100480004046214690461C460B46024623F000405B
:10049000104347D0270DC7F30A00C3F30A51029057
:1004A000401A019040286BDAC3F3130040F4801B1C
:1004B0000098924620B10023D2EB030A63EB0B0BAA
:1004C00001985946C0F14002504600F093F90646A3
:1004D0000D4650465946019A00F0ABF910EB080062
:1004E0006141002487EA115284EAE7731A4340D03D
:1004F000009A62B3019A012A4FEA075215DC001BE9
:1005000061EB02014FF0004202EA0752CDE90042DE
:10051000001C41F5801132462B4600F0ABF903B0C8
:10052000BDE8F08F40462146F9E7001B61EB020170
:10053000001C41F5801300185B412018A2F500173C
:1005400047EB030140EAD570B6196D4111E06D0823
:100550004FEA360645EAC0754FEA0752001B61EBC9
:100560000201001C41F5801149084FEA30000019D2
:10057000514132462B4603B0BDE8F04F00F06BB955
:100580000098012240000023D0EB020263EBE073ED
:10059000009821464FEAE074B8EB000061EB0401DB
:1005A000E9E783F000435BE781F0004158E72DE97C
:1005B000FE4F81EA030404F0004421F0004100945E
:1005C0004FF0000B23F0004350EA01045ED052EAE2
:1005D00003045BD0C3F30A54C1F30A552C44A4F2BC
:1005E000F3340194A0FB0254C1F3130141F48011D0
:1005F000C3F3130343F4801301FB024400FB034ED7
:10060000840A970A44EA815447EA8357A4FB07689F
:1006100002958D0A05FB07854FEA932C04FB0C54C9
:100620002705029D4FEA065847EA1637B5EB08053D
:100630006EEB070C870E920E47EA811742EA83128F
:10064000A7FB0201B6EB0B0164EB00042B0D43EAA0
:100650000C335E1844EB1C50DA465146E7FB0201AE
:10066000C5F313044FEA0B3343EA14534FEA043241
:10067000019C43EA0603A4F10C040294009CCDE91A
:1006800000B400F0F7F803B0BDE8F08F0020014699
:10069000F9E72DE9F04D81EA030404F0004B21F065
:1006A000004514464FF0000A23F0004150EA0502CD
:1006B00020D054EA01021DD0C5F30A570246C5F303
:1006C0001303C1F31300C1F30A5640F4801543F439
:1006D0008013A7EB0608101BD64608F2FD3873EB13
:1006E000050002D308F1010801E092185B41B8F15E
:1006F000000F03DA00200146BDE8F08D00204FF422
:100700008011064684460EE0171B73EB050705D3E0
:10071000121B63EB050306434CEA010C49084FEA40
:10072000300092185B4150EA0107EDD152EA030014
:1007300012D082EA040083EA0501084305D0101BA9
:10074000AB4106D20122002306E000224FF0004315
:1007500002E06FF0010253101AEB06004CEB085157
:1007600010EB0A0041EB0B01BDE8F04D00F073B84F
:10077000C1F30A52C1F3130140F2FF3341F4801177
:100780009A4202DA00200146704740F233439A420F
:10079000A2F2334202DC524200F03BB800F02AB829
:1007A00030B5041E71F1000404DB4FF000444042F8
:1007B00064EB0101141E73F1000405DB1C464FF0CD
:1007C0000043524263EB0403994208BF904230BD9C
:1007D000064C074D06E0E06840F0010394E807008E
:1007E00098471034AC42F6D3FFF7E4FCC03200085F
:1007F000E0320008202A04DB203A00FA02F100204F
:1008000070479140C2F1200320FA03F3194390404E
:100810007047202A04DB203A21FA02F000217047B9
:1008200021FA02F3D040C2F1200291400843194658
:100830007047202A06DBCB17203A41FA02F043EA40
:10084000E07306E041FA02F3D040C2F12002914089
:1008500008431946704710B5141E73F1000408DAF6
:10086000401C41F1000192185B411A4301D120F074
:10087000010010BD2DE9F04D92469B4611B1B1FA31
:1008800081F202E0B0FA80F220329046FFF7B2FF28
:1008900004460F4640EA0A0041EA0B0153465A4615
:1008A000084313D0114653EA010019D0C8F14002A1
:1008B0005046FFF7AEFF05460E46504659464246A3
:1008C000FFF798FF084305D0012004E02046394691
:1008D000BDE8F08D0020054346EAE0762C4337431F
:1008E0000A986305E40AA0EB08000022FD0A44EA26
:1008F00047540A3002D500200146E9E701051019E6
:100900006941DDE9084500196941BDE8F04DA2E7FC
:1009100010B5FFF767FC02F093FB002010BD002923
:1009200004D0816841F0010181607047816821F045
:10093000010181607047000010B5074C226807492B
:100940000A40D0E900131943D0E9023003431943A8
:100950001143216010BD000004230140E030FCFF82
:10096000002904D0816841F48071816070478168FA
:1009700021F4807181607047002904D0816841F4BE
:10098000007181607047816821F400718160704757
:1009900030B542680F4B1A400C790B6842EA0422CA
:1009A0001343436083680C4A1340D1E90342224356
:1009B0004D798C6844EA450422431A438260C26A36
:1009C00022F47002097D491EC9B242EA0151C16296
:1009D00030BD0000FFFEFFFCFDF7FFC070B507262D
:1009E00009290AD9C568A1F10A0404EB4404A64008
:1009F000B543A3401D43C56007E0056901EB410411
:100A0000A640B543A3401D4305611F23072A09D211
:100A1000446B521E02EB820293409C4391400C4374
:100A2000446370BD0D2A09D2046BD21F02EB82020F
:100A300093409C4391400C43046370BDC46A0D3ADB
:100A400002EB820293409C4391400C43C46270BD10
:100A5000816841F0804181607047002904D00168BD
:100A600041F0010101607047016821F0010101605E
:100A70007047000030B50368124A1340CC680A681A
:100A80002243D1E905452C432243CC6922430C6A19
:100A900022434C6A22438C6A22434C6B22438C6B68
:100AA00022431A430260426922F00703D1E90B2472
:100AB00022431A4342610A6942604A688260896837
:100AC000C16030BD3F801CF070B586B00121084682
:100AD00000F01CF90121102000F026F900248DF807
:100AE000164001208DF8170002258DF815508DF85D
:100AF0001450400204901C4E04A9304600F038F80F
:100B00008DF814506902049104A9304600F030F8C1
:100B100007220A21304600F069F8072209213046F1
:100B200000F064F84FF4E1300090ADF80440ADF807
:100B30000640ADF80840ADF80C400C20ADF80A00B6
:100B40000A4C6946204600F0C7FA00F08DF80122F1
:100B500040F22551204600F0A4FA0121204600F081
:100B60008DFA06B070BD0000000002400010014088
:100B70002DE9F041002201274FF0030C07FA02F59E
:100B80000B682B40AB422CD1066853000CFA03F4DF
:100B9000A64306600E79D0F800809E4046EA08061B
:100BA00006600E79012E01D0022E12D18668A6436E
:100BB00086604E79D0F808809E4046EA0806866036
:100BC0004668AE43466045688E799640B6B2354376
:100BD0004560C568A543C560CC799C40C3681C438B
:100BE000C460521C102AC9D3BDE8F08110B54B0770
:100BF000DB0E9A40C90800EB8100016A0F249C407B
:100C0000A1430162016A1143016210BD2DE9FC415B
:100C10000121802000F07AF84FF4806400940120D4
:100C20008DF8040000218DF806108DF807008DF86E
:100C300005100C4F69463846FFF79AFF660000968C
:100C400069463846FFF794FFA50000956946384687
:100C5000FFF78EFF03481830048006800580BDE84A
:100C6000FC810000001C024008B54FF4A06000F0B9
:100C700043F825208DF8000001208DF801008DF843
:100C800002008DF80300684600F002F808BD00007D
:100C900030B50F23C27801250178002A1FD0154AEC
:100CA000126802F4E062C2F5E062C2F30722C2F108
:100CB0000404D3404278A24084781C4014432201AB
:100CC00001F1E02181F80024007800F01F018D403F
:100CD0004009800000F1E020C0F8005130BD01F073
:100CE0001F0085404809800000F1E020C0F88051D5
:100CF00030BD00000CED00E00249084302490860E5
:100D0000704700000000FA050CED00E0054A0029DC
:100D100003D011680143116070471168814311606D
:100D20007047000030380240054A002903D011689E
:100D300001431160704711688143116070470000E2
:100D40004438024070B5244B196801F00C01234C63
:100D500000291ED0224E04291DD008291DD0046070
:100D6000196801F0F00109091E4A545C0168E1406C
:100D700041601C6804F4E054A40A145D21FA04F4F0
:100D800084601B6803F460435B0BD25CD140C1609C
:100D900070BD0460E4E70660E2E70F4A121F1168C5
:100DA000C1F38055116801F03F0135B1B6FBF1F197
:100DB0001468C4F38814614305E0B4FBF1F11468CE
:100DC000C4F3881461431268C2F30142521C5200FA
:100DD000B1FBF2F10160C3E7083802400024F400DF
:100DE00040787D01140000207CB501210420FFF72C
:100DF0008DFF0820009003258DF8045000248DF805
:100E0000074069461048FFF7B3FE01210846FFF787
:100E10007DFF102000908DF804508DF807400B4E98
:100E200069463046FFF7A4FE01210846FFF76EFF32
:100E3000402100918DF804508DF8074069463046F6
:100E4000FFF796FE7CBD0000000802400000024053
:100E50002DE9F0419AB001218805FFF757FF32488C
:100E60000C9032480D9000240E9403270F97109495
:100E70004FF4806011904000129080001390461152
:100E8000149600011590169401251795189419943D
:100E90000B94DFF89C800BA94046FFF7EBFD012186
:100EA0004046FFF7DAFD01213046FFF73DFF019490
:100EB0002804029003944FF47060049001A8FFF797
:100EC0003BFD05948DF818508DF81950079409943E
:100ED0008DF82870144C05A94C3C2046FFF758FDAE
:100EE000002301220D212046FFF778FD0023022276
:100EF00004212046FFF772FD00230322062120462D
:100F0000FFF76CFD01212046FFF736FD0121204649
:100F1000FFF726FD01212046FFF701FD2046FFF7E0
:100F200097FD1AB0BDE8F0814C2001402800002058
:100F30001064024010B5FFF757FFBDE81040FFF7FF
:100F400087BF00001CB50021019100912E4A106856
:100F500040F4803010604FF4A043106800F400307B
:100F600000900198401C0190009810B90198984297
:100F7000F3D11068800302D50120009000E00091B9
:100F8000009801283FD120484030016841F080514D
:100F900001601E49086840F4404008601A48083063
:100FA00003680360036843F400430360036843F489
:100FB000A0530360041F164B2360136843F0807333
:100FC000136013689B01FCD50A6842F480320A6002
:100FD0004A68D203FCD50A6842F400320A604A68C3
:100FE0009203FCD50B4A40F205711160016821F0B3
:100FF00003010160016841F0020101600168C1F371
:1010000081010229FAD11CBD003802400070004065
:10101000195A4007003C024010B501F06FF801F08A
:10102000B1FDBDE8104001F077B8000010B50F48E1
:10103000016841F0010101600C4A00210832116091
:1010400002680B4B1A400260031D0A4A1A600268CC
:1010500022F48022026005480C300160FFF772FF25
:1010600005494FF00060086010BD000000380240E4
:10107000FFFFF6FE1030002408ED00E0002904D048
:10108000818941F4005181817047818921F40051A7
:10109000818170470246002012880A4200D0012058
:1010A000704710B540F66A13C1F3421301F01F04F4
:1010B0000121A140012B07D0022B07D014303AB1F7
:1010C00002680A43026010BD0C30F8E71030F6E702
:1010D00002688A43026010BD7FB504460D46208A2F
:1010E00020F44051E88808432082A08941F20C6135
:1010F0008843A9882A8911436A8902431143A1813F
:10110000A08A20F44071A8890843A0826846FFF7AE
:1011100019FE1E48844202D01D48844201D1039822
:1011200000E00298A189090408D500EBC00101EB99
:10113000001029684900B0FBF1F007E000EBC001A6
:1011400001EB001029688900B0FBF1F06422B0FBCC
:10115000F2F109010B096FF018056B4300EB8300F6
:10116000A3891D044FF0320307D503EBC000B0FB89
:10117000F2F000F00700084306E003EB0010B0FBBC
:10118000F2F000F00F00084320817FBD0010014005
:1011900000140140C1F30801818070470FB4054B72
:1011A00010B503A9044A029800F008F910BC5DF8D4
:1011B00014FB0000AD1B0008C0000020002807D071
:1011C0000F4910F0FF0F05D0C0B2085C401C7047FB
:1011D0000020704710F47F4F04D0C0F30720085C54
:1011E0000930704710F47F0F04D0C0F30740085C4B
:1011F0001130704701EB1060007819307047000023
:101200008C31000802E008C8121F08C1002AFAD178
:1012100070477047002001E001C1121F002AFBD176
:10122000704700002DE9FF5F82B00021DDE9043046
:10123000020DDDF840B0034318D044F61050A2F27E
:10124000FF3242431514119801281FD0A5EB0B0063
:10125000401C5FEA000A4FF000064E4FDFF838915D
:10126000B046504615D5CAF1000413E01198012488
:101270004AA3012801D16FEA0B010298119AC0E933
:101280000031C0E9024206B0BDE8F09FCBF100009A
:10129000DFE704460021404A491842EB0450CDE9FB
:1012A000001012E0E00707D032463B464046494670
:1012B000FFF77DF98046894632463B46104619467F
:1012C000FFF775F906460F466410002CEAD1DDE9F8
:1012D0000401DDE90023BAF1000F06DAFFF767F930
:1012E00042464B46FFF763F905E0FFF7D2F9424665
:1012F0004B46FFF7CEF904460E460022284BFFF777
:101300004FFA03D84FF0FF30014607E00022254B8B
:1013100020463146FFF7A4F8FFF72AFA102409E027
:10132000002C0ADB0A220023FFF732F8039B30323D
:101330001A55641E50EA0102F2D1641C039AC4F1EA
:1013400011031444119A012A03D0012208430DD13C
:101350000AE0084304D000204FF0110B119072E70F
:10136000A3EB0B056D1E0DE05B4504DD4FF00002A5
:1013700005F1010504E003DA4FF00002A5F10105D3
:10138000002AECD002981199C0E90231C0E9004569
:1013900079E70000000014400000F03F300000003A
:1013A0000000F0430000E03F03480168814201D0A3
:1013B00001207047002070479C0000202DE9FF4F5E
:1013C00095B09B468946064600250FE2252877D131
:1013D00000242746F84A0121059400E0044316F84A
:1013E000013F203B01FA03F01042F7D130782A2860
:1013F00011D06FF02F033078A0F13002092A16D8EF
:10140000059A44F0020402EB820203EB420210440C
:10141000761C0590EFE759F8042B0592002A03DAB1
:10142000504244F40054059044F00204761C307895
:101430002E2816D116F8010F44F004042A280DD0E6
:101440006FF02F023078A0F13003092B09D807EB99
:10145000870302EB4303C718761CF3E759F8047BB4
:10146000761C30786C280FD006DC4C2817D0682802
:101470000DD06A2814D104E0742810D07A280FD136
:101480000DE044F400140AE044F4801401E044F454
:1014900040147278824202D104F58014761C761CC6
:1014A000307866280BD013DC582877D009DC002868
:1014B00075D04528F6D04628F4D047281AD19DE1AA
:1014C00018E0632835D0642879D0652812D195E1D9
:1014D000702873D008DC6728F1D069286FD06E2897
:1014E0000DD06F2806D1B5E073282CD0752875D0A3
:1014F000782874D05A46179990476D1C75E1C4F34B
:101500000250022809D003280DD0D9F80010042871
:101510000DD00D6009F1040967E1D9F80010EA1750
:10152000C1E90052F6E7D9F800100D80F2E70D701E
:10153000F0E719F8041B8DF8001000208DF8010069
:10154000EA46012003E059F804AB4FF0FF30610791
:101550004FF0000102D40DE008F101018846B942C4
:101560000FDA8045F8DB1AF808100029F4D108E0FA
:1015700008F1010188468142FADB1AF808100029B7
:10158000F6D105985B46A0EB080721463846179A26
:1015900000F094FA284400EB080507E04DE029E14B
:1015A0000DE01AF8010B5A4617999047B8F1010857
:1015B000F7D25B4621463846179A13E142E00A22E9
:1015C0000092C4F302524FF0000A022A08D059F8E0
:1015D00004CB032A4FEAEC710AD00DE029E02AE09F
:1015E00009F1070121F00702F2E802C1914609E082
:1015F0000FFA8CFC4FEAEC71042A03D14FFA8CFCF1
:101600004FEAEC71002907DA0A460021DCF1000CF0
:1016100061EB02012D2202E0220504D52B228DF878
:101620000420012203E0E20701D02022F7E79046E0
:1016300059E00A2102E010220DE010214FF0000ACB
:1016400000910BE010224FF0000A44F00404082738
:10165000009203E008224FF0000A0092C4F3025205
:10166000022A05D059F804CB0021032A08D009E04A
:1016700009F1070121F00702F2E802C1914605E0F5
:101680001FFA8CFC042A01D10CF0FF0C4FF000086B
:10169000220728D5702806D0009B83F0100353EA58
:1016A0000A0305D00EE040228DF80420012208E054
:1016B0005CEA010206D030228DF804208DF8050086
:1016C00002229046009B83F0080353EA0A030AD1E2
:1016D0005CEA010201D1620705D530228DF80420B1
:1016E0004FF001087F1E582804D034A003900EA8A4
:1016F00002900DE036A0F9E753466046009AFEF7E7
:1017000047FE84460398825C0298401E0290027055
:101710005CEA0100F0D1029806A9081A00F1200A3B
:10172000600702D524F4803400E00127574502DD2C
:10173000A7EB0A0000E0002000EB0A0100900598EA
:101740004144401A0590E00306D45B462146179AAF
:10175000059800F0B3F90544002706E001A85A46B1
:10176000C05D179990476D1C7F1C4745F6DBE00371
:101770000CD55B462146179A059800F09FF9054461
:1017800004E030205A46179990476D1C0099481E76
:1017900000900029F5DC08E0029802995A4600788A
:1017A000491C0291179990476D1CBAF10001AAF1EA
:1017B000010AF1DC65E10000092801003031323313
:1017C000343536373839616263646566000000007D
:1017D0003031323334353637383941424344454667
:1017E0000000000000F058F90544761C307800280D
:1017F0007FF4ECAD19B02846BDE8F08F620700D445
:10180000062709F1070222F0070CFCE80223E14653
:1018100003F000485FEA080C02D00FF2702C0DE0D4
:101820005FEA045C02D50FF2682C07E05FEAC47C33
:1018300002D00FF2602C01E0AFF2700C4FF0FF38D5
:1018400023F00043CDF850C065280CD006DC4528B5
:1018500009D046281DD047283DD13DE0662818D044
:1018600067287ED138E00021112F01DB112000E034
:10187000781CCDE9000106A90EA8FFF7D3FCDDE92D
:101880000F010E9A03910021009207F1010A0491C1
:101890004DE04FF000400097CDE9011006A90EA8D9
:1018A000FFF7C0FCDDE90F0203920E9B11990022A5
:1018B000DDF80CA00093049211B9791C00EB010A29
:1018C000B7EB0A0004D4C0F1FF3007F1010A04901D
:1018D000AAEB0700019044E0012F00DA0127002164
:1018E000112F01DD112000E03846CDE9000106A9E5
:1018F0000EA8FFF797FCDDE90F010E9A0391002176
:1019000004910092BA4621070CD40399514500DA9C
:101910008A46BAF1010F05DD009AAAF10101515C76
:10192000302908D0B84202DA10F1040F06DA01219A
:10193000CDE9011015E0AAF10101E9E7002805DC75
:10194000049901440491AAEB000102E0411C5145B5
:1019500000DD8A460499401A401C01904FF0004077
:101960000290200704D40198504501DBCDF8048093
:1019700000208DF84F0002980DF14F07B0F1004F95
:1019800025D02B200E9002984FF0020800280CDA88
:10199000404202902D200E9007E00A210298FEF7A7
:1019A000E1FC3031029007F8011DB8F10001A8F107
:1019B0000108F2DC02980028EFD1791E0E98087019
:1019C000307800F0200040F0450007F8020D12A822
:1019D000C01B00F107081498007800B1012000EB4B
:1019E0000A01019801EBE07105984144401A401E3C
:1019F0000590E00306D45B462146179A059800F04F
:101A00005DF805441498007818B15A461799904724
:101A10006D1CE00324D55B462146179A059800F01B
:101A20004DF805441CE00498002807DBDDE90301BC
:101A3000884203DD0098405C179901E01799302037
:101A40005A469047049805F10105401C04900198FE
:101A5000401E019004D12E205A46179990476D1CC4
:101A6000BAF10001AAF1010ADDDC05E017F8010B6B
:101A70005A46179990476D1CB8F10001A8F101086A
:101A8000F4DC5B462146179A0598ABE62D00000072
:101A90002B000000200000002DE9F0410446002545
:101AA0001E461746880404D405E039462020B04776
:101AB0006D1C641EF9D52846BDE8F0812DE9F04182
:101AC000044600251E469046C80301D5302700E095
:101AD0002027880404D505E041463846B0476D1CF0
:101AE000641EF9D52846BDE8F08100002DE9FC41CF
:101AF0001F46DDE90A65DDE90831044604F11400FA
:101B0000406000601C346260A760E36021610A46A7
:101B10002321184600F00CFCD4E903014218D4E953
:101B20000101121F0D4B00F0CBFA2060A6766676FD
:101B30000020E06125626562606120766065A065D5
:101B40001C3C009001902346054A214604F14400C4
:101B500001F08EF80020BDE8FC810000B5280008E7
:101B6000F92A000810B5029C24F001044472C161F6
:101B7000026200218162436200EBC10214325260B2
:101B80001260491C0129F7DB10BD10B5002200EBE3
:101B9000C2011431D1E900436360D1E9003423600C
:101BA00049600960521C012AF1DB10BD70B5044682
:101BB000064DE1B22846FFF7EDFA80212846FFF7EF
:101BC00069FA0028F9D0204670BD000000100140DD
:101BD0001CB514200321CDE900104FF4007300223E
:101BE000064907A000F03DFE0749086018B100F063
:101BF0004FFF00201CBD4FF0FF301CBD953000088A
:101C000074657374000000002400002010B500F01B
:101C1000E7F8BDE81040FFF7DBBF000030B5134C1C
:101C200041682268114402F1080388420DD04D88B2
:101C30005DB96568A94208D0A5688D4200D1A06051
:101C40004D6845604968851ACD50816811448142CC
:101C50000BD04D88002D08D1A568854200D1A16028
:101C600044684C604068891AC15030BD380000207B
:101C70002DE9FF4FDDE90DB60F9D6C0602D5DFF8AB
:101C800014A103E0DFF80CA1AAF1110AEC0601D5BA
:101C900025F00105EC0702D04FF0300901E04FF0CC
:101CA00020090027AC070BD5002A02DA2D27524263
:101CB00006E06C0701D52B2702E02C0700D5202772
:101CC0000024EE467AB9302201248DF800200CE081
:101CD0000A2B15D002F00F081209A4461AF8088042
:101CE000641C0EF80C80002AF2D1B44200DD2646B6
:101CF000ABEB060215F0110F4FF0200309D016E0F0
:101D00004FF00A0CB2FBFCF80CFB1828B2FBFCF2FB
:101D1000E3E73FB1002A05DD521E03E0884200D808
:101D20000370401CB2F1000CA2F10102F6DC27B1F5
:101D3000884201D80770521E401CED0605D508E008
:101D4000884201D880F80090401C151EA2F10102C3
:101D5000F6DC302703E0884200D80770401C354687
:101D6000761EA542F7DC05E0884202D81EF8045032
:101D70000570401C251EA4F10104F5DC03E0884237
:101D800000D80370401C141EA2F10102F7DC04B05D
:101D9000BDE8F08F9D3200081CB502211420CDE96A
:101DA00000100B020022044904A000F05AFDBDE817
:101DB0001C4000F06DBE00000D1C00086D61696ED6
:101DC0000000000070B5044C044D02E0206880471C
:101DD000241DAC42FAD370BDB4320008B8320008FA
:101DE00070B5044C044D02E020688047241DAC42CD
:101DF000FAD370BDB8320008BC32000810B5FEF747
:101E0000F1F9044A5188491C5180BDE81040FEF7A1
:101E1000EDB900009000002010B5FEF7E3F9094A83
:101E20005188491E09B25180002907DC00215180E8
:101E3000FEF7DCF9BDE8104000F01ABBBDE8104029
:101E4000FEF7D4B99000002070B5002833D01A4DA9
:101E5000296888422FD3696888422CD2A0F10C04EB
:101E60004FF0FF31154800F0BEFB60884FF4F55687
:101E700010B12088B04208D011A000F089F9238861
:101E80006288214615A000F083F90020608026803A
:101E9000A868844200D2AC6029686068611A401A60
:101EA0002969081A28612046FFF7B8FEBDE870408E
:101EB000024800F07ABB70BD38000020C812002034
:101EC000746F2066726565206120626164206461C0
:101ED000746120626C6F636B3A0A00006D656D3A45
:101EE000203078253038782C207573656420666C36
:101EF00061673A2025642C206D6167696320636FF8
:101F000064653A203078253034780A0000487047FC
:101F1000C400002000487047C410002010B51248CB
:101F20004FF47A710068B0FBF1F0401EB0F1807F91
:101F300009D24FF0E02148610C4AF02010700020D7
:101F4000886107200861FEF761FEFEF7BDFDFFF71F
:101F500039FFFFF7DFFF0446FFF7D8FF2146BDE852
:101F6000104000F0EBBB00000000002023ED00E07B
:101F700070B50446FFF742FF0F4D16E00A2809D15D
:101F80000D212846FFF706F980212846FFF782F841
:101F90000028F9D014F8011B2846FFF7FBF8802130
:101FA0002846FFF777F80028F9D020780028E5D1F7
:101FB000BDE87040FFF730BF0010014010B5044687
:101FC00017480168002903D020468847002826D0FA
:101FD00014A0E16900F0DCF816A0A16900F0D8F8BF
:101FE00018A0616900F0D4F81AA0216900F0D0F8B7
:101FF0001CA0E16800F0CCF81EA0A16800F0C8F8B1
:1020000020A0616800F0C4F822A0216800F0C0F8A8
:1020100000F018FD014623A000F0BAF8FEE710BD5D
:10202000B00000207073723A203078253038780A7A
:10203000000000002070633A203078253038780A9C
:1020400000000000206C723A203078253038780A81
:10205000000000007231323A203078253038780A9A
:10206000000000007230333A203078253038780A8A
:10207000000000007230323A203078253038780A7B
:10208000000000007230313A203078253038780A6C
:10209000000000007230303A203078253038780A5D
:1020A0000000000068617264206661756C74206FC6
:1020B0006E207468726561643A2025730A0000001E
:1020C00070B50646121D22F00700A0F14005284613
:1020D0000022094C40F82240521C102AFAD3016217
:1020E000002141628162C1620163436386634FF0F4
:1020F0008071C163284670BDEFBEADDE10B5FEF73E
:1021000071F8044A1178491C1170BDE81040FEF7BF
:102110006DB800003400002010B5FEF763F8044AE3
:102120001178491E1170BDE81040FEF75FB800003D
:10213000340000202DE9F04105460E461446304695
:1021400000F0B9FC06F1140714B1012C1DD104E014
:102150003946284600F043F817E02C680DE0A4F15A
:10216000140096F8351090F83520914204D2394683
:10217000143000F034F802E02468AC42EFD1AC42F5
:1021800003D13946284600F02AF80020BDE8F08146
:102190000FB408B503AB00937F210548029A00F005
:1021A000FFFD0348FFF7E4FE01B05DF814FB0000FB
:1021B000481200200268516002680A6001604860AD
:1021C00070470268516002680A60016048607047A9
:1021D0000268516002680A600160486070474268A6
:1021E000116042684A60416008607047016881423E
:1021F00001D101207047002070470168814201D160
:102200000120704700207047D0E900215160D0E9DB
:1022100000121160406000607047D0E900215160F9
:10222000D0E9001211604060006070472DE9F0476E
:10223000002809D0C01C20F003053B4EF068854201
:1022400004D90020BDE8F0870020FBE70C2D00D268
:102250000C254FF0FF31354800F0C5F9B7683168FB
:10226000781AD6F80CC0ACEB050356E00C1862885F
:102270008ABB6268121A0C3AAA424DD3626805F111
:102280001803121A0C3A4FF001094FF4F5589A420C
:1022900022D343190C33CA18A2F800804FF0000A69
:1022A000A2F802A0D4F804A0C2F804A09060636071
:1022B000A4F8029050680CF10C0C604502D001F1BA
:1022C00008028350306928440C30306172698242C0
:1022D0000ED270610CE01FE0A4F802906068621AF0
:1022E000801A3269104430617269824200D2706192
:1022F000A4F80080BC4203D008E040680844B06005
:10230000B068428812B172689042F6D1074800F076
:102310004CF904F10C0095E760688342A6D80348A5
:1023200000F043F900208DE738000020C81200209B
:1023300010B50346CCB2042A15D3810713D1014648
:1023400044EA042343EA034305E00B604B608B60DF
:10235000CB601031103A102AF7D201E008C1121FE9
:10236000042AFBD20B46E1B201E003F8011B521E26
:10237000541CFAD110BD2DE9F04106460F463046F7
:1023800000F03EF80546E868FFF750FF0446ACB1A0
:1023900026720020607208223946204600F0BAF901
:1023A000FDF720FF064604F10C01281DFFF702FF90
:1023B0003046FDF71BFF2046BDE8F0810020FBE71B
:1023C00070B50446FDF70EFF054604F10C00FFF75B
:1023D0001BFF2846FDF70AFF2046BDE87040FFF7C7
:1023E00033BD70B50446FDF7FDFE054604F10C0053
:1023F000FFF70AFF2846BDE87040FDF7F7BE000072
:102400000021074A02EB01131B78834202D102EB41
:1024100001107047491C0429F4DB002070470000BC
:10242000500000202DE9F04104460D46174628468D
:10243000FFF7E6FF064645F0800020720822394685
:10244000204600F067F9FDF7CDFE054604F10C01CA
:10245000301DFFF7AFFE2846BDE8F041FDF7C6BED0
:10246000007A000601D50120704700207047000067
:1024700070B5FDF7B7FE0546174C608820B12846B9
:10248000BDE87040FDF7B2BEA068FEF797FE421EA1
:10249000124850F8321014396068814216D0227008
:1024A00061600F4A127842B11C311C30FDF7A1FE69
:1024B0002846BDE87040FDF799BE1C311C30FDF781
:1024C00098FE2846BDE87040FDF790BE2846BDE85E
:1024D0007040FDF78BBE000090000020E812002045
:1024E0003400002010B50446FDF77CFE024614F8C7
:1024F000340F20F00F00401C207060780A49343CF3
:1025000001EBC00104F114004B6818604B68436094
:10251000486001600548A16B836819438160BDE88C
:1025200010401046FDF762BEE81200209000002027
:1025300070B50546FDF756FE014605F11404D4E9D1
:1025400000205060D4E9000210606460246095F8B7
:1025500035000A4A02EBC0000268824201D1012024
:1025600000E0002020B10648AB6B82689A4382608D
:10257000BDE870400846FDF739BE0000E8120020B3
:10258000900000202DE9F041054616461F460A46F8
:1025900001212846FFF746FF2C461434646024606E
:1025A000AE836F720020BDE8F08170B5044600254F
:1025B000FDF718FE064604F11400FFF717FE40B1C0
:1025C000A08B401CA0833046FDF710FE012D06D0E5
:1025D00007E06069143800F017FA0125F3E7FFF708
:1025E00047FF002070BD73B50446FDF7FBFD0646AE
:1025F000A08B28B1401EA0833046FDF7F7FD21E0F7
:10260000019808B300F01EFA054600202863627A9C
:10261000294604F11400FFF78DFD0198002809DD1B
:1026200005F1440001AA0021044600F0F7FA204613
:1026300000F034FB3046FDF7D9FDFFF719FF286B9A
:10264000002800D100207CBD3046FDF7CFFD6FF0A3
:1026500001007CBD08B509A0FFF79AFD0AA0FFF7AD
:1026600097FD12A0032300900022194612A0FFF745
:102670008FFDBDE8084018A0FFF78ABD0A205C2046
:102680007C202F0A000000002D205254202D2020F5
:10269000202020546872656164204F7065726174F7
:1026A000696E672053797374656D0A0053657020F5
:1026B0003135203230313800202F207C205C202022
:1026C00020202025642E25642E2564206275696CE7
:1026D000642025730A0000002032303036202D207F
:1026E0003230313820436F707972696768742062C4
:1026F000792072742D746872656164207465616DEF
:102700000A000000014600E0491C0A78002AFBD1BB
:10271000081A704710B5002A07D0034611F8014B7C
:1027200003F8014B14B1521EF8D110BD002101E095
:1027300003F8011B521EFBD110BD000070B5054609
:102740000A46E81C20F0030122F00303182B21D9CC
:10275000A3F118048C421DD3114C5A1A183AE260A6
:1027600021604FF4F5530B800C324A6000208860E2
:1027700048804868084460600380012141804260CD
:1027800082600023012207A10848FFF7FBFE2068B2
:10279000A06070BD2946BDE8704005A0FFF7F8BCF9
:1027A000380000206865617000000000C812002039
:1027B0006D656D20696E69742C206572726F722070
:1027C000626567696E206164647265737320307836
:1027D00025782C20616E6420656E642061646472CB
:1027E00065737320307825780A00000010B50A4B15
:1027F00000245C800020094A02EBC00149600960A6
:10280000401C0828F8DB072018705C609C600248B8
:102810000C304060006010BD90000020E8120020E5
:1028200010B5074CA068FEF7C9FC401E054951F8D9
:10283000300014386060BDE810401C30FDF707BD63
:1028400090000020E81200200020044A02EBC001A2
:1028500049600960401C0028F8D07047A80000209B
:1028600070472DE9FF478046DDE90C6789469246AF
:102870001D4641460020FFF77EFD044620000FD094
:102880002846FFF7D3FC68B18DE8E10053464A467D
:1028900041462046FFF72AF9204604B0BDE8F087FC
:1028A0000020FAE72046FFF78BFD0020F5E700F057
:1028B000CFB8000070B513480468FDF793FC0546D7
:1028C0002046FFF735FE042084F8340004F144006C
:1028D00000F0BEF92046FFF7C3FD012801D1206FAB
:1028E00058B104F114010848FFF76BFC2846FDF7C6
:1028F0007DFCBDE87040FFF7BBBD2046FFF771FDD2
:10290000F4E70000940000209C00002000F002F892
:10291000FCE7000070B527E0FDF764FC0646FEF713
:1029200043FD68B319480468A4F11405D4E9001004
:102930004860D4E90001086064602460FFF75EFA33
:10294000296F09B1284688472846FFF789FD0128E5
:102950000FD0FFF761FA3046FDF748FCA86AFFF791
:1029600073FA2846FFF72CFDFEF71EFD0028D3D191
:1029700070BDFFF751FA3046BDE87040FDF736BC38
:102980003046BDE87040FDF731BC00009C000020DF
:102990001FB52020C2000721094BCDE90210CDE967
:1029A000003207480023074A07A1783800F010F8E2
:1029B00004B00348BDE81040783800F069B8000062
:1029C000481100200D2900087469646C650000003E
:1029D0002DE9FF5F8146DDE90E76DDE9105488467A
:1029E00092469B46424600214846FFF71BFDCDE933
:1029F0000076CDE902545B46524641464846FFF711
:102A000075F804B0BDE8F09F70B5044694F8340042
:102A100000F00F00022802D04FF0FF3070BDFDF72C
:102A2000E1FB054604F11400FFF7F7FB04F1440055
:102A300000F09EF92846FDF7D9FB2046FFF752FD2E
:102A4000002070BD0148006870470000940000201D
:102A5000F1B5FDF7C7FB05460C480468204600F0B9
:102A60002AF804F144006A460021064600F0D6F830
:102A7000304600F013F92846FDF7B8FBFFF7F8FCE5
:102A8000206B801C00D120630020F8BD9400002042
:102A900010B534308178417001228A4042600221B1
:102AA00000F83419FFF7B0FFFFF7CCFF08B1FFF7CC
:102AB000DFFC002010BD70B5044694F8340000F02F
:102AC0000F00012802D04FF0FF3070BDFDF78AFBE8
:102AD000054694F8340020F00F00801C84F8340080
:102AE0002046FFF725FD04F1440000F041F9284697
:102AF000FDF77CFB002070BD10B504466FF00100AF
:102B0000206304F11400FFF788FB2046FFF7EAFC7E
:102B1000BDE81040FFF7ACBC70B5FDF763FB06469F
:102B20001348046894F8340000F00F0001281AD10B
:102B3000D4E90501884216D004F114000546FFF7D8
:102B40006CFB94F835000B4901EBC00041680D6047
:102B500041686960456028603046FDF747FBFFF734
:102B600087FC002070BD3046FDF740FB002070BDA3
:102B700094000020E812002001480068704700001F
:102B80003000002010B509490868401C0860FFF7B4
:102B900059FF016C491E016419B9C16B0164FFF74B
:102BA000BBFFBDE8104000F003B80000300000207B
:102BB00070B5FFF7E1FF0646FDF714FB054620E080
:102BC00015480468143C6FF00041A06A301A88422E
:102BD0001CD22046FEF7D9FFD4E907108847FFF73B
:102BE000CBFF0646607A810708D5C10706D020F0E2
:102BF00001006072204600F051F802E020F0010070
:102C000060720548FFF7F9FA0028D9D02846BDE8D8
:102C10007040FDF7EBBA0000A8000020002909D0A1
:102C2000012904D0022908D003290FD10AE0406A03
:102C300010600BE01168416208E0417A21F0020166
:102C4000417203E0417A41F0020141720020704775
:102C500070B50546FDF7C6FA04462846FEF795FF0F
:102C60002046FDF7C3FA2846FFF7BBFB002070BDE6
:102C70002DE9F8430746DDE9088415461E460A4655
:102C800009213846FFF7CEFB4346324629463846EF
:102C90000094FEF767FFBDE8F88300002DE9F843D4
:102CA0000446FDF79FFA05462046FEF76EFF607A60
:102CB00020F0010060722846FDF798FAFFF75CFFEC
:102CC000616A0844A062FDF78DFA0746DFF89CC0F0
:102CD000CDF800C000226E460CEBC20045680DE046
:102CE0000068A0EBC201A36A4969994204D0C91ADD
:102CF0006FF00043994205D346F8220056F82200AF
:102D0000A842EDD12AB156F822100831531C46F8DA
:102D10002310521C002ADFD01448001FD0F8008076
:102D200008F10108C0F8008004F114010098FFF7D1
:102D30004FFA02250EE05FEA88700DD1C5F101005F
:102D400004EBC001143156F82000FFF741FA4FEAB6
:102D500098086D1C012DEED9607A40F00100607278
:102D60003846FDF743FA0020BDE8F883A8000020AC
:102D700070B50446607AC0070ED0FDF733FA0546F9
:102D80002046FEF702FF2846FDF730FA607A20F071
:102D900001006072002070BD4FF0FF3070BD000078
:102DA0002DE9FF4F83B082460AEB01077F1E544690
:102DB000A74201D24FF0FF374FF020094FF0250B0B
:102DC00012E1252804D0BC4200D82070641C08E120
:102DD00000250599491C059108782D2814D02B2829
:102DE00015D0202816D0232817D0302818D04FF01F
:102DF000FF384646059A1278303A0A2A13D205A8B7
:102E000000F033F906461AE045F01005E1E745F019
:102E10000405DEE745F00805DBE745F02005D8E7C7
:102E200045F00105D5E72A2809D1491C05910698E6
:102E300040C80690002E02DA764245F0100505984B
:102E400001782E2918D1401C05900178A1F130029B
:102E50000A2A04D205A800F008F9804607E02A29CA
:102E600005D1401C0590069850F8048B0690B8F1E7
:102E7000000F01DA4FF000080021059A1078682849
:102E800001D06C2802D10146521C05920A230598F4
:102E900000786F2871D00CDC632820D004DC252852
:102EA0006CD058280DD187E0642801D0692808D15A
:102EB00086E0702863D073282FD0752871D07828C9
:102EC0007CD0BC4201D884F800B0641C0599087815
:102ED000002868D0BC4200D82070641C81E0E8065D
:102EE00005D507E0BC4201D884F80090641C761E2A
:102EF000002EF7DC069810F8041B0690C8B2BC42FE
:102F000000D82070641C04E0BC4201D884F8009012
:102F1000641C761E002EF7DC63E0069808C8069055
:102F200003B941A31846FFF7EDFBB8F1000F02DD2E
:102F3000404500DD4046E90605D508E0BC4201D821
:102F400084F80090641C3146761E8142F6DC002134
:102F500006E0BC4201D81A782270641C5B1C491C34
:102F60008142F6DB04E0BC4201D884F80090641C86
:102F70003146761E8142F6DC33E01BE014E0701C23
:102F800002D1082645F00105CDE9006806980295B2
:102F9000102304C8069039462046FEF769FE044611
:102FA0001FE00FE00AE028E0BC4201D884F800B03E
:102FB000641C16E0082305E045F04005102301E0FD
:102FC00045F002056C291BD068291DD0069804C85D
:102FD0000690CDE90068394620460295FEF748FE86
:102FE00004460598401C05900598007800287FF459
:102FF000E8AEBC4211D8207010E0491E0591F0E700
:10300000069804C80690E4E7069830F8041B06907A
:103010008AB2A807DDD512B2DBE7387007B0A4EB9F
:103020000A00BDE8F08F0000284E554C4C290000E6
:103030000020704700207047002070470020704734
:1030400010B5FDF7CFF8FEF769FFFFF703FBFFF7B9
:10305000FBFBFFF7CBFBFEF79FFEFFF701FCFFF743
:1030600097FCFFF7DDFB002010BD10B502460020E5
:103070006FF02F0407E04B1C1360097800EB800011
:1030800004EB4000084411680B78303B0A2BF2D364
:1030900010BD0000FDF74EFF224D234F234C6FF073
:1030A0000B064FF47A792888FDF744F93146FDF78D
:1030B00035F93946FDF700F9804620606888FDF74C
:1030C00039F93146FDF72AF93946FDF7F5F8606020
:1030D000A888FDF72FF93146FDF720F93946FDF7AD
:1030E000EBF8A0604046FDF72AF902460B4610A017
:1030F000FEF754F86068FDF722F902460B4613A06C
:10310000FEF74CF8A068FDF71AF902460B4616A028
:10311000FEF744F81BA0FFF73BF84846FFF7C7FB54
:10312000C1E700002800002033335340C4100020C2
:103130000D0A204348315F43332076616C7565206A
:103140003D2025662056200D0A0000000D0A204370
:1031500048325F5041342076616C7565203D2025F2
:10316000662056200D0A00000D0A204348335F50A8
:1031700041362076616C7565203D202566205620FD
:103180000D0A00000D0A0D0A0000000000000100F9
:103190000200010003000100020001000400010020
:1031A000020001000300010002000100050001000F
:1031B0000200010003000100020001000400010000
:1031C00002000100030001000200010006000100EE
:1031D00002000100030001000200010004000100E0
:1031E00002000100030001000200010005000100CF
:1031F00002000100030001000200010004000100C0
:1032000002000100030001000200010007000100AC
:10321000020001000300010002000100040001009F
:10322000020001000300010002000100050001008E
:10323000020001000300010002000100040001007F
:10324000020001000300010002000100060001006D
:10325000020001000300010002000100040001005F
:10326000020001000300010002000100050001004E
:10327000020001000300010002000100040001003F
:10328000020001000300010002000100303132336E
:1032900034353637383961626364656600303132FF
:1032A000333435363738394142434445460000000F
:1032B0003D30000835300008313000083930000852
:1032C000E032000800000020C400000004120008E2
:1032D000A4330008C4000020641600001412000883
:1032E0000095BA0A0000000000000000010203047B
:1032F000060708090000000001020304010203049C
:10330000060708090000000000000000000000009F
:1033100000000000000000000000000000000000AD
:10332000000000000000000000000000000000009D
:10333000000000005400002054000020780000002D
:103340000100000064000020640000202000000054
:103350000400000074000020740000203000000011
:103360000900000084000020840000202C000000E0
:10337000000000000000000000000000000000004D
:10338000000000000000000000000000000000003D
:10339000000000000000000000000000000000002D
:0433A0000000000029
:04000005080001AD41
:00000001FF
